:020000040800F2
:100000005004002045010008D9040008D10400086C
:10001000D5040008A3030008790A000800000000C6
:10002000000000000000000000000000F9050008CA
:10003000A70300080000000001050008E50600080D
:100040005F0100085F0100085F0100085F01000810
:100050005F0100085F0100085F0100085F01000800
:100060005F0100085F0100085F0100085F010008F0
:100070005F0100085F0100085F0100085F010008E0
:100080005F0100085F0100085F0100085F010008D0
:100090005F0100085F0100085F0100085F010008C0
:1000A0005F0100085F0100085F0100085F010008B0
:1000B0005F0100085F0100085F0100085F010008A0
:1000C0005F0100085F0100085F0100085F01000890
:1000D0005F0100085F0100085F0100085F01000880
:1000E0005F0100085F0100085F0100085F01000870
:1000F0005F0100085F0100085F0100085F01000860
:100100005F0100085F0100085F0100085F0100084F
:100110005F0100085F0100085F0100085F0100083F
:100120005F0100085F0100085F0100085F0100082F
:10013000DFF80CD000F02EF800480047350C00081E
:10014000500400200648804706480047FEE7FEE7C7
:10015000FEE7FEE7FEE7FEE7FEE7FEE7FEE7FEE777
:10016000850800083101000830B50B460146002023
:100170002022012409E021FA02F59D4205D303FA69
:1001800002F5491B04FA02F52844151EA2F10102EA
:10019000F1DC30BD064C074D06E0E06840F001039D
:1001A00094E8070098471034AC42F6D3FFF7C4FF39
:1001B000600E0008800E000830B5024600230024BF
:1001C00004E000200870491C601CC4B2082CF8DB55
:1001D0000839002407E01078042801D1012030BD3F
:1001E000521C601CC4B2132CF5DB133A002410E03F
:1001F0001078012802D01078022802D1581CC3B20E
:1002000004E01078032801D1981CC3B2521C601C72
:10021000C4B2092CECDB184603EBD0756D10A3EBD0
:1002200045053DB91078012802D01078032808D17F
:100230000220D4E7107810B11078022801D10220F2
:10024000CDE70023521C002410E01078012802D0D2
:100250001078022802D1581CC3B204E01078032899
:1002600001D1981CC3B2521C601CC4B2082CECDB38
:10027000184603EBD0756D10A3EB45053DB910781A
:10028000012802D01078032808D10320A7E71078AE
:1002900010B11078022801D10320A0E7123A10789B
:1002A00010B9012008700AE01078012802D1152049
:1002B000087004E01078022801D129200870491C38
:1002C000921C0D78107805EB80000870521C08789D
:1002D000157828440870491C521C0D78107805EBDD
:1002E00000100870521C0D78107805EB8000087023
:1002F000521C0878157828440870491C521C0D7847
:10030000107805EB80000870521C08781578284496
:100310000870491C521C107810B11078012802D1C5
:100320000020087001E001200870491C521C0D7863
:10033000107805EB00100870521C0D78107805EB52
:1003400080000870521C0878157828440870491CF1
:10035000521C0D78107805EB80000870521C08784C
:10036000157828440870491C521C0D78107805EB4C
:1003700000100870521C0D78107805EB8000087092
:10038000521C0878157828440870521C10780228EE
:1003900002D01078032802D1087840300870042079
:1003A0001DE700BFFEE770472DE9F041024600253A
:1003B0000026002000230024002791F803C00CF041
:1003C0000F0591F803C00CF0100CBCF1000F03D026
:1003D00091F802C04CEA050591F800C0BCF1000F8D
:1003E00031D0146800202BE04FF0010C0CFA00F320
:1003F000B1F800C00CEA03069E4220D183004FF002
:100400000F0C0CFA03F7BC4305FA03FC4CEA040496
:1004100091F803C0BCF1280F06D14FF0010C0CFA83
:1004200000FCC2F814C00AE091F803C0BCF1480F08
:1004300005D14FF0010C0CFA00FCC2F810C0401CB2
:100440000828D1D31460B1F800C0BCF1FF0F34DD2F
:10045000546800202EE000F1080C4FF0010808FA63
:100460000CF3B1F800C00CEA03069E4221D18300D0
:100470004FF00F0C0CFA03F7BC4305FA03FC4CEAEF
:10048000040491F803C0BCF1280F05D100F1080C59
:1004900008FA0CF8C2F8148091F803C0BCF1480FB8
:1004A00007D100F1080C4FF0010808FA0CF8C2F867
:1004B0001080401C0828CED35460BDE8F08102466D
:1004C000002093680B400BB1012000E00020704732
:1004D00000BFFEE700BFFEE77047000008B501213E
:1004E000042000F00FF81020ADF8000004208DF873
:1004F000030069460148FFF757FF08BD00080140A7
:100500007047000029B1064A92690243044B9A6180
:1005100004E0034A92698243014B9A6170470000EC
:100520000010024030B500210022002400232D4D90
:100530006D6805F00C0121B1042905D0082923D1EB
:1005400005E0294D056022E0274D05601FE0254D9F
:100550006D6805F47012234D6D6805F48034022532
:1005600005EB92421CB9214D554305600BE01D4D32
:100570006D6805F400351DB11C4D5543056002E062
:10058000194D5543056002E0174D056000BF00BFDF
:10059000144D6D6805F0F0010909154D6B5C056897
:1005A000DD4045600F4D6D6805F4E061090A104DAE
:1005B0006B5C4568DD4085600A4D6D6805F46051EF
:1005C000C90A0B4D6B5C4568DD40C560054D6D6823
:1005D00005F44041890B074D6B5CC568B5FBF3F52D
:1005E000056130BD0010024000127A0000093D0094
:1005F0002000002030000020704710B500F002F805
:1006000010BD00000CB50020019000903348006838
:1006100040F480303149086000BF3048006800F481
:10062000003000900198401C0190009818B9019882
:10063000B0F5A06FF1D12948006800F4003010B186
:100640000120009001E0002000900098012843D193
:100650002348006840F010002149086008460068FF
:1006600020F0030008600846006840F002000860BF
:100670001A4840681949486008464068486008467A
:10068000406840F4806048600846406820F47C1070
:1006900048600846406840F4E81048600846006832
:1006A00040F08070086000BF0C48006800F00070E7
:1006B0000028F9D00948406820F003000749486045
:1006C0000846406840F00200486000BF03484068A8
:1006D00000F00C000828F9D10CBD00000010024009
:1006E0000020024010B546480078002865D04548F3
:1006F0000078132858DA44480068632810D242482A
:100700000068401C4049086010214048FFF7D7FEB0
:10071000002874D03E480068401C3D4908606EE0E7
:100720003B480068052807D3394800680E2803D8DD
:1007300000203849087026E0354800680F2807D3A4
:1007400033480068182803D80120324908701AE09D
:100750002F480068192807D32D480068222803D89D
:1007600002202C4908700EE029480068232807D38E
:10077000274800682C2803D803202649087002E087
:100780000420244908702348007823491D4A127820
:1007900088541C480078401C1A49087000201A49E7
:1007A00008601B4908602AE00020164908701449B7
:1007B000087001201949087021E019480068632871
:1007C0000FD217480068401C1549086010210F48D7
:1007D000FFF775FE98B913480068401C114908607E
:1007E0000DE010480068612804D301200449087016
:1007F0000D49087000200B4908600949086010BDC8
:100800000E0000200C00002018000020000801400D
:100810001C0000200D0000203800002001000020F6
:1008200010000020140000200000002070B50146D8
:100830000A46B2F1807F01D301201DE022F07F4003
:10084000401E4FF0E023586158170F23002807DAA5
:100850001C07260E094C00F00F052D1F665503E0FE
:100860001C07250E064C255400BF00204FF0E02346
:10087000986107201861002070BD000018ED00E0AD
:1008800000E400E010B51348006840F00100114991
:10089000086008464068104908400E49486008460C
:1008A00000680E4908400B4908600846006820F4BB
:1008B000802008600846406820F4FE0048604FF43D
:1008C0001F008860FFF799FE4FF000600449086040
:1008D00010BD0000001002400000FFF8FFFFF6FE10
:1008E00008ED00E021B1828942F40052828104E0E7
:1008F00082894DF6FF731A408281704700B585B03A
:1009000001210420FFF7FEFD01218803FFF7FAFD16
:100910004FF40070ADF8100018208DF8130003207C
:100920008DF8120004A91348FFF73EFD4FF48060D4
:10093000ADF8100004208DF8130004A90D48FFF74E
:1009400033FD4FF4E13000900020ADF80400ADF825
:100950000600ADF80800ADF80C000C20ADF80A0058
:100960006946054800F018F801210348FFF7BAFF6F
:1009700005B000BD000801400038014002460020DB
:10098000B1F5007F00D100BF13880B400BB10120EF
:1009900000E00020704700002DE9F04786B00546D2
:1009A0000E460024A24600BFA1460027B08900B130
:1009B00000BF2F462C8A4CF6FF700440F088044399
:1009C0002C82AC894EF6F3100440B088318908437C
:1009D000718908430443AC81AC8A4FF6FF40044060
:1009E000B0890443AC8201A8FFF79CFD1F488742F1
:1009F00002D1DDF810A001E0DDF80CA0A88900F418
:100A0000004040B10AEBCA0000EB0A10316849000F
:100A1000B0FBF1F807E00AEBCA0000EB0A103168FE
:100A20008900B0FBF1F86420B8FBF0F00401200964
:100A3000642101FB1089A88900F4004040B13220F4
:100A400000EBC900B0FBF1F000F00700044308E040
:100A5000322000EB09106421B0FBF1F000F00F0030
:100A600004432C8106B0BDE8F08700000038014047
:100A7000C1F308028280704700BFFEE70FB4054B48
:100A800010B503A9044A029800F018F810BC5DF8EC
:100A900014FB0000110C00083400002002E008C81C
:100AA000121F08C1002AFAD170477047002001E0E8
:100AB00001C1121F002AFBD1704700002DE9FF4F32
:100AC00089B09B460446002506E025280BD05A46EF
:100AD0000B999047641C6D1C20780028F5D10DB04F
:100AE0002846BDE8F08F0027B8460122474900E0BC
:100AF000074314F8013F203B02FA03F00842F7D104
:100B000020782E2819D114F8010F47F004072A285D
:100B10000ED06FF02F022078A0F1300109290CD8F7
:100B200008EB880102EB410100EB0108641CF2E7CD
:100B30000A98641C50F8048B0A9020780028CED0C4
:100B4000642808D0692806D075281ED05A460B990B
:100B500090476D1C58E00A994FF00A0901C90A91A3
:100B6000002802DA40422D2102E0390504D52B216C
:100B70008DF82010012103E0F90704D02021F7E7C8
:100B80008A4608AE0DE00021FAE70A994FF00A09FB
:100B900001C90A91F7E74946FFF7E6FA303106F84E
:100BA000011D0028F7D1ADEB060000F12009780700
:100BB00001D44FF00108C84502DDA8EB090000E0B0
:100BC00000208046002706E008A85A46C05D0B9921
:100BD00090476D1C7F1C5745F6DB04E030205A46D9
:100BE0000B9990476D1CB8F10001A8F10108F5DCE4
:100BF00005E016F8010B5A460B9990476D1CB9F1A8
:100C00000001A9F10109F4DC641C65E70928010071
:100C100070B504460D46E1B20548FFF729FF00BF55
:100C200080210348FFF7AAFE0028F9D0204670BDB6
:100C300000380140FFF762FE45A0FFF71FFFFFF7F6
:100C40004DFC47A0FFF71AFF4948FFF7EFFD20B121
:100C50004848FFF713FF00BFFEE747A0FFF70EFF6E
:100C600075E04C48007830B100204A4908704AA02D
:100C7000FFF704FF6BE04E480078002867D00020A3
:100C80004B4908704B4908700BE04B48494A1278B1
:100C9000815C4AA0FFF7F2FE46480078401C4549B7
:100CA0000870444800781328EFDB45A0FFF7E6FE04
:100CB00044494148FFF780FA3E49087008460078E9
:100CC000012803D140A0FFF7D9FE40E03948007861
:100CD000022803D142A0FFF7D1FE38E03548007862
:100CE000032803D145A0FFF7C9FE30E03148007862
:100CF00004282CD13348C07900F5FA612FA0FFF702
:100D0000BDFE304881792DA0FFF7B8FE2D4841790E
:100D10002AA0FFF7B3FE2B48007918B12948407884
:100D20000C3001E027484078014624A0FFF7A6FEDA
:100D30002448817821A0FFF7A1FE224801781FA056
:100D4000FFF79CFE1F48C17833A0FFF797FE88E7A6
:100D5000555341525431204F4E4C494E450A0000E4
:100D60004E54434F2040204750494F5F41340A00C2
:100D700080FC0A001C0E00085379735F5469636B92
:100D800020496E6974205375636365737366756C6F
:100D90006C790A00000000204672616D652048658C
:100DA00061642044657465637465640A0000000032
:100DB00001000020020000203800002025642000EF
:100DC0000A00000003000020436F6E7461696E200A
:100DD000496E7661696C6420446174610A000000A8
:100DE0004669727374205374616765205665726931
:100DF0006679204661696C65640A00005365636F1B
:100E00006E64205374616765205665726966792047
:100E10004661696C65640A0025640A005379735F52
:100E20005469636B20496E6974204661696C65641E
:100E30002C20436865636B205379735F5469636B3F
:100E40005F52656C6F616420506172616D6574659D
:100E50007220416E642052657365740A00000000C0
:100E6000800E000800000020380000009C0A0008E6
:100E7000B80E00083800002018040000AC0A000872
:100E8000000000000000000000000000000400005E
:100E90000000000000000000000000000000000052
:100EA0000000000001020304010203040607080910
:080EB000020406080000000026
:0400000508000131BD
:00000001FF
