:020000040800F2
:10000000C0470020890100089F1700086D02000802
:100010009D170008F5070008A11A0008000000005D
:100020000000000000000000000000009B0100082C
:10003000F707000800000000F7010008A1170008FA
:10004000A3010008A3010008A3010008A301000800
:10005000A3010008A3010008A3010008A3010008F0
:10006000A3010008A3010008A3010008A3010008E0
:10007000A3010008A3010008A3010008A3010008D0
:10008000A3010008A3010008A3010008A3010008C0
:10009000A3010008A3010008A3010008A3010008B0
:1000A000A3010008A3010008A3010008A3010008A0
:1000B000A3010008A3010008A3010008A301000890
:1000C000A3010008A3010008A3010008A301000880
:1000D000A3010008951A0008A3010008A301000865
:1000E000A3010008A3010008A301000800F002F822
:1000F00000F03AF80AA090E8000C82448344AAF188
:100100000107DA4501D100F02FF8AFF2090EBAE885
:100110000F0013F0010F18BFFB1A43F0010318473B
:10012000F846000018470000103A24BF78C878C18C
:10013000FAD8520724BF30C830C144BF04680C60ED
:10014000704700000023002400250026103A28BF35
:1001500078C1FBD8520728BF30C148BF0B60704739
:100160001FB51FBD10B510BD00F0EBF91146FFF72C
:10017000F7FF00F01CFA00F009FA03B4FFF7F2FFF2
:1001800003BC00F00DFA0000094880470948004709
:10019000FEE7FEE7FEE7FEE7FEE7FEE7FEE7FEE737
:1001A000FEE7FEE704480549054A064B7047000094
:1001B0006D180008ED000008C0410020C047002075
:1001C000C0430020C0430020EFF3108072B6704798
:1001D00080F310887047324A1368012B04D04FF027
:1001E000010313602F4A10602F4A11602F484FF00F
:1001F000805101607047EFF3108272B628480168A1
:1002000091B14FF0000101602648016829B1EFF378
:10021000098121E9F00F0068016023490968096834
:10022000B1E8F00F81F3098882F310884EF0040ED4
:1002300070471D4908601B494FF0000008601849CD
:100240004FF0010008601A481A49D0F8002041EA2E
:100250000201016015484FF08051016016480068A6
:10026000006880F3088861B662B670471EF0040F1C
:100270000CBFEFF30880EFF3098020E9F00F40F89E
:1002800004ED1EF0040F0CBF80F3088880F309888A
:1002900000B502F00BFE5DF804EB4EF0040E704763
:1002A000AC000020A4000020A800002004ED00E025
:1002B00020ED00E00000FFFF08ED00E040EA010350
:1002C000024630B59B0710D14FF0013400E008C260
:1002D00008C91D1B9D4315EAC41FF8D013F0FF0188
:1002E00002F8011B0DD01B0AF8E711F8013B002BA7
:1002F00002F8013B05D011F8013B002B02F8013B4D
:10030000F3D130BD10B5431C02E010F8011B71B1F0
:100310008107FAD14FF0013202C88C1A8C4314EADB
:10032000C211F9D0C01A0A0603D0C01E10BDC01AEF
:1003300010BD0A0401D0801E10BD0902FCD0401E71
:1003400010BD40EA010370B59B072ED14FF0013676
:10035000042A2AD308C810C99D1B9D43121F15EA01
:10036000C61517D0D8B2E1B2401A50EA056110D1D3
:1003700098B2A1B2401A50EA05410AD123F07F4059
:1003800024F07F41401A50EA052102D1180EA0EB5B
:10039000146070BDA342DBD018BA21BA884201D9DB
:1003A000012070BD4FF0FF3070BD0AB9002070BD54
:1003B00010F8013B11F8014B63B1A3420AD1521E60
:1003C00008D010F8013B11F8014B1BB1A34201D139
:1003D000521EEDD1181B70BD421E12F8013F002BBA
:1003E000FBD111F8013B002B02F8013BF9D170471A
:1003F00010B5203AC0F00B80B1E81850203AA0E8C0
:100400001850B1E81850A0E81850BFF4F5AF5FEAF3
:10041000027C24BFB1E81850A0E8185044BF18C9A6
:1004200018C0BDE810405FEA827C24BF51F8043B4D
:1004300040F8043B08BF7047D20728BF31F8023BA1
:1004400048BF11F8012B28BF20F8023B48BF00F835
:10045000012B70474FF000020429C0F0128010F009
:10046000030C00F01B80CCF1040CBCF1020F18BF90
:1004700000F8012BA8BF20F8022BA1EB0C0100F023
:100480000DB85FEAC17C24BF00F8012B00F8012BF6
:1004900048BF00F8012B70474FF0000200B513462B
:1004A00094469646203922BFA0E80C50A0E80C5094
:1004B000B1F12001BFF4F7AF090728BFA0E80C5045
:1004C00048BF0CC05DF804EB890028BF40F8042B3E
:1004D00008BF704748BF20F8022B11F0804F18BFAB
:1004E00000F8012B704710B5044610F0030F08BF49
:1004F00011F0030F40F015804FF0013E121FC0F2C3
:100500000E8051F8043BA3EB0E0C2CEA030C1CEA02
:10051000CE1C08BF40F8043BF0D0A1F1040102F169
:100520000402521E08DB11F8013B002B00F8013BCE
:10053000F7D11146FFF78EFF204610BD7047704778
:100540007047754600F028F8AE46050069465346E8
:1005500020F00700854618B020B5FFF723FEBDE860
:1005600020404FF000064FF000074FF000084FF01A
:10057000000B21F00701AC46ACE8C009ACE8C009AB
:10058000ACE8C009ACE8C0098D4670470446AFF33B
:1005900000802046FFF7F1FD004870475C410020D5
:1005A00001491820ABBEFEE726000200704710B5D7
:1005B00003F042FD002010BD30B500231C461A4652
:1005C000641CE4B201F8012B082CF9D3002408398B
:1005D0000578042D0ED0641CE4B2401C132CF7D314
:1005E000002413380578012D06D0022D04D0032DE8
:1005F00004D005E0012030BD5B1C00E09B1CDBB299
:10060000641CE4B2401C092CECD3DB07037803D054
:100610008BB1022B0FD003E0012B0CD0032B0AD09F
:1006200000231C46401C0578012D06D0022D04D065
:10063000032D04D005E0022030BD5B1C00E09B1CB4
:10064000DBB2641CE4B2401C082CECD3DB0703785B
:1006500003D07BB1022B0DD003E0012B0AD0032B7A
:1006600008D010F8124D012334B1012C06D0022C11
:1006700006D007E0032030BD0B7003E0152400E036
:1006800029240C7011F8014F857804EB850401F8DA
:10069000014BC5782C4401F8014C11F8024B057947
:1006A00004EB051401F8024C457904EB850401F8CC
:1006B000024C85792C4401F8024C11F8014CC579A3
:1006C00004EB850401F8014C057A2C4401F8014C37
:1006D00010F8094F74B3012C2CD00B7011F8012FB6
:1006E000437802EB031201F8012B837802EB8302BB
:1006F00001F8012CC3781A4401F8012C0A78037917
:1007000002EB83020A7043791A4401F8012B8379C2
:100710000A7802EB03120A70C37902EB83020A70B3
:10072000037A1A44D2B20A70407A022804D003280D
:1007300002D003E00A70D1E740320A70042030BDD5
:1007400070B5294C29480123A5784FF48071002207
:1007500085B32578132D2ED22669632E09D2761CF7
:10076000266100F04BF8002802D06069401C6061EF
:1007700070BD6069411F092901D8627012E0A0F1C3
:100780000F01092901D863700CE0A0F119010929B2
:1007900001D8022005E02338092801D8032000E011
:1007A000042060701249607848556D1C25702261E4
:1007B000626170BD03E02270A2702371F9E7A56841
:1007C000632D09D26D1CA56000F018F80028F0D147
:1007D000E068401CE060ECE7E068612801D3A370AA
:1007E000E370E260A260E4E700000020000801403E
:1007F000C8000020FEE7704772B6FEE710B500247F
:1008000000F064F900B10124204610BD10B590F845
:1008100021100022022905D00421816380F82020C4
:10082000012010BD01680B6823F00E030B60016806
:100830000B6823F001030B6090F84030C46B01217A
:1008400001FA03F3636080F8211080F8202010463D
:1008500010BD000010B590F821100024022903D02B
:100860000421816301243DE001680A6822F00E0240
:100870000A6001680A6822F001020A601A4A0168E7
:10088000914201D1012121E0174A1432914201D154
:1008900010211BE0144A2832914201D1891515E03C
:1008A000114A3C32914201D189140FE00E4A503274
:1008B000914202D14FF4803108E00B4A64329142F8
:1008C00002D14FF4801101E04FF08071064A083ADE
:1008D0005160012180F82110002180F82010416B27
:1008E00001B18847204610BD080002402DE9F84FAD
:1008F000DFF8B8910024A9F1040B23460F2709F172
:10090000040AABF1040EC9E00125A5402A40AA4221
:100910007DD1674ED1F804C0ACEB0608B44532D0A7
:1009200014DCBCF1030F3AD009DCBCF1000F2AD073
:10093000BCF1010F1CD0BCF1020F31D11DE0BCF1A4
:10094000110F17D0BCF1120F2AD119E0B8F5881F8A
:1009500019D006DCB8F5803F15D0B8F5801F1FD13F
:1009600011E0B8F5001F0ED0B8F5041F18D10AE049
:10097000CB6815E0CB681B1D12E0CB6808330FE095
:10098000CB680C330CE08B682BB1012B4FF00803C4
:1009900003D0456104E0042302E0056100E0002388
:1009A000FF2A01D8064601E000F104064FEA84055B
:1009B00001D9A5F12005D6F8008007FA05FC28EA40
:1009C0000C0803FA05F548EA0508C6F800804D68EA
:1009D000ED0062D5374DAE6946F00106AE61AD69F6
:1009E00024F0030605F001050095334D06EB050CD8
:1009F000DCF80850A607360F07FA06F825EA0805BE
:100A0000DFF8B880404503D14FF0000817E044E01C
:100A1000DFF8AC80404502D14FF001080FE0DFF86D
:100A2000A480404502D14FF0020808E0DFF898802A
:100A3000404502D14FF0030801E04FF0040808FAE6
:100A400006F848EA0508CCF808804D68D9F8006037
:100A5000ED024D4601D5164300E096432E604D68E9
:100A6000DAF80060AD02554601D5164300E0964322
:100A70002E604D68DBF80060AD035D4601D516437E
:100A800000E096432E604D68DEF80060ED03754689
:100A900001D5164300E096432E60641C0D682A467B
:100AA000E5407FF431AFBDE8F88F00000804014055
:100AB0000000111000100240000001400008014039
:100AC000000C014000100140001401408068084003
:100AD00000D0012070470000014880687047000086
:100AE0002000002070B5040025D094F83D000025BA
:100AF00020B984F83C50204600F0B2F8242084F855
:100B00003D002068016821F0010101602068016852
:100B100041F4004101602068016821F40041016056
:100B200000F0F8F94A4A6168914201D8494900E069
:100B30004949884201D2012070BD48492368B0FB71
:100B4000F1F15E6826F03F060E435E6063689342F3
:100B500006D94FF4967359434FF47A73B1FBF3F10E
:100B60002368491C1E6A26F03F06314319626168FA
:100B700091420AD84900401EB0FBF1F0401CC0F37E
:100B80000B0004281ED204201CE0A368F3B301EB81
:100B9000C10202EB0116421EB2FBF6F2521C42F4F5
:100BA0008042120549D093B301EBC10202EB01115F
:100BB000401EB0FBF1F0401CC0F30B0040F480403D
:100BC00040F400402168CA694CF6FF739A43104311
:100BD000C861D4E9071001432068026822F0C0020E
:100BE00011430160D4E9030101432068826848F29F
:100BF000FF339A4311438160D4E90501084321681A
:100C0000CA6822F0FF021043C86001E00EE016E05F
:100C10002068016841F0010101602564202084F80A
:100C20003D00256384F83E50002070BD01EB410675
:100C3000421EB2FBF6F2521CB3E70120C2E701EB01
:100C40004101401EB0FBF1F0401CC0F30B00B7E7C0
:100C5000A086010080841E0000093D0040420F0074
:100C600010B586B0002100910191029103910068B6
:100C70000F4988421AD10F4CA06940F00800A061CA
:100C8000A069694600F008000490C020009012207E
:100C90000190032003900848FFF728FEE06940F424
:100CA0000010E061E06900F40010049006B010BD8F
:100CB0000054004000100240000C0140074810B5ED
:100CC000016841F010010160032000F075F8002078
:100CD00000F006F800F024F8002010BD00200240CB
:100CE00070B50D4D04464FF47A712878B1FBF0F0E1
:100CF0000A490968B1FBF0F000F0E2FA48B9102C9B
:100D000007D200222146501E00F036F800206C6009
:100D100070BD012070BD0000200000202C000020CC
:100D20000C4808B5816941F001018161816901F0D8
:100D300001010091C16941F08051C161C06900F0B9
:100D4000805000900448416821F0E06141F000715A
:100D5000416008BD0010024000000140002809DB8E
:100D600000F01F02012191404009800000F1E020C5
:100D7000C0F8001170470000F0B40E4B1B680C4621
:100D8000C3F30223C3F10705042D00D90425191D5F
:100D9000072901D2002300E0DB1E012606FA05F137
:100DA000491E214099409E40761E16403143F0BCBA
:100DB00000F077BE0CED00E0064900F0070208687D
:100DC0004FF6FF03184040EA0220034A1043086030
:100DD000704700000CED00E00000FA052DE9F04737
:100DE0000F46050061D0434E306800F00700B8425E
:100DF00009D2306820F0070038433060306800F0D6
:100E00000700B84251D128683B4C810712D54007F2
:100E100003D5606840F4E06060602878000703D57F
:100E2000606840F4605060606068A96820F0F0007D
:100E3000084360602878C00728D06868012810D06F
:100E40002168022810D0890700292EDA616821F074
:100E5000030101436160FFF73FFE804641F288399C
:100E60000DE021688903EFE78901EDE7FFF734FE24
:100E7000A0EB0801494502D90320BDE8F08760686E
:100E8000696800F00C00B0EB810FEFD1306800F022
:100E90000700B8420BD9306820F0070038433060B3
:100EA000306800F00700B84201D00120E5E728785B
:100EB000400705D56068E96820F4E0600843606099
:100EC0002878000706D56068296920F4605040EA58
:100ED000C100606000F03EF86168084AC1F3031188
:100EE000515CC8400649086006480068FFF7F8FEF4
:100EF0000020C2E70020024000100240E443000846
:100F00002C000020240000200148006870470000E9
:100F10002C0000200448054900684968044AC1F3D0
:100F20000221515CC84070472C0000200010024094
:100F3000F44300080448054900684968044AC1F3BD
:100F4000C221515CC84070472C00002000100240B4
:100F5000F44300080E4A51680E4801F00C03042BBC
:100F600011D0082B0FD10C48C1F38343C903C05CD7
:100F70000AD55168084AC1F34041921E515C054AA6
:100F80005043B0FBF1F070470449484370470000FC
:100F90000010024000127A00D443000800093D000E
:100FA0002DE9F84F040070D02078C04DC00749D01B
:100FB0006868C0F38100012807D06868C0F3810029
:100FC000022809D16868C00306D52868800339D58E
:100FD00060680028E7D035E06068B0F5803F0BD04E
:100FE00010B1B0F5A02F11D0286820F4803028600F
:100FF000286820F4802002E0286840F480302860CF
:10100000606890B1FFF768FD06460AE0286840F482
:1010100080202860F0E700BFFFF75EFD801B64289A
:1010200073D828688003F7D50CE0FFF755FD064616
:1010300005E000BFFFF750FD801B6428F0D828684A
:101040008003F7D420789A4E80074FF001094FF0C3
:10105000000839D5686810F00C0F07D06868C0F335
:101060008100022809D16868C00306D42868800777
:1010700014D52069012808D110E02069B0B1C6F864
:101080000090FFF729FD074605E00AE1FFF724FD80
:10109000C01B0228C4D828688007F7D52868616972
:1010A00020F0F80040EAC10028600DE0C6F800809A
:1010B000FFF712FD074604E0FFF70EFDC01B0228F4
:1010C00023D828688007F7D4207800072CD57948E2
:1010D000A169D9B1C0F80090FFF7FEFC074604E013
:1010E000FFF7FAFCC01B02280FD8686A8007F7D503
:1010F00071484FF4FA510068B0FBF1F0009000BF66
:101100000098411E0091FAD20EE080E0C0F8008005
:10111000FFF7E2FC074604E0FFF7DEFCC01B0228F5
:1011200075D8686A8007F7D42078400760D5E869E9
:101130000027C00008D4E86940F08050E861E86901
:10114000012700F0805000905C480168C90513D465
:101150000168834641F480710160FFF7BDFC82465F
:1011600006E000BFFFF7B8FCA0EB0A0064284ED8E9
:10117000DBF80000C005F5D5E06801280AD008B109
:10118000052813D0286A20F001002862286A20F080
:10119000040002E0286A40F001002862E06841F2A1
:1011A000883B98B1FFF798FC82460BE0286A40F034
:1011B00004002862EEE700BFFFF78EFCA0EB0A01F7
:1011C00059455AD8286A8007F6D50CE0FFF784FC09
:1011D000824605E0FFF780FCA0EB0A0159454CD898
:1011E000286A8007F6D41FB1E86920F08050E861D2
:1011F000E06988B36968C1F38101022944D00228FB
:10120000C6F8608004D0FFF767FC044638E034E09D
:10121000FFF762FC074604E0FFF75EFCC01B0228F4
:101220002BD828688001F7D4206AB0F5803F05D11B
:101230006868A16820F4003008436860D4E90801B8
:101240000843696821F4741108436860C6F8609027
:10125000FFF742FC044606E025E000BFFFF73CFC38
:10126000001B022809D828688001F7D51BE000BFC1
:10127000FFF732FC001B022802D90320BDE8F88FDB
:1012800028688001F4D40EE00128F7D06868226A4B
:1012900000F48031914204D1616A00F470108842F8
:1012A00001D00120EAE70020E8E70000001002403A
:1012B00000004242800442422C00002000700040A6
:1012C00010B5401EB0F1807F01D3012010BD4FF05A
:1012D000E02460610F21601700F0E3FB0020A061B3
:1012E00007202061002010BD70477047F8B50168E5
:1012F00004460868CA684B6910F00F0F4FF00005EC
:101300005AD003F0010602F49077374365D0C10745
:1013100005D0D10503D5616C41F00101616441073D
:1013200005D5D90703D0616C41F0020161648107E2
:1013300005D5D90703D0616C41F004016164010750
:1013400007D502F02001314303D0616C41F0080160
:101350006164616C00293BD0800604D5900602D5FB
:10136000204600F0B3FA20684069616CC0F3801039
:1013700001F00801014320462BD000F080FA2068DC
:101380004069400621D52068143050E8001F21F044
:10139000400140E80012002AF5D1E06BA8B16D4988
:1013A0004163E06BFFF756FA002811D0E06B416B08
:1013B00001B0BDE8F040084783060ED593060CD572
:1013C0002046BDE8F84000F081BA2046FFF78DFFC7
:1013D000F8BDFFF78AFF6564F8BD266B2023012E58
:1013E0007CD1C6067AD5D60678D5086848680090BC
:1013F00048694FF00206400640D5E16B0868406836
:101400000004000CE8D0A28D8242E5D9E08588690D
:1014100020282DD020680C3050E8001F21F4807166
:1014200040E80012002AF5D12168143151E8000F7C
:1014300020F0010041E80002002AF5D120681430B4
:1014400050E8001F21F0400140E80012002AF5D1C9
:1014500084F84230256320680C3050E8001F21F0EA
:10146000100140E80012002AF5D1E06BFFF7CEF939
:101470006663A08DE18D401A81B22AE0A08DE18DD6
:10148000401A81B2E08D0028A6D00029A4D022689D
:101490000C3252E8000F20F4907042E80007002F51
:1014A000F5D12068143050E8002F22F0010240E806
:1014B0000027002FF5D184F84230256320680C30D6
:1014C00050E8002F22F0100240E80023002BF5D155
:1014D00066632046FFF708FFF8BDFFE705062BD53A
:1014E000150629D594F841002128F5D1A068B0F55A
:1014F000805F01D12069B0B1206A411C216221685E
:1015000000784860E08C401E0004000CE084E3D1C9
:101510002068C16821F08001C1602068C16841F085
:101520004001C160D8E7206A0088C0F30800486025
:10153000206A801C2062E5E74006CDD55006CBD559
:10154000CA68204622F04002CA6084F8413000F0A8
:10155000C3F8C1E76F18000870B5040004D094F810
:101560004100002510B106E0012070BD84F8405014
:10157000204600F023F8242084F841002068C16848
:1015800021F40051C160204600F002FA2068016990
:1015900021F4904101612068416921F02A014161F3
:1015A0002068C16841F40051C1606564202084F85E
:1015B000410084F842006563002070BD30B585B0FD
:1015C000002400940194029403940068184988420E
:1015D0002CD11848816941F480418161816901F40D
:1015E00080410491816941F0040181618069124D5B
:1015F00000F0040004904FF400700090022001906D
:101600000320039069462846FFF770F92815CDE9B5
:101610000004694628460294FFF768F90022114643
:101620002520FFF7A9FB2520FFF798FB05B030BD6B
:1016300000380140001002400008014070472DE9C9
:10164000F843044690F841001F4616460D462028F0
:1016500002D00220BDE8F8837DB176B1002060643D
:10166000212084F84100FFF737FAA6848046E684FB
:10167000A068B0F5805F02D003E00120EAE72069AE
:1016800010B12E4600250EE000260CE080212046F9
:1016900000F0C4F9A0B9AEB116F8010B216848609A
:1016A000E08C401EE084E08C43464FF0000200973F
:1016B0000028EBD14FF04001204600F0AFF930B1E7
:1016C0000320C7E735F8020BC0F30800E6E7202047
:1016D00084F841000020BDE77047000000B585B0E8
:1016E00000200190029003900C48816941F00401B0
:1016F0008161816901F004010491816941F008016F
:1017000081618069694600F0080004904FF48070A0
:1017100000900348FFF7EAF805B000BD0010024052
:10172000000801400D4810B50B4901600C494160AB
:1017300000214FF480428160C0E903124161816160
:10174000C1610162FFF7CEF9002803D0BDE8104067
:10175000FFF752B810BD000000540040DC0000202C
:10176000A08601000C4810B50A4901604FF4E13130
:101770004160002181600C22C160C0E904128161D6
:10178000C161FFF7E9FE002803D0BDE81040FFF774
:1017900033B810BD0038014030010020FEE7FEE7FD
:1017A00010B501F09DFC02F0E3F9BDE8104001F036
:1017B000A5BC10B590B028216846FEF76DFE142137
:1017C0000AA8FEF769FE0220009001200490102074
:1017D0000024059007946846FFF7E2FB08B172B653
:1017E000FEE70F20CDE90A040C940D9400210AA80D
:1017F0000E94FFF7F3FA002801D072B6FEE710B09E
:1018000010BD0000144910B54868144A10F00C03CC
:10181000134803D0042B01D0082B09D0026049687B
:10182000104AC1F30311515C0268CA40026010BD46
:101830004A684B6802F470124FF0020413F4803FC0
:1018400004EB924202D04B689B0301D5064B00E0AB
:10185000024B5A43E2E700000010024000127A00F7
:101860002C000020E443000800093D00704710B53B
:10187000406A0021C185C184FFF737FD10BD0168B2
:101880000C3151E8002F22F4907241E80023002B24
:10189000F5D10168143151E8002F22F0010241E82E
:1018A0000023002BF5D1016B012909D101680C310E
:1018B00051E8002F22F0100241E80023002BF5D15F
:1018C000202180F8421000210163704708B590F88C
:1018D0004210222901D0022008BD82684FF48053B3
:1018E0009A4201D1016921B1816A9A421BD04AB161
:1018F0000AE00268816A5268C2F308020A80816ABB
:10190000891C08E0026972B10268526802F07F0225
:101910000A70816A491C8162C18D491E0904090C43
:10192000C18503D01BE002685268F1E70168CA680C
:1019300022F02002CA600168CA6822F48072CA607C
:1019400001684A6922F001024A61202180F84210B0
:1019500000214163026B012A03D0FFF76FFE0020D4
:1019600008BD016301680C3151E8002F22F010021C
:1019700041E80023002BF5D101680A68D20602D5A0
:101980000A6849680091818DFFF7AEFCE7E7000027
:1019900010B5044600680169E26821F44051114322
:1019A00001612169A0680843616908432168CA6828
:1019B00041F20C639A430243CA6020684169A269FC
:1019C00021F440711143416113492068884202D1DA
:1019D000FFF7B0FA01E0FFF79DFA00EBC00101EB61
:1019E0000010616864228900B0FBF1F1B1FBF2F0F4
:1019F0006FF01803434301EB8303322101EB031122
:101A0000B1FBF2F101F0F00202EB001001F00F0166
:101A100008442168886010BD003801402DE9F0417C
:101A2000984617460E460446069D27E0681C25D0BA
:101A30002DB1FFF751F8A0EB0800A8421ED920688D
:101A40000C3050E8001F21F4D07140E80012002A49
:101A5000F5D12068143050E8001F21F0010140E862
:101A60000012002AF5D1202084F8410084F84200B9
:101A7000002084F840000320BDE8F0812068006861
:101A800036EA000004D00020B842CFD00020F3E7AF
:101A90000120F9E70148FFF729BC000030010020D0
:101AA000FEE70907090E002804DB00F1E02080F8BA
:101AB0000014704700F00F0000F1E02080F8141DC2
:101AC00070470000002806D00E4910F0FF0F03D029
:101AD000C0B2085C401C704710F47F4F04D0C0F3C4
:101AE0000720085C0930704710F47F0F04D0C0F362
:101AF0000740085C1130704701EB10600078193026
:101B000070470000FC4300082DE9F04F89B0924671
:101B10008B460646002400E0641C305D202803D07C
:101B2000092801D05C45F7D34FF0FF387CB3194842
:101B300004F10609184F056811E0062217A128686C
:101B4000FEF7FFFB50B9286822463146801DFEF79C
:101B5000F8FB18B9296811F8090020B10C3538686C
:101B60008542EAD314E0AC688CB120216846FEF7C8
:101B700093FC6A465946304600F03AFF38B1694650
:101B8000A047CAF80000002009B0BDE8F08FFFE7C9
:101B90004046F9E7B0000020B40000205F5F636DAD
:101BA000645F00002DE9FC411F460446DDE9083171
:101BB000DDE90A65143040600060C4E90827C4E923
:101BC0000A310A46232118461C3401F087FBD4E968
:101BD00003014218D4E90101104B121F01F064FA0D
:101BE00044F81A0B002004F801690D4A04F8036B4D
:101BF000E4E8020544F8105901C404F83C0B01C4A0
:101C000044F87409009023460190194604F14400F9
:101C100002F059F80020BDE8FC810000913800086E
:101C2000AF3A000810B5029C24F001044472C0E9E8
:101C300007120021C0E9093114304060006010BD76
:101C4000143001F0B0BA70B50546FEF7BDFA296F41
:101C5000044609B1284688472046BDE87040FEF793
:101C6000B7BA000010B51BA001F056FA1C4C217841
:101C70001CA001F051FA2078C00702D01FA001F08B
:101C80004BFA2078800702D51FA001F045FA207892
:101C9000400702D51FA001F03FFA2078000702D5C7
:101CA00020A001F039FA2078C00602D520A001F06A
:101CB00033FA2078000607D509480F300168BDE8DF
:101CC00010401DA001F028BABDE810401EA001F090
:101CD00023BA0000627573206661756C743A0A005D
:101CE00029ED00E05343425F434653525F4246535F
:101CF000523A30782530325820000000494255537E
:101D0000455252200000000050524543495345526D
:101D100052200000494D50524543495345525220EC
:101D200000000000554E53544B4552522000000015
:101D300053544B45525220005343422D3E4246419C
:101D4000523A253038580A000A00000010B500F059
:101D50009BFA002010BD10B500F06CFB002010BDF8
:101D6000104810B5416991F82110890703D40E4934
:101D70000020087013E0016921B180220A48FEF7B3
:101D8000B2FB0CE000F032FE08B108A100E009A1AE
:101D90000548FEF793FA09A10348FEF71DFB024828
:101DA00010BD0000B0000020D84000206D736820F6
:101DB0000000000066696E73682000003E000000AD
:101DC0000349496911F8212F60F341020A707047F5
:101DD000B0000020014AC2E900017047B0000020B5
:101DE0007CB516491648FFF7F5FF7821012000F071
:101DF0004BFF144C6061D0B10A211520CDE90001E0
:101E00004FF480630022104910A001F01CFD05462C
:101E100000231A460FA1606901F088FB0120FFF73B
:101E2000CFFF15B1284601F00BFE00207CBD0BA0B2
:101E300001F072F94FF0FF307CBD00001848000837
:101E400070470008B0000020751E000874736865B4
:101E50006C6C000073687278000000006E6F206D7B
:101E6000656D6F727920666F72207368656C6C0A9D
:101E700000000000984D686910F8211F41F0010131
:101E80000170FFF76DFF01F047F9002600F0D6FF63
:101E90000400FBD41B2C07D0686990F8201001299E
:101EA00007D002290ED017E06969012081F82000CF
:101EB000ECE75B2C02D080F820600DE0022180F876
:101EC0002010E3E780F82060412CDFD0422CDDD0E9
:101ED000442C38D0432C43D0002CD7D0FF2CD5D065
:101EE000092C4ED07F2C75D0082C73D00D2C70D0BF
:101EF0000A2CFCD0B0F87210502901D3A0F87260FF
:101F0000B0F87430B0F872108B427DD2CA1A00F16A
:101F1000220123301944184401F0C6F96869B0F869
:101F2000741022300C54686990F82110C90706D04B
:101F3000B0F874102230014468A001F0EDF868692F
:101F4000B0F87440A5E0B0F8740000289ED064A0FA
:101F500001F0E2F8686930F8741F491E018095E7C6
:101F6000B0F87410B0F8722091428FD22230095C20
:101F70005CA001F0D1F8696931F8740F401C088049
:101F800084E7002403E056A001F0C6F8641C6869E9
:101F9000B0F87400A042F6DC6C6953A0223401F062
:101FA000BBF800F023FD012802D1204600F05AFCC6
:101FB000FFF7D6FE014622464CA001F0ADF8686955
:101FC0002230FEF79FF9696921F8720F48805DE7BA
:101FD00000E03DE0B0F87420002AC0D0B0F87210E4
:101FE000521E491E89B293B2A0F87210A0F8743044
:101FF000994224D9CA1A00F1230122301944184405
:1020000001F052F9686900E049E0B0F8721022303E
:102010000E546869B0F874102230014435A001F004
:102020007BF86869B0F8744003E02DA001F074F803
:10203000641C6869B0F87200A04290DBF5E72FA03D
:1020400001F06AF86869B0F8721022300E541DE78A
:1020500000F0CCFC01280DD1686990F82100C00780
:1020600002D021A001F058F86869B0F8721022304F
:1020700000F04EFCFFF774FE01F04EF86869502145
:102080002230FEF7E7F9686922E015A001F044F874
:10209000641C6869B0F87200A042F6DC0AE02230E5
:1020A0000C54686990F82100C00703D021460DA0A8
:1020B00001F032F86869B0F87210491C89B2A0F8D2
:1020C0007210B0F87420521CA0F874205029BED3AE
:1020D00020F8726F4680D9E6B0000020257300001A
:1020E00008000000256300000A0000002573257326
:1020F00000000000082573202008000008200800C8
:1021000010B5124C2068800702D511A001F004F828
:102110002068400011D50D48C01E007808B1FFF7B7
:10212000A1FD0A48001F007808B100F02FFB074806
:10213000801E008808B102F0DFF82068002804DA69
:10214000BDE8104008A000F0E7BF10BD2CED00E096
:102150006661696C656420766563746F722066657C
:102160007463680A00000000646562756720657624
:10217000656E740A0000000010B502A000F0CCFFEC
:10218000002010BD48656C6C6F2052542D5468724D
:10219000656164210A00000070B50CA000F0BCFF6E
:1021A0000F48104D04680BE002220FA12068FEF7D3
:1021B000C8F820B1D4E900120CA000F0ADFF0C3437
:1021C00028688442F0D3002070BD00002D2D467594
:1021D0006E6374696F6E204C6973743A0A00000074
:1021E000B0000020B40000205F5F0000252D3136D4
:1021F00073202D2D2025730A000000002DE9F041E9
:1022000004461E4617460D46084601F0D5F8001D47
:102210002060257200206760C4E90360BDE8F0819A
:102220002DE9F0410D4600212961E96891B1297A33
:1022300081B12E6888B10446FDF7C6FF0146A4F1BE
:102240000C002A7A007A20F08000904209D00846DB
:10225000FDF7BEFF0020BDE8F0813446FDF7B4FF76
:102260000146686800272468B44201D1002404E0D4
:1022700010C0EA687F1CBA42F5D10846FDF7A8FFF6
:1022800020462F61E7E7000010B5074C07A0E16882
:1022900000F042FF0AA0216900F03EFF6169BDE83D
:1022A00010400CA000F038BF38000020746F74613B
:1022B0006C206D656D6F72793A2025640A0000000C
:1022C00075736564206D656D6F7279203A202564A1
:1022D0000A0000006D6178696D756D20616C6C6F2E
:1022E0006361746564206D656D6F72793A20256451
:1022F0000A0000002DE9F04194B0002733A4082320
:102300000BAA022105A8FFF779FF082080460146A5
:10231000224631A000F000FF404600F0D1FB35A07E
:1023200000F0FAFE05A93846FFF77AFF07460026B7
:1023300042E00BA850F826400C3CFDF745FF217AFF
:102340009DF81C2021F08001914202D0FDF740FF52
:1023500031E0FDF73DFF04F114006169054681425B
:102360001ED000F005FFA18BCDE900102346082206
:10237000414626A000F0D0FE2C680BE0A4F1140129
:1023800026A000F0C9FE2068A84202D024A000F0D8
:10239000C3FE2468AC42F1D115A000F0BDFE0AE0F6
:1023A00000F0E6FEA18BCDE900102346082241464D
:1023B0001CA000F0B1FE761C0998B042B9DC002FD9
:1023C000B0D114B00020BDE8F081000073656D61EC
:1023D00070686F7265000000252D2A2E732076200C
:1023E000202073757370656E642074687265616413
:1023F0000A000000202D2D2D202D2D2D2D2D2D2DD1
:102400002D2D2D2D2D2D2D0A00000000252D2A2EDD
:102410002A7320253033642025643A002573000098
:102420002F000000252D2A2E2A732025303364200A
:1024300025640A002DE9F041B4B000263CA408232D
:102440002CAA012126A8FFF7D9FE082080460146C4
:102450002246394800F060FE404600F031FB37A0CC
:1024600000F05AFE26A93046FFF7DAFE06460025A0
:1024700054E02CA850F825400C3CFDF7A5FE07467B
:10248000207A9DF8A01020F08000884203D03846C2
:10249000FDF79EFE41E07822214607A8FDF7A8FF40
:1024A0003846FDF795FE94F8350000902346082243
:1024B000414632A000F030FE94F8340000F00F00E6
:1024C000012807D0022807D040B1042808D00328EB
:1024D00008D00AE02CA006E02EA004E030A002E024
:1024E00032A000E034A000F017FEA06A014600E030
:1024F000401C0278232AFBD0E26A401A101A642397
:102500005843B0FBF2F3276B206CCDE90007E0697C
:10251000081A81182BA000F0FFFD6D1C2A98A84214
:10252000A7DC002E9ED134B00020BDE8F081000071
:10253000746872656164000020450008202D2D2D0F
:1025400020202D2D2D2D2D2D2D202D2D2D2D2D2DE2
:102550002D2D2D2D202D2D2D2D2D2D2D2D2D2D20C5
:10256000202D2D2D2D2D2D20202D2D2D2D2D2D2DC2
:102570002D2D2D202D2D2D0A00000000252D2A2E79
:102580002A7320253364200020726561647920203D
:10259000000000002073757370656E640000000019
:1025A00020696E69742020200000000020636C6F99
:1025B00073652020000000002072756E6E696E67E2
:1025C0000000000020307825303878203078253021
:1025D0003878202020202530326425252020203006
:1025E000782530387820253033640A00F0B593B070
:1025F000002626A408230BAA0A2104A8FFF7FEFD43
:1026000008272246394623A000F086FD384600F010
:1026100057FA2AA000F080FD04A93046FFF700FE1B
:102620000646002524E00BA850F825400C3CFDF799
:10263000CBFD217A9DF8182021F08001914202D033
:10264000FDF7C6FD13E0FDF7C3FDD4E90901CDE9AF
:10265000000123460822394621A000F05DFD607A82
:10266000C00701D024A000E026A000F055FD6D1C9D
:102670000898A842D7DC002ECED101F073FA0146AB
:1026800024A000F049FD13B00020F0BD74696D6511
:1026900072000000252D2A2E732020706572696F4C
:1026A00064696320202074696D656F757420202033
:1026B00020202020666C61670A000000202D2D2D4F
:1026C0002D2D2D2D2D2D2D202D2D2D2D2D2D2D2D47
:1026D0002D2D202D2D2D2D2D2D2D2D2D2D2D0A0087
:1026E000252D2A2E2A73203078253038782030780E
:1026F0002530387820000000616374697661746564
:10270000640A000064656163746976617465640AD3
:102710000000000063757272656E74207469636BEB
:102720003A3078253038780A00000000FEF7C6FA03
:10273000FFF73FF8FEF7D2FFFEF7F4FFFFF712F8BE
:10274000642001F031F906A000F0E6FC40F6B83054
:1027500001F02AF901F09AFC142001F025F9FBE7B9
:1027600033E7A792E4B98BE5908EE5BC80E5A78BB3
:10277000E68E88E697B65C6E0000000010B500F0AB
:102780009FFABDE81040FFF7D1BF000010B518A0B8
:1027900000F0C2FC1B4C21781BA000F0BDFC20788F
:1027A000C00702D01EA000F0B7FC2078800702D539
:1027B0001EA000F0B1FC2078000702D51EA000F09A
:1027C000ABFC2078C00602D51EA000F0A5FC207846
:1027D000000607D50B480C300168BDE810401CA06E
:1027E00000F09ABCBDE810401D4800F095BC000008
:1027F0006D656D206D616E616765206661756C74D5
:102800003A0A000028ED00E05343425F434653522A
:102810005F4D4653523A3078253032582000000040
:102820004941434356494F4C200000004441434333
:1028300056494F4C200000004D554E53544B4552C5
:10284000522000004D53544B4552522000000000CE
:102850005343422D3E4D4D41523A253038580A00DF
:10286000684300082DE9F0478046002500782C4693
:1028700018B12248224F066831E0BDE8F047002138
:10288000084600F077B806221EA13068FDF759FD12
:1028900020BB306800F106094046FDF733FD0246D3
:1028A00049464046FDF74DFDC0B925B94C4648465E
:1028B000FDF728FD05464946204601E0401C491C1D
:1028C00002781AB10B780BB19A42F7D0001BA842DC
:1028D00000DA054649460DA000F01EFC0C363868AB
:1028E0008642D0D3002C06D02A4621464046BDE879
:1028F000F04700F009BFBDE8F0870000B0000020FD
:10290000B40000205F5F636D645F000025730A0000
:1029100038B5044601E0491E641C59B120782028CE
:10292000F9D00928F7D06A462046FFF7EDF818B12C
:10293000204604E0002038BD009838BD401C0178D6
:10294000202901D00029F9D100210170214603A0DE
:1029500000F0E2FB4FF0FF3038BD000025733A2055
:10296000636F6D6D616E64206E6F7420666F756E3F
:10297000642E0A0070B50EA000F0CEFB1348144D73
:1029800004680CE0062213A12068FDF7DAFC28B9E0
:10299000D4E9001211A0891D00F0BEFB0C34286898
:1029A0008442EFD310A000F0B7FB002070BD000000
:1029B00052542D546872656164207368656C6C2094
:1029C000636F6D6D616E64733A0A0000B0000020A1
:1029D000B40000205F5F636D645F0000252D313619
:1029E00073202D2025730A000A0000000120704783
:1029F00070B5002315461C461A464BE000F8012B23
:102A00005B1C0678202E01D0092E01D18B42F5D314
:102A1000082C11D321A000F07FFB002606E000BFA8
:102A200055F8261025A000F077FB761CA642F7D3B8
:102A300021A000F071FB2FE08B422DD2F6B2222EA6
:102A400003D045F82400641C1BE0401C45F824001A
:102A50005B1C641C08E05C2E04D14678222E01D158
:102A6000401C5B1C401C5B1C0678222E01D08B4254
:102A7000F1D38B4210D200F8012B5B1C0AE0401C02
:102A80005B1C0678202E03D0092E01D08B42F6D392
:102A90008B4201D28B42B4D3204670BD546F6F205D
:102AA0006D616E7920617267732021205765206FF8
:102AB0006E6C79205573653A0A000000257320007A
:102AC00010B5044602E003A000F026FB641EFAD213
:102AD00010BD00002D00000030B5134943680A689E
:102AE000134402F1080498420DD05D885DB94D6829
:102AF000AB4208D08D689D4200D188605D6845601A
:102B00005B68851A1D518368134483420BD05D882E
:102B1000002D08D18D68854200D18B6041685960D5
:102B20004068991A015130BD380000202DE9F04F5E
:102B300085B09946DDE90EA5109CAB46630602D52B
:102B4000DFF814C103E0DFF810C1ACF1110CE306AB
:102B500001D524F00104E30701D0302300E0202355
:102B600000260493A3070BD5002A02DA2D26524231
:102B700006E0630701D52B2602E0230700D52026B7
:102B80000023EE4622B930228DF8002001230CE00C
:102B9000B9F10A0F14D002F00F0712091CF80780D0
:102BA0000EF803805B1C002AF2D1AB4200DD1D460B
:102BB000AAEB050214F0110F4FF0200707D014E024
:102BC00090460A27B2FBF7F207FB1287E6E73EB111
:102BD000002A05DD521E03E0884200D20770401C27
:102BE000B2F1000CA2F10102F6DC26B1884200D25B
:102BF0000670401C521EE40605D508E0884201D24A
:102C0000049C0470401C141EA2F10102F6DC302466
:102C10002E466D1E9E420ADD884200D20470401C82
:102C2000F6E7884201D2E55C0570401C00E074467E
:102C30001D1EA3F1010307DDBBF1000FF1D103E07D
:102C4000884200D20770401C131EA2F10102F7DC7B
:102C500005B0BDE8F08F00000D4500081CB514213B
:102C60000A20CDE900014FF480630022034904A04B
:102C700000F0E9FDBDE81C4000F0E2BE7D27000841
:102C80006D61696E0000000070B54843044600F0B5
:102C900093FA050003D02246002100F01FFB2846CE
:102CA00070BD000070B5044C044D02E02068804700
:102CB000241DAC42FAD370BD5C470008644700088D
:102CC00070B5044C044D02E020688047241DAC42DE
:102CD000FAD370BD644700086C47000810B5FDF7D3
:102CE00073FA044A5188491C5180BDE81040FDF731
:102CF0006FBA00008000002010B5FDF765FA0B4C9C
:102D00006188491E09B2618000290ADC00216180C6
:102D1000FDF75EFA6068002807D0BDE8104000F0BB
:102D20008DBBBDE81040FDF753BA10BD80000020F8
:102D300070B5002833D01A4D296888422FD36968AE
:102D400088422CD2A0F10C044FF0FF31154800F05E
:102D500024FC60884FF4F55610B12088B04208D0AA
:102D600011A000F0D9F923886288214615A000F04F
:102D7000D3F9002060802680A868844200D2AC602D
:102D800029686068611A401A2969081A2861204672
:102D9000FFF7A2FEBDE87040024800F0D9BB70BD4D
:102DA0003800002070030020746F20667265652073
:102DB0006120626164206461746120626C6F636B86
:102DC0003A0A00006D656D3A203078253038782C4D
:102DD000207573656420666C61673A2025642C2039
:102DE0006D6167696320636F64653A2030782530D0
:102DF00034780A000048704790040020004870476B
:102E00009040002010B5FDF759FFFEF7D2FCFEF709
:102E1000F9FCFEF779F84FF47A71B0FBF1F0FEF7A8
:102E20004FFAFFF73FFFFFF7E9FF0446FFF7E2FF26
:102E30002146BDE8104000F07BBC0000084810B5FA
:102E400000684FF0FF340168C943890602D4406826
:102E5000C4B202E00A2000F0A7FDE0B210BD0000FD
:102E600090400020F8B506460D200F498DF800006F
:102E7000002481F84040304600F03EFC05460FE05B
:102E8000305D0A2805D101231A4669460648FEF737
:102E9000D6FB012331191A460348FEF7D0FB641C08
:102EA000AC42EDD3F8BD00009040002070B505465F
:102EB000041D2D48016819B128468847002851D0C3
:102EC0002AA0E16B00F028F92CA0216A00F024F977
:102ED0002EA0616A00F020F930A0A16A00F01CF970
:102EE00032A0E16A00F018F934A0216800F014F96A
:102EF00036A0616800F010F938A0A16800F00CF964
:102F00003AA0E16800F008F93CA0216900F004F95A
:102F10003EA0616900F000F940A0A16900F0FCF852
:102F200042A0E16900F0F8F844A0216B00F0F4F849
:102F300046A0616B00F0F0F848A0A16B00F0ECF83F
:102F40002878400708D500F055FD014647A000F05D
:102F5000E3F8FFF76FFA02E04CA000F0DDF8FFF7AE
:102F6000CFF8FEE770BD0000A00000207073723A39
:102F7000203078253038780A000000007230303A6E
:102F8000203078253038780A000000007230313A5D
:102F9000203078253038780A000000007230323A4C
:102FA000203078253038780A000000007230333A3B
:102FB000203078253038780A000000007230343A2A
:102FC000203078253038780A000000007230353A19
:102FD000203078253038780A000000007230363A08
:102FE000203078253038780A000000007230373AF7
:102FF000203078253038780A000000007230383AE6
:10300000203078253038780A000000007230393AD4
:10301000203078253038780A000000007231303ACC
:10302000203078253038780A000000007231313ABB
:10303000203078253038780A000000007231323AAA
:10304000203078253038780A00000000206C723A71
:10305000203078253038780A000000002070633A6C
:10306000203078253038780A0000000068617264EA
:10307000206661756C74206F6E207468726561647F
:103080003A2025730D0A0D0A000000006861726481
:10309000206661756C74206F6E2068616E646C656B
:1030A000720D0A0D0A00000070B50446121D22F0D0
:1030B00007000022094D403840F82250521C102AC7
:1030C000FAD301620021416281624FF0807200F107
:1030D0003005C263C16285E81A0070BDEFBEADDE87
:1030E00010B5FDF771F8044A1178491C1170BDE85C
:1030F0001040FDF76DB800003400002010B5FDF75A
:1031000063F8044A1178491E1170BDE81040FDF7BC
:103110005FB80000340000200FB47F2110B503AB6E
:103120000448029A00F03EFE0248FFF79BFE10BCE6
:103130005DF814FBF00200200268516002680A602A
:103140000160486070470268516002680A6001606F
:10315000486070470268516002680A600160486018
:1031600070474268116042684A6041600860704779
:103170000246002100E0491C00689042FBD108464D
:103180007047D0E900124A60D0E900121160406037
:1031900000607047D0E900124A60D0E90012116067
:1031A000406000607047D0E900124A60D0E9001228
:1031B00011604060006070472DE9F047002807D09B
:1031C000374CC01C20F00306E068864202D900207C
:1031D000BDE8F0870C2E00D20C264FF0FF313148AD
:1031E00000F0DBF9D4F808C02168E768ACEB010017
:1031F000BA1B4FE00D186B88E3BB6B681B1A0C3BC6
:10320000B34246D36A6806F11803121A0C3A4FF01B
:1032100001094FF4F55A9A422DD383190C33CA1879
:103220004FF00008A2F800A0A2F80280D5F80480B0
:10323000C2E901806B60A5F8029050680C37B84273
:1032400002D001F108028350206930440C30206123
:103250006269824200D26061A5F800A0654512D182
:10326000A06842887AB1626890420CD040680844F5
:10327000A060F6E70DE0A5F8029068686A1A801A67
:1032800022691044E3E7074800F062F905F10C00F9
:103290009EE768688242ADD8024800F059F996E787
:1032A000380000207003002010B50346994211D267
:1032B0008C189C420ED9811804E000BF14F8013D1F
:1032C00001F8013D521EF9D210BD00BF11F8014BAB
:1032D00003F8014B521EF9D210BD000010B5034691
:1032E000CCB2042A1AD3810718D1194644EA042320
:1032F00043EA034306E008C1103A08C141F8083B1D
:1033000041F8043C102AF6D201E008C1121F042A39
:10331000FBD20B4602E000BF03F8014B521EFBD26A
:1033200010BD2DE9F0410F46064600F045F8054670
:10333000C068FFF741FF040019D00021EA68FFF7D9
:10334000CDFF26720020607208223946204600F028
:10335000DBF9FCF739FF064604F10C01281DFFF7E5
:10336000EBFE3046FCF734FF2046BDE8F08100203C
:10337000FBE770B5044600202072FCF725FF0546E8
:1033800004F10C00FFF7FDFE2846FCF721FF204664
:10339000BDE87040FFF7CCBC70B504460020207239
:1033A000FCF712FF054604F10C00FFF7EAFE284681
:1033B000BDE87040FCF70CBF074A002102EB011387
:1033C0001B78834202D102EB01107047491C03298C
:1033D000F4DB002070470000500000202DE9F04190
:1033E000044616460D460846FFF7E6FF0746FFF778
:1033F00075FC381D796800E009688142FCD1FFF74F
:103400007BFC45F08000207208223146204600F007
:103410007BF9FCF7D9FE054604F10C01381DFFF7D6
:103420008BFE2846BDE8F041FCF7D2BE007A0006CC
:1034300001D50120704700207047000070B5FCF7EF
:10344000C3FE114C05466088B0B9A068FEF73AFB90
:103450000E49401E626851F83010143991420BD069
:1034600020700B486160007801F11C01002802F116
:103470001C0006D0FCF7AFFE2846BDE87040FCF704
:10348000A7BEFCF7A8FEF7E780000020900300200D
:103490003400002010B50446FCF796FE024694F86E
:1034A00034000E4920F00F00401C84F8340094F8DA
:1034B000350001EBC00104F114004B6818604B6843
:1034C000A361486006486161A16B8368194381600C
:1034D000BDE810401046FCF77BBE000090030020C2
:1034E0008000002010B50446FCF76EFE04F11401C4
:1034F000D1E900235360D1E900231A60A161616121
:1035000094F83520074951F8323001EBC2018B4263
:1035100004D10549A36B8A689A438A60BDE81040CC
:10352000FCF756BE90030020800000202DE9F041FA
:1035300016460A461F4605460221FFF74FFF05F1D2
:103540001404AC616C61AE836F720020BDE8F08141
:1035500070B50446FCF738FE0546606904F11401B5
:10356000884208D0143800F026FA2846FCF730FECE
:10357000FFF764FF09E0A08B4FF6FF71884206D287
:10358000401CA0832846FCF723FE002070BD28467F
:10359000FCF71EFE6FF0020070BD2DE9F3410446FA
:1035A000FCF712FE0746A08B28B1401EA0833846C8
:1035B000FCF70EFE46E0019870B100F01BFA0646DB
:1035C0000020306304F11405647A304600F04EFAAE
:1035D000F4B1012C21D106E03846FCF7F9FD6FF07B
:1035E0000100BDE8FC812C680EE096F8351094F8D7
:1035F0002120A4F11400914205D206F114011430E7
:10360000FFF7AFFD02E02468AC42EED1AC4204D13A
:1036100006F114012846FFF7A4FD0198002809DDF2
:1036200006F1440001AA0021044600F0FDFA2046FC
:1036300000F05EFB3846FCF7CBFDFFF7FFFE306B7A
:103640000028CED10020CCE708B509A0FFF764FD23
:103650000AA0FFF761FD12A00090052301220321BB
:1036600012A0FFF759FDBDE8084018A0FFF754BDB0
:103670000A205C207C202F0A000000002D205254DC
:10368000202D2020202020546872656164204F7016
:1036900065726174696E672053797374656D0A0091
:1036A0004A616E202038203230323400202F207CB6
:1036B000205C202020202025642E25642E256420D7
:1036C0006275696C642025730A0000002032303076
:1036D00036202D203230323020436F707972696786
:1036E00068742062792072742D7468726561642038
:1036F0007465616D0A000000014600E0491C0A780B
:10370000002AFBD1081A704710B5002A07D00346DB
:1037100011F8014B03F8014B2CB1521EF8D110BD2A
:1037200003F8011B00E00021521EF9D110BD00007A
:103730000A46C11C10B522F0030321F00301182B27
:1037400020D9A3F118048C421CD3114C581A1838F4
:103750002160E0604FF4F5520A8000230C30C1E98B
:1037600001034B804B68194461600A8001224A8042
:1037700048608860002307A10848FFF7D7FE20684B
:10378000A06010BD0146BDE8104005A0FFF7C4BC15
:1037900038000020686561700000000070030020A0
:1037A0006D656D20696E69742C206572726F722070
:1037B000626567696E206164647265737320307836
:1037C00025782C20616E6420656E642061646472CB
:1037D00065737320307825780A00000010B50A4917
:1037E00000230A4C4B80184604EBC002401C526078
:1037F00012602028F8DB1F20087003484B600C3053
:103800008B604060006010BD8000002090030020AD
:1038100010B5074CA068FEF755F90649401E51F84F
:10382000300014386060BDE810401C30FCF701BD6A
:103830008000002090030020014840600060704735
:103840009800002070472DE9FF478946DDE90C7696
:10385000824601461D4690460120FFF762FD0400A6
:103860000DD02846FFF7A8FC60B103968DE8A100B3
:1038700043464A4651462046FEF794F9204604B096
:10388000BDE8F0872046FFF774FD0020F7E7000051
:1038900070B514480468FCF797FC05462046FEF70F
:1038A000D2F92046FFF71EFE042084F8340004F10C
:1038B000440000F0F4F92046FFF7B8FD01280CD0D1
:1038C00004F114010848FFF73EFC00BFFFF7B6FD06
:1038D0002846BDE87040FCF77BBC2046FFF75CFD46
:1038E000F4E70000840000208C00002000F002F8C3
:1038F000FCE700002DE97040FCF766FC05460F4828
:103900000168814214D00168A1F11404D1E90002D8
:103910004260D1E900021060496009604869FFF720
:1039200007FA2046FFF725FD2846FCF751FCE3E7A0
:103930002846BDE87040FCF74BBC00008C0000201E
:103940001FB5202308481F22D9008DE80F0000234F
:10395000064A07A1783800F00FF804B00248BDE825
:103960001040783800F06CB8F0010020ED38000805
:103970007469646C650000002DE9FF5F92460EAA31
:103980000C4692E8E0010A46994683460121FFF77A
:1039900025FD8DE8E0014B46524621465846FEF78C
:1039A00001F904B0BDE8F09F10B500F0C1F8BDE822
:1039B000104000F025B870B5044690F8340000F0CF
:1039C0000F00022802D04FF0FF3070BDFCF7FCFB67
:1039D000054604F11400FFF7DDFB04F1440000F09C
:1039E000C9F92846FCF7F4FB2046FFF753FD0020F9
:1039F00070BD00000148006870470000840000208E
:103A0000F1B5FCF7E1FB05460C480468204600F0E0
:103A10002DF804F144006A460021064600F004F93E
:103A2000304600F065F92846FCF7D2FBFFF706FDAB
:103A3000206B801C00D120630020F8BD8400002092
:103A400010B590F83610012280F835108A40022116
:103A5000826380F83410FFF7AEFF0348006808B1B6
:103A6000FFF7ECFC002010BD8400002070B5044678
:103A700090F8340000F00F00012802D04FF0FF3022
:103A800070BDFCF7A1FB05462046FFF72BFD94F81F
:103A9000340020F00F00801C84F8340004F144004E
:103AA00000F068F92846FCF793FB002070BD10B5C4
:103AB00004466FF00100206304F11400FFF76AFB75
:103AC0002046FFF7E7FCBDE81040FFF7B7BC000059
:103AD00070B5FCF779FB06461348046894F8340087
:103AE00000F00F00012819D1D4E90501884215D052
:103AF00004F114000546FFF74DFB94F835000B491F
:103B000001EBC00041680D60416869604560286054
:103B10003046FCF75DFBFFF791FC02E03046FCF716
:103B200057FB002070BD000084000020900300209F
:103B300010B5002802DA4FF0FF3010BD4FF47A7153
:103B400090FBF1F301FB130003FB01F200EB4003D8
:103B5000C3EBC0104B1E03EBC00090FBF1F0104410
:103B600010BD0000014800687047000030000020D0
:103B7000094810B50168491C0160FFF73BFF016C63
:103B8000491E016403D1C16B0164FFF7A1FFBDE8C9
:103B9000104000F003B80000300000202DE9FC4187
:103BA000CDF804D0CDF800D0FFF7DCFF0646FCF7D7
:103BB0000BFB07461B4D2DE060696FF00041301A8A
:103BC000143C884229D22046FEF73AF8607A8107F1
:103BD00002D420F00100607204F1140188466846A6
:103BE000FFF7B8FAD4E907108847FFF7BBFF06468E
:103BF0000098694688420DD04046FFF7D4FA607AB3
:103C0000810707D5C10705D020F00100607220466A
:103C100000F06EF82C68AC42CED13846FCF7D8FAEA
:103C2000BDE8FC819800002070B515460E4604469C
:103C3000FCF7CAFA052E17D2DFE806F00503080CD8
:103C40001100616A0FE0296861620DE0617A21F07C
:103C5000020102E0617A41F00201617204E0617ADE
:103C6000C90700D001212960FCF7B2FA002070BD1D
:103C70002DE9F843884601461E4617460A20089D4E
:103C8000FFF74FFB040008D033463A464146009503
:103C9000FDF7C8FF2046BDE8F8830020FBE770B5BC
:103CA0000446FCF791FA05462046FDF7C9FF607A05
:103CB00020F0010060722846FCF78AFA2046FFF7E0
:103CC0006BFB002070BD2DE9F8439046DDE9084507
:103CD0000A461F4606460A21FFF780FB23463A465E
:103CE000414630460095FDF79DFFBDE8F883000092
:103CF0002DE9F8430446FCF767FA80462046FDF7B5
:103D00009FFF607A20F001006072FFF72BFF616A6D
:103D1000174A4318A3620020009202EBC0026946D2
:103D200056686FF000475DF820200AE01268A2EBA9
:103D3000C0056D699D4202D0ED1ABD4203D341F822
:103D40002020B242F2D10A48001F0168491C0160DC
:103D500004F114010098FFF7FDF9607A40F00100CA
:103D600060724046FCF734FA0020BDE8F88300009A
:103D70009800002070B50446407AC0070ED0FCF7CA
:103D800023FA05462046FDF75BFF607A20F001002C
:103D900060722846FCF71CFA002070BD4FF0FF301F
:103DA00070BD00002DE9FF4F8946044600EB09076E
:103DB00083B080464FF0FF3A4FF0200BA74202D26B
:103DC0005746C8F1FF390BE1252803D0BC4200D289
:103DD000207080E000260599491C059108782D285F
:103DE00011D02B2812D0202813D0232814D030280B
:103DF00015D00A785546303A0A2A13D205A800F0A1
:103E000030F905461AE046F01006E4E746F00406ED
:103E1000E1E746F00806DEE746F02006DBE746F07D
:103E20000106D8E72A2809D10698491C059120C81F
:103E30000690002D02DA6D4246F010060598D44631
:103E400001782E2918D1401C05900178A1F130028B
:103E50000A2A04D205A800F004F9844607E02A29BA
:103E600008D1401C0590069850F804CB0690BCF190
:103E7000000F01DA4FF0000C059A00201178682934
:103E800001D06C2902D1521C0846059211780A23F0
:103E90006F2974D00CDC63291FD004DC25296FD076
:103EA00058290DD184E0642901D0692908D183E023
:103EB000702966D073292CD075297FD0782979D0C4
:103EC000BC4201D2252020700598641C0178E9B31A
:103ED000BC4200D22170641C7FE0F00608D4584632
:103EE0006D1E002D04DDBC4200D22070641CF7E77B
:103EF0000698BC4210F8041B069000D22170584668
:103F000002E0BC4200D22070641C6D1E002DF8DC63
:103F100063E0069802C8069001B941A1002000E0C4
:103F2000401CA84202D00A5C002AF9D1BCF1000F63
:103F300002DD604500DD6046F2060BD45A462B4692
:103F40006D1E834206DDBC4202D200E054E02270C6
:103F5000641CF4E7002206E0BC4201D20B78237017
:103F6000491C521C641C8242F6DB5A4629466D1ECF
:103F7000814232DDBC4200D22270641CF6E715E0BB
:103F800010E0681C02D1082546F00106CDE9005C6E
:103F900006980296102304C806903946204619E078
:103FA0000CE007E0BC4296D2252011E7082305E08B
:103FB00046F04006102301E046F002066C2801D0CE
:103FC00068281CD0069804C80690CDE9005C3946E4
:103FD00020460296FEF7AAFD04460598401C05906F
:103FE0000598007800287FF4EFAEB9F1000F11D0EA
:103FF000BC420DD220700DE0401E0590EDE7069802
:1040000030F8041B06908AB2B007DED512B2DCE7A6
:1040100007F8010C07B0A4EB0800BDE8F08F000022
:10402000284E554C4C290000002070470020704756
:10403000002070470020704710B5FCF7C5F8FEF768
:10404000E1FEFFF701FBFFF7F7FBFFF7C7FBFEF70A
:1040500005FEFFF7F7FBFFF773FCFFF7D9FB002026
:1040600010BD10B5014600206FF02F0307E0541C6F
:104070000C60127800EB800003EB400010440A68EB
:104080001478303C0A2CF2D310BD000008B5022091
:1040900000900A2300223A493AA0FFF7E9FD0446BE
:1040A0003DA0FFF739F814B12046FFF721FE3F4C41
:1040B000002604F11805E07810B1E6703CA05BE042
:1040C00020790028F7D026713F4F66716079395CFE
:1040D0003EA0FFF721F86079401CC0B26071132840
:1040E000F4D33BA0FFF718F8304937481831FCF7F4
:1040F00063FA607101282CD002282CD003282CD020
:104100000428D8D1E97933A001F5FA61FFF704F862
:10411000A97932A0FFF700F8697932A0FEF7FCFF19
:104120002879697800B10C3130A0FEF7F5FFA97845
:1041300030A0FEF7F1FF297830A0FEF7EDFFE87818
:104140000828B8D2DFE800F0040B0D0F1113151783
:10415000B1E72CA010E031A00EE037A00CE03DA0AC
:104160000AE040A008E043A006E046A004E049A021
:1041700002E04CA000E04FA0FEF7CEFF9BE700005E
:10418000410700084250435F74696D65725F636167
:104190006C6C6261636B000074696D657220697399
:1041A0002072756E6E696E67210A000000000020A3
:1041B0004672616D6520486561642044657465637D
:1041C0007465640A00000000C80000202564200017
:1041D0000A000000256420E5B9B42000256420E62B
:1041E0009C880000256420E697A50000256420E651
:1041F00097B60000256420E588860000256420E746
:10420000A7920000436F6E7461696E20496E7661FB
:10421000696C6420446174610A000000466972732D
:10422000742053746167652056657269667920460B
:1042300061696C65640A00005365636F6E642053A6
:104240007461676520566572696679204661696C9C
:1042500065640A0020E6989FE69C9FE4B8800A20E7
:104260000000000020E6989FE69C9FE4BA8C5C6EFC
:104270002000000020E6989FE69C9FE4B8895C6ED1
:104280002000000020E6989FE69C9FE59B9B5C6ECB
:104290002000000020E6989FE69C9FE4BA945C6EA4
:1042A0002000000020E6989FE69C9FE585AD5C6EAF
:1042B0002000000020E6989FE69C9FE697A55C6E94
:1042C000200000000B4810B5094901604FF4E131AE
:1042D0004160002181600C22C160C0E9041281614B
:1042E000C161FDF739F9002800D0FEE710BD0000DC
:1042F000003801409040002010B518A0FEF70CFFD8
:104300001A4C21881AA0FEF707FF2088C00702D0A8
:104310001DA0FEF701FF2088800702D51DA0FEF733
:10432000FBFE2088400702D51DA0FEF7F5FE208881
:10433000000702D51CA0FEF7EFFE2088C00502D5BD
:104340001BA0FEF7E9FE2088800502D51BA0FEF722
:10435000E3FEBDE8104004A0FEF7DEBE75736167A2
:1043600065206661756C743A0A0000002AED00E071
:104370005343425F434653525F554653523A307857
:104380002530325820000000554E444546494E53D2
:1043900054522000494E56535441544520000000C9
:1043A000494E5650432000004E4F4350200000001D
:1043B000554E414C49474E45442000004449564221
:1043C000595A45524F20000010B5FFF73DF9002023
:1043D00010BD010202030405060708090A0B0C0DB3
:1043E0000E0F101000000000000000000102030486
:1043F0000607080900000000010203040000010094
:10440000020001000300010002000100040001009D
:10441000020001000300010002000100050001008C
:10442000020001000300010002000100040001007D
:10443000020001000300010002000100060001006B
:10444000020001000300010002000100040001005D
:10445000020001000300010002000100050001004C
:10446000020001000300010002000100040001003D
:10447000020001000300010002000100070001002A
:10448000020001000300010002000100040001001D
:10449000020001000300010002000100050001000C
:1044A00002000100030001000200010004000100FD
:1044B00002000100030001000200010006000100EB
:1044C00002000100030001000200010004000100DD
:1044D00002000100030001000200010005000100CC
:1044E00002000100030001000200010004000100BD
:1044F00002000100030001000200010030313233EC
:10450000343536373839616263646566003031327C
:10451000333435363738394142434445460000008C
:10452000252D2A2E73207072692020737461747592
:1045300073202020202020737020202020207374DE
:1045400061636B2073697A65206D6178207573658E
:1045500064206C656674207469636B2020657272D8
:104560006F720A006C6973745F6D656D006C6973BE
:1045700074206D656D6F7279207573616765206950
:104580006E666F726D6174696F6E0068656C6C6FDA
:10459000007361792068656C6C6F20776F726C6452
:1045A0000076657273696F6E0073686F772052547E
:1045B0002D5468726561642076657273696F6E2030
:1045C000696E666F726D6174696F6E005F5F636DB7
:1045D000645F76657273696F6E0073686F772052DF
:1045E000542D5468726561642076657273696F6ECC
:1045F00020696E666F726D6174696F6E006C6973AD
:10460000745F746872656164006C697374207468A7
:1046100072656164005F5F636D645F6C6973745F92
:10462000746872656164006C697374207468726583
:104630006164006C6973745F73656D006C69737499
:104640002073656D6170686F726520696E20737983
:104650007374656D005F5F636D645F6C6973745F35
:1046600073656D006C6973742073656D6170686F3C
:10467000726520696E2073797374656D006C69735F
:10468000745F74696D6572006C6973742074696D10
:10469000657220696E2073797374656D005F5F6366
:1046A0006D645F6C6973745F74696D6572006C69C9
:1046B00073742074696D657220696E2073797374E8
:1046C000656D006C697374006C69737420616C6C47
:1046D0002073796D626F6C20696E207379737465D5
:1046E0006D005F5F636D645F68656C700052542D90
:1046F000546872656164207368656C6C2068656CD1
:10470000702E005F5F636D645F7073004C6973743B
:10471000207468726561647320696E207468652016
:1047200073797374656D2E005F5F636D645F66728D
:1047300065650053686F7720746865206D656D6FDF
:10474000727920757361676520696E2074686520D1
:1047500073797374656D2E00354000082D40000894
:10476000C542000829400008E11D0008314000084A
:10477000644500086D450008892200088B45000843
:104780009145000879210008A1450008A9450008C5
:10479000C9430008CC450008DA450008C9430008B1
:1047A000FD450008094600083524000815460008A4
:1047B0002746000835240008334600083C46000818
:1047C000F52200085546000864460008F522000856
:1047D0007D46000888460008ED2500089D46000833
:1047E000AE460008ED250008C3460008C84600088C
:1047F00099210008E2460008ED46000875290008E6
:10480000034700080C470008571D00082847000808
:10481000334700084D1D00083848000800000020FC
:10482000C80000002801000800490008C800002056
:10483000F8460000440100080004000000000000E9
:104840000000000000000000000000000000000068
:104850000000000000000000010000001000000047
:10486000000000000024F400000000000000000030
:104870000000000000000000000000000000000038
:1048800000000000000000000100000054000020B3
:1048900054000020780000000200000064000020A6
:1048A00064000020200000000A00000074000020C6
:1048B000740000202C000000000000000000000038
:1048C00000000000000000000000000000000000E8
:1048D00000000000000000000000000000000000D8
:1048E00000000000000000000000000000000000C8
:1048F00000000000000000000000000000000000B8
:04000005080000ED02
:00000001FF
