:020000040800F2
:10000000C047002089010008152000086D02000883
:1000100011200008090900080D2200080000000056
:100020000000000000000000000000009B0100082C
:100030000D09000800000000F70100081920000861
:10004000A3010008A3010008A3010008A301000800
:10005000A3010008A3010008A3010008A3010008F0
:10006000A3010008A3010008A3010008A3010008E0
:10007000A3010008A3010008A3010008A3010008D0
:10008000A3010008A3010008A3010008A3010008C0
:10009000A3010008A3010008A3010008A3010008B0
:1000A000A3010008A3010008A3010008A3010008A0
:1000B000A3010008A3010008A3010008A301000890
:1000C000A3010008A3010008A3010008A301000880
:1000D000A301000801220008A3010008A3010008F1
:1000E000A3010008A3010008A301000800F002F822
:1000F00000F03AF80AA090E8000C82448344AAF188
:100100000107DA4501D100F02FF8AFF2090EBAE885
:100110000F0013F0010F18BFFB1A43F0010318473B
:10012000A0690000C0690000103A24BF78C878C1F7
:10013000FAD8520724BF30C830C144BF04680C60ED
:10014000704700000023002400250026103A28BF35
:1001500078C1FBD8520728BF30C148BF0B60704739
:100160001FB51FBD10B510BD00F091F91146FFF786
:10017000F7FF00F0C7F900F0AFF903B4FFF7F2FFA3
:1001800003BC00F0B7F90000094880470948004760
:10019000FEE7FEE7FEE7FEE7FEE7FEE7FEE7FEE737
:1001A000FEE7FEE704480549054A064B7047000094
:1001B000F1200008ED000008C0410020C0470020E9
:1001C000C0430020C0430020EFF3108072B6704798
:1001D00080F310887047324A1368012B04D04FF027
:1001E000010313602F4A10602F4A11602F484FF00F
:1001F000805101607047EFF3108272B628480168A1
:1002000091B14FF0000101602648016829B1EFF378
:10021000098121E9F00F0068016023490968096834
:10022000B1E8F00F81F3098882F310884EF0040ED4
:1002300070471D4908601B494FF0000008601849CD
:100240004FF0010008601A481A49D0F8002041EA2E
:100250000201016015484FF08051016016480068A6
:10026000006880F3088861B662B670471EF0040F1C
:100270000CBFEFF30880EFF3098020E9F00F40F89E
:1002800004ED1EF0040F0CBF80F3088880F309888A
:1002900000B503F0ADFF5DF804EB4EF0040E7047BF
:1002A000B4410020283F0020303F002004ED00E052
:1002B00020ED00E00000FFFF08ED00E010B5431C5A
:1002C00002E010F8011B71B18107FAD14FF0013241
:1002D00002C88C1A8C4314EAC211F9D0C01A0A065B
:1002E00003D0C01E10BDC01A10BD0A0401D0801E6C
:1002F00010BD0902FCD0401E10BD40EA010370B5DC
:100300009B072ED14FF00136042A2AD308C810C902
:100310009D1B9D43121F15EAC61517D0D8B2E1B236
:10032000401A50EA056110D198B2A1B2401A50EAC1
:1003300005410AD123F07F4024F07F41401A50EA62
:10034000052102D1180EA0EB146070BDA342DBD0D2
:1003500018BA21BA884201D9012070BD4FF0FF3090
:1003600070BD0AB9002070BD10F8013B11F8014BB7
:1003700063B1A3420AD1521E08D010F8013B11F814
:10038000014B1BB1A34201D1521EEDD1181B70BD10
:1003900002F0FF0343EA032242EA024200F002B8FD
:1003A0004FF000020429C0F0128010F0030C00F09E
:1003B0001B80CCF1040CBCF1020F18BF00F8012B1C
:1003C000A8BF20F8022BA1EB0C0100F00DB85FEAEA
:1003D000C17C24BF00F8012B00F8012B48BF00F8B6
:1003E000012B70474FF0000200B513469446964625
:1003F000203922BFA0E80C50A0E80C50B1F1200138
:10040000BFF4F7AF090728BFA0E80C5048BF0CC0E5
:100410005DF804EB890028BF40F8042B08BF704743
:1004200048BF20F8022B11F0804F18BF00F8012BB5
:10043000704710B5044610F0030F08BF11F0030F0A
:1004400040F015804FF0013E121FC0F20E8051F8AF
:10045000043BA3EB0E0C2CEA030C1CEACE1C08BFD9
:1004600040F8043BF0D0A1F1040102F10402521E55
:1004700008DB11F8013B00F8013B002BF7D11146D6
:10048000FFF78EFF204610BD7047704770477546D6
:1004900000F02CF8AE4605006946534620F00700F0
:1004A000854618B020B5FFF77DFEBDE820404FF02F
:1004B00000064FF000074FF000084FF0000BAC466D
:1004C000ACE8C009ACE8C009ACE8C009ACE8C009B8
:1004D00021F007018D46704710B50446AFF3008048
:1004E0002046BDE81040FFF748BE000000487047B6
:1004F0004000002001491820ABBEFEE726000200A4
:100500007047000080B582B0FFF75EFE03F00CFE7E
:1005100004F08CFC04F04EFE04F09EFD0A200090D6
:1005200046F2837043F291314FF0140CC0F6000094
:10053000C0F6000100224FF48063CDF804C004F03F
:1005400043FE04F0D5FF04F03DFE04F0F3FE04F09A
:1005500019FE002002B080BD2DE9F04700224A605C
:100560000A600278042A3BD04378042B38D0847880
:10057000042C35D0C778042F32D00679042E2FD022
:100580004579042D2CD090F806A0BAF1040F27D09D
:1005900090F80790B9F1040F22D090F808E0BEF16E
:1005A000040F1DD0457A042D1AD0857A042D17D05A
:1005B000C57A042D14D0057B042D11D0457B042D64
:1005C0000ED0857B042D0BD0C57B042D08D0057C77
:1005D000042D05D0457C042D02D0857C042D03D14B
:1005E0000120BDE8F08700BF40F2001CD5004FF0AD
:1005F0000008C0F2012C042A38BF2CFA05F85D1E51
:10060000022D03D208F1010804E000BF032B08BF4C
:1006100008F10208631E022B02D208F1010803E070
:10062000032C08BF08F102087B1E022B02D208F13E
:10063000010803E0032F08BF08F10208731E022B14
:1006400002D208F1010803E0032E08BF08F10208F6
:1006500043795C1E022C03D208F1010804E000BFBC
:10066000032B08BF08F10208AAF10103022B03D2F1
:1006700008F1010805E000BFBAF1030F08BF08F157
:100680000208A9F10103022B02D208F1010804E0DB
:10069000B9F1030F08BF08F10208AEF10103022B04
:1006A00002D208F1010804E0BEF1030F08BF08F10F
:1006B0000208437A5FEAC87743F0020306D1032BAE
:1006C00004BF0220BDE8F08705E000BF022B04BF95
:1006D0000220BDE8F087867AC77AF5000023042E51
:1006E000A7F1010638BF2CFA05F3022E02D201331E
:1006F00003E000BF032F08BF0233077B7E1E022EDC
:1007000002D2013303E000BF032F08BF0233477B4F
:100710007E1E022E02D2013303E000BF032F08BF6A
:100720000233877B7E1E022E02D2013303E000BF1C
:10073000032F08BF0233C77B7E1E022E02D2013375
:1007400003E000BF032F08BF0233077C7E1E022E8A
:1007500002D2013303E000BF032F08BF0233477CFE
:100760007E1E022E02D2013303E000BF032F08BF1A
:100770000233877CDB0707D147F00203032B04BF5A
:100780000320BDE8F08706E047F00203022B04BF18
:100790000320BDE8F087022A04D802EB820292000F
:1007A00001320A70827893004B70C37803EB8202A7
:1007B0004A70027913018B7043799B0003EB02129C
:1007C0008A7083791A448A70C2799300CB70037A55
:1007D00003EB8202CA70427A0023012A88BF0123F8
:1007E0000B71827A13014B71C37A9B0003EB0212E7
:1007F0004A71037B1A444A71427B93008B71837B5D
:1008000003EB82028A71C27B1301CB71037C9B00D4
:1008100003EB0212CA71437C1A44CA71807C00F057
:10082000FE0002281CBF0420BDE8F08702F1400052
:10083000C8710420BDE8F08710B540F2A004C2F2F0
:1008400000046078A0B12078122825D82169622997
:1008500034D8481C206140F60000C4F201004FF477
:10086000807100F0E7F938B360690130606110BD54
:10087000A068622816D80130A06040F60000C4F2DB
:1008800001004FF4807100F0D5F9002818BF10BDA9
:10089000E0680130E06010BD002020800120E070A1
:1008A00010BD00BFE068612824BF40F20110A4F829
:1008B00001000020C4E9020010BD00BF63690021EF
:1008C0005A1F0A2A4FF0000211D3A3F10F020A2A7D
:1008D00002D201220BE000BFA3F119020A2A01D2C1
:1008E000022204E0233B04220A2B38BF032240F2F9
:1008F0003C03C2F200031A702318013083F8202051
:100900002070C4E9041110BDFEE70000704700002C
:10091000EFF3108072B600BFFEE70000014690F8CA
:100920002100022816D10868D1E90FC3026822F01D
:100930000E020260026822F001020260012000FA49
:1009400003F2CCF8042081F821000020002281F875
:1009500020207047042088630120002281F8202095
:100960007047000080B590F82110022924D1026858
:10097000116821F00E0111602F211368C4F20201E9
:100980008A4240F20401C4F2020123F00103136021
:1009900016DD3023C4F202039A421DD04423C4F270
:1009A00002039A421CD05823C4F202039A421DD17A
:1009B0004FF4803322E000BF04218163012080BD19
:1009C0000823C4F202039A420ED01C23C4F202038D
:1009D0009A420BD1102311E04FF480730EE000BF58
:1009E0004FF480530AE000BF012307E001F1680CD7
:1009F0004FF08073624508BF4FF480130B600121F4
:100A000080F82110426B002180F820100AB1904735
:100A10000021084680BD00002DE9F04F82B00E682D
:100A2000002E00F0038141F20042C4F201020423CF
:100A300040F2004E904208BF03234FF6FF7CC4F201
:100A4000010E009300240123C1F2100C4FF0000AA4
:100A50004FF0000949E000BF012704F00C030F220A
:100A60009A402BEA020207FA03F34FEA9A051A4367
:100A700046F82520D1F804B040F20C455FEACB22BD
:100A8000DEF8082054BF22EA080242EA0802C4F253
:100A90000105CEF808202A685FEA8B2354BF22EABA
:100AA000080242EA08022A605FEA8B33DEF804207B
:100AB00054BF22EA080242EA08025FEACB33CEF8CA
:100AC0000420DEF800204FF0010354BF22EA0802A0
:100AD00042EA0802CEF800200E680AF1010A36FA4E
:100AE0000AF204F1040400F0A18003FA0AF816EAFD
:100AF000080FF1D04E68664512DC122E56D8DFE89A
:100B000006F0350B454955555555555555555555CF
:100B10005555554D510000BFD1F80C9046E000BF2F
:100B20004FF6FF72C1F2210296420FDC0022C1F2A1
:100B3000110296421AD00022C1F21202964215D03A
:100B40000022C1F22102964210D02FE00022C1F211
:100B5000220296420AD00022C1F23102964205D00A
:100B60000022C1F23202964220D100BF8A684AB107
:100B7000012A14BFC0F81480C0F810804FF0080993
:100B800014E000BF4FF0040910E000BFCA6802F192
:100B900008090BE04FF0000908E000BFCA6802F145
:100BA000040903E0CA6802F10C0900BF22460646A8
:100BB000BAF1080F24BF203A043637680F25954054
:100BC00027EA050509FA02F22A433260CA79D206F9
:100BD0007FF582AF41F21803C4F202031A68AEF542
:100BE0007E7642F001021A601A6802F00102019258
:100BF000019A2AF0030256F802B040F60002C4F24D
:100C00000102904210D040F60042C4F2010290422C
:100C10003FF422AF41F20002C4F20102009F904271
:100C200008BF022719E700BF002716E702B0BDE89A
:100C3000F08F00008068084018BF01207047000056
:100C400044F2BC10C2F200000068704770B5B8B33F
:100C5000044690F83D0028B9002084F83C00204666
:100C600000F0B0F8242084F83D002068016821F0ED
:100C700001010160016841F400410160016821F453
:100C80000041016000F060FA48F28041C0F21E01AC
:100C900040F60013D4F804E088424FF00001C0F29F
:100CA0003D0348F2A16C4FF0000238BF0121984289
:100CB000C0F2010C38BF0122E64538BF0A460AB12E
:100CC000012070BD4DF68361C4F21B31A0FB0112FF
:100CD0002168950C4B684FF4967623F03F0343EA66
:100CE0009243754344F6D3564B60C1F262060B6AD9
:100CF000A5FB0656B50923F03F03E64538BF950C22
:100D00006A1C1A430A62CA6948F2A0664CF6FF736D
:100D1000C0F20106B64522EA03020BD801384FEAB9
:100D20004E03B0FBF3F001306FF31F30042898BF7F
:100D300004201EE0A368013863B119230EFB03F3FE
:100D4000B0FBF3F001306FF31F3078B100F5804055
:100D500008E000BF0EEB4E03B0FBF3F001306FF381
:100D60001F3028B100F5004003E000BF012000E083
:100D700001201043C8610868D4E9072320F0C000AF
:100D8000104318430860886848F2FF3204F10C06EB
:100D900090434CCE18431043A5698860C86820F082
:100DA000FF0030432843C860086840F00100086035
:100DB00000202021206484F83D10206384F83E0048
:100DC00070BD000010B586B045F200410068C4F265
:100DD000000100228842049202D006B010BD00BF7C
:100DE00041F21804C4F20204206840F008002060B8
:100DF000206800F0080001900198C02002901220A5
:100E000003900320059001F5384002A9FFF704FE86
:100E1000606840F400106060606800F400100190A9
:100E2000019806B010BD000080B542F20000C4F287
:100E30000200016841F010010160032000F08EF80B
:100E4000002000F005F800F027F8002080BD000029
:100E500070B540F20006C2F2000640F20801327896
:100E6000C2F200014FF47A730968B3FBF2F2044650
:100E7000B1FBF2F1084600F069FB0F2C4FF00105C1
:100E800008D838B94FF0FF3021460022002500F085
:100E900039F87460284670BD82B041F21800C4F27F
:100EA00002000168022241F001010160016801F0C5
:100EB000010101910199416841F080514160406810
:100EC00000F08050009000980420C4F201000168F6
:100ED00062F31A61016002B070470000002848BF49
:100EE0007047C1B200F01F00012202FA00F04EF27A
:100EF0000012CEF2000242EAD10121F003010860A3
:100F00007047000010B54EF60C5CCEF2000CDCF819
:100F10000030C3F3022E8EF00704042C28BF0424F3
:100F2000BEF103034FF0FF3E0EFA04F438BF002376
:100F3000A14399400EFA03F39A43114300F00F02C4
:100F400000F160430901043A03F564436244002858
:100F500048BF02F10C03197010BD00004EF60C5191
:100F6000CEF200010A684FF6FF031A4060F30A222E
:100F700042F0806040F0FD70086070472DE9F0435A
:100F800081B0002800F0858042F20008C4F2020817
:100F90000446D8F800000D4600F0070088420CD245
:100FA000D8F8000020F007002843C8F80000D8F85F
:100FB000000000F00700A8426BD1206841F204094C
:100FC0008107C4F2020917D5410705D5D9F80010E9
:100FD00041F4E061C9F80010010705D5D9F8001007
:100FE00041F46051C9F80010D9F80010A26821F04E
:100FF000F0011143C9F80010C00741D1D8F8000032
:1010000000F00700A8420CD9D8F8000020F0070033
:101010002843C8F80000D8F8000000F00700A842F4
:1010200037D12068410707D5D9F80010E26821F4CC
:10103000E0611143C9F80010000708D5D9F8000095
:10104000216920F4605040EAC100C9F80000D9F8D5
:10105000002002F00C00082841F20020C0F27A00C3
:1010600050D146F24853C2F38341C0F60003595CA5
:10107000D2033BD440F60010C0F23D00484341E0AB
:10108000606802280AD001282AD159F8041C890373
:1010900008D4012001B0BDE8F08300BF59F8041C5A
:1010A0008901F6D5D9F8001021F003010843C9F8E9
:1010B0000000FFF7C5FD064641F28837D9F8000069
:1010C000616800F00C00B0EB810F97D0FFF7B8FD1E
:1010D000801BB842F2D9032001B0BDE8F08300BF05
:1010E00059F8041C8907D4D5DCE700BFD9F80020E3
:1010F00046F24643C2F34042C0F600039A5C4843BE
:10110000B0FBF2F0D9F8001046F22E42C1F3031101
:10111000C0F60002515C40F2080220FA01F140F2F0
:101120000400C2F200000068C2F200021160FFF782
:101130008FFE002001B0BDE8F083000040F20800FF
:10114000C2F200000068704740F2080041F204015A
:10115000C2F20000C4F202010068096846F23E4291
:10116000C1F30221C0F60002515CC8407047000084
:1011700040F2080041F20401C2F20000C4F2020190
:101180000068096846F23E42C1F3C221C0F600027F
:10119000515CC840704700002DE9F04182B0002842
:1011A00068D00446007841F20006C007C4F2020687
:1011B00025D0706800F00C0004281BD0706800F087
:1011C0000C00082802D17068C00313D4606800289E
:1011D00000F06881B0F5A02F00F07C81B0F5803F71
:1011E00000F07C81306820F480303060306820F47A
:1011F000802076E13068800301D56068D0B3207824
:10120000800718D5706810F00C0F07D0706800F0D8
:101210000C0008286ED17068C0036BD4306880075A
:1012200002D52069012825D13068616920F0F800D5
:1012300040EAC1003060207800071FD420784007C2
:1012400032D4E56995B1706800F00C00082840F0D0
:101250008F80012D0ED07068216A00F480328A429E
:1012600008D1616A00F47010884203D1002002B0F6
:10127000BDE8F081012002B0BDE8F081A06900283E
:1012800062D00020C4F242200121C0F88014FFF790
:10129000D7FC0546706A800700F18C80FFF7D0FC10
:1012A000401B0228F6D92AE1F06910F0805808D1D5
:1012B000F06940F08050F061F06900F080500090DB
:1012C000009847F20007C4F200073868C00529D427
:1012D000386840F480703860FFF7B2FC054600BF04
:1012E0003868C0051ED4FFF7ABFC401B6428F7D953
:1012F00005E100BF2069002840F20000C4F242204E
:1013000000F0828001210160FFF79AFC054600BFD2
:10131000306880073FF588AFFFF792FC401B02283A
:10132000F6D9ECE0E068002800F08080052800F0A5
:101330009780012800F09880306A20F00100306228
:10134000306A20F0040092E00020C4F24220002124
:10135000C0F88014FFF774FC054600BF706A800770
:101360007FF56CAFFFF76CFC401B0228F6D9C6E096
:101370000027C4F2422700203866FFF761FC022DE7
:1013800005460BD13068800140F1BE80FFF758FC64
:10139000401B02284FF00300F4D968E73068800151
:1013A0007FF564AFFFF74CFC401B02284FF00300B1
:1013B000F4D95CE740F20800C2F20000006844F68D
:1013C000D351C1F26201A0FB0101480A019000BFA4
:1013D00000BF0198411E002801913FF42FAF00BFCC
:1013E0000198411E002801913FF428AF00BF0198E9
:1013F000411E002801913FF421AF00BF0198411E1A
:1014000000280191E4D119E700210160FFF718FCE1
:10141000054600BF306880077FF50DAFFFF710FC71
:10142000401B02284FF00300F4D920E7306A20F077
:1014300001003062306A20F004003062FFF700FCE7
:10144000054641F2883700BF306A800720D5FFF794
:10145000F7FB401BB8424FF00300F5D907E700BF88
:10146000306A40F004003062306A40F001003062BF
:10147000FFF7E6FB054641F2883700BF306A800778
:1014800006D4FFF7DDFB401BB842F7D937E000BFB9
:10149000B8F1000F7FF4D5AEF06920F08050F06114
:1014A000CFE600BF306820F480303060306820F430
:1014B00080203060FFF7C4FB054600BF3068800322
:1014C0007FF59DAEFFF7BCFB401B64284FF0030087
:1014D000F4D9CCE6306840F480203060306840F4C5
:1014E00080303060FFF7ACFB054600BF30688003FA
:1014F0003FF585AEFFF7A4FB401B6428F6D9032017
:1015000002B0BDE8F08100BF206AB0F5803F05D190
:101510007168A26821F40031114371607168626AD8
:1015200021F4741111430843706001203866FFF7FD
:1015300087FB0446306880013FF598AEFFF780FBDB
:10154000001B02284FF00300F4D990E6411E002052
:10155000B0EB116F1CBF012070474EF21002CEF2AB
:10156000000251604EF62351CEF20001F0230B70C1
:1015700007219060116070477047000070470000BD
:10158000B0B582B0044600680168C368426901F0E2
:101590002F05202D03F0200506D12DB1204602B0E5
:1015A000BDE8B04000F0ACBD5FEA017C1EBF02F0B8
:1015B000010E03F4907212EB0E0253D1226B012A3A
:1015C00005D111F0100218BF13F0100236D10A062F
:1015D00022D513F080021FD094F8411021293FD169
:1015E000A168B1F5805F03D12169002900F0708204
:1015F000216A4A1C226209784160E18C01390A049F
:10160000E1842DD1C16821F08001C160C16841F041
:101610004001C16002B0B0BD490621D513F04001C0
:101620001ED0C16821F04001C1602021204684F80D
:10163000411002B0BDE8B04000F080BC0021019133
:10164000016801914168019101994069400613D4F4
:10165000A08DE18DE28D002A18BF884240F0BA814A
:1016600002B0B0BDCA0718BF13F4807240F0B68054
:101670004A0700F1B980BEE0E06B016849688AB2B0
:10168000002AEDD0A38D9A42EAD2E1858069202814
:1016900000F09C80206850E8030F216820F48070DF
:1016A00041E80302DAB1206850E8030F216820F412
:1016B000807041E8030292B1206850E8030F21686E
:1016C00020F4807041E803024AB1206850E8030F1B
:1016D000216820F4807041E80302002ADAD12068F2
:1016E00050E8050F216820F0010041E80502DAB159
:1016F000206850E8050F216820F0010041E805024C
:1017000092B1206850E8050F216820F0010041E8FF
:1017100005024AB1206850E8050F216820F0010059
:1017200041E80502002ADAD1206850E8050F216857
:1017300020F0400041E80502DAB1206850E8050FCA
:10174000216820F0400041E8050292B1206850E88D
:10175000050F216820F0400041E805024AB12068E9
:1017600050E8050F216820F0400041E80502002AFA
:10177000DAD1202084F8420000202063206850E85D
:10178000030F216820F0100041E80302DAB120685D
:1017900050E8030F216820F0100041E8030292B1E5
:1017A000206850E8030F216820F0100041E8030290
:1017B0004AB1206850E8030F216820F0100041E88A
:1017C0000302002ADAD1E06BFFF7A8F80220606379
:1017D000A08DE18D401A81B2204674E1626C42F026
:1017E000010262644A0706D5BEF1000F03D0626CA5
:1017F00042F0020262648A0706D5BEF1000F03D0F0
:10180000626C42F004026264BCF1000F09D545EA43
:101810000E02B2FA82F2520903D1626C42F008025F
:101820006264626C002A3FF41BAF11F0200118BF04
:10183000002D03D0204600F063FC20684069616CF5
:1018400000F0400001F00801401800F0B58000BF32
:10185000206850E8030F216820F4907041E80302EB
:10186000BAB3206850E8030F216820F4907041E873
:10187000030272B3206850E8030F216820F49070CF
:1018800041E803022AB3206850E8030F216820F4DE
:10189000907041E80302002ADAD11AE0206850E88B
:1018A000050F216820F0010041E80502DAB1206847
:1018B00050E8050F216820F0010041E8050292B1CF
:1018C000206850E8050F216820F0010041E805027A
:1018D0004AB1206850E8050F216820F0010041E876
:1018E0000502002ADAD1206B012824D1206850E8B3
:1018F000030F216820F0100041E80302DAB12068EC
:1019000050E8030F216820F0100041E8030292B173
:10191000206850E8030F216820F0100041E803021E
:101920004AB1206850E8030F216820F0100041E818
:101930000302002ADAD1202084F84200002020632C
:101940002068406940063FD5206850E8050F2168AF
:1019500020F0400041E80502DAB1206850E8050FA8
:10196000216820F0400041E8050292B1206850E86B
:10197000050F216820F0400041E805024AB12068C7
:1019800050E8050F216820F0400041E80502002AD8
:10199000DAD1E06BC0B142F2F501C0F6000141635B
:1019A000FEF7E0FF00283FF45BAEE06B416B02B056
:1019B000BDE8B040084700BF2046FFF7DFFD00202C
:1019C000606402B0B0BD00BF204602B0BDE8B040C8
:1019D000FFF7D4BD401A216851E8031F226821F4A3
:1019E000907142E80313DBB1216851E8031F2268BC
:1019F00021F4907142E8031393B1216851E8031F69
:101A0000226821F4907142E803134BB1216851E838
:101A1000031F226821F4907142E80313002BDAD1EE
:101A2000216851E8051F226821F0010142E80513F1
:101A3000DBB1216851E8051F226821F0010142E86D
:101A4000051393B1216851E8051F226821F00101B7
:101A500042E805134BB1216851E8051F226821F0C7
:101A6000010142E80513002BDAD1202184F842104D
:101A700000212163216851E8031F226821F0100131
:101A800042E80313DBB1216851E8031F226821F00B
:101A9000100142E8031393B1216851E8031F226843
:101AA00021F0100142E803134BB1216851E8031FF4
:101AB000226821F0100142E80313002BDAD1022240
:101AC00081B22046626302B0BDE8B040FFF754BD6A
:101AD000216A31F8022B6FF35F22426021628CE5AC
:101AE000002804BF0120704710B5044690F841005B
:101AF00028B9002084F84000204600F063F8242034
:101B000084F841002068D4E90212C36823F400532A
:101B1000C360036923F440531A430261D4E90423E8
:101B20001143C268194341F20C639A431143C160E7
:101B30004169A26921F44071114343F60002C4F2E5
:101B400001029042416103D0FFF7FEFA02E000BFBC
:101B5000FFF70EFB6268192148439100B0FBF1F0DA
:101B600048F21F51C5F2EB11A0FB01235A094FF6B1
:101B70009C73C0F6FF7302FB0300322303EB0010DB
:101B8000A0FB0101F02303EA5113206803EB0212CA
:101B9000C1F3431111448160016921F49041016155
:101BA000416921F02A014161C16841F40051C160DD
:101BB00000202021606484F8411084F842106063A2
:101BC00010BD000070B586B0006844F20041C4F258
:101BD0000001002688420596CDE9036602963FD0B3
:101BE00043F60001C4F20101884266D141F21800B7
:101BF000C4F20200016840F6000441F48041016033
:101C00000168C4F2010401F4804101910199016865
:101C100002AD41F0040101600068294600F00400B3
:101C2000019001984FF4007002900220039003206D
:101C300005902046FEF7F0FE4FF4806002900020F1
:101C4000CDE9030020462946FEF7E6FE25200021C7
:101C50000022FFF757F92520FFF740F906B070BDC5
:101C600041F21800C4F20200416840F6000441F459
:101C7000003141604168C4F2010401F40031019176
:101C80000199016802AD41F0040101600068294634
:101C900000F00400019001980420029002200390BB
:101CA000032005902046FEF7B7FE0820CDE9020686
:101CB000204629460496FEF7AFFE06B070BD000030
:101CC000704700002DE9F04381B0044690F84100D0
:101CD000202840F0B180884600294FF0010000F034
:101CE000D6801646002A00F0D280002060642120B1
:101CF0001D4684F84100FEF7A3FFA684E684A16890
:101D00000646B1F5805F03D12069002800F0988075
:101D100047464FF00008E18C2068002900F09680CB
:101D200005F101090BE000BF47B317F8011B416043
:101D3000E18C0139E184E18C002900F087800168A1
:101D40000906F1D4B9F1000F0AD0EDB1FEF778FF22
:101D5000801BA84218D8206801680906F6D5E3E779
:101D600001680906E0D4016809065CBF01685FEA02
:101D70000161D9D401680906F2D5D5E738F8021B0C
:101D800000276FF35F21D2E7206850E8030F216836
:101D900020F4D07041E80302BAB3206850E8030F82
:101DA000216820F4D07041E8030272B3206850E843
:101DB000030F216820F4D07041E803022AB32068A1
:101DC00050E8030F216820F4D07041E80302002A94
:101DD000DAD11AE0206850E8050F216820F00100F0
:101DE00041E80502DAB1206850E8050F216820F0CB
:101DF000010041E8050292B1206850E8050F216812
:101E000020F0010041E805024AB1206850E8050FC2
:101E1000216820F0010041E80502002ADAD12020E3
:101E200084F8410084F84200002084F84000032038
:101E300001B0BDE8F08300BF022001B0BDE8F0832F
:101E40000027E18C206800297FF46AAF0168490609
:101E500019D4FDB1691C0DD10168490613D401687C
:101E600049065CBF01685FEA41610CD4016849061C
:101E7000F2D508E0FEF7E4FE801BA8420AD82068ED
:101E800000684006F6D5202084F84100002001B00B
:101E9000BDE8F083206850E8030F216820F4D0707B
:101EA00041E80302002A3ED0206850E8030F216871
:101EB00020F4D07041E80302AAB3206850E8030F71
:101EC000216820F4D07041E8030262B3206850E832
:101ED000030F216820F4D07041E80302002AD9D111
:101EE00021E000BF206850E8050F216820F00100C4
:101EF00041E80502002A3FF492AF206850E8050F40
:101F0000216820F0010041E80502002A3FF487AF74
:101F1000206850E8050F216820F0010041E8050223
:101F2000002A3FF47CAF206850E8050F216820F0BC
:101F3000010041E80502002AD4D170E77047000093
:101F400080B586B0002041F218010590C4F202016C
:101F50000A6842F004020A600A6802F00402019270
:101F6000019A0A6842F008020A60096801F0080153
:101F7000019101994FF48071CDE90210049040F66F
:101F80000000C4F2010002A9FEF746FD06B080BDC4
:101F900080B540F2102045F20041C2F20000C4F2C8
:101FA000000148F2A06200234FF4804CC0F201020D
:101FB00080E80E00C0E9033CC0E90533C0E90733FF
:101FC000FEF744FE002808BF80BDBDE88040FEF754
:101FD0009FBC000080B540F2642043F60001C2F2CD
:101FE0000000C4F2010100234FF00C0C4FF4E13269
:101FF00080E80E00C0E90333C0E905C3C361FFF701
:102000006FFD002808BF80BDBDE88040FEF780BCA2
:10201000FEE70000FEE7000080B502F01DFB03F0C4
:102020001DFBBDE8804002F025BB0000B0B590B0BC
:1020300006AC201D2421FEF7D5F9022006900120D0
:102040000A9010200B90002520460D95FFF7A4F86C
:1020500020B1EFF3108072B6FEE700BF0F20CDE98C
:10206000010501A80021CDE903550595FEF786FF7E
:1020700020B1EFF3108072B6FEE700BF10B0B0BD24
:1020800041F20400C4F20200016801F00C010829C9
:1020900041F20021C0F27A0119D102680368C2F34B
:1020A0008342DB0302F1020206D440F60011C0F2C3
:1020B0003D0151430BE000BF03689B0302D4514331
:1020C00005E000BF40F60011C0F23D01514340F26F
:1020D0000802C2F200021160006846F22E43C0F30B
:1020E0000310C0F60003185C21FA00F0106070477E
:1020F00070470000406A0021C185C184FFF73EBAE5
:1021000081B090F84210222921D183680246B3F5AC
:10211000805F09D152F8281F52F8183C002B63D079
:1021200003685B680AE000BF52F8281F13B903690F
:10213000002BF5D003685B6803F07F030B70116818
:1021400001311160C18D01390A04C18502D001B08D
:10215000704700BF0168CA6822F02002CA60CA68DE
:1021600022F48072CA604A6922F001024A61202189
:1021700080F8421000214163026B012A3CD10163C7
:10218000016851E8031F026821F0100142E80313BF
:10219000DBB1016851E8031F026821F0100142E839
:1021A000031393B1016851E8031F026821F0100185
:1021B00042E803134BB1016851E8031F026821F0A4
:1021C000100142E80313002BDAD101680A68D20635
:1021D00006D5002200920A68009249680091009991
:1021E000818D01B0FFF7C8B9026852686FF35F22B2
:1021F00021F8022B8162A5E701B0FFF761BD000065
:1022000040F26420C2F20000FFF7BAB9FEE7000016
:10221000002804BF00207047C1B209B101200CE0C2
:1022200010F47F4102D0090A092006E010F47F0172
:1022300007BF010E1920090C112046F24842C0F6D2
:102240000002515C0844704780B500F007FB002095
:1022500080BD000080B500F06FFC002080BD000054
:1022600070B582B040F22C1646F6182046F6C02112
:10227000C2F20006C0F60000C0F60001C6E9000187
:102280000120782101F030FE706128B30A20152169
:10229000CDE9001042F2113113A0C0F60001002276
:1022A0004FF48063002402F08FFF7269054610A18D
:1022B00010460022002302F007FD706990F82110FB
:1022C00041F0020180F821101DB1284603F010F9F9
:1022D0000024204602B070BD07A002F0D9F94FF0EB
:1022E000FF34204602B070BD747368656C6C0000EA
:1022F00073687278000000006E6F206D656D6F72FC
:102300007920666F72207368656C6C0A00000000AB
:1023100040F22C1AC2F2000ADAF8140040F28C14CF
:1023200090F82110C2F2000441F0010280F821204F
:10233000880703D40020207026E000BFDAF81010D0
:1023400041B140F28C10C2F200008022FEF771F819
:102350001AE000BF01F042FB30B10020207147F2CB
:102360006D30C2F2680009E046F67300C0F220004A
:10237000C4F8030046F66610C7F26E3020602046AF
:10238000FDF79CFF3E212152204602F081F946F6DE
:10239000F9164FF0010B4FF00008C0F600060227B7
:1023A00002E000BF80F820B001F0DEFE8146DAF8DE
:1023B0001400B9F11B0FF5D090F82010022909D0B4
:1023C000012940F07580B9F15B0F40F06F8080F813
:1023D0002070E9E7A9F14101022980F82080E3D3C8
:1023E000B9F1440F00F29280DFE819F0460097003F
:1023F000970097009700970097009700A000E000D3
:102400007000970097007000970097009700970062
:102410009700970097009700970097009700970004
:1024200097009700970097009700970097009700F4
:1024300097009700970097009700970097009700E4
:1024400097009700970097009700970097009700D4
:1024500097009700970097009700970097009700C4
:1024600097009700970097009700970097009700B4
:1024700097004800840100BF96E700BFB0F87410D1
:10248000B0F872209142BFF48FAF084490F8221048
:1024900046F6FB10C0F6000002F0FAF8DAF8140075
:1024A000B0F874100131A0F874107DE780F8208036
:1024B000B9F10D0F2AD8DFE809F00730303030309D
:1024C00030303979093030096EE700BF01F086FA03
:1024D000012812D1DAF8140090F82110C90707D0AA
:1024E00046F67A00C0F6000002F0D2F8DAF81400DE
:1024F000B0F87210223001F027F8DAF8140090F8E2
:102500002100800778D484F800801DE1B9F17F0FA5
:102510000CD0B9F1FF0F3FF447AFB0F87220502A4A
:1025200074D30022A0F87220A4E000BFB0F87410A9
:1025300000293FF439AFB0F872200139531E9AB226
:10254000A0F872308BB29A42A0F8741040F2B480B6
:10255000C11801F122002331D21A02F079F9DAF818
:102560001400B0F87210084480F82280DAF81400E1
:10257000B0F87410084400F1220189A002F088F834
:10258000DAF81410B1F87400B1F8721088423FF60E
:102590000BAF451E304602F07BF8DAF81400013527
:1025A000B0F872008542F5D3FEE600BFB0F87410B3
:1025B00051B10025304602F06BF8DAF8140001350D
:1025C000B0F874108D42F5D300F1220546F67A007A
:1025D000C0F6000002F05CF801F000FA012802D118
:1025E000284600F0EFFEDAF8140090F8210080078A
:1025F0006ED484F80080C1E0DAF8101000296FD0A2
:1026000020468022FDF715FF9EE000BFB0F8743031
:102610009A422FD9C11801F123002231D21A02F0B7
:1026200017F9DAF81400B0F87410084480F8229012
:10263000DAF8140090F82110C90709D0B0F8741026
:10264000084400F122015AA002F022F8DAF814003E
:10265000B0F87450B0F872108D421DD2304602F0BE
:1026600017F8DAF814000135B0F872108D42F5D37E
:1026700012E000BF104480F82290DAF8140090F8BD
:102680002110C90708D046F6FB10C0F600004946E5
:1026900001F0FEFFDAF81400B0F87210B0F8742000
:1026A0000131A0F8721089B201325029A0F87420CB
:1026B00028BFC0F8728077E638A001F0E9FFDAF8A9
:1026C0001400B0F87210084480F822806CE600BF55
:1026D000DAF81010F1B120468022FDF7AAFE4DE095
:1026E00001F07CF900B347F26D3084F80480C2F247
:1026F000680023E0B0F8740000283FF455AE30467F
:1027000001F0C6FFDAF81400B0F874100139A0F82F
:10271000741049E601F062F900B347F26D3084F8B5
:102720000480C2F2680023E046F67300C0F2200085
:10273000C4F8030046F66610C7F26E3020602046EB
:10274000FDF7BCFD3E212152204601F0A1FFDAF841
:10275000140054212230FDF723FE25E646F67300CF
:10276000C0F22000C4F8030046F66610C7F26E30CF
:1027700020602046FDF7A2FD3E2121520AA02146FD
:102780002A4601F085FFDAF8145005F12200FDF722
:1027900095FDA5F87200A5F8740005E6082008006C
:1027A0000825732020080000257325730000000011
:1027B0002573000080B502A001F06AFF002080BDF3
:1027C00048656C6C6F2052542D54687265616421A9
:1027D0000A0000002DE9F04381B016A001F058FF77
:1027E00040F22C1040F23019C2F20000C2F200098F
:1027F0000768D9F80050AF4218D213A40FF24C0862
:1028000003E000BF0C37AF4210D23E68214630468D
:102810000222FDF772FD0028F4D07A684046314666
:1028200001F036FFD9F80050ECE700BF002001B0FE
:10283000BDE8F0832D2D46756E6374696F6E204C74
:102840006973743A0A0000005F5F0000252D31367D
:1028500073202D2D2025730A0000000010B540F2D2
:10286000D404C2F20004216806A001F011FF21691E
:1028700009A001F00DFF61690CA0BDE8104001F056
:1028800007BF00BF746F74616C206D656D6F7279E6
:102890003A2025640A00000075736564206D656D3B
:1028A0006F7279203A2025640A0000006D61786912
:1028B0006D756D20616C6C6F6361746564206D650E
:1028C0006D6F72793A2025640A0000002DE9F04FFF
:1028D0008DB0022002F00EF900F104087BA082A264
:1028E000082101F0D5FE46F6B714C0F600042046D4
:1028F00001F0CEFE204601F0CBFE204601F0C8FEDE
:10290000204601F0C5FE204601F0C2FE204601F03F
:10291000BFFE204601F0BCFE204601F0B9FE75A0C6
:1029200001F0B6FE00260DF1140B7CA77CA4CDF8B7
:102930000C8005E0049EDDF80C80002E00F0C280C3
:102940003546002E08BF4546FDF73EFC36B115F86A
:10295000041C01F07F01022940F0B2802968414542
:1029600000F0AE800A68059142451DD011680692BC
:1029700041451DD00A68079142451DD01168089253
:1029800041451DD00A68099142451DD011680A923F
:1029900041451DD00A680B9142451DD04FF00808F3
:1029A000114604920C921BE04FF0010816E000BFA4
:1029B0004FF0020812E000BF4FF003080EE000BF26
:1029C0004FF004080AE000BF4FF0050806E000BF22
:1029D0004FF0060802E000BF4FF007080021049105
:1029E00051A5FDF7F5FB4FF0000906E04DA001F001
:1029F0004FFE09F10109C1459CD05BF829A0FDF704
:102A0000E3FB1AF8041C01F07F06FDF7E1FB022E40
:102A1000EFD1AAF10C035AF8081F0026BAF80800F3
:102A2000514511D0514600BF0968514521D0096870
:102A300051451BD0096851451AD0096804365145E3
:102A4000F2D1013E15E000BF514600BF0968514573
:102A50002DD00968514527D00968514526D009680D
:102A600004365145F2D1013E21E000BF013600E0BD
:102A70000236009025A008210822019601F008FEE8
:102A8000DAF800605645B1D0A6F11401384601F0DD
:102A9000FFFD30685045A9D0204601F0F9FD3668A9
:102AA0005645F1D1A2E700BF013600E002360090A2
:102AB000284608210822019601F0EAFD99E700BFA7
:102AC000FDF786FB00200DB0BDE8F08F252D2A2EE6
:102AD00073207620202073757370656E642074688F
:102AE000726561640A00000073656D6170686F72E1
:102AF00065000000202D2D2D202D2D2D2D2D2D2D6F
:102B00002D2D2D2D2D2D2D0A00000000252D2A2ED6
:102B10002A7320253033642025643A002573000091
:102B20002F0000000A000000252D2A2E2A732025E0
:102B30003033642025640A002DE9F04F8DB0012068
:102B400001F0D8FF051D46F64210C0F6000071A244
:102B5000082101F09DFD46F6B714C0F6000420469A
:102B600001F096FD204601F093FD204601F090FD16
:102B7000204601F08DFD204601F08AFD204601F03F
:102B800087FD204601F084FD204601F081FD63A011
:102B900001F07EFD00240DF1140A039505E000BF4D
:102BA000049C039D002C00F0B1802646002C08BF39
:102BB0002E46FDF709FB34B116F8041C01F07F0125
:102BC000012940F0A1803168A94200F09D800A6887
:102BD0000591AA421ED011680692A9421ED00A6829
:102BE0000791AA421ED011680892A9421ED00A6815
:102BF0000991AA421ED011680A92A9421ED00A6801
:102C00000B91AA421ED04FF00808114604920C9274
:102C10001CE000BF4FF0010816E000BF4FF00208B3
:102C200012E000BF4FF003080EE000BF4FF00408B1
:102C30000AE000BF4FF0050806E000BF4FF00608AD
:102C400002E000BF4FF0070800210491FDF7C0FA31
:102C50004FF0000906E000BFFDF7BAFA09F10109DB
:102C6000C1459DD05AF829B0FDF7AEFA1BF8041CF7
:102C700001F07F010129EFD1ABF10C06FDF7A8FAB5
:102C80009BF8294035A0082108223346009401F022
:102C9000FFFC9BF8280000F00F00042804D832A1A4
:102CA00051F8200001F0F4FCDBF81C00014600BFE5
:102CB0000A78232A0FD14A78232A09D18A78232A2D
:102CC00008D1CA780431232AF2D0013903E000BFC9
:102CD000013100E00231DBE90824DBF8106017184D
:102CE000401A104464214843DBF83450B0FBF2F33F
:102CF000B91B22A00095019401F0CAFC09F1010959
:102D0000C145AFD14CE700BFFDF762FA00200DB01E
:102D1000BDE8F08F7468726561640000202D2D2D70
:102D200020202D2D2D2D2D2D2D202D2D2D2D2D2DFA
:102D30002D2D2D2D202D2D2D2D2D2D2D2D2D2D20DD
:102D4000202D2D2D2D2D2D20202D2D2D2D2D2D2DDA
:102D50002D2D2D202D2D2D0A00000000252D2A2E91
:102D60002A732025336420008669000898690008CA
:102D7000B9690008C26900088F6900082030782509
:102D800030387820307825303878202020202530C1
:102D900032642525202020307825303878202530D1
:102DA00033640A002DE9F04F8FB00A2001F0A2FE33
:102DB00000F1040A0FF2A8400FF2CC42082101F002
:102DC00067FC46F6B714C0F60004204601F060FC2C
:102DD000204601F05DFC204601F05AFC204601F03F
:102DE00057FC204601F054FC204601F051FC2046DF
:102DF00001F04EFC204601F04BFC0FF2944001F034
:102E000047FC4FF0000923E0A4F10C07FDF7E0F9BF
:102E1000D4E906050821009046F6A110C0F600008E
:102E200008223B46019501F033FC14F8030CC0075F
:102E300007BF46F63510C0F6000046F63710C0F65C
:102E4000000001F025FC00BFB9F1000F00F0FE8189
:102E50004C46B9F1000F08BF5446FDF7B5F9B9F17A
:102E6000000F06D014F8041C01F07F010A2940F07D
:102E7000EB812168514500F0E781D1F800B007915E
:102E8000D34523D0DBF80010CDF820B0514521D038
:102E90000A680991524500F0F78011680A9251457D
:102EA00000F0F8800A680B91524500F02D811168FE
:102EB0000C92514500F06681D1F800900D91D145FA
:102EC00000F06C81CDF8389002E000BF4FF00009AF
:102ED000002102E04FF000090121002606910025A3
:102EE000002105910021049100210391FDF770F963
:102EF000DDF81C80FDF768F918F8041C01F07F016B
:102F00000A2921D1A8F10C07FDF762F9D8E90604D6
:102F10000821009046F6A110C0F6000008223B46AA
:102F2000019401F0B5FB18F8030CC00707BF46F683
:102F30003510C0F6000046F63710C0F6000001F06C
:102F4000A7FBD34505D17FE7FDF742F9D3453FF411
:102F50007BAF089CFDF738F914F8041C01F07F01E1
:102F60000A2927D1B0462E46A4F10C07FDF730F907
:102F7000D4E906050821009046F6A110C0F600002D
:102F800008223B46019501F083FB14F8030CC007AF
:102F900007BF46F63510C0F6000046F63710C0F6FB
:102FA000000001F075FB35464646069800287FF480
:102FB0004BAF05E0FDF70CF9069800287FF444AF0D
:102FC000099CFDF701F914F8041C01F07F010A299E
:102FD00026D1B0462E46A4F10C07FDF7F9F8D4E946
:102FE00006050821009046F6A110C0F60000082250
:102FF0003B46019501F04CFB14F8030CC00707BFDA
:1030000046F63510C0F6000046F63710C0F6000050
:1030100001F03EFB35464646002E7FF415AF04E036
:10302000FDF7D6F8002E7FF40FAF0A9CFDF7CCF821
:1030300014F8041C01F07F010A2933D12E46A4F1B3
:103040000C07FDF7C5F8D4E906050821009046F6FF
:10305000A110C0F6000008223B46019501F018FBC4
:1030600014F8030CC00707BF46F63510C0F6000081
:1030700046F63710C0F6000001F00AFB3546002D79
:103080007FF4E2AE13E000BF002101264FF00009FB
:1030900024E700BF002101254FF00009069100261A
:1030A0001EE700BFFDF794F8002D7FF4CDAE0B9C1A
:1030B000FDF78AF814F8041C01F07F010A292DD1CC
:1030C000A4F10C07FDF784F8D4E906050821009067
:1030D00046F6A110C0F6000008223B46019501F01B
:1030E000D7FA14F8030CC00707BF46F63510C0F630
:1030F000000046F63710C0F6000001F0C9FA059846
:1031000000287FF4A1AE0FE00121059100214FF0CE
:103110000009069100260025E4E600BFFDF758F8F7
:10312000059800287FF490AE0C9CFDF74DF814F83C
:10313000041C01F07F010A293ED1A4F10C07FDF720
:1031400047F8D4E906050821009046F6A110C0F61C
:10315000000008223B46019501F09AFA14F8030C8E
:10316000C00707BF46F63510C0F6000046F6371018
:10317000C0F6000001F08CFA049800287FF464AED9
:1031800020E000BF012104910021069100214FF0B1
:103190000009002600250591A6E600BF0121039144
:1031A000002106910021059100214FF00009002621
:1031B000002504919AE600BFFDF70AF8049800285C
:1031C0007FF442AE0D9CFCF7FFFF14F8041C01F0E5
:1031D0007F010A2924D1A4F10C07FCF7F9FFD4E9F7
:1031E00006050821009046F6A110C0F6000008224E
:1031F0003B46019501F04CFA14F8030CC00707BFD9
:1032000046F63510C0F6000046F63710C0F600004E
:1032100001F03EFA039800287FF416AE06E000BFE6
:10322000FCF7D6FF039800287FF40EAE0E9CFCF747
:10323000CBFF14F8041C01F07F010A293FF4E4AD30
:10324000FCF7C6FF00E600BFFCF7C2FF02F000FA81
:10325000014618A001F01CFA00200FB0BDE8F08F65
:10326000252D2A2E732020706572696F6469632092
:10327000202074696D656F75742020202020202027
:10328000666C61670A00000074696D657200000079
:10329000202D2D2D2D2D2D2D2D2D2D202D2D2D2D78
:1032A0002D2D2D2D2D2D202D2D2D2D2D2D2D2D2D5B
:1032B0002D2D0A0063757272656E74207469636BDC
:1032C0003A3078253038780A0000000092B0FDF7D7
:1032D000ABFD08AC201D2421FDF784F802200890E6
:1032E00001200C9010200D90002520460F95FDF731
:1032F00053FF28B1EFF3108072B600BFFEE700BFA6
:103300000F20CDE9030503A80021CDE90555079558
:10331000FDF734FE20B1EFF3108072B6FEE700BF78
:10332000FEF70EFEFEF734FEFEF754FE642002F0B8
:1033300071F80EA001F0ACF940F6B83002F06AF86E
:10334000042046F2E9310A2500900EA0C0F60001E3
:1033500000224FF40063019501F036FF002818BFEA
:1033600002F0C6F8142002F055F8FBE733E7A79205
:10337000E4B98BE5908EE5BC80E5A78BE68E88E608
:1033800097B60A0074696D65496E697400000000A3
:10339000B0B546F6142446F60C20C0F60004C0F67C
:1033A0000000A04209D246F60C25C0F6000500BF79
:1033B00055F8040B8047A542FAD3BDE8B040FFF7AB
:1033C00085BF00002DE9F04F81B083460078A8B199
:1033D00040F22C10C2F20000056840F23010C2F238
:1033E0000000D0F80080454580F0A88046F6F2192C
:1033F0004FF0000AC0F6000900264CE046F6CB105C
:10340000C0F6000001F044F940F22C1040F23019EF
:10341000C2F20000C2F200090768D9F80050AF42BA
:103420001CD246F6F21446F6E618C0F60004C0F6C2
:10343000000802E00C37AF4210D23E682146304609
:103440000622FCF75AFF0028F4D17A68B11D4046E5
:1034500001F01EF9D9F80050ECE700BF46F67A00FB
:10346000C0F6000001B0BDE8F04F01F011B900BF97
:10347000481C801B5045B8BF824632A0394601F037
:1034800007F940F23010C2F20000D0F8008000BF0F
:103490000C35454548D22F68494638460622FCF788
:1034A0002CFF0028F4D158460637FCF707FF0246E8
:1034B00058463946FCF721FF0028E9D1BAF1000F40
:1034C00004D03178304651B9D3E700BF3846FCF715
:1034D000F5FE82463E46317830460029C9D00020AC
:1034E0003A5CDAB1914219D131184B78002BBFD038
:1034F0003A185478002CBBD0A342B9D18B787BB159
:1035000094786CB1A3420BD1CB785BB1D2784AB13D
:10351000934207D1097904300029E1D13044A8E76A
:10352000881CA6E7C81CA4E746B158463146524657
:1035300001B0BDE8F04F01F0EDBC00BF01B0BDE847
:10354000F08F00BF25730A002DE9F04F8BB049B30F
:10355000CF1E8E1E4D1E002303E000BF0433994290
:1035600020D0C25C202A01D0092A1FD19D4219D047
:10357000C4186278202A01D0092A1DD19E4211D098
:10358000A278202A01D0092A1CD19F420AD0E278D1
:10359000202AE3D0092AE1D0C81AA0F1030804F1D7
:1035A000030A14E000200BB0BDE8F08FA1EB030884
:1035B00000EB030A0BE000BFD84300EB010804F165
:1035C000010A04E0C81AA0F1020804F1020AC8F1D5
:1035D0000000A8F101010025D2B2092A2DD0202A2D
:1035E0002BD0A84520D00AEB05025378092B1FD019
:1035F000202B1DD0A94217D09378092B1CD0202B4B
:103600001AD043199F1C0FD0D778092F00F03681AC
:10361000202F00F03381033306D012790435D2B263
:10362000092ADCD109E000BF45464DB92AE100BFB7
:1036300001352DB926E100BF0235002D00F02281B1
:1036400040F22C10C2F20000046840F23010C2F2C6
:1036500000000668B44280F0158146F6F21905F1C3
:10366000060BC0F6000903E00C34B44280F00A8176
:103670002768494638460622FCF73FFE0028F3D16A
:10368000B81D51462A46FCF738FE0028ECD117F841
:103690000B000028E8D1A0680028009000F0F2801C
:1036A0004FF0000C4FF0000900265246CDE909CC3E
:1036B000CDE907CCCDE905CCCDE903CC4146CDF829
:1036C0000890464588BF3146751A05F1010900206A
:1036D00096460196175C202F01D0092F42D115EB99
:1036E000000B2BD01418677802F800C0202F01D0EF
:1036F000092F39D119EB000C24D0A7784FF0000C1A
:10370000202F84F801C001D0092F31D11BF1020311
:1037100020D0E77884F802C0202F01D0092F2BD1C8
:103720001BF103031AD084F803C00EF1040E043613
:103730000430175C202FD0D1D1E700BF02EB000E80
:103740001FE000BFDDF8089004F1010E4FF0000CFF
:1037500019E000BF04F1020E13E000BF0EF1030EEA
:103760000FE000BF31460CE00EF1010E711C08E0C5
:103770000EF1020EB11C04E0019904F1030E08449D
:10378000C11CDDF80890B9F1080F80F0AD8041450B
:1037900080F0BE80222F21D10EF1010203A840F853
:1037A00029209EF80170481C04E000BF12F8017F38
:1037B0000146013040454FF0000338BF0123222F5E
:1037C00042D0404540D25C2FF0D1134613F8017F20
:1037D000222F04BF1A46881CE8E700BF03A840F860
:1037E00029E04046414588BF08460A1A09F1010907
:1037F000571C00201EF80060092E21D0202E1FD05B
:10380000161800F088800EEB00056C78092C23D088
:10381000202C21D03B1800F07E80AC78092C1FD0E2
:10382000202C1DD0B31C76D0EC78092C1CD0202C79
:103830001AD0F31C6FD004301EF80060092EDDD1C1
:103840000EEB00020E1812E0002B09F1010962D004
:1038500002F801CB8E1C0CE008446A1C461C06E0F2
:103860000844AA1C861C02E00844EA1CC61C464503
:1038700051D24645FFF422AF4DE000BF0335002D85
:103880007FF4DEAE00201AF8001041F0200120295C
:1038900017D00AEB00014A7842F02002202A13D008
:1038A0008A7842F02002202A10D0CA7842F0200202
:1038B000202A0DD004301AF8001041F020012029F0
:1038C000E7D1504405E000BF481C02E0881C00E03E
:1038D000C81C002101701CA0514600F0D9FE4FF019
:1038E000FF300BB0BDE8F08F0EA000F0D1FE03A8B2
:1038F000041F14A64D4654F8041F304600F0C8FEBD
:10390000013DF8D146F67A00C0F6000000F0C0FE96
:10391000B9F1000FB6D0009A03A9484690470BB002
:10392000BDE8F08F546F6F206D616E792061726712
:10393000732021205765206F6E6C79205573653A8E
:103940000A0000002573200025733A20636F6D6D17
:10395000616E64206E6F7420666F756E642E0A004F
:103960002DE9F04381B046F6CB10C0F6000000F020
:103970008FFE40F22C1040F23019C2F20000C2F269
:1039800000090768D9F80050AF421DD246F6F2147C
:1039900046F6E618C0F60004C0F6000803E000BFD3
:1039A0000C37AF4210D23E68214630460622FCF763
:1039B000A4FC0028F4D17A68B11D404600F068FEEE
:1039C000D9F80050ECE700BF46F67A00C0F60000D8
:1039D00000F05EFE002001B0BDE8F08301207047DA
:1039E0002DE9F04F8AB0059115990FF2D4464F0694
:1039F0000FF2E04858BFB046CE06DDE9134948BF94
:103A000021F00101CE074FF0300A08BF4FF0200A25
:103A10008E070DD400270197002701250097002A63
:103A200000F09A80CDE90251CDF810A013E000BF5C
:103A3000B2F1FF3F06DD4E0700F186800E07E9D5A3
:103A4000202782E001270197002702972D27CDE943
:103A5000031A524200974CF6CD494FF0000BCCF6BA
:103A6000CC490DF1180A00BFA2FB09561409F5084C
:103A700002F00F0705EB850C25460A2B04BFF5085D
:103A8000A2EB4C0718F80770002D0AF80B7049D00C
:103A9000A5FB097C04F00F07140ACE464FEADC06AA
:103AA000A14606EB86060A2B04BF4FEADC09A5EB0C
:103AB000460718F807500AEB0B0CB9F1000F5946EE
:103AC0008CF8015032D0A9FB0E5604F00F05140BF0
:103AD0005146F708A24607EB87070A2B04BF4FEAB7
:103AE000D60AA9EB470518F80550BAF1000F8CF873
:103AF00002501FD0AAFB0E5604F00F04120CF5085A
:103B000005EB85050A2B04BFF208AAEB450418F85B
:103B10000440F1460BF1040B002A8A468CF803405E
:103B2000A2D109E00BF1010B06E000BF0BF1020B83
:103B300002E000BF0BF1030BDDF810A0DDE902513C
:103B4000DDE913490DE000BF2B2700970025012771
:103B50000197002A7FF466AF30228DF818204FF0CD
:103B6000010BDDF814E0CB454B46C8BF5B4611F0B6
:103B7000110FA4EB03025FD006462DB976453CBF7A
:103B800000983070013A0136C80631D4551EC0F293
:103B90008D8012F0030700F09580764538BF86F8D7
:103BA00000A0012F06F1010040F09680023A06467F
:103BB000032DC0F08B80101D764506F1010238BF41
:103BC00086F800A0724538BF82F800A0B21C72458A
:103BD00038BF82F800A0F21C7245A0F1040038BF83
:103BE00082F800A0032806F10406E5DC4FF0FF325E
:103BF0003046CB455EDAA3EB0B076FEA0B0617F0F6
:103C0000030703EB060C57D070453CBF302404700B
:103C10005D1E012F00F1010409D07445A3F10205D6
:103C20003CBF30262670022F00F102046CD12046E2
:103C3000BCF1030F73D28BE00027002AC8BF012715
:103C4000019E3740D71B7A1E96DB17F0030C51D02C
:103C500070453CBF20240470BCF1010F00F1010647
:103C600040F00481023F3046032A46D33A1D202605
:103C7000704500F1010738BF0670774538BF3E70C8
:103C8000871C774538BF3E70C71C7745A2F10402F8
:103C900038BF3E70032A00F10400E9DC4FF0FF3228
:103CA0000646002D3FF46AAF6EE700BF30462A4655
:103CB000CB45A0DB04464BE01D46BCF1030F2ED2E2
:103CC00046E000BF2A46032DBFF475AF4FF0FF3228
:103CD000CB45FFF690AFEDE7704538BF80F800A008
:103CE000022F06F1020040F0D180033A0646032D70
:103CF000ECD360E71746032AB8D24FF0FF32002D0D
:103D00003FF43CAF40E700BF03307445A3F1030527
:103D10003CBF302323700446BCF1030F18D330237B
:103D2000044600BF744504F1010038BF237070459C
:103D300038BF0370A01C704538BF0370E01C70458D
:103D4000A5F1040538BF0370AB4504F10404E9DBB9
:103D5000B9F1000F35D006A8023807E0ABF1040B2B
:103D60000BF10403042B04F104042AD9744503D293
:103D700000EB0B035B782370BBF1020F04F101032E
:103D80001EDB73453CBF10F80B701F70BBF1030FB7
:103D900004F1020314D3734504D200EB0B0717F8A8
:103DA000017C1F70BBF1040F04F1030308D37345BA
:103DB000D4D200EB0B0717F8027C1F70CEE700BFD0
:103DC0001C46012A12DB12F00307A2F1010311D0F5
:103DD00074453CBF20202070012F04F101000DD15B
:103DE0001A460446032B3ED322E000BF20460AB009
:103DF000BDE8F08F032B36D31AE000BF7045A2F167
:103E000002063CBF20250570022F04F1020005D1F7
:103E100032460446032B26D30AE000BF0334704524
:103E2000A2F103023CBF202707702046032B1AD3C0
:103E3000013A2023204600BF704500F1010738BF3A
:103E40000370774538BF3B70871C774538BF3B70A0
:103E5000C71C7745A2F1040238BF3B7012F1020F74
:103E600000F10400E8D30AB0BDE8F08F76453CBF0E
:103E700020243470BCF1020F00F1020612D1033F7E
:103E80003046032AFFF439AFF0E600BF0336704531
:103E900038BF80F800A0043A3046032DBFF48BAE43
:103EA00014E700BF764503D22C4620253570254601
:103EB0000330043F0646032ABFF4D8AE1DE700BF17
:103EC0003031323334353637383961626364656690
:103ED0000000000030313233343536373839414252
:103EE0004344454600000000B0B501FB00F4204605
:103EF00000F0E8FB054620B128460021224600F0EC
:103F00001DFD2846B0BD0000B0B546F60C2446F6AF
:103F10000420C0F60004C0F60000A04228BFB0BDD7
:103F200046F60425C0F6000555F8040B8047A54267
:103F3000FAD3B0BD80B5FCF747F940F20C11C2F2DC
:103F400000014A8801324A80BDE88040FCF740B950
:103F5000B0B5FCF739F940F20C15C2F200056988DA
:103F60000446481E01B20029688005DD2046BDE8F0
:103F7000B040FCF72DB900BF002068802046FCF758
:103F800027F96868002808BFB0BDFCF71DF96988EB
:103F900004460029EAD1A868FEF73AF9421E43F622
:103FA000B470C2F2000050F832106868A1F1140336
:103FB0008342DBD02A7043F62C726B60C2F200029F
:103FC00012781C3001F1080132B1FCF704F92046E7
:103FD000BDE8B040FCF7FCB8FCF7FDF82046BDE8B2
:103FE000B040FCF7F5B800002DE9F041002857D0AB
:103FF00040F2D407C2F2000704467868A0424FD8C6
:10400000B868A04298BFBDE8F08107F118084046A3
:104010004FF0FF31A4F10C0600F090FE34F80A0CCA
:1040200018B13088B0F5F55F0AD025A000F030FB5C
:1040300034F80A2C34F80C3C28A0314600F028FB58
:104040004FF4F55044F80C0CD7F80CC066453CBF53
:10405000FE60B44654F8082C78683D691318F11ACC
:10406000294439610FD0598869B9B9688B420AD09F
:104070009C4504BFFE60B4465A6844F8082C596851
:10408000331A01448B6054F8043CC518B54201D082
:10409000698839B14046BDE8F04100F025BE00BF57
:1040A000BDE8F081B44508BFFD606A6054F8081CA3
:1040B000084483604046BDE8F04100F015BE00BFF3
:1040C000746F20667265652061206261642064619E
:1040D000746120626C6F636B3A0A00006D656D3A23
:1040E000203078253038782C207573656420666C14
:1040F00061673A2025642C206D6167696320636FD6
:1041000064653A203078253034780A0040F228304F
:10411000C2F200007047000040F22830C2F20000F6
:1041200000F570507047000010B5FCF77DFEFDF7FC
:104130007DFFFDF7A5FFFDF701F844F6D351C1F26D
:104140006201A0FB01018809FDF700FAFFF7DCFE20
:10415000FFF7DCFF0446FFF7DFFF01462046BDE81E
:10416000104000F01BBF000080B540F24410C2F2C6
:10417000000000680168890606D40A2001F04AF9A7
:10418000FF20C0B280BD00BF4068C0B280BD00004B
:10419000F0B581B004460D208DF8030040F24410C4
:1041A000C2F20000002180F84010204600F09AFE84
:1041B000E0B140F244160546C2F200060DF10307D5
:1041C0000AE000BF3046214601220123FDF77AFDB7
:1041D000013D04F1010409D020780A28F2D13046CB
:1041E000394601220123FDF76DFDEBE701B0F0BD7B
:1041F00010B540F22431C2F200010968044621B131
:1042000020468847002808BF10BD216C46F66F0085
:10421000C0F6000000F03CFA616A46F62E00C0F6D7
:10422000000000F035FAA16A46F63B00C0F6000037
:1042300000F02EFAE16A46F64800C0F6000000F0F1
:1042400027FA216B46F65500C0F6000000F020FA70
:10425000616846F66200C0F6000000F019FAA16835
:10426000C4A000F015FAE168C6A000F011FA2169B7
:10427000C8A000F00DFA6169CAA000F009FAA169AE
:10428000CCA000F005FAE169CEA000F001FA216AA5
:10429000D0A000F0FDF9616BD2A000F0F9F9A16B9C
:1042A000D4A000F0F5F9E16BD6A000F0F1F9207888
:1042B000400707D446F28870C0F6000000F0E8F925
:1042C0000BE000BF01F0D2F8014646F2A270C0F642
:1042D000000000F0DDF9FEF72FFC4EF62954CEF277
:1042E0000004D4F80300800705D546F60C00C0F69C
:1042F000000000F0CDF9D4F80300400040F1F88050
:10430000207830B346F2E070C0F6000000F0C0F94B
:10431000217846F6F300C0F6000000F0B9F92078E5
:10432000C00745D1207880074BD42078400751D46E
:104330002078000757D42078C0065DD494F9000097
:10434000B0F1FF3F60DD46F67A00C0F6000000F0F5
:104350009FF914F8010C002800F0958046F2BF7018
:10436000C0F6000000F094F914F8011C46F609109C
:10437000C0F6000000F08CF914F8010CC00751D110
:1043800014F8010C800757D414F8010C00075DD411
:1043900014F8010CC00663D414F9010CB0F1FF3F0E
:1043A00069DD46F67A00C0F6000000F071F96AE0B7
:1043B00046F6DE00C0F6000000F06AF920788007BB
:1043C000B3D546F6D300C0F6000000F061F92078BE
:1043D0004007ADD546F6D100C0F6000000F058F910
:1043E00020780007A7D546F6C700C0F6000000F009
:1043F0004FF92078C006A1D586A000F049F994F9BC
:104400000000B0F1FF3F9EDCD4F80F1046F2EC70D4
:10441000C0F6000000F03CF914F8010C00289DD112
:1044200031E000BF46F6A200C0F6000000F030F90F
:1044300014F8010C8007A7D546F69800C0F60000D6
:1044400000F026F914F8010C0007A1D546F6C600C5
:10445000C0F6000000F01CF914F8010CC0069BD552
:1044600046F6BD00C0F6000000F012F914F9010C88
:10447000B0F1FF3F95DCD4F80B1046F2FC70C0F6AB
:10448000000000F005F9B4F8010088B346F2D270DC
:10449000C0F6000000F0FCF8B4F8011046F61F105A
:1044A000C0F6000000F0F4F8B4F80100C0072DD108
:1044B000B4F80100800733D4B4F80100400739D4C0
:1044C000B4F8010000073FD4B4F80100C00545D49A
:1044D000B4F80100800505D546F6AC00C0F6000032
:1044E00000F0D6F846F67A00C0F6000000F0D0F8EA
:1044F000D4F80300B0F1FF3F06DC46F62100C0F619
:10450000000000F0C5F800BFFEE700BF46F6E70078
:10451000C0F6000000F0BCF8B4F801008007CBD56D
:1045200046F68E00C0F6000000F0B2F8B4F80100C4
:104530004007C5D546F67C00C0F6000000F0A8F89C
:10454000B4F801000007BFD546F6B700C0F600007A
:1045500000F09EF8B4F80100C005B9D546F6830016
:10456000C0F6000000F094F8B4F801008005B3D460
:10457000B8E700BF7230353A203078253038780AF5
:10458000000000007230363A203078253038780A42
:10459000000000007230373A203078253038780A31
:1045A000000000007230383A203078253038780A20
:1045B000000000007230393A203078253038780A0F
:1045C000000000007231303A203078253038780A07
:1045D000000000007231313A203078253038780AF6
:1045E000000000007231323A203078253038780AE5
:1045F00000000000206C723A203078253038780AAC
:10460000000000002070633A203078253038780AA6
:104610000000000053544B455252200004324BF628
:10462000EF6C22F00702CDF6AD6C42F840CDC2E946
:1046300001CCC2E903CCC2E905CCC2E907C1002123
:104640004FF0807CC2E90D301046C2E90911C2E981
:104650000B11C2F83CC0704780B5FBF7B5FD43F6BF
:104660002C71C2F200010A7801320A70BDE8804064
:10467000FBF7AEBD80B5FBF7A7FD43F62C71C2F288
:1046800000010A78013A0A70BDE88040FBF7A0BD3E
:1046900083B010B581B043F63474844603A8C2F2E7
:1046A00000040EC003AB20467F216246009301F058
:1046B000D1F92046FFF76CFD01B0BDE8104003B012
:1046C000704700002DE9F04381B000286BD040F224
:1046D000D409C2F200090330D9F8001020F0030712
:1046E0008F4260D809F1180840464FF0FF310C2F77
:1046F00098BF0C2700F022FBD9F80CE0D9E900C1E3
:10470000AEEB0103ACEB0704A34249D2CE1872888A
:10471000706822B903F10C02851ABD4248D2A0424A
:104720003ED20E187288736822B900F10C029D1AED
:10473000BD4216D2A34233D2CE187288706822B915
:1047400003F10C02851ABD4232D2A04228D20E18C3
:1047500072887368002AD7D100F10C029D1ABD42FD
:10476000D2D30446184607F118039D4225D33A4494
:1047700007F10C038D184FF4F5578F50C5E901046C
:104780007260686801240CF10C07B84274801CBF89
:1047900008448260D9E904021844824214E000BF50
:1047A000404600F0A1FA002001B0BDE8F08300BF50
:1047B0001C4607F118039D42D9D201227280D9E923
:1047C0000423001B10448342C9F8100038BFC9F805
:1047D00014004FF4F5507645308030D1BEF8020019
:1047E00068B3D9F80820964529D0DEF8040001EB1B
:1047F000000EBEF80200002818BF96451DD0DEF856
:10480000040001EB000EBEF80200002818BF964518
:1048100013D0DEF8040001EB000EBEF80200002801
:1048200018BF964509D0DEF8040001EB000EBEF873
:104830000200002818BF9645D7D1C9F80CE04046C1
:1048400000F052FA06F10C0001B0BDE8F083000060
:10485000B0B5814214D28B18834211D9002A47D0B7
:1048600000EB020E12F00301A2F1010C4FD013F87D
:10487000014D01290EF8014D3CD1624647E000BFD1
:10488000B2B312F00304A2F1010C09D08E461EF857
:10489000015B0346012C03F8015B05D1624613E07E
:1048A0008E46034610E000BF4B78022C437005D1C2
:1048B000023A01F1020E831C06E000BF01F1030E73
:1048C0008978033AC31C8170BCF1030F38BFB0BDB7
:1048D000AEF10401043B00BF11F8045F043A03F891
:1048E000045F4D785D708D789D70CD78DD70F3D16B
:1048F000B0BD00BF13F8014D02290EF8014D01D1E2
:10490000023A04E013F8011D033A0EF8011DBCF150
:10491000030FEDD3AEF10401023B00BF5C78043A13
:10492000CC701C788C7013F8014C4C7013F8024C4E
:10493000A3F1040301F80449F0D1D9E770B5042AC2
:1049400006461BD316F0030018D1C8B24FF001334E
:10495000102A00FB03F313D3A2F1100C012000EB8B
:104960001C1010F003000DD00128C6E90033B3601D
:10497000F36009D106F11000624616E0304650E0BF
:1049800030462EE0304610E00228C6E90433B36119
:10499000F36103D106F12000203A06E006F1300071
:1049A000303AC6E90833C6E90A33BCF1300F16D3F2
:1049B00000F14004403AC0E90033C0E90233C0E9E5
:1049C0000433C0E90633C0E90833C0E90A33C0E95B
:1049D0000C33C0E90E330F2A2046E9D82046042ABA
:1049E0001FD30446151F042D40F8043B18D3A2F131
:1049F0000805042D63600DD3A2F10C05042DA360FE
:104A00000CD304F11000103AE360032A0446E9D8FD
:104A100007E000BF04F1080002E000BF04F10C0051
:104A20002A4622B1CBB211461A46FBF7B1FC3046FA
:104A300070BD00002DE9F041884640F20C01C2F241
:104A400000010A78054682420F460AD00F4617F841
:104A5000100FA84205D011F8200FA84218BF00215E
:104A60000F46F868FFF72EFE0646C0B1FA683046DA
:104A700000210024FFF762FF3046414608223572CC
:104A8000747200F047FAFBF79FFB57F8041F324699
:104A900042F80C1F4A603A605760FBF799FB3046BA
:104AA000BDE8F08110B5044600202072FBF78CFBB6
:104AB0002246216952F80C3F5960216922610B603E
:104AC0001260FBF785FB2046BDE81040FFF78CBA6B
:104AD00010B5044600202072FBF776FB54F80C1F3B
:104AE00062684A6062681160C4E90044BDE8104031
:104AF000FBF76EBB40F20C02C2F200021178814259
:104B000011460AD0114611F8103F834205D012F821
:104B1000201F814218BF002211460846704700003E
:104B2000F0B581B00E4640F20C01C2F2000115460C
:104B30000A780446B2420F460AD00F4617F8100F03
:104B4000B04205D011F8200FB04218BF00210F4627
:104B5000FFF7F0F9043738460068B84208D000681B
:104B6000B84205D00068B84202D00068B842F3D11C
:104B7000FFF7EEF946F08000207220462946082211
:104B800000F0C8F9FBF720FB396844F80C1F4C60B3
:104B90003C60676001B0BDE8F040FBF719BB000066
:104BA000007AC00970470000B0B5FBF70DFB40F27A
:104BB0000C15C2F200056988044629B12046BDE8FB
:104BC000B040FBF705BB00BFA868FDF721FB43F62B
:104BD000B4710138C2F2000151F830106A68A1F1D5
:104BE00014039342EAD0287043F62C706B60C2F233
:104BF0000000037802F11C0001F1080133B1FBF75A
:104C0000EAFA2046BDE8B040FBF7E2BAFBF7E3FA68
:104C10002046BDE8B040FBF7DBBA000010B5044603
:104C2000FBF7D2FA94F8341094F8352001F0F00133
:104C3000013184F8341043F6B471C2F2000101EB83
:104C4000C2014A6840F20C1C04F11403C2F2000CC9
:104C50001360A2614B60A26BDCF80830616143EA2B
:104C60000201CCF80810BDE81040FBF7B1BA000013
:104C7000B0B50546FBF7A8FA294651F8142F4B6842
:104C800053604B6849601A6091F8212043F6B47371
:104C90000960C2F2000353F8324003EBC2029442AF
:104CA00004D0BDE8B040FBF793BA00BF40F20C124D
:104CB000C2F20002A96B936823EA01019160BDE88A
:104CC000B040FBF785BA000070B515460A460221D0
:104CD0001C460646FFF724FF06F11400C6E905004E
:104CE0000020B583747270BDB0B50546FBF76CFA51
:104CF0002A4652F8141F044691420BD0A1F1140029
:104D000000F090FB2046FBF763FAFFF74DFF002011
:104D1000B0BD00BFA88B4FF6FF71884206D1204678
:104D2000FBF756FA6FF00200B0BD00BF0130A88358
:104D30002046FBF74DFA0020B0BD00002DE9F043FE
:104D400081B00E4607460091FBF73EFAB98B8046CC
:104D500041B1481EB8834046FBF73AFA002001B043
:104D6000BDE8F083D6B300F081FB05460020286340
:104D70007C7A284607F1140900F0E8FBB4B3012C53
:104D80003CD148460068484530D095F8351090F839
:104D9000212091421AD30068484527D095F8351054
:104DA00090F82120914211D3006848451ED095F813
:104DB000351090F82120914208D30068484515D05D
:104DC00095F8351090F821209142DBD2416805F129
:104DD00014020A60A961426068610FE04046FBF777
:104DE000F7F96FF0010001B0BDE8F083B86905F193
:104DF00014010160A861B961C5F81490012E09DBA6
:104E000005F144066A463046002100F005FD3046B3
:104E100000F09AFD4046FBF7DBF9FFF7C5FE286B73
:104E2000002808BF002001B0BDE8F08380B582B043
:104E30000AA0FFF72DFC0CA0FFF72AFC0FF24C0C88
:104E400015A0032101220523CDF800C0FFF720FCA7
:104E500019A002B0BDE88040FFF71ABC0A205C2010
:104E60007C202F0A000000002D205254202D2020ED
:104E7000202020546872656164204F7065726174EF
:104E8000696E672053797374656D0A004A616E20FC
:104E90002038203230323400202F207C205C20202B
:104EA00020202025642E25642E2564206275696CDF
:104EB000642025730A0000002032303036202D2077
:104EC0003230323020436F707972696768742062C3
:104ED000792072742D746872656164207465616DE7
:104EE0000A000000014600BF0A7862B14A784AB160
:104EF0008A785AB1CA780431002AF5D10139081AE2
:104F0000704700BF0131081A704700BF0231081A0C
:104F1000704700002DE9F0418046DAB3C2F1000C81
:104F200000234446CF5C08F80370DFB10CEB0306A6
:104F3000771C2FD2CF18787808EB03056870A8B1DA
:104F4000B01C27D0B878A870B0B1F01C22D0F87887
:104F5000E870D8B1043304341CEB0300A2F104025E
:104F6000E0D117E0601C511E0AD113E0A01C013AE9
:104F7000511E05D10EE000BFE01C023A511E09D0BF
:104F8000FBF70EFA4046BDE8F08100BF033A281D4A
:104F9000511EF5D14046BDE8F081000021F0030329
:104FA0008C46192B014631D3C81C20F00300A3F115
:104FB000180282422AD310B5191A40F2D404A1F182
:104FC0001802C2F20004C4E900204FF4F5520C3973
:104FD0004FF0000CC0E90021C0F808C041F6A06005
:104FE000C0F201001A4642F80C0D43F8081C206874
:104FF000A2600C3043F8040C04F1180005A1012252
:105000000023FFF761FE6068E06010BD03A0624608
:10501000FFF73EBB68656170000000006D656D20A4
:10502000696E69742C206572726F7220626567699F
:105030006E206164647265737320307825782C204B
:10504000616E6420656E64206164647265737320B0
:10505000307825780A00000010B543F6B472C2F229
:10506000000202F11800C2E9060002F1200002F17C
:10507000080302F11001C2E9080002F14000C2E990
:105080000233C2E9041102F1280102F1300302F1F6
:105090003804C2E9100002F16000C2E90A11C2E955
:1050A0000C33C2E90E4402F1480102F1500302F14F
:1050B0005804C2E9180002F18000C2E91211C2E9E5
:1050C0001433C2E9164402F1680102F1700302F1DF
:1050D0007804C2E9200002F1A000C2E91A11C2E975
:1050E0001C33C2E91E4402F1880102F1900302F16F
:1050F0009804C2E9280002F1C00040F20C1EC2E987
:105100002211C2E92433C2E9264402F1A80102F1C6
:10511000B00302F1B804C2E9300002F1E000C2F2CB
:10512000000EC2E92A11C2E92C33C2E92E4402F171
:10513000C80102F1D00302F1D804C2E938001F20EF
:105140004FF0000CC2E93211C2E93433C2E93644EF
:1051500002F1E80102F1F00302F1F8048EF8000018
:105160000EF10C00AEF802C0C2E90022C2E93A1109
:10517000C2E93C33C2E93E44CEE901CCCEE90300AA
:1051800010BD000010B540F20C14C2F20004A0687B
:10519000FDF73EF843F6B471C2F2000101EBC00026
:1051A00050F8080CA0F1140108306160BDE810400F
:1051B000FBF73FB840F22010C2F20000011DC0E929
:1051C00001117047704700002DE9F04383B00F468E
:1051D000014601201D461646FFF72CFC00283DD055
:1051E00004462846FFF76EFA00283DD004F114016A
:1051F000DDE90A98C4E9051123212A46C4E90876A5
:10520000C4E90A05FFF79AFB04F120030FCB1A4407
:1052100045F27923043AC0F60003FFF7FFF945F29F
:105220009152E061002704F14400C0F600022146DB
:10523000234684F8369084F83590C4E90E78C4F893
:105240004080276384F83470C4E91C770097019785
:1052500000F060FB204603B0BDE8F0830024204648
:1052600003B0BDE8F08300BF2046FFF71BFC00241D
:10527000204603B0BDE8F08370B540F21010C2F2D2
:1052800000000568FAF7A0FF0446FAF79DFF296FB2
:10529000064609B1284688473046FAF799FF28465E
:1052A000FFF7E6FC042085F8340005F1440000F027
:1052B00019FB2846FFF774FC012809D12846FFF79F
:1052C00007FCFFF771FC2046BDE87040FAF780BF8D
:1052D00040F21810C2F20000016845F8141F4D603A
:1052E00005606860FFF760FC2046BDE87040FAF793
:1052F0006FBF000040F21816C2F2000603E000BFC4
:105300002046FAF765FFFAF75FFF31680446B142BD
:10531000F6D0D1E90020A1F1140550604B6848692E
:105320001A60C1E90011FEF75FFE2846FFF7BAFBDD
:10533000E6E7000010B584B044F2B4024FF4807187
:10534000C2F2000240F2AC241F20CDE90021C2F2DB
:10535000000445F2F5224FF0200C029007A1C0F6A0
:10536000000220460023CDF80CC000F00BF82046C8
:1053700004B0BDE8104000F0BBB800BF7469646CB5
:10538000650000002DE9F04782B00DF1280A1646AD
:105390000A46DDF834909AE8800501211D4604464E
:1053A000FFF7BEFB04F11400C4E9050038462321D1
:1053B0004246C4E90865C4E90A78FFF7BFFA04F178
:1053C00020030FCB1A4445F27923043AC0F60003B8
:1053D000FFF724F945F29152E061002704F14400FF
:1053E000C0F600022146234684F836A084F835A092
:1053F000C4E90E79C4F84090276384F83470C4E996
:105400001C770097019700F085FA002002B0BDE8F4
:10541000F087000080B500F001F900F02DF80020C1
:1054200080BD0000B0B5044690F8340000F00F00D5
:1054300002281CBF4FF0FF30B0BDFAF7C5FE224670
:10544000A16952F8143F05465960A16904F144006E
:105450000B60A261126000F0E1FA2846FAF7B8FE8C
:105460002046FFF7DBFB0020B0BD000040F210102B
:10547000C2F2000000687047F0B581B00090FAF702
:10548000A3FE40F21011C2F200010C68054694F828
:10549000341001F00F01012913D1FAF795FE0646E9
:1054A0002046FFF7E5FB94F8340000F0F0000230EE
:1054B00084F8340004F1440000F0B0FA3046FAF702
:1054C00087FE04F144066A4630460021002700F0BA
:1054D000A3F9304600F038FA2846FAF779FEFFF7CC
:1054E00063FB206B023008BF2763002001B0F0BDD2
:1054F000B0B5044690F83600012184F8350001FA71
:1055000000F0A063022084F83400FAF75DFE224622
:10551000A16952F8143F05465960A16904F144009D
:105520000B60A261126000F079FA2846FAF750FE8B
:105530002046FFF773FB40F21010C2F20000006833
:10554000002818BFFFF730FB0020B0BDB0B50446FF
:1055500090F8340000F00F0001281CBF4FF0FF301E
:10556000B0BDFAF731FE05462046FFF781FB94F8FF
:10557000340000F0F000023084F8340004F14400FC
:1055800000F04CFA2846FAF723FE0020B0BD0000D8
:1055900080B50246816952F8143F6FF0010C5960E2
:1055A0008169C0F830C00B6082611260FFF736FB82
:1055B000BDE88040FFF7F8BA10B5FAF705FE40F2F3
:1055C0001011C2F20001096891F8342002F00F02B4
:1055D000012A1FD10A4652F814CF53689C4519D0AE
:1055E000CCF8043091F835E043F6B473C2F200030E
:1055F00003EBCE03D1F818E08A615C68CEF800C0F6
:1056000022608C615A604B61FAF7E2FDFFF7CCFA39
:10561000002010BDFAF7DCFD002010BD002844BFBB
:105620004FF0FF30704744F6D351C1F26201A0FB46
:1056300001239A094FF47A7302FB1300584300F2D6
:10564000E730A0FB010102FB03F000EB9110704773
:1056500044F2B810C2F200000068704780B544F20E
:10566000B810C2F20000016801310160FFF7FEFED0
:10567000016C0139016403D0BDE8804000F008B836
:10568000C16B0164FFF798FFBDE88040AFF3008075
:105690002DE9F04F85B003AFCDE90377FFF7D8FFD1
:1056A0000546FAF791FD40F22014C2F200042146AB
:1056B00051F8048F0190884500F0A8804FF6FE79DC
:1056C000C7F6FF79201D6FF0004B02901CE000BF71
:1056D0000E6808462168C6F804800131216018F878
:1056E0000B1CC8F80060C0F80080C8F8040041F046
:1056F000010008F80B0C5046FAF76AFD204650F8F6
:10570000048F804500F08280D8F81400281A48459C
:105710007CD8D8E900104860D8F8042018F80B0CA1
:1057200011608107C8F800805CBF00F0FE0008F837
:105730000B0C0398C0F80480C8F80000D8E90210E8
:10574000CDF80C80C8F804708847FFF781FF0399F3
:105750000546B942D2D0D8E900014160D8F804101A
:10576000C8F80480086018F80B0CC8F8008000F036
:1057700003010329C2D100F0FE0008F80B0CFAF770
:1057800023FDD8E9001282464A6018F80B0CD8F8BD
:10579000042000F0FE001160C8F80080C8F8048002
:1057A00008F80B0CFFF754FFD8F81010029B0A18EA
:1057B000A168C8F814208B428AD018684669B61AC6
:1057C00001D05E451CD388423FF482AF03685E6916
:1057D000B61A01D05E4517D38B423FF479AF1868F3
:1057E0004669B61A01D05E450AD388423FF470AFCD
:1057F00003685E69B61ADED04E451E46DBD869E7FF
:105800000646184666E700BF1E4663E70198FAF7AA
:10581000DFFC05B0BDE8F08F70B514460E460546B6
:10582000FAF7D2FC042E07D8DFE806F0040A1018B5
:10583000200000BF21686962FAF7CAFC002070BD31
:10584000696A2160FAF7C4FC002070BD697A01F032
:10585000FD016972FAF7BCFC002070BD697A41F065
:1058600002016972FAF7B4FC002070BD697AC907B9
:105870000CBF002101212160FAF7AAFC002070BDB5
:1058800070B50E4601460A201C461546FFF7D2F8B1
:10589000002808BF70BD049900F1140201F0FE0158
:1058A00041720021C0E90522C0E90765C0E909414C
:1058B00070BD000010B50446FAF786FC2246A169C7
:1058C00052F8143F5960A169A2610B60617A1260BD
:1058D00001F0FE016172FAF77BFC2046FFF7E2F867
:1058E000002010BD10B50446FAF76EFC2246A169EF
:1058F00052F8143F5960A169A2610B60617A12608D
:1059000001F0FE016172FAF763FC2046FFF7E0F850
:10591000002010BD2DE9F04115460A46DDE9068755
:105920000A211C460646FFF7FBF807F0FE007072DE
:10593000002006F11401C6E90511C6E90754C6E9BD
:105940000980BDE8F08100002DE9F0410446FAF736
:105950003BFC264656F8141F8046726816F80B0C5E
:105960004A60726800F0FE0011603660766006F8EA
:105970000B0CFFF76DFE40F2201E3169C2F2000EE3
:10598000DEF808304FF6FE7C0A180EF104076FF0BF
:105990000045C7F6FF7C72619F421FD03968486995
:1059A000801A01D0A8421DD3994217D00F68786998
:1059B000801A01D0A84219D39F420FD03968486994
:1059C000801A01D0A84213D3994207D00F68786992
:1059D000801AE1D060453846DED80BE018681946D9
:1059E00008E000BF0846394604E000BF384601E041
:1059F0000846394646606061607ADEF8002040F073
:105A00000100013260724046CEF800200E60A161B4
:105A1000FAF7DEFB0020BDE8F081000010B5044677
:105A2000407AC00704BF4FF0FF3010BDFAF7CCFB3F
:105A300054F8141F62684A6062686460116014F868
:105A40000B1C246001F0FE0104F80B1CFAF7C0FBEC
:105A5000002010BD2DE9F04F85B09B46144600EBA9
:105A6000010A4FF020090391002948BF4FF0FF3A87
:105A7000049002E0411C013408462178252907D012
:105A8000002900F0CB83504538BF0170F2E700BF1A
:105A90000234002114F8012CA2F12007102F00F28B
:105AA0006D801023DFE807F00A6A6A0C6A6A6A6A86
:105AB0006A6A6A0E6A126A6A100000BF082305E06B
:105AC000202303E0042301E0012300BF22781943CF
:105AD000A2F12007102F00F28D801023DFE807F0DD
