:020000040800F2
:10000000D84C0020CD01000841400008B102000892
:100010003D400008F92300084542000800000000A8
:10002000000000000000000000000000DF010008E8
:10003000FD230008000000003B02000845400008C6
:10004000E7010008E7010008E7010008E7010008F0
:10005000E7010008E7010008E7010008E7010008E0
:10006000E7010008E7010008E7010008E7010008D0
:10007000E7010008E7010008E7010008E7010008C0
:10008000E7010008E7010008E7010008E7010008B0
:10009000E7010008E7010008E7010008E7010008A0
:1000A000E7010008E7010008E7010008E701000890
:1000B000E7010008E7010008E7010008E701000880
:1000C000E7010008E7010008E7010008E701000870
:1000D000E70100082D42000839420008E701000846
:1000E000E7010008E7010008E701000800F002F856
:1000F00000F05DF80AA090E8000C82448344AAF165
:100100000107DA4501D100F052F8AFF2090EBAE862
:100110000F0013F0010F18BFFB1A43F0010318473B
:100120000CB700002CB70000103A24BF78C878C183
:10013000FAD8520724BF30C830C144BF04680C60ED
:10014000704700000023002400250026103A28BF35
:1001500078C1FBD8520728BF30C148BF0B60704739
:1001600067290AF0E986692900F0E881642900F02E
:10017000E581782900F01E82732900F0C0870020F5
:1001800070471FB59DE8030000F0ECFC01F002FB96
:100190000400002000210AF067FA401C6060002083
:1001A00000210AF077FAE0601FBD10B510BD01F024
:1001B00035FE1146FFF7E5FF02F0F4F802F096F87D
:1001C00003B4FFF7F2FF03BC02F0C6F8094880470A
:1001D00009480047FEE7FEE7FEE7FEE7FEE7FEE729
:1001E000FEE7FEE7FEE7FEE704480549054A064B41
:1001F000704700001D410008ED000008D8460020AF
:10020000D84C0020D8480020D8480020EFF31080B8
:1002100072B6704780F310887047324A1368012B1A
:1002200004D04FF0010313602F4A10602F4A116071
:100230002F484FF0805101607047EFF3108272B683
:100240002848016891B14FF000010160264801681B
:1002500029B1EFF3098121E9F00F0068016023491A
:1002600009680968B1E8F00F81F3098882F3108802
:100270004EF0040E70471D4908601B494FF0000006
:10028000086018494FF0010008601A481A49D0F870
:10029000002041EA0201016015484FF080510160E1
:1002A00016480068006880F3088861B662B6704737
:1002B0001EF0040F0CBFEFF30880EFF3098020E974
:1002C000F00F40F804ED1EF0040F0CBF80F3088817
:1002D00080F3098800B507F00BFC5DF804EB4EF0E5
:1002E000040E704700460020744300207C43002029
:1002F00004ED00E020ED00E00000FFFF08ED00E06D
:1003000070B5064600F00EFC056806F10B0020F003
:100310000704B4429CBF002070BD2B466A68BAB186
:100320001068A04210D304F1080188423CBF506815
:10033000586007D35168101941601168091B0160AA
:1003400058601460101D70BD13465268002AE7D132
:100350002146284600F0F2FB0028DED170BD70B5C2
:100360000446051F00F0DEFB0068002C14BF446843
:1003700070BD002C18BFAC423CBF20466468F8D367
:1003800001680A18AA4218BF456003D12A680546C9
:100390001144016028684119A1421CBF6C6070BD06
:1003A0006168696021680844286070BD70B50D46B9
:1003B0000646041F00F0B6FB0268BDB1DEB105F1D0
:1003C0000B0020F00701A9423CBF002070BD23684C
:1003D0008B4238BF506813D35A1A082A36D3601894
:1003E00040F8042B2160FFF7BAFF2FE03046FFF7FB
:1003F000B6FF002070BD2846BDE87040FFF780BF03
:10040000002818BFA0423CBF02464068F8D303EB67
:10041000040C84451CD1D0F800C06344994217D81D
:10042000A3EB010CBCF1080F0DD3D0F804C0631886
:10043000C3F804C0D4F800C000686044401A1860D3
:100440002160536002E0236040685060201D70BD51
:100450002846FFF755FF050008D031462068021FE7
:10046000284600F065FA201DFFF779FF284670BD89
:100470000FB41CB5084B06AA7B446946009005984A
:1004800000F013FE04460020694600F021FE2046DD
:100490001CBC5DF814FB0000550C000070B5044650
:1004A00085690068C10601D5302600E02026C00716
:1004B00007D070BDD4E9012130469047206A401C26
:1004C00020626D1EF6D570BD70B504468569007852
:1004D000C00707D170BDD4E9012120209047206AD0
:1004E000401C20626D1EF6D570BD70B50C460546E9
:1004F000012A05D02878800600D5EA69002302E0A9
:10050000012305E05B1C934202D2E05C0028F9D194
:10051000A869E618C01AA861286A18442862284603
:10052000FFF7BCFF04E0D5E9012114F8010B904767
:10053000B442F8D32846FFF7C7FF70BD2DE9F0415C
:100540000646002410687529314616A510D0AFF371
:100550000080002802DA404213A507E031688A07CC
:1005600001D512A502E0490704D511A5012401E037
:10057000AFF3008000210A2206F1240709E0B0FB56
:10058000F2FCB0FBF2F302FB1C003030785418464A
:10059000491C0028F3D123462A463046BDE8F041E5
:1005A00000F016BB000000002D0000002B00000032
:1005B0002000000070B504460D4621461068AFF3D8
:1005C00000802188090502D50F4A7A4402E00E4ACC
:1005D0007A440E32002104F1240305E000F00F06F6
:1005E0000009965D5E54491C0028F7D1207800234D
:1005F000000704D5702D02D009B102231132204624
:10060000BDE8704000F0E4BA6AAA00002DE9F05F8E
:10061000894604464FF0000ADFF824B1FB44C0F8D5
:1006200020A02046E168884700287DD0252806D0F4
:10063000D4E901219047206A401C2062F1E700259F
:100640005F462046E16888472028064607DB312EB2
:1006500005D2B81910F8200C08B10543F1E7A80736
:1006600001D525F00405C4F81CA00027C4F818A083
:100670002A2E09D0304609F07AFF38B304EB8708F8
:10068000303EC8F8186019E059F8041B204604EB06
:1006900087029161E1688847012F064618D1E06919
:1006A000002820DA25F020051DE0D8F8180000EB1E
:1006B000800006EB40003038C8F818002046E1689A
:1006C0008847064609F053FF0028EED1012F0AD0D3
:1006D0002E2E08D12046E16888477F1C0646022F4F
:1006E00045F02005C4DBA069002803DA404245F04C
:1006F0000105A061E80701D025F01005A6B1A6F11B
:100700004100192802D8203645F400654A46314692
:10071000204625604D46FFF723FD60B1012807D034
:10072000ED1D25F0070000E007E000F1080978E77B
:1007300005F1040975E730467AE7206ABDE8F09FC5
:1007400040AA00000FB400B58DB010A90990009127
:100750000B904FF0FF300A9000200C900648784430
:100760000690064878446A4607900F9909A800F059
:100770004DFF0DB05DF814FBCB0E0000E30E000042
:1007800070B5064600F0D2F90468054630460A22E4
:10079000002100F0C3FF2C6070BD401ECAB210F8EB
:1007A000011F8A4202D00029F9D10020704730B5DC
:1007B00005460B462A4613F8014B12F8010B08B107
:1007C000A042F8D01CB1002802D06D1CF1E72846E9
:1007D00030BD10B5431C02E010F8011B71B1810758
:1007E000FAD14FF0013202C88C1A8C4314EAC211BC
:1007F000F9D0C01A0A0603D0C01E10BDC01A10BD21
:100800000A0401D0801E10BD0902FCD0401E10BD9C
:1008100040EA010370B59B072ED14FF00136042A40
:100820002AD308C810C99D1B9D43121F15EAC6157F
:1008300017D0D8B2E1B2401A50EA056110D198B28F
:10084000A1B2401A50EA05410AD123F07F4024F0BA
:100850007F41401A50EA052102D1180EA0EB146026
:1008600070BDA342DBD018BA21BA884201D9012059
:1008700070BD4FF0FF3070BD0AB9002070BD10F898
:10088000013B11F8014B63B1A3420AD1521E08D0BB
:1008900010F8013B11F8014B1BB1A34201D1521ECC
:1008A000EDD1181B70BD032A40F2308010F0030C0C
:1008B00000F0158011F8013BBCF1020F624498BFB3
:1008C00011F801CB00F8013B38BF11F8013BA2F150
:1008D000040298BF00F801CB38BF00F8013B11F0CB
:1008E000030300F02580083AC0F0088051F8043B6B
:1008F000083A51F804CBA0E80810F5E7121D5CBFD8
:1009000051F8043B40F8043BAFF30080D20724BF0A
:1009100011F8013B11F801CB48BF11F8012B24BF9E
:1009200000F8013B00F801CB48BF00F8012B7047ED
:1009300010B5203AC0F00B80B1E81850A0E818506C
:10094000B1E81850A0E81850203ABFF4F5AF5FEABC
:10095000027C24BFB1E81850A0E8185044BF18C961
:1009600018C0BDE810405FEA827C24BF51F8043B08
:1009700040F8043B08BF7047D20728BF31F8023B5C
:1009800048BF11F8012B28BF20F8023B48BF00F8F0
:10099000012B704702F0FF0343EA032242EA0242BE
:1009A00000F002B84FF000020429C0F0128010F0ED
:1009B000030C00F01B80CCF1040CBCF1020F18BF3B
:1009C00000F8012BA8BF20F8022BA1EB0C0100F0CE
:1009D0000DB85FEAC17C24BF00F8012B00F8012BA1
:1009E00048BF00F8012B70474FF0000200B51346D6
:1009F00094469646203922BFA0E80C50A0E80C503F
:100A0000B1F12001BFF4F7AF090728BFA0E80C50EF
:100A100048BF0CC05DF804EB890028BF40F8042BE8
:100A200008BF704748BF20F8022B11F0804F18BF55
:100A300000F8012B704710B5044610F0030F08BFF3
:100A400011F0030F40F015804FF0013E121FC0F26D
:100A50000E8051F8043BA3EB0E0C2CEA030C1CEAAD
:100A6000CE1C08BF40F8043BF0D0A1F1040102F114
:100A70000402521E08DB11F8013B00F8013B002B79
:100A8000F7D11146FFF78EFF204610BD4FF0013C15
:100A900050F8042B51F8043B9A4221D1A2EB0C03ED
:100AA000934313EACC1317D150F8042B51F8043BAD
:100AB0009A4215D1A2EB0C03934313EACC130BD14A
:100AC00050F8042B51F8043B9A4209D1A2EB0C03D5
:100AD000934313EACC13DBD04FF00000704700BF04
:100AE000D01A01BAB1FA81F101F0180122FA01F02D
:100AF000CB40DBB2C0B2C01AC1F120012CFA01F325
:100B0000D11A914311EAC311E6D17047704770477B
:100B10007047000010B500F03DFE001D10BD00BF85
:100B2000499B000000487047500000200048704773
:100B300048000020704770477047704738B504463A
:100B40000A4600206946AFF30080002808BF38BD80
:100B500002460099204600F021FE012038BD012008
:100B600001F054B9F8B5AFF30080054600200C46FB
:100B7000102000BF0646A819A0420DD9324669468A
:100B80000020AFF30080070008BF01F03FF9009894
:100B9000A04218BF0546C419FFF7C4FF0560074609
:100BA000F01D20F007004619284600F00AF8B4426C
:100BB00008BFF8BDA21B31463868BDE8F84000F018
:100BC000EDBD00210160C0E90110704710207047A1
:100BD0002DE9F0470D4699469246044600F1240857
:100BE0000168880604D5E06921F01001216000E069
:100BF0000120A84201DD471B00E00027A1697A1906
:100C000002EB0900081AA0612078C00602D4204631
:100C1000FFF744FC002608E0D4E901211AF8060099
:100C20009047206A401C761C20624E45F4DB2078F9
:100C3000C0060AD52046FFF731FC06E0D4E90121C1
:100C400030209047206A401C2062381EA7F101071F
:100C5000F4DC07E0D4E9012118F805009047206A88
:100C6000401C2062281EA5F10105F3DC2046FFF799
:100C70002BFC2078000602D50220BDE8F087012079
:100C8000FBE72DE9FF4F0C461E464FF0FF378BB0B8
:100C9000D2E90001DDF860800A908A46C1F30A5566
:100CA00005B93D46002108464FF00000BAF1000F9B
:100CB00000F4400005DA00EB80004FF4400101EA47
:100CC00050004FEA9059B9F1010F00DDB9460A987A
:100CD00050EA4A000ED044F61050A5F2FF354543C5
:100CE0002F14B8F1000F1ED07542291E1EDDC9F168
:100CF00000021CE0B8F1010F4FF0000001D03021DC
:100D000003E0F24305E02154401CB042FBDB3046D7
:100D10000022002121540B99C1F80880C1E900206C
:100D20000FB0BDE8F08FBD1B6D1CDEE74A4600DA50
:100D3000694206A800F0F8FF06AB93E8070003AB92
:100D400083E8070050460A9908F047FF8DE807003E
:100D5000A0F500501F3800900398002D0ADD42F2E4
:100D60001F014A460844002303A90390684609F07E
:100D7000F3F909E0A0F500504A461F38002303A903
:100D80000390684609F012FA8DE807000004000C91
:100D900003D04FF0FF30410800E01046B8F1000FDB
:100DA00003D00022009215461EE0751E05D400F007
:100DB00022FD303262556D1EF9D5B346012208433B
:100DC00002D000227F1C04E02078302801D10022CC
:100DD0007F1E002A099784D01DE0112D07DA00F04C
:100DE0000AFD303262556D1C50EA0102F5D108430C
:100DF00002D00098C8B10EE00021681E05E0235C17
:100E0000625C63542254401E491C8142F7DBAB46AE
:100E1000A81B401E0990002004F80B000B98099AAB
:100E2000C0F80880C0E9002B7AE711264FF00008CF
:100E300057E72DE9F04F88460446D21D22F00701FE
:100E400091B0D1E90001CDE90A0109F0FBFA0246AF
:100E50000B98C00F01D02D2007E02068810701D535
:100E60002B2002E0202101EAC000032A099001D0D2
:100E7000072A05DB03464146204600F00BFD0BE147
:100E80002078800601D5E06900E00620B8F1650F02
:100E9000814606D0B8F1660F18D0B8F1670F70D14F
:100EA00031E00020B9F1110F009001DB112301E0C6
:100EB00009F101030AAA01A90CA8FFF7E2FEDDE986
:100EC0000C70002609F10105834647E001204B46DE
:100ED00000904FF000470AAA01A90CA8FFF7D1FE25
:100EE000DDE90DB00C995D46002610B909F101004D
:100EF0000D18B9EB050003D4C0F1FF3609F1010567
:100F0000A5EB09002BE0B9F1010F01DA4FF001095F
:100F10000020B9F1110F0090484601DD112300E0D7
:100F200003460AAA01A90CA8FFF7ABFEDDE90C7085
:100F30004D4600268346207800070AD4AB4500DAE8
:100F40005D4601A8012D04DD411911F8011C30296D
:100F500007D04F4502DA17F1040F04DA0120824668
:100F60000FE06D1EEEE7002F02DCED1B3E4403E0B8
:100F7000781CA84200DD7D1CB81B00F1010A4FF06F
:100F800000472078000703D4AA4501DB4FF0FF3A61
:100F90000021B7F1004F0DF143088DF8431024D024
:100FA00002202B23002F01DA7F422D230A21021E6B
:100FB000A0F1010000DC5FB197FBF1FC97FBF1F2BF
:100FC00001FB1C7C17460CF1300C08F801CDEEE754
:100FD000A8F1010003702188090501D5452100E031
:100FE0006521A0F1010800F8011C09980FA9A1EBE7
:100FF0000807FF1D00B10120411901EBEA70A1694A
:101000003844081A401EA0612078C00602D4204649
:10101000FFF744FA099828B1D4E901219047206AE2
:10102000401C20622078C00622D52046FFF736FA01
:101030001EE0002E04DBB34502DD01A8805D00E068
:101040003020D4E901219047206A401C2062761CA0
:10105000AAF101005FEA000A0AD100F09BFBC06818
:101060000168405CD4E901219047206A401C20625D
:10107000281EA5F10105DCDC07E0D4E9012118F800
:10108000010B9047206A401C2062381EA7F101071F
:10109000F3DC2046FFF718FA032011B041E6000008
:1010A00001694A1C02610878704700B58FB0CDE92C
:1010B00001310021059105497944CDE9031011461C
:1010C0006846FFF7A3FA0FB000BD0000E5FFFFFF81
:1010D0000A6802F8010B0A60704710B5436913B142
:1010E000AFF3008001E0FFF700FA012010BD127895
:1010F00000F124010A7000224A700122EDE7116814
:101100004FF0FF32E9E700002DE9FF4F06468BB0B4
:101110000878FF2806D0491C2D2805D000244FF060
:10112000000908E000200CE00124F8E709EB89033E
:10113000491C00EB43090878FF28F7D114B1C9F125
:1011400000008146107800252C46AA4629462D2805
:1011500001D02B2804D1521C2D2813D00020824608
:101160008B461078FF280FD04FF0000C0A21521C3C
:10117000A5FB017804FB018105FB0C11C5194BEBA4
:101180000104EEE70120EAE7002108464FF00000E5
:10119000BAF1000F02D000EB80004008C0F3815785
:1011A000012F01DD4FF0FF370E9955EA040009EBDE
:1011B00001080BD04FF0020918F5FA7F16DA4FEA52
:1011C000CA70002F706008DD012007E04FEACA7086
:1011D000C6E900B00FB0BDE8F08F00203060FFF727
:1011E000A5FCC0F800901821084616E0B8F5FA7F73
:1011F00018DD002F02DAF748784401E0F648784419
:10120000D0E90010C6E9001040EACA707060FFF72C
:101210008DFCC0F80090142108460FB0BDE8F04FD7
:1012200009F087BE002108464FF00000B8F1000128
:10123000099002DAC7F1000200E03A4601DAC8F18B
:10124000000106A800F070FD06AB93E8070003ABB1
:1012500083E8070044F23E005BEA04010090584630
:1012600004D144F21E012C465D460091210C090474
:10127000014306D10099240444EA15442D04103991
:10128000009104F07F41014306D10099240244EA11
:1012900015642D020839009104F07041014306D114
:1012A0000099240144EA15742D01091F009104F0EE
:1012B0004041014306D10099A40044EA9574AD0071
:1012C000891E009104F00041084304D100986D1973
:1012D0006441401E00904FF001033A466846B8F161
:1012E000000FCDE9014503A902DD08F074FF01E01C
:1012F00008F047FFBAF1000F04460D4601D084F014
:101300000044002108464FF00000099940F2FF77A1
:10131000484010F00C0F07D124F00040284303D0C0
:10132000C4F30A50B84212D1FFF700FCC0F8009095
:10133000C4F30A50B8420AD1A8487844D0E9001052
:10134000C6E9001004F000410843706042E7C6E9B6
:1013500000543FE72DE9FF4F1F464FF0000A4FF0C2
:10136000FF38454691B0D7E90146CDF83CA000F0E2
:1013700011FAC0680168405C1090B96912986D1C40
:101380008847396A814688470028F6D1B9F1FF3F7E
:101390000AD0002E24F4D06411DDB9F12B0F08D04F
:1013A000B9F12D0F0BD102E0404615B013E744F41C
:1013B0008064B96912986D1C8847761E8146600565
:1013C00004A901D52D2000E02B20002E01F1010BF6
:1013D0000DF130088DF810003FDDB9F1690F08D02C
:1013E000B9F1490F05D0B9F16E0F02D0B9F14E0F26
:1013F0001CD13B4601A8009580E85002DDE912129D
:101400006FF0020009F0FEFDC11CCED10EE0B969FB
:1014100012986D1C884781461398761E44F4007418
:1014200005600F98401C002E0F9016DDB9F1300FAB
:10143000EDD0B9F1780F02D0B9F1580F0DD10F9856
:1014400001280AD13B46CDE90054DDE91212001F04
:10145000029609F0D5FDC11CA7D1109989453ED14E
:1014600044F0800406E01399681CAAF1010A44F4D0
:1014700000740860B9696D1C1298761E8847302880
:101480008146F0D02BE01099894505D1200603D480
:10149000761E44F0800418E0484609F068F808B366
:1014A000761E0DF123029345A9F1300044F4007437
:1014B00006D20BF8010B200607D5AAF1010003E0C4
:1014C000200602D40AF101008246A00502D5139934
:1014D000681C0860B96912986D1C88478146002E07
:1014E000D1DC53E0002E51DDB9F1650F02D0B9F126
:1014F000450F4BD1A00549D5B9696D1C1298761ED0
:1015000024F440748847002E81460CDD2B2804D03B
:10151000B9F12D0F07D144F48074B96912986D1C8C
:101520008847761E8146E00501D52D2100E02B215C
:1015300008F8011BCDF8008021E0761E0DF139017D
:10154000884544F400740CD2A9F1300010F0FF007B
:1015500088F8000002D10099884509D908F10108EE
:1015600006E0E00501D51E4801E042F20F70824618
:10157000B96912986D1C8847814613980560002E42
:1015800004DD484608F0F3FF0028D6D1F969129827
:101590008847FF2053468BF8000088F800000020A1
:1015A0000A900B9004AA0CA90AA8FFF7ADFDA005AC
:1015B00002D46FF00100F8E614F0240F12D0E00717
:1015C0001CD13868DDE90A12031D3B600068C0E9E0
:1015D000001213E058A600004AA600000EA5000065
:1015E000F1D8FFFF0AA9684608F050FFE00705D1CF
:1015F0003868009A011D3960006802602846D4E608
:10160000026811441378016018467047D16005499B
:1016100079445161044979441162002111611146F4
:1016200000F078B9EDFFFFFF67020000426842B1A9
:10163000016811F8013B23B1521EC0E9001218469F
:1016400070470121C160881E704742685AB1C36863
:10165000016843B983688B4205D0491E521CC0E91A
:101660000012002070474FF0FF3070470FB40B009E
:1016700010B54FF000048AB00FA900910E99CC600C
:10168000234C7C44234A7A44CDE9064200D004230B
:101690006FF00042CDE901321F4A7A446B4608924E
:1016A0000246002009F0AAFC0AB010BC5DF814FB49
:1016B000F0B507464FF0FF301E4615460C463B4638
:1016C00085B06A460091CDE90101314600200490C1
:1016D00004A8FFF7CBFF04990346601825B109B1B0
:1016E000024600E022462A6000290ED0002B02DDCF
:1016F0000099814209D03B466A463146001B00945E
:10170000CDE9010404A8FFF7B1FF05B0F0BD00006A
:10171000A7FFFFFFC1FFFFFFE30100002DE9F04736
:1017200091460F4680460446002614F8015B2DB111
:10173000FFF7F0F90068405DC007F6D12B2D02D00D
:101740002D2D18D0641E4A463946204600F09CFADA
:1017500027B13968A14201D1C7F800804FF00204D7
:1017600071050BD54042002803DDFFF7DFF9046067
:10177000A007BDE8F08746F48066E4E70028F8DAC1
:10178000FFF7D4F904606FF00040F2E700487047BB
:101790004800002000487047680000200346406869
:1017A0008C46002818BF88423CBF03464068F8D3E7
:1017B00018681844884207D00CF1030020F0070095
:1017C000001D411A521A0146081D0A60FEF7C7BDE6
:1017D000B2F120030AD5C2F1200301FA02F120FA86
:1017E00003F341EA030100FA02F0704700FA03F143
:1017F0004FF00000704730B5B0F10A0271F10003FC
:101800004FEA900E4EEA817EB0EB0E0061EB910143
:101810004FEA101E4EEA017E10EB0E0041EB111153
:101820004FEA102E4EEA016E10EB0E0041EB112133
:101830004FEA104E4EEA014E10EB0E0041EB114103
:10184000401841F100014FEAD00040EA41704FEAF0
:10185000D1014FEA810444EA907410EB800544EB17
:1018600001046D1944EB0404521BA3414FF0000323
:1018700048BF0A3200D530BD401C41F1000130BDE7
:1018800010B50446FFF746F90068005D00F001005E
:1018900010BD00002DE9F0411F46044603260168F3
:1018A000072A01F4006004DB08B116A505E016A5BF
:1018B00003E008B115A500E015A521F01000206097
:1018C000A069C01EA0610FB1401EA0612046FEF7B6
:1018D000E5FD4FB1D4E9012138469047206A401C0C
:1018E0002062C01C206206E0206AFAE7D4E90121E8
:1018F00015F8010B9047761EF8D22046FEF7E4FD5E
:10190000BDE8F0814E414E006E616E00494E4600CA
:10191000696E66002DE9F34F4FF0000A0C465646FB
:101920008DB001200C9001F10C000B9062690B98B6
:1019300001219047051E2DD0252D2CD0216A8847E6
:10194000C0B162690B9801219047216A884700283D
:10195000F7D16269411E0B98904700E0761CA1699F
:101960000D988847216A88470028F7D1E1690D98CA
:101970008847DBE7A1690D988847A842074601D14F
:10198000761CD3E7E1690D9888477F1C02D1BAF134
:10199000000F6FD06BE162690B9800273D46394616
:1019A00090472A2804D162690B98012190470125AC
:1019B000DFF8D08262690B9801219047A0F13001D5
:1019C0000A290AD24745E5DC07EB870100EB41070E
:1019D000303FDFD445F01005ECE7E90601D46FF0A5
:1019E00000476C280AD04C2814D0682815D06A28E3
:1019F0000DD074281CD07A281AD01DE062690B988B
:101A0000012190476C2802D045F0040514E045F010
:101A100002050DE045F020050AE062690B980121FE
:101A20009047682802D045F0080505E045F40065B8
:101A300062690B9801219047C4E9015765283DD0A0
:101A400019DC58287AD00CDC452837D004DC25284E
:101A500026D041289ED131E046282FD0472899D161
:101A60002CE05B2877D0612828D063287CD06428BC
:101A700023D15AE0F6E06F2848D008DC66281DD054
:101A800067281BD0692821D06E2816D127E070283E
:101A900045D0732868D0752847D078280DD14DE0FF
:101AA000A1690D988847252805463FF469AFE1698B
:101AB0000D9888476D1C3FF46AAFD8E00D99234616
:101AC0006A466FF0010009F099FAC5E045F0400060
:101AD00023464FF000026060A80736D43EE0E807D6
:101AE0007FF447AF2068011D21600068290501D5FA
:101AF00006701BE7290701D5068017E7A90703D55C
:101B0000F117C0E9006111E706600FE745F04000FA
:101B100023464FF008026060A80716D41EE040F686
:101B20000E0125EA0100606016E045F04000234602
:101B30004FF00A026060A80707D40FE045F04000AC
:101B40006060A80708D5234610220D996FF00100A8
:101B5000AFF3008080E007E0102223460D996FF07C
:101B60000100AFF3008077E04FF0000963284F4693
:101B7000C8464B46CB4602D05B2806D038E0E80684
:101B800001D40120A060012732E06269D4F80CB0D2
:101B90000B98012190475E2807D14FF00109494673
:101BA0006269D4F80CB00B989047216939B90021CB
:101BB0000A4603AB43F82120491C0829FADBD8B3B5
:101BC000216949B308F1010862690B980121904726
:101BD0005D28F4D1B9F1000F09D0002003A951F814
:101BE0002020D24341F82020401C0828F7DB03AB1B
:101BF0002069002820794FEA40701ED05B462246BB
:101C0000CDF80080CDE901970D9900286FF0010013
:101C100020DAAFF300801FE0C11703AA00EBD16107
:101C20004B1121F01F0102EB8302411A13680120BE
:101C3000884003431360C7E719E00D992246002846
:101C40006FF00100009702DAAFF3008004E0AFF319
:101C5000008001E0AFF3008000280ADA401C06D1C2
:101C60000C9820B14FF0FF300FB0BDE8F08F504618
:101C7000FAE7E90701D10AF1010A064400200C90B5
:101C800054E60000CCCCCC0C2DE9F05F8246154622
:101C90008B4600270AF10104B9460078302801D0AC
:101CA0009DB113E014F8010B0127782803D05828C0
:101CB00001D045B10AE00DB1102D07D1002714F86D
:101CC000010B102502E0082500E00A250026B04699
:101CD0000EE005FB080005FB06F101271FFA80F85E
:101CE00001EB1046B6F5803F00D3B94614F8010B5E
:101CF000294600F0C3F80028EBDABBF1000F05D04D
:101D00000FB1641E00E05446CBF80040B9F1000F5B
:101D100006D0FEF70BFF02210160C81EBDE8F09F50
:101D200048EA0640FAE700002DE9F04781461646EA
:101D30008AB0354878440DC88DE80D0032487844A3
:101D4000801C03AC0DC884E80D0041F69B300844AC
:101D5000372190FBF1F290FBF1F5A5F1800501FB35
:101D600012041B3C02D56442012000E00020DFF891
:101D700098A080460027FA44AAF1BE0A0EE0E007C8
:101D80000AD03246684607EB470101230AEB81017E
:101D900008F00CFA8DE8070064107F1C002CEED1CF
:101DA000194F7F44AE3F19E0E80715D007EB041048
:101DB0000DF1180A90E80E008AE80E00C068F042A3
:101DC00001D1981908903246012306A903A808F00A
:101DD000EDF903AB83E807006D10641C002DE3D11F
:101DE0004FF0010332466946B8F1000F03A802D054
:101DF00008F0B2F901E008F0D9F9C9E90001C9F821
:101E000008200AB0BDE8F087B893000010B500F0D4
:101E10007BFABDE8104000F072BA70477546FFF7D4
:101E2000B5FCAE4605006946534620F007008546DE
:101E300018B020B5FEF7D8F9BDE820404FF00006F5
:101E40004FF000074FF000084FF0000BAC46ACE835
:101E5000C009ACE8C009ACE8C009ACE8C00921F091
:101E600007018D46704710B5FEF760FE006810BD93
:101E700010B50446FEF75AFE046010BD3A2800D2A1
:101E8000303820F02002412A01D3A2F137008842E5
:101E900001D34FF0FF3070472DE9FF4F1F464FF041
:101EA0003C0987B04FF00042DDE9141001F1010850
:101EB000DDF858A002EA40500390002005908346C8
:101EC000054604460490B969461E08988847AAF159
:101ED000010A0290BAF1000F3BDD02982E2815D0BE
:101EE0001021FFF7CBFF00282EDB4FF0010B0599E7
:101EF000014317D0B9F1000F0BDB4A46C117FFF7BA
:101F000067FC05430C43A9F1040905E00120049096
:101F10000BE008B145F0010501200590049820B9B7
:101F2000361D02E0049800B1361FB969089808F11F
:101F300001088847BBF1000FAAF1010A0290C9D03D
:101F40000999C1F80080C5E70298702808D0502888
:101F500006D0F96908988847BBF1000F14D04FE00C
:101F6000002002900120BBF1000F049009D0B96954
:101F7000089808F101088847AAF10109B9F1000F92
:101F800007DCF969089888476FF001000BB0BDE8DD
:101F9000F08F2B2804D02D280CD14FF0FF30049067
:101FA000B969089808F101088847A9F10109B9F150
:101FB000000FE6DD411CE4D00A21FFF75FFF002897
:101FC000DFDB029908F1010801EB810100EB410020
:101FD0000290B969089888470A21FFF74FFF099ACC
:101FE000A9F10109B9F1000FC2F8008001DD002854
:101FF000E7DAF969089888470499029800FB0166B6
:1020000055EA040004D004F04041090002D006E083
:10201000039898E0A40044EA9574AD00B61E04F05D
:102020000041080002D16D196441761E159810F028
:10203000240F03D04FF00B095C4803E04FF0280950
:102040006FF07D008246564507DAAAEB0601894407
:10205000B9F1410F01DD4FF0410901200021A9F143
:102060000102FFF7B5FB024628400B46214008431A
:1020700001D0012100E00021501E029143F1FF3107
:1020800028402140084301D0012000E000200299AF
:10209000834651EA0B014FD0002108464FF0000063
:1020A000039900F4400039B100EB80004FF4400187
:1020B00000EBD07001EA60008015012802DD4FF0CE
:1020C000FF3000E013D0401C36D0029860B3BBF163
:1020D000000F0CD14A4601200021FFF779FB284070
:1020E0002140084301D0012000E00020E0B10120A0
:1020F0004A460021FFF76CFB034640190A4661413E
:102100002D1A8C4111D3B9F1400F09DD159810F04B
:10211000240F02D0AAF1340603E0AAF1170600E06A
:10212000761C00254FF0004406E05B1E42F1FF32B2
:1021300020EA030521EA0204CAF10100B04206DAEE
:102140001B49039808430190002000900EE0039A79
:10215000C4F3D321E80A0A43164940EA44500A432B
:102160003146CDE90002684608F0F6F9159810F0FE
:10217000240F0BD01598C00715D13868DDE900127F
:10218000031D3B600068C0E900120CE002A869462C
:1021900008F07CF91598C00705D13868029A011D2E
:1021A0003960006802604046F0E6000002FCFFFF74
:1021B0000000F07F0000F03F2DE9FF4F92461D46E2
:1021C00085B04FF00041DDE9124BDDE914727F1E4E
:1021D00001EA4B50414940F0FF4940EA0108002123
:1021E00022F020004928049102D04E2828D04CE04B
:1021F0003BA0012607C88DE80700A9690698641C62
:1022000088477F1E014606D41DF8060018B121F04C
:10221000200181420BD0E96906988847032E34D00B
:10222000082E32D06FF0010009B0BDE8F08F761CA7
:10223000032E01D0082EE0D1601CCAF80000DCE7B4
:10224000A9690698641C88477F1E2AD420F02000C4
:10225000412826D1A9690698641C88477F1E20D48E
:1022600020F020004E281CD1A9690698641C8847DC
:102270007F1E48F4002849F48009CAF8004001D4C0
:10228000282806D0E969069888475FEACB7012D003
:1022900022E0A9690698641C88477F1E01D40028A3
:1022A00003DAE96906988847BCE72928F1D1641C5C
:1022B000CAF80040E9E71BF0240F07D0286804990A
:1022C000031D2B600068C0E9001805E02868021DA6
:1022D0002A600068C0F800902046A5E70000F07F63
:1022E000494E46494E4954590000000010B5044675
:1022F000AFF300802046BDE81040FDF761BF002825
:1023000001D000F029B8704710B5012805D0002190
:1023100003A000F027F8012010BD09A1F8E7000094
:1023200053494752544D454D3A204F7574206F66BE
:102330002068656170206D656D6F72790000000026
:102340003A2048656170206D656D6F727920636F0A
:10235000727275707465640001491820ABBEFEE7A7
:102360002600020070B505460C460A2000E06D1CF0
:1023700000F011F835B128780028F8D102E0641C8B
:1023800000F009F814B120780028F8D1BDE87040B9
:102390000A20AFF3008008B569468DF800000320DD
:1023A000ABBE08BD80B582B0FDF730FF05F03CFB49
:1023B00006F0BCF906F07EFB06F0CEFA0A2000908B
:1023C0004BF25B4045F619014FF0140CC0F60000CB
:1023D000C0F6000100224FF48063CDF804C006F07F
:1023E00073FB06F005FD06F06DFB06F023FC06F01E
:1023F00049FB002002B080BDFEE7000070470000EE
:10240000EFF3108072B600BFFEE700002DE9F04F39
:102410008DB0834640F2682090468946C2F20000A3
:10242000DBA108224FF0FF3301F01EFC06F090FD07
:10243000074606F08DFDC01B41F2873140F2A80A25
:102440008842C2F2000A16D844F208644BF24845AA
:10245000C2F20004C0F6000541F288362046294643
:10246000FEF7A5F9B0B91E2006F054FC06F070FD89
:10247000C01BB042F2D30120CAF808004BF226403C
:102480004BF24841C0F60000C0F6000105F080FDA7
:102490000AE000BF00208AF8000044F20860C2F29F
:1024A0000000C821FEF7A0FA4FF4FA6006F032FCF3
:1024B00040F26820C2F20000B8A10D224FF0FF33B5
:1024C00001F0D2FBDAF80800D0BB06F041FD074668
:1024D00006F03EFDC01B41F28731884217D844F216
:1024E00008644BF24845C2F20004C0F6000541F210
:1024F000883600BF20462946FEF759F9B0B91E209C
:1025000006F008FC06F024FDC01BB042F2D3012007
:10251000CAF808004BF226404BF24841C0F60000D2
:10252000C0F6000105F034FD0AE000BF00208AF883
:10253000000044F20860C2F20000C821FEF754FA1D
:102540006C469AA120465A464B46FDF791FF20461D
:10255000FEF73FF982B240F26820C2F20000214645
:102560004FF0FF3301F080FBDAF80800D0BB06F033
:10257000EFFC054606F0ECFC401B41F28731884237
:1025800017D844F208644BF24846C2F20004C0F681
:10259000000641F2883700BF20463146FEF707F9B2
:1025A000B0B91E2006F0B6FB06F0D2FC401BB842C4
:1025B000F2D30120CAF808004BF226404BF2484102
:1025C000C0F60000C0F6000105F0E2FC0AE000BF22
:1025D00000208AF8000044F20860C2F20000C8211E
:1025E000FEF702FA0A20ADF80C0043F65850C0F688
:1025F0003150029045F24900C5F24D50019045F22C
:102600004140C4F22B306C4600902046FEF7E1F8C2
:1026100082B240F26820C2F2000021464FF0FF3340
:1026200001F022FBDAF80800D0BB06F091FC054669
:1026300006F08EFC401B41F28731884217D844F2E5
:1026400008644BF24846C2F20004C0F6000641F2AC
:10265000883700BF20463146FEF7A9F8B0B91E20E2
:1026600006F058FB06F074FC401BB842F2D3012080
:10267000CAF808004BF226404BF24841C0F6000071
:10268000C0F6000105F084FC0AE000BF00208AF8D3
:10269000000044F20860C2F20000C821FEF7A4F96D
:1026A0006C4640F6000547A120464246C4F20105AB
:1026B000FDF7DEFE2046FEF78CF840F26828C2F2F5
:1026C000000882B2404621464FF0FF3301F0CCFAB9
:1026D000DAF8080020B10120CAF8040040E000BF89
:1026E00006F036FC064606F033FC801B41F28731CB
:1026F000884216D844F208694BF24844C2F20009F5
:10270000C0F6000441F2883748462146FEF74FF8EC
:10271000B0B91E2006F0FEFA06F01AFC801BB84283
:10272000F2D30120CAF808004BF226404BF2484190
:10273000C0F60000C0F6000105F02AFC0AE000BF68
:1027400000208AF8000044F20860C2F20000C821AC
:10275000FEF74AF9DAF808000121CAF8041048B176
:102760002846802100F0CEF94FF4FA7006F0D2FA34
:10277000F6E700BF28468021012200F0CBF9D8F807
:102780000000406814A005F003FC0DB0BDE8F08F18
:1027900041542B5253540D0A0000000041542B4366
:1027A000574D4F44453D310D0A00000041542B4325
:1027B000574A41503D222573222C222573220D0AAF
:1027C0000000000041542B43495053455256455296
:1027D0003D312C25730D0A00E5889DE5A78BE58C1E
:1027E00096E5AE8CE688900A00000000014690F85D
:1027F0002100022816D10868D1E90FC3026822F02F
:102800000E020260026822F001020260012000FA5A
:1028100003F2CCF8042081F821000020002281F886
:1028200020207047042088630120002281F82020A6
:102830007047000080B590F82110022924D1026869
:10284000116821F00E0111602F211368C4F20201FA
:102850008A4240F20401C4F2020123F00103136032
:1028600016DD3023C4F202039A421DD04423C4F281
:1028700002039A421CD05823C4F202039A421DD18B
:102880004FF4803322E000BF04218163012080BD2A
:102890000823C4F202039A420ED01C23C4F202039E
:1028A0009A420BD1102311E04FF480730EE000BF69
:1028B0004FF480530AE000BF012307E001F1680CE8
:1028C0004FF08073624508BF4FF480130B60012105
:1028D00080F82110426B002180F820100AB1904747
:1028E0000021084680BD00002DE9F04F82B00E683F
:1028F000002E00F0038141F20042C4F201020423E1
:1029000040F2004E904208BF03234FF6FF7CC4F212
:10291000010E009300240123C1F2100C4FF0000AB5
:102920004FF0000949E000BF012704F00C030F221B
:102930009A402BEA020207FA03F34FEA9A051A4378
:1029400046F82520D1F804B040F20C455FEACB22CE
:10295000DEF8082054BF22EA080242EA0802C4F264
:102960000105CEF808202A685FEA8B2354BF22EACB
:10297000080242EA08022A605FEA8B33DEF804208C
:1029800054BF22EA080242EA08025FEACB33CEF8DB
:102990000420DEF800204FF0010354BF22EA0802B1
:1029A00042EA0802CEF800200E680AF1010A36FA5F
:1029B0000AF204F1040400F0A18003FA0AF816EA0E
:1029C000080FF1D04E68664512DC122E56D8DFE8AB
:1029D00006F0350B454955555555555555555555E1
:1029E0005555554D510000BFD1F80C9046E000BF41
:1029F0004FF6FF72C1F2210296420FDC0022C1F2B3
:102A0000110296421AD00022C1F21202964215D04B
:102A10000022C1F22102964210D02FE00022C1F222
:102A2000220296420AD00022C1F23102964205D01B
:102A30000022C1F23202964220D100BF8A684AB118
:102A4000012A14BFC0F81480C0F810804FF00809A4
:102A500014E000BF4FF0040910E000BFCA6802F1A3
:102A600008090BE04FF0000908E000BFCA6802F156
:102A7000040903E0CA6802F10C0900BF22460646B9
:102A8000BAF1080F24BF203A043637680F25954065
:102A900027EA050509FA02F22A433260CA79D2060A
:102AA0007FF582AF41F21803C4F202031A68AEF553
:102AB0007E7642F001021A601A6802F00102019269
:102AC000019A2AF0030256F802B040F60002C4F25E
:102AD0000102904210D040F60042C4F2010290423E
:102AE0003FF422AF41F20002C4F20102009F904283
:102AF00008BF022719E700BF002716E702B0BDE8AC
:102B0000F08F0000C26802EA0103914341EA0341E9
:102B100001617047002A08BF090401617047000085
:102B200044F2D060C2F200000068704770B5B8B3DC
:102B3000044690F83D0028B9002084F83C00204667
:102B400000F0B0F8242084F83D002068016821F0EE
:102B500001010160016841F400410160016821F454
:102B60000041016000F060FA48F28041C0F21E01AD
:102B700040F60013D4F804E088424FF00001C0F2A0
:102B80003D0348F2A16C4FF0000238BF012198428A
:102B9000C0F2010C38BF0122E64538BF0A460AB12F
:102BA000012070BD4DF68361C4F21B31A0FB011200
:102BB0002168950C4B684FF4967623F03F0343EA67
:102BC0009243754344F6D3564B60C1F262060B6ADA
:102BD000A5FB0656B50923F03F03E64538BF950C23
:102BE0006A1C1A430A62CA6948F2A0664CF6FF736F
:102BF000C0F20106B64522EA03020BD801384FEABB
:102C00004E03B0FBF3F001306FF31F30042898BF80
:102C100004201EE0A368013863B119230EFB03F3FF
:102C2000B0FBF3F001306FF31F3078B100F5804056
:102C300008E000BF0EEB4E03B0FBF3F001306FF382
:102C40001F3028B100F5004003E000BF012000E084
:102C500001201043C8610868D4E9072320F0C000B0
:102C6000104318430860886848F2FF3204F10C06EC
:102C700090434CCE18431043A5698860C86820F083
:102C8000FF0030432843C860086840F00100086036
:102C900000202021206484F83D10206384F83E0049
:102CA00070BD000010B586B045F200410068C4F266
:102CB000000100228842049202D006B010BD00BF7D
:102CC00041F21804C4F20204206840F008002060B9
:102CD000206800F0080001900198C02002901220A6
:102CE00003900320059001F5384002A9FFF7FCFD91
:102CF000606840F400106060606800F400100190AB
:102D0000019806B010BD000080B542F20000C4F288
:102D10000200016841F010010160032000F08EF80C
:102D2000002000F005F800F027F8002080BD00002A
:102D300070B540F20006C2F2000640F20801327897
:102D4000C2F200014FF47A730968B3FBF2F2044651
:102D5000B1FBF2F1084600F069FB0F2C4FF00105C2
:102D600008D838B94FF0FF3021460022002500F086
:102D700039F87460284670BD82B041F21800C4F280
:102D800002000168022241F001010160016801F0C6
:102D9000010101910199416841F080514160406811
:102DA00000F08050009000980420C4F201000168F7
:102DB00062F31A61016002B070470000002848BF4A
:102DC0007047C1B200F01F00012202FA00F04EF27B
:102DD0000012CEF2000242EAD10121F003010860A4
:102DE0007047000010B54EF60C5CCEF2000CDCF81B
:102DF0000030C3F3022E8EF00704042C28BF0424F5
:102E0000BEF103034FF0FF3E0EFA04F438BF002377
:102E1000A14399400EFA03F39A43114300F00F02C5
:102E200000F160430901043A03F564436244002859
:102E300048BF02F10C03197010BD00004EF60C5192
:102E4000CEF200010A684FF6FF031A4060F30A222F
:102E500042F0806040F0FD70086070472DE9F0435B
:102E600081B0002800F0858042F20008C4F2020818
:102E70000446D8F800000D4600F0070088420CD246
:102E8000D8F8000020F007002843C8F80000D8F860
:102E9000000000F00700A8426BD1206841F204094D
:102EA0008107C4F2020917D5410705D5D9F80010EA
:102EB00041F4E061C9F80010010705D5D9F8001008
:102EC00041F46051C9F80010D9F80010A26821F04F
:102ED000F0011143C9F80010C00741D1D8F8000033
:102EE00000F00700A8420CD9D8F8000020F0070035
:102EF0002843C8F80000D8F8000000F00700A842F6
:102F000037D12068410707D5D9F80010E26821F4CD
:102F1000E0611143C9F80010000708D5D9F8000096
:102F2000216920F4605040EAC100C9F80000D9F8D6
:102F3000002002F00C00082841F20020C0F27A00C4
:102F400050D14BF22223C2F38341C0F60003595CF7
:102F5000D2033BD440F60010C0F23D00484341E0AC
:102F6000606802280AD001282AD159F8041C890374
:102F700008D4012001B0BDE8F08300BF59F8041C5B
:102F80008901F6D5D9F8001021F003010843C9F8EA
:102F90000000FFF7C5FD064641F28837D9F800006A
:102FA000616800F00C00B0EB810F97D0FFF7B8FD1F
:102FB000801BB842F2D9032001B0BDE8F08300BF06
:102FC00059F8041C8907D4D5DCE700BFD9F80020E4
:102FD0004BF22013C2F34042C0F600039A5C484310
:102FE000B0FBF2F0D9F800104BF20812C1F3031154
:102FF000C0F60002515C40F2080220FA01F140F2F2
:103000000400C2F200000068C2F200021160FFF783
:103010008FFE002001B0BDE8F083000040F2080000
:10302000C2F200000068704740F2080041F204015B
:10303000C2F20000C4F20201006809684BF21812E3
:10304000C1F30221C0F60002515CC8407047000085
:1030500040F2080041F20401C2F20000C4F2020191
:10306000006809684BF21812C1F3C221C0F60002D1
:10307000515CC840704700002DE9F04182B0002843
:1030800068D00446007841F20006C007C4F2020688
:1030900025D0706800F00C0004281BD0706800F088
:1030A0000C00082802D17068C00313D4606800289F
:1030B00000F06881B0F5A02F00F07C81B0F5803F72
:1030C00000F07C81306820F480303060306820F47B
:1030D000802076E13068800301D56068D0B3207825
:1030E000800718D5706810F00C0F07D0706800F0DA
:1030F0000C0008286ED17068C0036BD4306880075C
:1031000002D52069012825D13068616920F0F800D6
:1031100040EAC1003060207800071FD420784007C3
:1031200032D4E56995B1706800F00C00082840F0D1
:103130008F80012D0ED07068216A00F480328A429F
:1031400008D1616A00F47010884203D1002002B0F7
:10315000BDE8F081012002B0BDE8F081A06900283F
:1031600062D00020C4F242200121C0F88014FFF791
:10317000D7FC0546706A800700F18C80FFF7D0FC11
:10318000401B0228F6D92AE1F06910F0805808D1D6
:10319000F06940F08050F061F06900F080500090DC
:1031A000009847F20007C4F200073868C00529D428
:1031B000386840F480703860FFF7B2FC054600BF05
:1031C0003868C0051ED4FFF7ABFC401B6428F7D954
:1031D00005E100BF2069002840F20000C4F242204F
:1031E00000F0828001210160FFF79AFC054600BFD4
:1031F000306880073FF588AFFFF792FC401B02283C
:10320000F6D9ECE0E068002800F08080052800F0A6
:103210009780012800F09880306A20F00100306229
:10322000306A20F0040092E00020C4F24220002125
:10323000C0F88014FFF774FC054600BF706A800771
:103240007FF56CAFFFF76CFC401B0228F6D9C6E097
:103250000027C4F2422700203866FFF761FC022DE8
:1032600005460BD13068800140F1BE80FFF758FC65
:10327000401B02284FF00300F4D968E73068800152
:103280007FF564AFFFF74CFC401B02284FF00300B2
:10329000F4D95CE740F20800C2F20000006844F68E
:1032A000D351C1F26201A0FB0101480A019000BFA5
:1032B00000BF0198411E002801913FF42FAF00BFCD
:1032C0000198411E002801913FF428AF00BF0198EA
:1032D000411E002801913FF421AF00BF0198411E1B
:1032E00000280191E4D119E700210160FFF718FCE3
:1032F000054600BF306880077FF50DAFFFF710FC73
:10330000401B02284FF00300F4D920E7306A20F078
:1033100001003062306A20F004003062FFF700FCE8
:10332000054641F2883700BF306A800720D5FFF795
:10333000F7FB401BB8424FF00300F5D907E700BF89
:10334000306A40F004003062306A40F001003062C0
:10335000FFF7E6FB054641F2883700BF306A800779
:1033600006D4FFF7DDFB401BB842F7D937E000BFBA
:10337000B8F1000F7FF4D5AEF06920F08050F06115
:10338000CFE600BF306820F480303060306820F431
:1033900080203060FFF7C4FB054600BF3068800323
:1033A0007FF59DAEFFF7BCFB401B64284FF0030088
:1033B000F4D9CCE6306840F480203060306840F4C6
:1033C00080303060FFF7ACFB054600BF30688003FB
:1033D0003FF585AEFFF7A4FB401B6428F6D9032018
:1033E00002B0BDE8F08100BF206AB0F5803F05D192
:1033F0007168A26821F40031114371607168626ADA
:1034000021F4741111430843706001203866FFF7FE
:1034100087FB0446306880013FF598AEFFF780FBDC
:10342000001B02284FF00300F4D990E6411E002053
:10343000B0EB116F1CBF012070474EF21002CEF2AC
:10344000000251604EF62351CEF20001F0230B70C2
:1034500007219060116070477047000070470000BE
:10346000B0B582B0044600680168C368426901F0E3
:103470002F05202D03F0200506D12DB1204602B0E6
:10348000BDE8B04000F052BE5FEA017C1EBF02F012
:10349000010E03F4907212EB0E0253D1226B012A3B
:1034A00005D111F0100218BF13F0100236D10A0630
:1034B00022D513F080021FD094F8411021293FD16A
:1034C000A168B1F5805F03D12169002900F0708205
:1034D000216A4A1C226209784160E18C01390A04A0
:1034E000E1842DD1C16821F08001C160C16841F043
:1034F0004001C16002B0B0BD490621D513F04001C2
:103500001ED0C16821F04001C1602021204684F80E
:10351000411002B0BDE8B04000F0E2BC00210191D2
:10352000016801914168019101994069400613D4F5
:10353000A08DE18DE28D002A18BF884240F0BA814B
:1035400002B0B0BDCA0718BF13F4807240F0B68055
:103550004A0700F1B980BEE0E06B016849688AB2B1
:10356000002AEDD0A38D9A42EAD2E1858069202815
:1035700000F09C80206850E8030F216820F48070E0
:1035800041E80302DAB1206850E8030F216820F413
:10359000807041E8030292B1206850E8030F21686F
:1035A00020F4807041E803024AB1206850E8030F1C
:1035B000216820F4807041E80302002ADAD12068F3
:1035C00050E8050F216820F0010041E80502DAB15A
:1035D000206850E8050F216820F0010041E805024D
:1035E00092B1206850E8050F216820F0010041E801
:1035F00005024AB1206850E8050F216820F001005B
:1036000041E80502002ADAD1206850E8050F216858
:1036100020F0400041E80502DAB1206850E8050FCB
:10362000216820F0400041E8050292B1206850E88E
:10363000050F216820F0400041E805024AB12068EA
:1036400050E8050F216820F0400041E80502002AFB
:10365000DAD1202084F8420000202063206850E85E
:10366000030F216820F0100041E80302DAB120685E
:1036700050E8030F216820F0100041E8030292B1E6
:10368000206850E8030F216820F0100041E8030291
:103690004AB1206850E8030F216820F0100041E88B
:1036A0000302002ADAD1E06BFFF7A0F80220606382
:1036B000A08DE18D401A81B2204674E1626C42F027
:1036C000010262644A0706D5BEF1000F03D0626CA6
:1036D00042F0020262648A0706D5BEF1000F03D0F1
:1036E000626C42F004026264BCF1000F09D545EA45
:1036F0000E02B2FA82F2520903D1626C42F0080261
:103700006264626C002A3FF41BAF11F0200118BF05
:10371000002D03D0204600F009FD20684069616C4F
:1037200000F0400001F00801401800F0B58000BF33
:10373000206850E8030F216820F4907041E80302EC
:10374000BAB3206850E8030F216820F4907041E874
:10375000030272B3206850E8030F216820F49070D0
:1037600041E803022AB3206850E8030F216820F4DF
:10377000907041E80302002ADAD11AE0206850E88C
:10378000050F216820F0010041E80502DAB1206848
:1037900050E8050F216820F0010041E8050292B1D0
:1037A000206850E8050F216820F0010041E805027B
:1037B0004AB1206850E8050F216820F0010041E877
:1037C0000502002ADAD1206B012824D1206850E8B4
:1037D000030F216820F0100041E80302DAB12068ED
:1037E00050E8030F216820F0100041E8030292B175
:1037F000206850E8030F216820F0100041E8030220
:103800004AB1206850E8030F216820F0100041E819
:103810000302002ADAD1202084F84200002020632D
:103820002068406940063FD5206850E8050F2168B0
:1038300020F0400041E80502DAB1206850E8050FA9
:10384000216820F0400041E8050292B1206850E86C
:10385000050F216820F0400041E805024AB12068C8
:1038600050E8050F216820F0400041E80502002AD9
:10387000DAD1E06BC0B144F22111C0F6000141631E
:10388000FEF7D8FF00283FF45BAEE06B416B02B05F
:10389000BDE8B040084700BF2046FFF7DFFD00202D
:1038A000606402B0B0BD00BF204602B0BDE8B040C9
:1038B000FFF7D4BD401A216851E8031F226821F4A4
:1038C000907142E80313DBB1216851E8031F2268BD
:1038D00021F4907142E8031393B1216851E8031F6A
:1038E000226821F4907142E803134BB1216851E83A
:1038F000031F226821F4907142E80313002BDAD1F0
:10390000216851E8051F226821F0010142E80513F2
:10391000DBB1216851E8051F226821F0010142E86E
:10392000051393B1216851E8051F226821F00101B8
:1039300042E805134BB1216851E8051F226821F0C8
:10394000010142E80513002BDAD1202184F842104E
:1039500000212163216851E8031F226821F0100132
:1039600042E80313DBB1216851E8031F226821F00C
:10397000100142E8031393B1216851E8031F226844
:1039800021F0100142E803134BB1216851E8031FF5
:10399000226821F0100142E80313002BDAD1022241
:1039A00081B22046626302B0BDE8B040FFF754BD6B
:1039B000216A31F8022B6FF35F22426021628CE5AD
:1039C000002804BF0120704710B5044690F841005C
:1039D00028B9002084F84000204600F063F8242035
:1039E00084F841002068D4E90212C36823F400532C
:1039F000C360036923F440531A430261D4E90423EA
:103A00001143C268194341F20C639A431143C160E8
:103A10004169A26921F44071114343F60002C4F2E6
:103A200001029042416103D0FFF7FEFA02E000BFBD
:103A3000FFF70EFB6268192148439100B0FBF1F0DB
:103A400048F21F51C5F2EB11A0FB01235A094FF6B2
:103A50009C73C0F6FF7302FB0300322303EB0010DC
:103A6000A0FB0101F02303EA5113206803EB0212CB
:103A7000C1F3431111448160016921F49041016156
:103A8000416921F02A014161C16841F40051C160DE
:103A900000202021606484F8411084F842106063A3
:103AA00010BD0000F0B585B0006844F20041C4F2DA
:103AB000000188424FF00001CDE90311CDE9011169
:103AC00022D043F60001C4F20101884253D141F2F1
:103AD0001800C4F202000168252441F4804101600D
:103AE00001684FF4806701F48041009100990168FA
:103AF00041F004010160006800F0040000900098AB
:103B00004FF4007019E000BF41F21800C4F2020047
:103B10004168262441F4003141604168082701F4DE
:103B2000003100910099016841F0040101600068D2
:103B300000F004000090009804200190022040F65C
:103B4000000502900320C4F2010501AE049028464E
:103B50003146FEF7C9FE0020CDE902002846314675
:103B60000197FEF7C1FE204600210022FFF73AF937
:103B70002046FFF723F905B0F0BD000090F8423071
:103B8000202B1CBF0220704700294FF0010318BFF3
:103B9000002A01D118467047002303638162222165
:103BA0008285C285436480F842100169006819B1BA
:103BB000C16841F48071C1604169002341F0010195
:103BC0004161C16841F02001C160184670470000A2
:103BD00040F26821C2F20001884218BF7047F0B578
:103BE00081B040F2A805C2F200052878C72807D3A3
:103BF00044F20860C2F20000C821FCF7F5FE002084
:103C00006B686A7844F20861461CC2F20001012B1D
:103C10002E700A5418D12B2A03D101262B202E7086
:103C2000087044F20864C2F200040DA12046FCF7BB
:103C3000BEFD48B100272046A75502F015F92046E1
:103C4000C8212F70FCF7D0FE40F26820691CC2F238
:103C50000000012201B0BDE8F040FFF78FBF00BFB8
:103C6000434C4F53454400002DE9F04381B00446D6
:103C700090F84100202840F0B180884600294FF09C
:103C8000010000F0D6801646002A00F0D280002005
:103C9000606421201D4684F84100FEF741FFA684A0
:103CA000E684A1680646B1F5805F03D1206900284B
:103CB00000F0988047464FF00008E18C206800290A
:103CC00000F0968005F101090BE000BF47B317F83B
:103CD000011B4160E18C0139E184E18C002900F095
:103CE000878001680906F1D4B9F1000F0AD0EDB15F
:103CF000FEF716FF801BA84218D820680168090645
:103D0000F6D5E3E701680906E0D4016809065CBF5F
:103D100001685FEA0161D9D401680906F2D5D5E7E7
:103D200038F8021B00276FF35F21D2E7206850E8C4
:103D3000030F216820F4D07041E80302BAB3206871
:103D400050E8030F216820F4D07041E8030272B3F9
:103D5000206850E8030F216820F4D07041E8030286
:103D60002AB3206850E8030F216820F4D07041E89E
:103D70000302002ADAD11AE0206850E8050F216812
:103D800020F0010041E80502DAB1206850E8050F93
:103D9000216820F0010041E8050292B1206850E856
:103DA000050F216820F0010041E805024AB12068B2
:103DB00050E8050F216820F0010041E80502002AC3
:103DC000DAD1202084F8410084F84200002084F8F1
:103DD0004000032001B0BDE8F08300BF022001B025
:103DE000BDE8F0830027E18C206800297FF46AAFEA
:103DF0000168490619D4FDB1691C0DD10168490655
:103E000013D4016849065CBF01685FEA41610CD4C4
:103E100001684906F2D508E0FEF782FE801BA84241
:103E20000AD8206800684006F6D5202084F84100B2
:103E3000002001B0BDE8F083206850E8030F21683E
:103E400020F4D07041E80302002A3ED0206850E8F8
:103E5000030F216820F4D07041E80302AAB3206860
:103E600050E8030F216820F4D07041E8030262B3E8
:103E7000206850E8030F216820F4D07041E8030265
:103E8000002AD9D121E000BF206850E8050F216841
:103E900020F0010041E80502002A3FF492AF2068BB
:103EA00050E8050F216820F0010041E80502002AD2
:103EB0003FF487AF206850E8050F216820F001002B
:103EC00041E80502002A3FF47CAF206850E8050F66
:103ED000216820F0010041E80502002AD4D170E7F2
:103EE000704700002DE9F04784B041F21800C4F299
:103EF0000200016840F6000941F004010160016818
:103F0000C4F2010901F00401009100990168002246
:103F100041F0080101600068F02100F00800009005
:103F200000984846F0260027FEF7F4FD09F5806565
:103F300028464FF4004100224FF40048FEF7EAFD06
:103F400000966E464FF0010A022448463146CDE9FC
:103F500001A70394FEF7C8FC28463146CDE9008A44
:103F6000CDE90274FEF7C0FC4FF48070CDE9000784
:103F7000484631460297FEF7B7FC04B0BDE8F0872B
:103F800080B540F2142045F20041C2F20000C4F2B4
:103F9000000148F2A06200234FF4804CC0F20102FD
:103FA00080E80E00C0E9033CC0E90533C0E90733EF
:103FB000FEF7BCFD002808BF80BDBDE88040FEF7CD
:103FC0001FBA000080B540F2682043F60001C2F23B
:103FD0000000C4F2010100234FF00C0C4FF4E13259
:103FE00080E80E00C0E90333C0E905C3C361FFF7F1
:103FF000E7FC002808BF80BDBDE88040FEF700BA9E
:1040000080B540F2B02044F20041C2F20000C4F298
:10401000000100234FF00C0C4FF4E13280E80E0059
:10402000C0E90333C0E905C3C361FFF7C9FC002839
:1040300008BF80BDBDE88040FEF7E2B9FEE70000A2
:10404000FEE7000080B503F087FF04F087FFBDE8BE
:10405000804003F08FBF0000B0B590B006AC201DCB
:104060002421FCF7C1FC0220069001200A901020B8
:104070000B90002520460D95FEF7FEFF20B1EFF3D3
:10408000108072B6FEE700BF0F20CDE9010501A840
:104090000021CDE903550595FEF7E0FE20B1EFF3D1
:1040A000108072B6FEE700BF10B0B0BD41F2040050
:1040B000C4F20200016801F00C01082941F200215C
:1040C000C0F27A0119D102680368C2F38342DB03AC
:1040D00002F1020206D440F60011C0F23D01514344
:1040E0000BE000BF03689B0302D4514305E000BF0F
:1040F00040F60011C0F23D01514340F20802C2F205
:104100000002116000684BF20813C0F30310C0F600
:104110000003185C21FA00F010607047704700003F
:10412000406A0021C185C184FFF798B981B090F839
:104130004210222921D183680246B3F5805F09D15C
:1041400052F8281F52F8183C002B63D003685B68B4
:104150000AE000BF52F8281F13B90369002BF5D0FD
:1041600003685B6803F07F030B7011680131116015
:10417000C18D01390A04C18502D001B0704700BF6A
:104180000168CA6822F02002CA60CA6822F48072FC
:10419000CA604A6922F001024A61202180F8421077
:1041A00000214163026B012A3CD10163016851E89F
:1041B000031F026821F0100142E80313DBB101681C
:1041C00051E8031F026821F0100142E8031393B184
:1041D000016851E8031F026821F0100142E803134F
:1041E0004BB1016851E8031F026821F0100142E859
:1041F0000313002BDAD101680A68D20606D5002223
:1042000000920A680092496800910099818D01B07E
:10421000FFF722B9026852686FF35F2221F8022B80
:104220008162A5E701B0FFF7D3BC000040F268202F
:10423000C2F20000FFF714B940F2B020C2F2000051
:10424000FFF70EB9FEE70000002804BF002070470A
:10425000C1B209B101200CE010F47F4102D0090A7B
:10426000092006E010F47F0107BF010E1920090C98
:1042700011204BF22212C0F60002515C0844704734
:1042800070B578B302686AB3D0E901C1614532D232
:10429000CCF1000E0B1DD41814F8041C202923D8CF
:1042A0000EEB0305D91E032D816021D014F8036C99
:1042B000202E1AD8991E022D816019D014F8026C94
:1042C000202E12D8591E012D816011D014F8014CF6
:1042D000202C0AD8836004330EEB03010429DAD1C1
:1042E00006E000BF002070BD191F614518BF70BDFA
:1042F000ACF10101816070BD70B5002808BF70BDD0
:1043000040F20C060446C2F2000603E0716828463B
:104310008847CCB1E16825462468C80504D4A8685C
:1043200010B1FFF7E9FFE968C80504D4286910B1A6
:1043300071688847E9688805E8D4286A0028E5D0CC
:1043400071688847E2E700BF70BD0000002804BF25
:104350000020704710B50446FCF73BFA411C20468C
:1043600000220023BDE81040AFF300802DE9F047A4
:1043700088B0054640F2C00A91460020C2F2000A09
:10438000002D0790CDE90500CDE90300CDE901003E
:10439000CAF80000CAF8040000F0AC800F460029FB
:1043A00000F0A88040F20C00C2F20000D0E9001238
:1043B0008068984607902820CDE90157CDE905127D
:1043C000884798B128210646FCF70EFB052F0FD32E
:1043D0005DA1284603220324FCF71AFA00280CBF2B
:1043E00003940024BC4206D33CE000BF002084E0DC
:1043F0000024BC4236D2285D202823D8C7F1000C07
:1044000020460CEB0002511C00F1010427D02B18B0
:10441000597820291CD8911C00F102041FD09978EA
:10442000202915D8D11C00F1030418D0D9782029EF
:104430000ED8111D12D01979043020290446E0D974
:1044400001E000BF0398BC42039009D00AE000BF1E
:104450002046BC42039003D004E000BF041D039437
:10446000781E039001A9304601F0D4FF00283ED009
:10447000B8F1000F5CD0DDE901EC039ABEF1000F4A
:1044800030D062452ED2CCF10007131D0EEB030491
:1044900014F8041C20291FD8F918DA1E03290392E6
:1044A0001DD014F8030C202817D89A1E0229039255
:1044B00015D014F8020C20280FD85A1E0129039297
:1044C0000DD014F8010C202807D803930433F818F2
:1044D0000428DBD103E000BF1A1F624502D1ACF112
:1044E00001020392624502D21EF8020000B3304678
:1044F000FFF702FFB5B1DDE90270002F394618BFA2
:104500000139B8424FF0000638BF0146B9F1000F3B
:104510001CBF6818C9F80000CAE90051304608B04D
:10452000BDE8F0870026304608B0BDE8F08700BF40
:10453000B9F1000FF2D0019803990844C9F80000BE
:10454000304608B0BDE8F087EFBBBF00012102F0A4
:104550003FB9000080B500F0CDFB002080BD000019
:1045600080B500F035FD002080BD000070B5044628
:104570000068B0B163684BB100294FF0000202D46B
:10458000A6689E4205D3104670BD00BF002908D41E
:10459000A6683144013199429CBF304470BD226904
:1045A00012B1002070BD00BFB1F1804F16D3B1F140
:1045B000FF3FF6DD6FF00045226A9AB9A1692846EF
:1045C0008847C8B10646A0682168421C3046FCF7FF
:1045D0006AF92068E169884708E000BF4D00226A57
:1045E000002AEBD029469047064628B1A0682660ED
:1045F00032186560104670BD2068E1698847002266
:104600001046C4E9002270BD40F60004102540F2B7
:104610008417C4F20104022808BF2025461EC2F2F6
:104620000007032808BF402557F8260001280BD1B2
:1046300020462946FEF766FA4FF47A7004F06AFBCA
:1046400057F826000128F3D0204629460022FEF71D
:1046500061FA322004F05EFB57F826000128F3D1FE
:10466000E6E70000F0B583B044F20964C0F6000448
:104670000A25052717A0214601224FF40063009761
:10468000019504F021FA40F2B406C2F2000630604F
:1046900013A0214602224FF400630097019504F015
:1046A00013FA706011A0214603224FF400630097B3
:1046B000019504F009FA3168B060084604F098FBEF
:1046C000706804F095FBB06803B0BDE8F04004F0FA
:1046D0008FBB00BF66656564696E673100000000CE
:1046E00066656564696E6732000000006665656432
:1046F000696E67330000000070B582B040F220168A
:104700004BF284704BF62C01C2F20006C0F600009A
:10471000C0F60001C6E900010120782103F064F829
:10472000706128B30A201521CDE9001044F2A97167
:1047300013A0C0F6000100224FF48063002404F0AF
:10474000C3F97269054610A110460022002303F048
:104750003BFF706990F8211041F0020180F82110B0
:104760001DB1284604F044FB0024204602B070BD71
:1047700007A003F00DFC4FF0FF34204602B070BDDF
:10478000747368656C6C00007368727800000000D8
:104790006E6F206D656D6F727920666F7220736821
:1047A000656C6C0A0000000040F2201AC2F2000A98
:1047B000DAF8140040F2901490F82110C2F20004CC
:1047C00041F0010280F82120880703D400202070E6
:1047D00026E000BFDAF8101041B140F29010C2F2AA
:1047E00000008022FCF727F91AE000BF01F03AFB35
:1047F00030B10020207147F26D30C2F2680009E04C
:1048000046F67300C0F22000C4F8030046F66610B6
:10481000C7F26E3020602046FBF7DBFF3E212152BD
:10482000204603F0B5FB4BF2D1664FF0010B4FF081
:104830000008C0F60006022702E000BF80F820B0A2
:1048400003F012F98146DAF81400B9F11B0FF5D024
:1048500090F82010022909D0012940F07580B9F1A3
:104860005B0F40F06F8080F82070E9E7A9F141010B
:10487000022980F82080E3D3B9F1440F00F292803E
:10488000DFE819F04600970097009700970097001F
:1048900097009700A000E00070009700970070005C
:1048A0009700970097009700970097009700970050
:1048B0009700970097009700970097009700970040
:1048C0009700970097009700970097009700970030
:1048D0009700970097009700970097009700970020
:1048E0009700970097009700970097009700970010
:1048F0009700970097009700970097009700970000
:10490000970097009700970097004800840100BF28
:1049100096E700BFB0F87410B0F872209142BFF46F
:104920008FAF084490F822104BF2D360C0F600001D
:1049300003F02EFBDAF81400B0F874100131A0F87F
:1049400074107DE780F82080B9F10D0F2AD8DFE8D8
:1049500009F00730303030303030397909303009E3
:104960006EE700BF01F07EFA012812D1DAF81400D8
:1049700090F82110C90707D04BF25250C0F6000042
:1049800003F006FBDAF81400B0F87210223001F0E0
:104990001FF8DAF8140090F82100800778D484F822
:1049A00000801DE1B9F17F0F0CD0B9F1FF0F3FF48A
:1049B00047AFB0F87220502A74D30022A0F87220BA
:1049C000A4E000BFB0F8741000293FF439AFB0F88C
:1049D00072200139531E9AB2A0F872308BB29A42FB
:1049E000A0F8741040F2B480C11801F12200233104
:1049F000D21A03F0ADFBDAF81400B0F872100844D4
:104A000080F82280DAF81400B0F87410084400F13D
:104A1000220189A003F0BCFADAF81410B1F874008E
:104A2000B1F8721088423FF60BAF451E304603F0D6
:104A3000AFFADAF814000135B0F872008542F5D308
:104A4000FEE600BFB0F8741051B10025304603F007
:104A50009FFADAF814000135B0F874108D42F5D3DE
:104A600000F122054BF25250C0F6000003F090FA1C
:104A700001F0F8F9012802D1284600F0E7FEDAF843
:104A8000140090F8210080076ED484F80080C1E003
:104A9000DAF8101000296FD020468022FBF7CBFFF8
:104AA0009EE000BFB0F874309A422FD9C11801F1CE
:104AB00023002231D21A03F04BFBDAF81400B0F8CD
:104AC0007410084480F82290DAF8140090F821104D
:104AD000C90709D0B0F87410084400F122015AA0A7
:104AE00003F056FADAF81400B0F87450B0F8721007
:104AF0008D421DD2304603F04BFADAF8140001352E
:104B0000B0F872108D42F5D312E000BF104480F867
:104B10002290DAF8140090F82110C90708D04BF25F
:104B2000D360C0F60000494603F032FADAF8140008
:104B3000B0F87210B0F874200131A0F8721089B288
:104B400001325029A0F8742028BFC0F8728077E69F
:104B500038A003F01DFADAF81400B0F87210084417
:104B600080F822806CE600BFDAF81010F1B1204620
:104B70008022FBF760FF4DE001F074F900B347F2CB
:104B80006D3084F80480C2F2680023E0B0F874004D
:104B900000283FF455AE304603F0FAF9DAF8140075
:104BA000B0F874100139A0F8741049E601F05AF910
:104BB00000B347F26D3084F80480C2F2680023E04D
:104BC00046F67300C0F22000C4F8030046F66610F3
:104BD000C7F26E3020602046FBF7FBFD3E212152DC
:104BE000204603F0D5F9DAF8140054212230FBF7FF
:104BF000D9FE25E646F67300C0F22000C4F8030093
:104C000046F66610C7F26E3020602046FBF7E1FDE5
:104C10003E2121520AA021462A4603F0B9F9DAF8CA
:104C2000145005F12200FBF7D4FDA5F87200A5F899
:104C3000740005E6082008000825732020080000FD
:104C400025732573000000002573000080B502A0C5
:104C500003F09EF9002080BD48656C6C6F205254B3
:104C60002D546872656164210A0000002DE9F0434B
:104C700081B016A003F08CF940F2201040F2241904
:104C8000C2F20000C2F200090768D9F80050AF4232
:104C900018D213A40FF24C0803E000BF0C37AF4248
:104CA00010D23E68214630460222FBF7B1FD0028B3
:104CB000F4D07A684046314603F06AF9D9F80050DA
:104CC000ECE700BF002001B0BDE8F0832D2D467554
:104CD0006E6374696F6E204C6973743A0A00000049
:104CE0005F5F0000252D313673202D2D2025730A9E
:104CF0000000000010B540F2C804C2F200042168B0
:104D000006A003F045F9216909A003F041F96169A2
:104D10000CA0BDE8104003F03BB900BF746F746194
:104D20006C206D656D6F72793A2025640A00000071
:104D300075736564206D656D6F7279203A20256406
:104D40000A0000006D6178696D756D20616C6C6F93
:104D50006361746564206D656D6F72793A202564B6
:104D60000A0000002DE9F04F8DB0022003F042FB55
:104D700000F104087BA082A2082103F009F94BF29C
:104D80008F64C0F60004204603F002F9204603F0C9
:104D9000FFF8204603F0FCF8204603F0F9F820461F
:104DA00003F0F6F8204603F0F3F8204603F0F0F89D
:104DB000204603F0EDF875A003F0EAF800260DF1A7
:104DC000140B7CA77CA4CDF80C8005E0049EDDF8D4
:104DD0000C80002E00F0C2803546002E08BF4546EC
:104DE000FBF714FA36B115F8041C01F07F01022913
:104DF00040F0B2802968414500F0AE800A68059114
:104E000042451DD01168069241451DD00A680791A0
:104E100042451DD01168089241451DD00A6809918C
:104E200042451DD011680A9241451DD00A680B9178
:104E300042451DD04FF00808114604920C921BE029
:104E40004FF0010816E000BF4FF0020812E000BF6B
:104E50004FF003080EE000BF4FF004080AE000BF67
:104E60004FF0050806E000BF4FF0060802E000BF63
:104E70004FF007080021049151A5FBF7CBF94FF043
:104E8000000906E04DA003F083F809F10109C145CE
:104E90009CD05BF829A0FBF7B9F91AF8041C01F0C3
:104EA0007F06FBF7B7F9022EEFD1AAF10C035AF8EF
:104EB000081F0026BAF80800514511D0514600BF1E
:104EC0000968514521D0096851451BD009685145F1
:104ED0001AD0096804365145F2D1013E15E000BFF1
:104EE000514600BF096851452DD00968514527D06A
:104EF0000968514526D0096804365145F2D1013E72
:104F000021E000BF013600E00236009025A0082114
:104F10000822019603F03CF8DAF800605645B1D05B
:104F2000A6F11401384603F033F830685045A9D093
:104F3000204603F02DF836685645F1D1A2E700BFB0
:104F4000013600E00236009028460821082201962A
:104F500003F01EF899E700BFFBF75CF900200DB0E5
:104F6000BDE8F08F252D2A2E732076202020737522
:104F70007370656E64207468726561640A00000075
:104F800073656D6170686F7265000000202D2D2DB6
:104F9000202D2D2D2D2D2D2D2D2D2D2D2D2D2D0A71
:104FA00000000000252D2A2E2A732025303364208E
:104FB00025643A00257300002F0000000A0000005D
:104FC000252D2A2E2A7320253033642025640A00DB
:104FD0002DE9F04F8DB0012003F00CFA051D4BF2C6
:104FE0001A60C0F6000071A2082102F0D1FF4BF256
:104FF0008F64C0F60004204602F0CAFF204602F08B
:10500000C7FF204602F0C4FF204602F0C1FF204641
:1050100002F0BEFF204602F0BBFF204602F0B8FFC0
:10502000204602F0B5FF63A002F0B2FF00240DF1AC
:10503000140A039505E000BF049C039D002C00F0BA
:10504000B1802646002C08BF2E46FBF7DFF834B1AE
:1050500016F8041C01F07F01012940F0A18031689D
:10506000A94200F09D800A680591AA421ED01168ED
:105070000692A9421ED00A680791AA421ED0116862
:105080000892A9421ED00A680991AA421ED011684E
:105090000A92A9421ED00A680B91AA421ED04FF074
:1050A0000808114604920C921CE000BF4FF0010862
:1050B00016E000BF4FF0020812E000BF4FF00308F7
:1050C0000EE000BF4FF004080AE000BF4FF00508F3
:1050D00006E000BF4FF0060802E000BF4FF00708EF
:1050E00000210491FBF796F84FF0000906E000BF9D
:1050F000FBF790F809F10109C1459DD05AF829B094
:10510000FBF784F81BF8041C01F07F010129EFD1A3
:10511000ABF10C06FBF77EF89BF8294035A008217F
:1051200008223346009402F033FF9BF8280000F079
:105130000F00042804D832A151F8200002F028FF03
:10514000DBF81C00014600BF0A78232A0FD14A78F9
:10515000232A09D18A78232A08D1CA780431232A3C
:10516000F2D0013903E000BF013100E00231DBE998
:105170000824DBF810601718401A104464214843D3
:10518000DBF83450B0FBF2F3B91B22A00095019478
:1051900002F0FEFE09F10109C145AFD14CE700BFA5
:1051A000FBF738F800200DB0BDE8F08F7468726529
:1051B00061640000202D2D2D20202D2D2D2D2D2D35
:1051C0002D202D2D2D2D2D2D2D2D2D2D202D2D2D29
:1051D0002D2D2D2D2D2D2D20202D2D2D2D2D2D2026
:1051E000202D2D2D2D2D2D2D2D2D2D202D2D2D0A2C
:1051F00000000000252D2A2E2A732025336420006C
:105200005EB6000870B6000891B600089AB60008AD
:1052100067B600082030782530387820307825307F
:105220003878202020202530326425252020203089
:10523000782530387820253033640A002DE9F04F86
:105240008FB00A2003F0D6F800F1040A0FF2A8404C
:105250000FF2CC42082102F09BFE4BF28F64C0F6A5
:105260000004204602F094FE204602F091FE204603
:1052700002F08EFE204602F08BFE204602F088FEF1
:10528000204602F085FE204602F082FE204602F013
:105290007FFE0FF2944002F07BFE4FF0000923E006
:1052A000A4F10C07FAF7B6FFD4E90605082100902F
:1052B0004BF27960C0F6000008223B46019502F0EF
:1052C00067FE14F8030CC00707BF4BF20D60C0F671
:1052D00000004BF20F60C0F6000002F059FE00BF64
:1052E000B9F1000F00F0FE814C46B9F1000F08BF84
:1052F0005446FAF78BFFB9F1000F06D014F8041CDE
:1053000001F07F010A2940F0EB812168514500F04E
:10531000E781D1F800B00791D34523D0DBF8001026
:10532000CDF820B0514521D00A680991524500F0CE
:10533000F78011680A92514500F0F8800A680B91D5
:10534000524500F02D8111680C92514500F06681A4
:10535000D1F800900D91D14500F06C81CDF83890D6
:1053600002E000BF4FF00009002102E04FF0000909
:1053700001210026069100250021059100210491BC
:1053800000210391FAF746FFDDF81C80FAF73EFF93
:1053900018F8041C01F07F010A2921D1A8F10C079B
:1053A000FAF738FFD8E90604082100904BF279603B
:1053B000C0F6000008223B46019402F0E9FD18F80F
:1053C000030CC00707BF4BF20D60C0F600004BF2A4
:1053D0000F60C0F6000002F0DBFDD34505D17FE78A
:1053E000FAF718FFD3453FF47BAF089CFAF70EFF9E
:1053F00014F8041C01F07F010A2927D1B0462E467B
:10540000A4F10C07FAF706FFD4E90605082100907D
:105410004BF27960C0F6000008223B46019502F08D
:10542000B7FD14F8030CC00707BF4BF20D60C0F6C0
:1054300000004BF20F60C0F6000002F0A9FD3546F7
:105440004646069800287FF44BAF05E0FAF7E2FEE7
:10545000069800287FF444AF099CFAF7D7FE14F8A9
:10546000041C01F07F010A2926D1B0462E46A4F182
:105470000C07FAF7CFFED4E90605082100904BF29D
:105480007960C0F6000008223B46019502F080FDDD
:1054900014F8030CC00707BF4BF20D60C0F6000004
:1054A0004BF20F60C0F6000002F072FD3546464632
:1054B000002E7FF415AF04E0FAF7ACFE002E7FF467
:1054C0000FAF0A9CFAF7A2FE14F8041C01F07F014A
:1054D0000A2933D12E46A4F10C07FAF79BFED4E932
:1054E0000605082100904BF27960C0F60000082202
:1054F0003B46019502F04CFD14F8030CC00707BFB2
:105500004BF20D60C0F600004BF20F60C0F60000D9
:1055100002F03EFD3546002D7FF4E2AE13E000BF01
:10552000002101264FF0000924E700BF00210125DA
:105530004FF00009069100261EE700BFFAF76AFE49
:10554000002D7FF4CDAE0B9CFAF760FE14F8041C1E
:1055500001F07F010A292DD1A4F10C07FAF75AFEB8
:10556000D4E90605082100904BF27960C0F60000EE
:1055700008223B46019502F00BFD14F8030CC0070E
:1055800007BF4BF20D60C0F600004BF20F60C0F693
:10559000000002F0FDFC059800287FF4A1AE0FE0AA
:1055A0000121059100214FF00009069100260025F8
:1055B000E4E600BFFAF72EFE059800287FF490AECF
:1055C0000C9CFAF723FE14F8041C01F07F010A2951
:1055D0003ED1A4F10C07FAF71DFED4E90605082117
:1055E00000904BF27960C0F6000008223B4601951E
:1055F00002F0CEFC14F8030CC00707BF4BF20D609D
:10560000C0F600004BF20F60C0F6000002F0C0FCD4
:10561000049800287FF464AE20E000BF01210491CB
:105620000021069100214FF0000900260025059178
:10563000A6E600BF012103910021069100210591FA
:1056400000214FF000090026002504919AE600BFD2
:10565000FAF7E0FD049800287FF442AE0D9CFAF7BB
:10566000D5FD14F8041C01F07F010A2924D1A4F10E
:105670000C07FAF7CFFDD4E90605082100904BF29C
:105680007960C0F6000008223B46019502F080FCDC
:1056900014F8030CC00707BF4BF20D60C0F6000002
:1056A0004BF20F60C0F6000002F072FC0398002875
:1056B0007FF416AE06E000BFFAF7ACFD03980028B1
:1056C0007FF40EAE0E9CFAF7A1FD14F8041C01F055
:1056D0007F010A293FF4E4ADFAF79CFD00E600BF24
:1056E000FAF798FD03F034FC014618A002F050FCD4
:1056F00000200FB0BDE8F08F252D2A2E73202070DA
:105700006572696F64696320202074696D656F75C7
:105710007420202020202020666C61670A00000091
:1057200074696D6572000000202D2D2D2D2D2D2DFD
:105730002D2D2D202D2D2D2D2D2D2D2D2D2D202DB3
:105740002D2D2D2D2D2D2D2D2D2D0A0063757272D1
:10575000656E74207469636B3A3078253038780A46
:105760000000000090B0FDF7CFFAFEF77BFF06AC1B
:10577000201D2421FBF738F90220069001200A9011
:1057800010200B90002520460D95FDF775FC28B1E3
:10579000EFF3108072B600BFFEE700BF0F20CDE927
:1057A000010501A80021CDE903550595FDF756FB3C
:1057B00020B1EFF3108072B6FEE700BFFEF792FB58
:1057C000FEF7DEFBFEF7FEFBFEF71AFC40F2A80038
:1057D000C2F20000411C40F26820C2F20000012227
:1057E000FEF7CCF904A007A109A2FCF70FFE00BF49
:1057F000142003F08FFAFBE7417370795261696EF0
:10580000000000004C7872323030333031303600D6
:105810003830383000000000B0B54BF280744BF2E5
:105820007870C0F60004C0F60000A04209D24BF226
:105830007875C0F6000500BF55F8040B8047A542F7
:10584000FAD3BDE8B040FFF78DBF00002DE9F04F5F
:1058500081B083460078A8B140F22010C2F2000067
:10586000056840F22410C2F20000D0F800804545DF
:1058700080F0A8804BF2CA694FF0000AC0F6000918
:1058800000264CE04BF2A360C0F6000002F080FB63
:1058900040F2201040F22419C2F20000C2F20009C6
:1058A0000768D9F80050AF421CD24BF2CA644BF2E1
:1058B000BE68C0F60004C0F6000802E00C37AF4234
:1058C00010D23E68214630460622FAF7A1FF002892
:1058D000F4D17A68B11D404602F05AFBD9F8005065
:1058E000ECE700BF4BF25250C0F6000001B0BDE83B
:1058F000F04F02F04DBB00BF481C801B5045B8BFA5
:10590000824632A0394602F043FB40F22410C2F234
:105910000000D0F8008000BF0C35454548D22F6804
:10592000494638460622FAF773FF0028F4D1584654
:105930000637FAF74EFF024658463946FAF768FF2F
:105940000028E9D1BAF1000F04D03178304651B9BE
:10595000D3E700BF3846FAF73CFF82463E4631782F
:1059600030460029C9D000203A5CDAB1914219D101
:1059700031184B78002BBFD03A185478002CBBD08C
:10598000A342B9D18B787BB194786CB1A3420BD18F
:10599000CB785BB1D2784AB1934207D10979043010
:1059A0000029E1D13044A8E7881CA6E7C81CA4E779
:1059B00046B158463146524601B0BDE8F04F02F0BC
:1059C00029BF00BF01B0BDE8F08F00BF25730A00FA
:1059D0002DE9F04F8BB049B3CF1E8E1E4D1E002314
:1059E00003E000BF0433994220D0C25C202A01D0DA
:1059F000092A1FD19D4219D0C4186278202A01D0EB
:105A0000092A1DD19E4211D0A278202A01D0092A4C
:105A10001CD19F420AD0E278202AE3D0092AE1D0A3
:105A2000C81AA0F1030804F1030A14E000200BB027
:105A3000BDE8F08FA1EB030800EB030A0BE000BF09
:105A4000D84300EB010804F1010A04E0C81AA0F1F0
:105A5000020804F1020AC8F10000A8F101010025C2
:105A6000D2B2092A2DD0202A2BD0A84520D00AEB6B
:105A700005025378092B1FD0202B1DD0A94217D027
:105A80009378092B1CD0202B1AD043199F1C0FD0C0
:105A9000D778092F00F03681202F00F033810333AF
:105AA00006D012790435D2B2092ADCD109E000BF50
:105AB00045464DB92AE100BF01352DB926E100BFA9
:105AC0000235002D00F0228140F22010C2F20000C9
:105AD000046840F22410C2F200000668B44280F06C
