:020000040800F2
:10000000F8480020B10100089D2F00089502000863
:10001000992F00084D1400089531000800000000D9
:10002000000000000000000000000000C301000804
:1000300051140008000000001F020008A12F000852
:10004000CB010008CB010008CB010008CB01000860
:10005000CB010008CB010008CB010008CB01000850
:10006000CB010008CB010008CB010008CB01000840
:10007000CB010008CB010008CB010008CB01000830
:10008000CB010008CB010008CB010008CB01000820
:10009000CB010008CB010008CB010008CB01000810
:1000A000CB010008CB010008CB010008CB01000800
:1000B000CB010008CB010008CB010008CB010008F0
:1000C000CB010008CB010008CB010008CB010008E0
:1000D000CB01000889310008CB010008CB010008E2
:1000E000CB010008CB010008CB01000800F002F8AA
:1000F00000F04FF80AA090E8000C82448344AAF173
:100100000107DA4501D100F044F8AFF2090EBAE870
:100110000F0013F0010F18BFFB1A43F0010318473B
:10012000A4860000C4860000103A24BF78C878C1B5
:10013000FAD8520724BF30C830C144BF04680C60ED
:10014000704700000023002400250026103A28BF35
:1001500078C1FBD8520728BF30C148BF0B60704739
:10016000642900F00B82732900F08B850020704712
:100170001FB59DE8030000F0BDFC01F09BF80400F2
:100180000020002107F09EFE401C60601FBD10B5DE
:1001900010BD01F06AF81146FFF7EAFF01F02CF9F3
:1001A00001F08CF803B4FFF7F2FF03BC01F0BCF8D8
:1001B0000948804709480047FEE7FEE7FEE7FEE7FB
:1001C000FEE7FEE7FEE7FEE7FEE7FEE70448054937
:1001D000054A064B7047000079300008ED00000822
:1001E000F8420020F8480020F8440020F84400209D
:1001F000EFF3108072B6704780F310887047324A70
:100200001368012B04D04FF0010313602F4A1060D4
:100210002F4A11602F484FF0805101607047EFF373
:10022000108272B62848016891B14FF00001016058
:100230002648016829B1EFF3098121E9F00F006830
:100240000160234909680968B1E8F00F81F3098862
:1002500082F310884EF0040E70471D4908601B4958
:100260004FF00000086018494FF0010008601A487C
:100270001A49D0F8002041EA0201016015484FF008
:100280008051016016480068006880F3088861B6F4
:1002900062B670471EF0040F0CBFEFF30880EFF357
:1002A000098020E9F00F40F804ED1EF0040F0CBFA8
:1002B00080F3088880F3098800B505F00FFC5DF82D
:1002C00004EB4EF0040E7047184200208C3F0020D3
:1002D000943F002004ED00E020ED00E00000FFFF6F
:1002E00008ED00E070B5064600F0E4FB056806F195
:1002F0000B0020F00704B4429CBF002070BD2B46C9
:100300006A68BAB11068A04210D304F108018842AB
:100310003CBF5068586007D351681019416011689C
:10032000091B016058601460101D70BD13465268AF
:10033000002AE7D12146284600F0C8FB0028DED17C
:1003400070BD70B50446051F00F0B4FB0068002CBA
:1003500014BF446870BD002C18BFAC423CBF20469F
:100360006468F8D301680A18AA4218BF456003D12F
:100370002A6805461144016028684119A1421CBF42
:100380006C6070BD6168696021680844286070BD58
:1003900070B50D460646041F00F08CFB0268BDB127
:1003A000DEB105F10B0020F00701A9423CBF00209F
:1003B00070BD23688B4238BF506813D35A1A082A7D
:1003C00036D3601840F8042B2160FFF7BAFF2FE006
:1003D0003046FFF7B6FF002070BD2846BDE87040EC
:1003E000FFF780BF002818BFA0423CBF024640680C
:1003F000F8D303EB040C84451CD1D0F800C063444F
:10040000994217D8A3EB010CBCF1080F0DD3D0F81B
:1004100004C06318C3F804C0D4F800C00068604486
:10042000401A18602160536002E023604068506009
:10043000201D70BD2846FFF755FF050008D0314646
:100440002068021F284600F09DFC201DFFF779FF61
:10045000284670BD0FB41CB5084B06AA7B446946FC
:100460000090059800F0DBFB04460020694600F090
:10047000E9FB20461CBC5DF814FB0000E50700000A
:100480000FB41CB50C0007AA009007D04142A1424E
:1004900002D32044401E01E04FF0FF30074B7B4465
:1004A00069460190069800F0BAFB0021002C01D0AB
:1004B000009A11701CBC5DF814FB0000AD07000031
:1004C0002DE9F0410E460446002020622046E168F6
:1004D000884730B3252805D0D4E901219047206A08
:1004E000401CF2E7E168204600278847050018D045
:1004F000A5F14100192802D820354FF40067324693
:10050000294620462760FFF72BFE40B1012804D082
:10051000F61D26F007060836D8E7361DD6E728462A
:10052000DAE7206ABDE8F08170B50C460546012A7D
:1005300005D02878800600D5EA69002302E001236F
:1005400005E05B1C934202D2E05C0028F9D1A86967
:10055000E618C01AA861286A184428622846AFF332
:10056000008004E0D5E9012114F8010B9047B44262
:10057000F8D32846AFF3008070BD00002DE9F041AC
:100580000646002410687529314616A510D0AFF331
:100590000080002802DA404213A507E031688A078C
:1005A00001D512A502E0490704D511A5012401E0F7
:1005B000AFF3008000210A2206F1240709E0B0FB16
:1005C000F2FCB0FBF2F302FB1C003030785418460A
:1005D000491C0028F3D123462A463046BDE8F041A5
:1005E00000F0BEBA000000002D0000002B0000004B
:1005F000200000000FB400B58DB010A90990009143
:100600000B904FF0FF300A9000200C900648784481
:100610000690064878446A4607900F9909A800F0AA
:1006200049FB0DB05DF814FBC3060000DB060000BB
:100630002DE9FF5F1D464FF0FF3B91464FF000084C
:100640005F46D5E90146A96901987F1C8847296A58
:10065000824688470028F6D1BAF1FF3F0CD0002E21
:1006600024F4C06419DD600614D5BAF12B0F09D04B
:10067000BAF12D0F0ED103E0584604B0BDE8F09F4B
:1006800044F48064A96901987F1C8847761E8246DD
:10069000002E02DDBAF1300F03D0B9F1000F26D0E1
:1006A00032E0A969761E01987F1C44F400748847E3
:1006B000002E824605DDBAF1780F06D0BAF1580F48
:1006C00003D0B9F1000F10D01EE0B9F1000F02D035
:1006D000B9F1100F18D1A969761E01987F1C24F476
:1006E000007488478246102002E0082000E00A20BB
:1006F000814609E0A96908FB0908761E01987F1C5C
:1007000044F4007488478246002E05DD4946504671
:1007100000F0BBFA0028EDDAE96901988847A005E6
:1007200002D46FF00100A8E7E00725D1600613D5D9
:10073000600502D5C8F1000000E0404629680A1DA6
:100740002A600968220501D5087015E0220701D545
:10075000088011E008600FE02868011D296000682A
:10076000210502D580F8008006E0210702D5A0F817
:10077000008001E0C0F8008038467EE72DE9FF5F89
:100780004FF000089946144646469169D2E901A700
:10079000DDF838B001988847054659EA0B0005D0C6
:1007A00009E0A1690198761C88470546216A284618
:1007B00088470028F5D1681C03D05FEACA7005D0CD
:1007C00015E04FF0FF3004B0BDE8F09F2068011D38
:1007D0002160D0F800800AE05FEACA7001D108F811
:1007E000015BA169761C01987F1E88470546002F92
:1007F0001ADD681C18D0B9F1000F0DD0E81705EB11
:10080000D060421120F01F0059F822102A1A01204E
:1008100090400142E0D107E0BBF1000FDCD1284657
:10082000216A88470028D7D0E16901988847BBF141
:10083000000F07D1002E05DD5FEACA7002D100214A
:1008400088F80010A068B84203DDBBF1000F03D0A8
:1008500017B16FF00100B6E73046B4E770B5064651
:1008600000F02CF90468054630460A22002100F009
:1008700051FA2C6070BD30B505460B462A4613F878
:10088000014B12F8010B08B1A042F8D01CB10028AE
:1008900002D06D1CF1E7284630BD40EA0103024654
:1008A00030B59B0710D14FF0013400E008C208C9F1
:1008B0001D1B9D4315EAC41FF8D013F0FF0102F879
:1008C000011B0DD01B0AF8E711F8013B002B02F8C1
:1008D000013B05D011F8013B002B02F8013BF3D19D
:1008E00030BD10B5431C02E010F8011B71B1810747
:1008F000FAD14FF0013202C88C1A8C4314EAC211AB
:10090000F9D0C01A0A0603D0C01E10BDC01A10BD0F
:100910000A0401D0801E10BD0902FCD0401E10BD8B
:1009200040EA010370B59B072ED14FF00136042A2F
:100930002AD308C810C99D1B9D43121F15EAC6156E
:1009400017D0D8B2E1B2401A50EA056110D198B27E
:10095000A1B2401A50EA05410AD123F07F4024F0A9
:100960007F41401A50EA052102D1180EA0EB146015
:1009700070BDA342DBD018BA21BA884201D9012048
:1009800070BD4FF0FF3070BD0AB9002070BD10F887
:10099000013B11F8014B63B1A3420AD1521E08D0AA
:1009A00010F8013B11F8014B1BB1A34201D1521EBB
:1009B000EDD1181B70BD02F0FF0343EA032242EAA7
:1009C000024200F002B84FF000020429C0F0128089
:1009D00010F0030C00F01B80CCF1040CBCF1020FF2
:1009E00018BF00F8012BA8BF20F8022BA1EB0C01C7
:1009F00000F00DB85FEAC17C24BF00F8012B00F8BD
:100A0000012B48BF00F8012B70474FF0000200B5E2
:100A1000134694469646203922BFA0E80C50A0E821
:100A20000C50B1F12001BFF4F7AF090728BFA0E8CF
:100A30000C5048BF0CC05DF804EB890028BF40F89B
:100A4000042B08BF704748BF20F8022B11F0804FDD
:100A500018BF00F8012B704710B5044610F0030FC3
:100A600008BF11F0030F40F015804FF0013E121F38
:100A7000C0F20E8051F8043BA3EB0E0C2CEA030CE1
:100A80001CEACE1C08BF40F8043BF0D0A1F10401E1
:100A900002F10402521E08DB11F8013B00F8013B91
:100AA000002BF7D11146FFF78EFF204610BD70478F
:100AB000704770470048704750000020004870475A
:100AC00048000020704770477047704738B50446AB
:100AD0000A4600206946AFF30080002808BF38BDF1
:100AE00002460099204600F08BF9012038BD012014
:100AF00000F0B3BBF8B5AFF30080054600200C460C
:100B0000102000BF0646A819A0420DD932466946FA
:100B10000020AFF30080070008BF00F09EFB0098A4
:100B2000A04218BF0546C419FFF7C4FF0560074679
:100B3000F01D20F007004619284600F00AF8B442DC
:100B400008BFF8BDA21B31463868BDE8F84000F088
:100B500057B900210160C0E90110704710207047AB
:100B60002DE9F0470D4699469246044600F12408C7
:100B70000168880604D5E06921F01001216000E0D9
:100B80000120A84201DD471B00E00027A1697A1976
:100B900002EB0900081AA0612078C00602D42046A2
:100BA000AFF30080002608E0D4E901211AF806001E
:100BB0009047206A401C761C20624E45F4DB20786A
:100BC000C0060AD52046AFF3008006E0D4E9012133
:100BD00030209047206A401C2062381EA7F1010790
:100BE000F4DC07E0D4E9012118F805009047206AF9
:100BF000401C2062281EA5F10105F3DC2046AFF35E
:100C000000802078000602D50220BDE8F087012090
:100C1000FBE7000001694A1C02610878704700B5D3
:100C20008FB0CDE901310021059105497944CDE925
:100C3000031011466846FFF743FC0FB000BD0000EB
:100C4000E5FFFFFF0A6802F8010B0A607047D1E96F
:100C500000239A4202D2531C0B601070704710B5EB
:100C6000436913B1AFF3008001E0FFF75DFC0120A1
:100C700010BD127800F124010A7000224A7001228E
:100C8000EDE711684FF0FF32E9E73A2800D230383B
:100C900020F02002412A01D3A2F13700884201D37B
:100CA0004FF0FF3070470000026811441378016074
:100CB00018467047D1600549794451610449794427
:100CC000116200211161114600F0BEB8EDFFFFFF77
:100CD00073010000426842B1016811F8013B23B181
:100CE000521EC0E90012184670470121C160881EDB
:100CF000704742685AB1C368016843B983688B4240
:100D000005D0491E521CC0E90012002070474FF068
:100D1000FF3070472DE9F04791460F468046044664
:100D2000002614F8015B2DB100F062F80068405D08
:100D3000C007F6D12B2D02D02D2D18D0641E4A46A7
:100D40003946204600F03AFA27B13968A14201D16C
:100D5000C7F800804FF0020471050BD5404200280F
:100D600003DDFFF7ABFE0460A007BDE8F08746F4A3
:100D70008066E4E70028F8DAFFF7A0FE04606FF071
:100D80000040F2E710B5203AC0F00B80B1E81850EF
:100D9000A0E81850B1E81850A0E81850203ABFF465
:100DA000F5AF5FEA027C24BFB1E81850A0E8185004
:100DB00044BF18C918C0BDE810405FEA827C24BF58
:100DC00051F8043B40F8043B08BF7047D20728BFE6
:100DD00031F8023B48BF11F8012B28BF20F8023B35
:100DE00048BF00F8012B70470048704748000020BA
:100DF00010B500F05FFA001D10BD00BFC970000003
:100E0000034640688C46002818BF88423CBF034612
:100E10004068F8D318681844884207D00CF10300E2
:100E200020F00700001D411A521A0146081D0A60F1
:100E3000FFF787BA10B50446FFF7DAFF0068005DD8
:100E400000F0010010BD00002DE9F34F4FF0000A43
:100E50000C4656468DB001200C9001F10C000B9011
:100E600062690B9801219047051E2DD0252D2CD0AD
:100E7000216A8847C0B162690B9801219047216AB5
:100E800088470028F7D16269411E0B98904700E01F
:100E9000761CA1690D988847216A88470028F7D1F8
:100EA000E1690D988847DBE7A1690D988847A8425A
:100EB000074601D1761CD3E7E1690D9888477F1C6E
:100EC00002D1BAF1000F6FD06BE162690B98002775
:100ED0003D46394690472A2804D162690B98012182
:100EE00090470125DFF8D08262690B980121904775
:100EF000A0F130010A290AD24745E5DC07EB87015A
:100F000000EB4107303FDFD445F01005ECE7E90680
:100F100001D46FF000476C280AD04C2814D0682800
:100F200015D06A280DD074281CD07A281AD01DE05C
:100F300062690B98012190476C2802D045F00405A6
:100F400014E045F002050DE045F020050AE0626975
:100F50000B9801219047682802D045F0080505E06C
:100F600045F4006562690B9801219047C4E9015777
:100F700065283DD019DC58287AD00CDC452837D0BC
:100F800004DC252826D041289ED131E046282FD0E8
:100F9000472899D12CE05B2877D0612828D0632896
:100FA0007CD0642823D15AE0F6E06F2848D008DCD2
:100FB00066281DD067281BD0692821D06E2816D13D
:100FC00027E0702845D0732868D0752847D0782846
:100FD0000DD14DE0A1690D988847252805463FF4BD
:100FE00069AFE1690D9888476D1C3FF46AAFD8E09E
:100FF0000D9923466A466FF00100AFF30080C5E00B
:1010000045F0400023464FF000026060A80736D448
:101010003EE0E8077FF447AF2068011D21600068CB
:10102000290501D506701BE7290701D5068017E7BA
:10103000A90703D5F117C0E9006111E706600FE7C2
:1010400045F0400023464FF008026060A80716D420
:101050001EE040F60E0125EA0100606016E045F052
:10106000400023464FF00A026060A80707D40FE053
:1010700045F040006060A80708D5234610220D996E
:101080006FF00100AFF3008080E007E010222346FC
:101090000D996FF00100FFF7CBFA77E04FF00009F0
:1010A00063284F46C8464B46CB4602D05B2806D045
:1010B00038E0E80601D40120A060012732E062692F
:1010C000D4F80CB00B98012190475E2807D14FF05F
:1010D000010949466269D4F80CB00B989047216920
:1010E00039B900210A4603AB43F82120491C0829DD
:1010F000FADBD8B3216949B308F1010862690B989A
:10110000012190475D28F4D1B9F1000F09D00020EA
:1011100003A951F82020D24341F82020401C082880
:10112000F7DB03AB2069002820794FEA40701ED01E
:101130005B462246CDF80080CDE901970D99002845
:101140006FF0010020DAAFF300801FE0C11703AA9F
:1011500000EBD1614B1121F01F0102EB8302411A18
:1011600013680120884003431360C7E719E00D9915
:10117000224600286FF00100009702DAAFF30080EA
:1011800004E0FFF7FBFA01E0AFF3008000280ADA81
:10119000401C06D10C9820B14FF0FF300FB0BDE8D5
:1011A000F08F5046FAE7E90701D10AF1010A064437
:1011B00000200C9054E60000CCCCCC0C2DE9F05F64
:1011C000824615468B4600270AF10104B94600788D
:1011D000302801D09DB113E014F8010B01277828C5
:1011E00003D0582801D045B10AE00DB1102D07D128
:1011F000002714F8010B102502E0082500E00A255D
:101200000026B0460EE005FB080005FB06F10127AD
:101210001FFA80F801EB1046B6F5803F00D3B946BF
:1012200014F8010B2946FFF730FD0028EBDABBF17B
:10123000000F05D00FB1641E00E05446CBF800400B
:10124000B9F1000F06D0FFF739FC02210160C81E7A
:10125000BDE8F09F48EA0640FAE710B500F03CF818
:10126000BDE8104000F033B870477546FFF7BCFD8D
:10127000AE4605006946534620F00700854618B083
:1012800020B5FEF7A3FFBDE820404FF000064FF069
:1012900000074FF000084FF0000BAC46ACE8C00967
:1012A000ACE8C009ACE8C009ACE8C00921F007010E
:1012B0008D467047004870476800002010B504460E
:1012C000AFF300802046BDE81040FEF76BBF00285A
:1012D00001D000F029B8704710B5012805D00021D1
:1012E00003A000F027F8012010BD09A1F8E70000D5
:1012F00053494752544D454D3A204F7574206F66FF
:101300002068656170206D656D6F72790000000066
:101310003A2048656170206D656D6F727920636F4A
:10132000727275707465640001491820ABBEFEE7E7
:101330002600020070B505460C460A2000E06D1C30
:1013400000F052F835B128780028F8D102E0641C8A
:1013500000F04AF814B120780028F8D1BDE87040B8
:101360000A2000F041B800004FF0013C50F8042B77
:1013700051F8043B9A4221D1A2EB0C03934313EAA8
:10138000CC1317D150F8042B51F8043B9A4215D1D5
:10139000A2EB0C03934313EACC130BD150F8042BAC
:1013A00051F8043B9A4209D1A2EB0C03934313EA90
:1013B000CC13DBD04FF00000704700BFD01A01BA49
:1013C000B1FA81F101F0180122FA01F0CB40DBB251
:1013D000C0B2C01AC1F120012CFA01F3D11A914315
:1013E00011EAC311E6D1704708B569468DF80000CF
:1013F0000320ABBE08BD000080B582B0FEF7F8FE4A
:1014000004F008FB05F088F905F018FC05F068FB0E
:101410000A20009048F2894044F289614FF0140C90
:10142000C0F60000C0F6000100224FF48063CDF842
:1014300004C005F00DFC05F0CFFD05F007FC05F03C
:10144000EDFC05F0E3FB002002B080BDFEE70000EC
:1014500070470000EFF3108072B600BFFEE7000097
:101460002DE9F0418EB040F28027C2F200070D4610
:1014700006464BA13846904606F030FC48F2E32081
:10148000C0F6000006F0C4FC40F6B83005F036FDAA
:1014900046A1384606F022FC44F22024C2F20004A1
:1014A000206828B948F2E320C0F6000006F0B0FC3E
:1014B00001AF42A1384632462B46FEF7CBFF40F241
:1014C0008020C2F20000394606F008FC206828B9E6
:1014D00048F2E320C0F6000006F09AFC0A20ADF8BE
:1014E000100043F65850C0F63150039045F24900C1
:1014F000C5F24D50029045F24140C4F22B300190AC
:1015000040F28020C2F2000001A906F0E7FB20684B
:1015100028B948F2E320C0F6000006F079FC01AEDD
:1015200040F600052BA130464246C4F20105FEF705
:1015300091FF40F28027C2F200073846314606F09C
:10154000CDFB206830B140F2A410C2F200000121AE
:1015500001600DE048F2E320C0F6000006F058FC00
:10156000206840F2A411C2F2000101220A6048B1D1
:101570002846802100F0CEF94FF4FA7005F0BEFC49
:10158000F6E700BF28468021012200F0CBF9386839
:10159000406815A004F0F2FC0EB0BDE8F08100BF79
:1015A00041542B5253540D0A0000000041542B4368
:1015B000574D4F44453D310D0A00000041542B4327
:1015C000574A41503D222573222C222573220D0AB1
:1015D0000000000041542B43495053455256455298
:1015E0003D312C25730D0A00E5889DE5A78BE58C20
:1015F00096E5AE8CE688900A00000000014690F85F
:101600002100022816D10868D1E90FC3026822F030
:101610000E020260026822F001020260012000FA5C
:1016200003F2CCF8042081F821000020002281F888
:1016300020207047042088630120002281F82020A8
:101640007047000080B590F82110022924D102686B
:10165000116821F00E0111602F211368C4F20201FC
:101660008A4240F20401C4F2020123F00103136034
:1016700016DD3023C4F202039A421DD04423C4F283
:1016800002039A421CD05823C4F202039A421DD18D
:101690004FF4803322E000BF04218163012080BD2C
:1016A0000823C4F202039A420ED01C23C4F20203A0
:1016B0009A420BD1102311E04FF480730EE000BF6B
:1016C0004FF480530AE000BF012307E001F1680CEA
:1016D0004FF08073624508BF4FF480130B60012107
:1016E00080F82110426B002180F820100AB1904749
:1016F0000021084680BD00002DE9F04F82B00E6841
:10170000002E00F0038141F20042C4F201020423E2
:1017100040F2004E904208BF03234FF6FF7CC4F214
:10172000010E009300240123C1F2100C4FF0000AB7
:101730004FF0000949E000BF012704F00C030F221D
:101740009A402BEA020207FA03F34FEA9A051A437A
:1017500046F82520D1F804B040F20C455FEACB22D0
:10176000DEF8082054BF22EA080242EA0802C4F266
:101770000105CEF808202A685FEA8B2354BF22EACD
:10178000080242EA08022A605FEA8B33DEF804208E
:1017900054BF22EA080242EA08025FEACB33CEF8DD
:1017A0000420DEF800204FF0010354BF22EA0802B3
:1017B00042EA0802CEF800200E680AF1010A36FA61
:1017C0000AF204F1040400F0A18003FA0AF816EA10
:1017D000080FF1D04E68664512DC122E56D8DFE8AD
:1017E00006F0350B454955555555555555555555E3
:1017F0005555554D510000BFD1F80C9046E000BF43
:101800004FF6FF72C1F2210296420FDC0022C1F2B4
:10181000110296421AD00022C1F21202964215D04D
:101820000022C1F22102964210D02FE00022C1F224
:10183000220296420AD00022C1F23102964205D01D
:101840000022C1F23202964220D100BF8A684AB11A
:10185000012A14BFC0F81480C0F810804FF00809A6
:1018600014E000BF4FF0040910E000BFCA6802F1A5
:1018700008090BE04FF0000908E000BFCA6802F158
:10188000040903E0CA6802F10C0900BF22460646BB
:10189000BAF1080F24BF203A043637680F25954067
:1018A00027EA050509FA02F22A433260CA79D2060C
:1018B0007FF582AF41F21803C4F202031A68AEF555
:1018C0007E7642F001021A601A6802F0010201926B
:1018D000019A2AF0030256F802B040F60002C4F260
:1018E0000102904210D040F60042C4F20102904240
:1018F0003FF422AF41F20002C4F20102009F904285
:1019000008BF022719E700BF002716E702B0BDE8AD
:10191000F08F0000C26802EA0103914341EA0341EB
:1019200001617047002A08BF090401617047000087
:1019300044F2F020C2F200000068704770B5B8B3FE
:10194000044690F83D0028B9002084F83C00204669
:1019500000F0B0F8242084F83D002068016821F0F0
:1019600001010160016841F400410160016821F456
:101970000041016000F060FA48F28041C0F21E01AF
:1019800040F60013D4F804E088424FF00001C0F2A2
:101990003D0348F2A16C4FF0000238BF012198428C
:1019A000C0F2010C38BF0122E64538BF0A460AB131
:1019B000012070BD4DF68361C4F21B31A0FB011202
:1019C0002168950C4B684FF4967623F03F0343EA69
:1019D0009243754344F6D3564B60C1F262060B6ADC
:1019E000A5FB0656B50923F03F03E64538BF950C25
:1019F0006A1C1A430A62CA6948F2A0664CF6FF7371
:101A0000C0F20106B64522EA03020BD801384FEABC
:101A10004E03B0FBF3F001306FF31F30042898BF82
:101A200004201EE0A368013863B119230EFB03F301
:101A3000B0FBF3F001306FF31F3078B100F5804058
:101A400008E000BF0EEB4E03B0FBF3F001306FF384
:101A50001F3028B100F5004003E000BF012000E086
:101A600001201043C8610868D4E9072320F0C000B2
:101A7000104318430860886848F2FF3204F10C06EE
:101A800090434CCE18431043A5698860C86820F085
:101A9000FF0030432843C860086840F00100086038
:101AA00000202021206484F83D10206384F83E004B
:101AB00070BD000010B586B045F200410068C4F268
:101AC000000100228842049202D006B010BD00BF7F
:101AD00041F21804C4F20204206840F008002060BB
:101AE000206800F0080001900198C02002901220A8
:101AF00003900320059001F5384002A9FFF7FCFD93
:101B0000606840F400106060606800F400100190AC
:101B1000019806B010BD000080B542F20000C4F28A
:101B20000200016841F010010160032000F08EF80E
:101B3000002000F005F800F027F8002080BD00002C
:101B400070B540F20006C2F2000640F20801327899
:101B5000C2F200014FF47A730968B3FBF2F2044653
:101B6000B1FBF2F1084600F069FB0F2C4FF00105C4
:101B700008D838B94FF0FF3021460022002500F088
:101B800039F87460284670BD82B041F21800C4F282
:101B900002000168022241F001010160016801F0C8
:101BA000010101910199416841F080514160406813
:101BB00000F08050009000980420C4F201000168F9
:101BC00062F31A61016002B070470000002848BF4C
:101BD0007047C1B200F01F00012202FA00F04EF27D
:101BE0000012CEF2000242EAD10121F003010860A6
:101BF0007047000010B54EF60C5CCEF2000CDCF81D
:101C00000030C3F3022E8EF00704042C28BF0424F6
:101C1000BEF103034FF0FF3E0EFA04F438BF002379
:101C2000A14399400EFA03F39A43114300F00F02C7
:101C300000F160430901043A03F56443624400285B
:101C400048BF02F10C03197010BD00004EF60C5194
:101C5000CEF200010A684FF6FF031A4060F30A2231
:101C600042F0806040F0FD70086070472DE9F0435D
:101C700081B0002800F0858042F20008C4F202081A
:101C80000446D8F800000D4600F0070088420CD248
:101C9000D8F8000020F007002843C8F80000D8F862
:101CA000000000F00700A8426BD1206841F204094F
:101CB0008107C4F2020917D5410705D5D9F80010EC
:101CC00041F4E061C9F80010010705D5D9F800100A
:101CD00041F46051C9F80010D9F80010A26821F051
:101CE000F0011143C9F80010C00741D1D8F8000035
:101CF00000F00700A8420CD9D8F8000020F0070037
:101D00002843C8F80000D8F8000000F00700A842F7
:101D100037D12068410707D5D9F80010E26821F4CF
:101D2000E0611143C9F80010000708D5D9F8000098
:101D3000216920F4605040EAC100C9F80000D9F8D8
:101D4000002002F00C00082841F20020C0F27A00C6
:101D500050D148F20A03C2F38341C0F60003595C34
:101D6000D2033BD440F60010C0F23D00484341E0AE
:101D7000606802280AD001282AD159F8041C890376
:101D800008D4012001B0BDE8F08300BF59F8041C5D
:101D90008901F6D5D9F8001021F003010843C9F8EC
:101DA0000000FFF7C5FD064641F28837D9F800006C
:101DB000616800F00C00B0EB810F97D0FFF7B8FD21
:101DC000801BB842F2D9032001B0BDE8F08300BF08
:101DD00059F8041C8907D4D5DCE700BFD9F80020E6
:101DE00047F60873C2F34042C0F600039A5C4843CA
:101DF000B0FBF2F0D9F8001047F6F062C1F303111E
:101E0000C0F60002515C40F2080220FA01F140F2F3
:101E10000400C2F200000068C2F200021160FFF785
:101E20008FFE002001B0BDE8F083000040F2080002
:101E3000C2F200000068704740F2080041F204015D
:101E4000C2F20000C4F202010068096847F600729D
:101E5000C1F30221C0F60002515CC8407047000087
:101E600040F2080041F20401C2F20000C4F2020193
:101E70000068096847F60072C1F3C221C0F600028B
:101E8000515CC840704700002DE9F04182B0002845
:101E900068D00446007841F20006C007C4F202068A
:101EA00025D0706800F00C0004281BD0706800F08A
:101EB0000C00082802D17068C00313D460680028A1
:101EC00000F06881B0F5A02F00F07C81B0F5803F74
:101ED00000F07C81306820F480303060306820F47D
:101EE000802076E13068800301D56068D0B3207827
:101EF000800718D5706810F00C0F07D0706800F0DC
:101F00000C0008286ED17068C0036BD4306880075D
:101F100002D52069012825D13068616920F0F800D8
:101F200040EAC1003060207800071FD420784007C5
:101F300032D4E56995B1706800F00C00082840F0D3
:101F40008F80012D0ED07068216A00F480328A42A1
:101F500008D1616A00F47010884203D1002002B0F9
:101F6000BDE8F081012002B0BDE8F081A069002841
:101F700062D00020C4F242200121C0F88014FFF793
:101F8000D7FC0546706A800700F18C80FFF7D0FC13
:101F9000401B0228F6D92AE1F06910F0805808D1D8
:101FA000F06940F08050F061F06900F080500090DE
:101FB000009847F20007C4F200073868C00529D42A
:101FC000386840F480703860FFF7B2FC054600BF07
:101FD0003868C0051ED4FFF7ABFC401B6428F7D956
:101FE00005E100BF2069002840F20000C4F2422051
:101FF00000F0828001210160FFF79AFC054600BFD6
:10200000306880073FF588AFFFF792FC401B02283D
:10201000F6D9ECE0E068002800F08080052800F0A8
:102020009780012800F09880306A20F0010030622B
:10203000306A20F0040092E00020C4F24220002127
:10204000C0F88014FFF774FC054600BF706A800773
:102050007FF56CAFFFF76CFC401B0228F6D9C6E099
:102060000027C4F2422700203866FFF761FC022DEA
:1020700005460BD13068800140F1BE80FFF758FC67
:10208000401B02284FF00300F4D968E73068800154
:102090007FF564AFFFF74CFC401B02284FF00300B4
:1020A000F4D95CE740F20800C2F20000006844F690
:1020B000D351C1F26201A0FB0101480A019000BFA7
:1020C00000BF0198411E002801913FF42FAF00BFCF
:1020D0000198411E002801913FF428AF00BF0198EC
:1020E000411E002801913FF421AF00BF0198411E1D
:1020F00000280191E4D119E700210160FFF718FCE5
:10210000054600BF306880077FF50DAFFFF710FC74
:10211000401B02284FF00300F4D920E7306A20F07A
:1021200001003062306A20F004003062FFF700FCEA
:10213000054641F2883700BF306A800720D5FFF797
:10214000F7FB401BB8424FF00300F5D907E700BF8B
:10215000306A40F004003062306A40F001003062C2
:10216000FFF7E6FB054641F2883700BF306A80077B
:1021700006D4FFF7DDFB401BB842F7D937E000BFBC
:10218000B8F1000F7FF4D5AEF06920F08050F06117
:10219000CFE600BF306820F480303060306820F433
:1021A00080203060FFF7C4FB054600BF3068800325
:1021B0007FF59DAEFFF7BCFB401B64284FF003008A
:1021C000F4D9CCE6306840F480203060306840F4C8
:1021D00080303060FFF7ACFB054600BF30688003FD
:1021E0003FF585AEFFF7A4FB401B6428F6D903201A
:1021F00002B0BDE8F08100BF206AB0F5803F05D194
:102200007168A26821F40031114371607168626ADB
:1022100021F4741111430843706001203866FFF700
:1022200087FB0446306880013FF598AEFFF780FBDE
:10223000001B02284FF00300F4D990E6411E002055
:10224000B0EB116F1CBF012070474EF21002CEF2AE
:10225000000251604EF62351CEF20001F0230B70C4
:1022600007219060116070477047000070470000C0
:10227000B0B582B0044600680168C368426901F0E5
:102280002F05202D03F0200506D12DB1204602B0E8
:10229000BDE8B04000F0F8BE5FEA017C1EBF02F06E
:1022A000010E03F4907212EB0E0253D1226B012A3D
:1022B00005D111F0100218BF13F0100236D10A0632
:1022C00022D513F080021FD094F8411021293FD16C
:1022D000A168B1F5805F03D12169002900F0708207
:1022E000216A4A1C226209784160E18C01390A04A2
:1022F000E1842DD1C16821F08001C160C16841F045
:102300004001C16002B0B0BD490621D513F04001C3
:102310001ED0C16821F04001C1602021204684F810
:10232000411002B0BDE8B04000F088BD002101912D
:10233000016801914168019101994069400613D4F7
:10234000A08DE18DE28D002A18BF884240F0BA814D
:1023500002B0B0BDCA0718BF13F4807240F0B68057
:102360004A0700F1B980BEE0E06B016849688AB2B3
:10237000002AEDD0A38D9A42EAD2E1858069202817
:1023800000F09C80206850E8030F216820F48070E2
:1023900041E80302DAB1206850E8030F216820F415
:1023A000807041E8030292B1206850E8030F216871
:1023B00020F4807041E803024AB1206850E8030F1E
:1023C000216820F4807041E80302002ADAD12068F5
:1023D00050E8050F216820F0010041E80502DAB15C
:1023E000206850E8050F216820F0010041E805024F
:1023F00092B1206850E8050F216820F0010041E803
:1024000005024AB1206850E8050F216820F001005C
:1024100041E80502002ADAD1206850E8050F21685A
:1024200020F0400041E80502DAB1206850E8050FCD
:10243000216820F0400041E8050292B1206850E890
:10244000050F216820F0400041E805024AB12068EC
:1024500050E8050F216820F0400041E80502002AFD
:10246000DAD1202084F8420000202063206850E860
:10247000030F216820F0100041E80302DAB1206860
:1024800050E8030F216820F0100041E8030292B1E8
:10249000206850E8030F216820F0100041E8030293
:1024A0004AB1206850E8030F216820F0100041E88D
:1024B0000302002ADAD1E06BFFF7A0F80220606384
:1024C000A08DE18D401A81B2204674E1626C42F029
:1024D000010262644A0706D5BEF1000F03D0626CA8
:1024E00042F0020262648A0706D5BEF1000F03D0F3
:1024F000626C42F004026264BCF1000F09D545EA47
:102500000E02B2FA82F2520903D1626C42F0080262
:102510006264626C002A3FF41BAF11F0200118BF07
:10252000002D03D0204600F0AFFD20684069616CAB
:1025300000F0400001F00801401800F0B58000BF35
:10254000206850E8030F216820F4907041E80302EE
:10255000BAB3206850E8030F216820F4907041E876
:10256000030272B3206850E8030F216820F49070D2
:1025700041E803022AB3206850E8030F216820F4E1
:10258000907041E80302002ADAD11AE0206850E88E
:10259000050F216820F0010041E80502DAB120684A
:1025A00050E8050F216820F0010041E8050292B1D2
:1025B000206850E8050F216820F0010041E805027D
:1025C0004AB1206850E8050F216820F0010041E879
:1025D0000502002ADAD1206B012824D1206850E8B6
:1025E000030F216820F0100041E80302DAB12068EF
:1025F00050E8030F216820F0100041E8030292B177
:10260000206850E8030F216820F0100041E8030221
:102610004AB1206850E8030F216820F0100041E81B
:102620000302002ADAD1202084F84200002020632F
:102630002068406940063FD5206850E8050F2168B2
:1026400020F0400041E80502DAB1206850E8050FAB
:10265000216820F0400041E8050292B1206850E86E
:10266000050F216820F0400041E805024AB12068CA
:1026700050E8050F216820F0400041E80502002ADB
:10268000DAD1E06BC0B143F27D01C0F600014163D5
:10269000FEF7D8FF00283FF45BAEE06B416B02B061
:1026A000BDE8B040084700BF2046FFF7DFFD00202F
:1026B000606402B0B0BD00BF204602B0BDE8B040CB
:1026C000FFF7D4BD401A216851E8031F226821F4A6
:1026D000907142E80313DBB1216851E8031F2268BF
:1026E00021F4907142E8031393B1216851E8031F6C
:1026F000226821F4907142E803134BB1216851E83C
:10270000031F226821F4907142E80313002BDAD1F1
:10271000216851E8051F226821F0010142E80513F4
:10272000DBB1216851E8051F226821F0010142E870
:10273000051393B1216851E8051F226821F00101BA
:1027400042E805134BB1216851E8051F226821F0CA
:10275000010142E80513002BDAD1202184F8421050
:1027600000212163216851E8031F226821F0100134
:1027700042E80313DBB1216851E8031F226821F00E
:10278000100142E8031393B1216851E8031F226846
:1027900021F0100142E803134BB1216851E8031FF7
:1027A000226821F0100142E80313002BDAD1022243
:1027B00081B22046626302B0BDE8B040FFF754BD6D
:1027C000216A31F8022B6FF35F22426021628CE5AF
:1027D000002804BF0120704710B5044690F841005E
:1027E00028B9002084F84000204600F063F8242037
:1027F00084F841002068D4E90212C36823F400532E
:10280000C360036923F440531A430261D4E90423EB
:102810001143C268194341F20C639A431143C160EA
:102820004169A26921F44071114343F60002C4F2E8
:1028300001029042416103D0FFF7FEFA02E000BFBF
:10284000FFF70EFB6268192148439100B0FBF1F0DD
:1028500048F21F51C5F2EB11A0FB01235A094FF6B4
:102860009C73C0F6FF7302FB0300322303EB0010DE
:10287000A0FB0101F02303EA5113206803EB0212CD
:10288000C1F3431111448160016921F49041016158
:10289000416921F02A014161C16841F40051C160E0
:1028A00000202021606484F8411084F842106063A5
:1028B00010BD000070B586B0006844F20041C4F25B
:1028C0000001002688420596CDE9036602963FD0B6
:1028D00043F60001C4F20101884266D141F21800BA
:1028E000C4F20200016840F6000441F48041016036
:1028F0000168C4F2010401F4804101910199016869
:1029000002AD41F0040101600068294600F00400B6
:10291000019001984FF40070029002200390032070
:1029200005902046FEF7E8FE4FF4806002900020FC
:10293000CDE9030020462946FEF7DEFE25200021D2
:102940000022FFF757F92520FFF740F906B070BDC8
:1029500041F21800C4F20200416840F6000441F45C
:10296000003141604168C4F2010401F40031019179
:102970000199016802AD41F0040101600068294637
:1029800000F00400019001980420029002200390BE
:10299000032005902046FEF7AFFE0820CDE9020691
:1029A000204629460496FEF7A7FE06B070BD00003B
:1029B00090F84230202B1CBF0220704700294FF0B6
:1029C000010318BF002A01D1184670470023036392
:1029D000816222218285C285436480F842100169A8
:1029E000006819B1C16841F48071C1604169002378
:1029F00041F001014161C16841F02001C160184608
:102A00007047000040F28021C2F20001884218BFE6
:102A100070472DE9F04381B040F2A016C2F20006E3
:102A2000376844F2EC29032F04BF00273760C2F255
:102A30000009D9F80040C72C09DB44F22420C2F277
:102A40000000C821FDF7BFFF0024C9F8004040F294
:102A5000A410C2F20000006801283CD140F2C8086E
:102A6000C2F2000898F8005044F22420C2F200009C
:102A70002B2D15D1C821FDF7A6FF0024C9F8004071
:102A8000022F2DD140F2C800C2F2000041698C42F1
:102A90004ADA01788069621CC9F8002001557FE09C
:102AA00046A1FDF7E8FE58B10120306044F2242031
:102AB000C2F20000C821FDF786FF002429E000BF14
:102AC000012F08BF3A2D3FD0D8F8140001388442B6
:102AD00008BF022F4AD0601C5FD03768022FD1D0C8
:102AE000012F0FD0002F5BD140F2C800C2F20000CE
:102AF000611C0078C9F8001044F22421C2F20001E0
:102B000008554DE0032C17DC40F2C800C2F200006B
:102B10000578601CC9F8000040F2C800C2F200004D
:102B2000204405743CE000BF48F2F620C0F60000E7
:102B300003F024FA34E000BF48F2E620C0F60000BB
:102B400003F01CFA2CE000BF0220306008F11000F6
:102B5000FDF784FE00250446C8E904500130FDF766
:102B6000C1FBC8F81800055517E000BF02F0E2FDF0
:102B7000D8F8180002F0CCF803203060D8F818001C
:102B80004FF0FF31C9F80010FDF7DBFBD9F800402A
:102B90000020C8F81800601C9FD10020C9F8000070
:102BA00040F2802040F2C801C2F20000C2F20001EF
:102BB000012201B0BDE8F043FFF7FABE2B495044B3
:102BC0002C302C002DE9F04381B0044690F84100F0
:102BD000202840F0B180884600294FF0010000F025
:102BE000D6801646002A00F0D280002060642120A2
:102BF0001D4684F84100FEF79BFEA684E684A1688A
:102C00000646B1F5805F03D12069002800F0988066
:102C100047464FF00008E18C2068002900F09680BC
:102C200005F101090BE000BF47B317F8011B416034
:102C3000E18C0139E184E18C002900F08780016892
:102C40000906F1D4B9F1000F0AD0EDB1FEF770FE1C
:102C5000801BA84218D8206801680906F6D5E3E76A
:102C600001680906E0D4016809065CBF01685FEAF3
:102C70000161D9D401680906F2D5D5E738F8021BFD
:102C800000276FF35F21D2E7206850E8030F216827
:102C900020F4D07041E80302BAB3206850E8030F73
:102CA000216820F4D07041E8030272B3206850E834
:102CB000030F216820F4D07041E803022AB3206892
:102CC00050E8030F216820F4D07041E80302002A85
:102CD000DAD11AE0206850E8050F216820F00100E1
:102CE00041E80502DAB1206850E8050F216820F0BC
:102CF000010041E8050292B1206850E8050F216803
:102D000020F0010041E805024AB1206850E8050FB3
:102D1000216820F0010041E80502002ADAD12020D4
:102D200084F8410084F84200002084F84000032029
:102D300001B0BDE8F08300BF022001B0BDE8F08320
:102D40000027E18C206800297FF46AAF01684906FA
:102D500019D4FDB1691C0DD10168490613D401686D
:102D600049065CBF01685FEA41610CD4016849060D
:102D7000F2D508E0FEF7DCFD801BA8420AD82068E7
:102D800000684006F6D5202084F84100002001B0FC
:102D9000BDE8F083206850E8030F216820F4D0706C
:102DA00041E80302002A3ED0206850E8030F216862
:102DB00020F4D07041E80302AAB3206850E8030F62
:102DC000216820F4D07041E8030262B3206850E823
:102DD000030F216820F4D07041E80302002AD9D102
:102DE00021E000BF206850E8050F216820F00100B5
:102DF00041E80502002A3FF492AF206850E8050F31
:102E0000216820F0010041E80502002A3FF487AF65
:102E1000206850E8050F216820F0010041E8050214
:102E2000002A3FF47CAF206850E8050F216820F0AD
:102E3000010041E80502002AD4D170E77047000084
:102E40002DE9F04784B041F21800C4F20200016895
:102E500040F6000941F0040101600168C4F2010973
:102E600001F00401009100990168002241F008017D
:102E700001600068F02100F00800009000984846CA
:102E8000F0260027FEF74EFD09F5806528464FF431
:102E9000004100224FF40048FEF744FD00966E46C4
:102EA0004FF0010A022448463146CDE901A70394B8
:102EB000FEF722FC28463146CDE9008ACDE90274AE
:102EC000FEF71AFC4FF48070CDE900074846314602
:102ED0000297FEF711FC04B0BDE8F08780B540F220
:102EE0002C2045F20041C2F20000C4F2000148F279
:102EF000A06200234FF4804CC0F2010280E80E0073
:102F0000C0E9033CC0E90533C0E90733FEF716FD0D
:102F1000002808BF80BDBDE88040FEF79BBA0000D6
:102F200080B540F2802043F60001C2F20000C4F2F6
:102F3000010100234FF00C0C4FF4E13280E80E0049
:102F4000C0E90333C0E905C3C361FFF741FC0028B2
:102F500008BF80BDBDE88040FEF77CBA80B540F276
:102F6000C82044F20041C2F20000C4F20001002374
:102F70004FF00C0C4FF4E13280E80E00C0E903334F
:102F8000C0E905C3C361FFF723FC002808BF80BD6B
:102F9000BDE88040FEF75EBAFEE70000FEE70000F5
:102FA00080B502F0CFFF04F0CDF8BDE8804002F01C
:102FB000D7BF0000B0B590B006AC201D2421FDF7AE
:102FC00024FD0220069001200A9010200B9000257D
:102FD00020460D95FEF758FF20B1EFF3108072B632
:102FE000FEE700BF0F20CDE9010501A80021CDE9D2
:102FF00003550595FEF73AFE20B1EFF3108072B647
:10300000FEE700BF10B0B0BD41F20400C4F2020000
:10301000016801F00C01082941F20021C0F27A0197
:1030200019D102680368C2F38342DB0302F1020292
:1030300006D440F60011C0F23D0151430BE000BF41
:1030400003689B0302D4514305E000BF40F6001122
:10305000C0F23D01514340F20802C2F20002116089
:10306000006847F6F063C0F30310C0F60003185C75
:1030700021FA00F01060704770470000406A00219C
:10308000C185C184FFF7F2B881B090F842102229BF
:1030900021D183680246B3F5805F09D152F8281F19
:1030A00052F8183C002B63D003685B680AE000BF4D
:1030B00052F8281F13B90369002BF5D003685B6829
:1030C00003F07F030B70116801311160C18D01396C
:1030D0000A04C18502D001B0704700BF0168CA6808
:1030E00022F02002CA60CA6822F48072CA604A696B
:1030F00022F001024A61202180F842100021416340
:10310000026B012A3CD10163016851E8031F026888
:1031100021F0100142E80313DBB1016851E8031FFD
:10312000026821F0100142E8031393B1016851E8ED
:10313000031F026821F0100142E803134BB101683C
:1031400051E8031F026821F0100142E80313002B2D
:10315000DAD101680A68D20606D5002200920A6810
:103160000092496800910099818D01B0FFF77CB809
:10317000026852686FF35F2221F8022B8162A5E793
:1031800001B0FFF73FBC000040F28020C2F2000017
:10319000FFF76EB8FEE70000002804BF002070476C
:1031A000C1B209B101200CE010F47F4102D0090A3C
:1031B000092006E010F47F0107BF010E1920090C59
:1031C000112047F60A72C0F60002515C08447047AD
:1031D00080B500F083FC002080BD000080B500F0C9
:1031E000EBFD002080BD00002DE9F04F85B01746B3
:1031F00048F21122C0F600028B4682460129914610
:1032000026DB48F214280497ABF1010700240126BD
:10321000C0F60008DAF8000048F2884500EBC40167
:1032200050F834304868C0F60005BC42B8BF1546B7
:1032300000900020002142460195FDF721F901345C
:103240004A46A3450644E5D1049FB41C01E000BFF3
:1032500003242046FDF746F80028386046D025A212
:103260002146FDF70DF9BBF1010F049429DBC84697
:10327000ABF101004FF00009039000BF3C68DAF8A1
:103280000050204605EBC906FDF72BFB04992218D8
:10329000091A7068039E55F83930B14548F28846DE
:1032A000C0F60006B8BF46460090104648F2142209
:1032B000C0F600020196FDF7E3F809F10109CB45DC
:1032C000DCD13C682046FDF70CFB0499231848F23A
:1032D0000E22091AC0F600021846FDF7D1F8396827
:1032E00005A005B0BDE8F04F02F048BE05B0BDE84E
:1032F000F08F00BF5B00000064657669636573E56D
:10330000AD97E7ACA6E4B8B23A25730070B58EB0BD
:103310000446FDF7E6FA48B1204410F8010C0A28EB
:1033200004D02046FDF7DDFA0A21215217A02146DC
:1033300002F024FE2046FDF7D4FA0DF10605024600
:1033400015A12846FDF786F818A002F017FE40F2F6
:103350008026C2F200063046294604F0BFFC48F23F
:10336000E325C0F60005284604F052FD15A002F042
:1033700005FE3046214604F0B1FC284604F048FD25
:1033800014A002F0FBFD0EB070BD00BF6D6573733D
:103390006167653A25730A0041542B4349505345F0
:1033A0004E443D302C25640D0A000000657370E525
:1033B00087BDE695B0E689A7E8A18C73656E640ABF
:1033C00000000000E58F91E98081E695B0E68DAEC2
:1033D0000A000000E58F91E98081E5AE8CE68890D7
:1033E0000A000000461E40F20C00C2F2000040F647
:1033F000000430F8165040F2B007C4F20104C2F2E3
:10340000000757F8260001280DD000BF20462946A6
:103410000022FEF787FA03F09DFD03F071FC57F8D8
:1034200026000128F2D120462946FEF773FA4FF410
:103430007A7003F063FD57F826000128F3D0E5E722
:1034400070B582B040F23C1648F21C7048F2C4716C
:10345000C2F20006C0F60000C0F60001C6E9000195
:103460000120782102F0B6F9706128B30A201521F5
:10347000CDE9001043F2F14113A0C0F60001002293
:103480004FF48063002403F0E3FB7269054610A14A
:1034900010460022002303F08DF8706990F8211087
:1034A00041F0020180F821101DB1284603F094FD7F
:1034B0000024204602B070BD07A002F05FFD4FF06F
:1034C000FF34204602B070BD747368656C6C0000F8
:1034D00073687278000000006E6F206D656D6F720A
:1034E0007920666F72207368656C6C0A00000000BA
:1034F00040F23C1AC2F2000ADAF8140040F2A814B2
:1035000090F82110C2F2000441F0010280F821205D
:10351000880703D40020207026E000BFDAF81010DE
:1035200041B140F2A810C2F200008022FDF794FAE7
:103530001AE000BF01F0CEFB30B10020207147F24D
:103540006D30C2F2680009E046F67300C0F2200058
:10355000C4F8030046F66610C7F26E3020602046BD
:10356000FDF7BFF93E212152204602F007FD48F247
:10357000FF664FF0010B4FF00008C0F6000602276F
:1035800002E000BF80F820B002F064FA8146DAF869
:103590001400B9F11B0FF5D090F82010022909D0C2
:1035A000012940F07580B9F15B0F40F06F8080F821
:1035B0002070E9E7A9F14101022980F82080E3D3D6
:1035C000B9F1440F00F29280DFE819F0460097004D
:1035D000970097009700970097009700A000E000E1
:1035E0007000970097007000970097009700970071
:1035F0009700970097009700970097009700970013
:103600009700970097009700970097009700970002
:1036100097009700970097009700970097009700F2
:1036200097009700970097009700970097009700E2
:1036300097009700970097009700970097009700D2
:1036400097009700970097009700970097009700C2
:1036500097004800840100BF96E700BFB0F87410DF
:10366000B0F872209142BFF48FAF084490F8221056
:1036700048F20170C0F6000002F080FCDAF8140095
:10368000B0F874100131A0F874107DE780F8208044
:10369000B9F10D0F2AD8DFE809F0073030303030AB
:1036A00030303979093030096EE700BF01F012FB84
:1036B000012812D1DAF8140090F82110C90707D0B8
:1036C00048F2A230C0F6000002F058FCDAF814000C
:1036D000B0F87210223001F0B3F8DAF8140090F864
:1036E0002100800778D484F800801DE1B9F17F0FB4
:1036F0000CD0B9F1FF0F3FF447AFB0F87220502A59
:1037000074D30022A0F87220A4E000BFB0F87410B7
:1037100000293FF439AFB0F872200139531E9AB234
:10372000A0F872308BB29A42A0F8741040F2B480C4
:10373000C11801F122002331D21A02F0FFFCDAF89D
:103740001400B0F87210084480F82280DAF81400EF
:10375000B0F87410084400F1220189A002F00EFCB8
:10376000DAF81410B1F87400B1F8721088423FF61C
:103770000BAF451E304602F001FCDAF814000135AB
:10378000B0F872008542F5D3FEE600BFB0F87410C1
:1037900051B10025304602F0F1FBDAF81400013592
:1037A000B0F874108D42F5D300F1220548F2A23032
:1037B000C0F6000002F0E2FB01F08CFA012802D111
:1037C000284600F07BFFDAF8140090F8210080070B
:1037D0006ED484F80080C1E0DAF8101000296FD0B0
:1037E00020468022FDF738F99EE000BFB0F8743023
:1037F0009A422FD9C11801F123002231D21A02F0C6
:103800009DFCDAF81400B0F87410084480F8229097
:10381000DAF8140090F82110C90709D0B0F8741034
:10382000084400F122015AA002F0A8FBDAF81400C3
:10383000B0F87450B0F872108D421DD2304602F0CC
:103840009DFBDAF814000135B0F872108D42F5D303
:1038500012E000BF104480F82290DAF8140090F8CB
:103860002110C90708D048F20170C0F6000049468F
:1038700002F084FBDAF81400B0F87210B0F874208B
:103880000131A0F8721089B201325029A0F87420D9
:1038900028BFC0F8728077E638A002F06FFBDAF834
:1038A0001400B0F87210084480F822806CE600BF63
:1038B000DAF81010F1B120468022FDF7CDF84DE086
:1038C00001F008FA00B347F26D3084F80480C2F2C8
:1038D000680023E0B0F8740000283FF455AE30468D
:1038E00002F04CFBDAF81400B0F874100139A0F8BB
:1038F000741049E601F0EEF900B347F26D3084F838
:103900000480C2F2680023E046F67300C0F2200093
:10391000C4F8030046F66610C7F26E3020602046F9
:10392000FCF7DFFF3E212152204602F027FBDAF8A8
:10393000140054212230FDF746F825E646F67300C0
:10394000C0F22000C4F8030046F66610C7F26E30DD
:1039500020602046FCF7C5FF3E2121520AA02146E7
:103960002A4602F00BFBDAF8145005F12200FCF7AE
:10397000B8FFA5F87200A5F8740005E60820080055
:10398000082573202008000025732573000000001F
:103990002573000080B502A002F0F0FA002080BD7F
:1039A00048656C6C6F2052542D54687265616421B7
:1039B0000A000000F0B581B040F29C17C2F2000787
:1039C0003A680546561C08463E6002F013FF04465E
:1039D0002868F100FCF7DCFC286020B1396800EBB6
:1039E000C10040E9026401B0F0BD00002DE9F04FD4
:1039F00081B040F2AC05C2F200052C680E46611C95
:103A000007462960006801EB41010901984691468B
:103A1000FCF7BEFC3860D0B12D68DDE910EC05EB99
:103A20004505DDE90EBADDE90C210A9B0B9F00EB91
:103A30000510A0F1300585E8500240E9098340E90E
:103A4000077240E9051B40E903AE40F804CC01B021
:103A5000BDE8F08F2DE9F04381B016A002F08EFA98
:103A600040F23C1040F24019C2F20000C2F20009DC
:103A70000768D9F80050AF4218D213A40FF24C08CF
:103A800003E000BF0C37AF4210D23E6821463046FB
:103A90000222FCF745FF0028F4D07A684046314600
:103AA00002F06CFAD9F80050ECE700BF002001B03A
:103AB000BDE8F0832D2D46756E6374696F6E204CE2
:103AC0006973743A0A0000005F5F0000252D3136EB
:103AD00073202D2D2025730A0000000010B540F240
:103AE000E404C2F20004216806A002F047FA21694A
:103AF00009A002F043FA61690CA0BDE8104002F091
:103B00003DBA00BF746F74616C206D656D6F727922
:103B10003A2025640A00000075736564206D656DA8
:103B20006F7279203A2025640A0000006D6178697F
:103B30006D756D20616C6C6F6361746564206D657B
:103B40006D6F72793A2025640A0000002DE9F04F6C
:103B50008DB0022002F044FC00F104087BA082A298
:103B6000082102F00BFA48F2BD64C0F600042046BA
:103B700002F004FA204602F001FA204602F0FEF9B3
:103B8000204602F0FBF9204602F0F8F9204602F048
:103B9000F5F9204602F0F2F9204602F0EFF975A09F
:103BA00002F0ECF900260DF1140B7CA77CA4CDF8F3
:103BB0000C8005E0049EDDF80C80002E00F0C28031
:103BC0003546002E08BF4546FCF712FB36B115F806
:103BD000041C01F07F01022940F0B28029684145B0
:103BE00000F0AE800A68059142451DD0116806922A
:103BF00041451DD00A68079142451DD011680892C1
:103C000041451DD00A68099142451DD011680A92AC
:103C100041451DD00A680B9142451DD04FF0080860
:103C2000114604920C921BE04FF0010816E000BF11
:103C30004FF0020812E000BF4FF003080EE000BF93
:103C40004FF004080AE000BF4FF0050806E000BF8F
:103C50004FF0060802E000BF4FF007080021049172
:103C600051A5FCF7C9FA4FF0000906E04DA002F09B
:103C700085F909F10109C1459CD05BF829A0FCF741
:103C8000B7FA1AF8041C01F07F06FCF7B5FA022E09
:103C9000EFD1AAF10C035AF8081F0026BAF8080061
:103CA000514511D0514600BF0968514521D00968DE
:103CB00051451BD0096851451AD009680436514551
:103CC000F2D1013E15E000BF514600BF09685145E1
:103CD0002DD00968514527D00968514526D009687B
:103CE00004365145F2D1013E21E000BF013600E02B
:103CF0000236009025A008210822019602F03EF924
:103D0000DAF800605645B1D0A6F11401384602F049
:103D100035F930685045A9D0204602F02FF93668B1
:103D20005645F1D1A2E700BF013600E0023600900F
:103D3000284608210822019602F020F999E700BFE1
:103D4000FCF75AFA00200DB0BDE8F08F252D2A2E81
:103D500073207620202073757370656E64207468FC
:103D6000726561640A00000073656D6170686F724E
:103D700065000000202D2D2D202D2D2D2D2D2D2DDC
:103D80002D2D2D2D2D2D2D0A00000000252D2A2E44
:103D90002A7320253033642025643A0025730000FF
:103DA0002F0000000A000000252D2A2E2A7320254E
:103DB0003033642025640A002DE9F04F8DB00120D6
:103DC00002F00EFB051D48F24860C0F6000071A22B
:103DD000082102F0D3F848F2BD64C0F60004204682
:103DE00002F0CCF8204602F0C9F8204602F0C6F8EE
:103DF000204602F0C3F8204602F0C0F8204602F048
:103E0000BDF8204602F0BAF8204602F0B7F863A0E9
:103E100002F0B4F800240DF1140A039505E000BF88
:103E2000049C039D002C00F0B1802646002C08BFA6
:103E30002E46FCF7DDF934B116F8041C01F07F01C1
:103E4000012940F0A1803168A94200F09D800A68F4
:103E50000591AA421ED011680692A9421ED00A6896
:103E60000791AA421ED011680892A9421ED00A6882
:103E70000991AA421ED011680A92A9421ED00A686E
:103E80000B91AA421ED04FF00808114604920C92E2
:103E90001CE000BF4FF0010816E000BF4FF0020821
:103EA00012E000BF4FF003080EE000BF4FF004081F
:103EB0000AE000BF4FF0050806E000BF4FF006081B
:103EC00002E000BF4FF0070800210491FCF794F9CD
:103ED0004FF0000906E000BFFCF78EF909F1010977
:103EE000C1459DD05AF829B0FCF782F91BF8041C93
:103EF00001F07F010129EFD1ABF10C06FCF77CF951
:103F00009BF8294035A0082108223346009402F08E
:103F100035F89BF8280000F00F00042804D832A1DF
:103F200051F8200002F02AF8DBF81C00014600BF1F
:103F30000A78232A0FD14A78232A09D18A78232A9A
:103F400008D1CA780431232AF2D0013903E000BF36
:103F5000013100E00231DBE90824DBF810601718BA
:103F6000401A104464214843DBF83450B0FBF2F3AC
:103F7000B91B22A00095019402F000F809F1010993
:103F8000C145AFD14CE700BFFCF736F900200DB0BA
:103F9000BDE8F08F7468726561640000202D2D2DDE
:103FA00020202D2D2D2D2D2D2D202D2D2D2D2D2D68
:103FB0002D2D2D2D202D2D2D2D2D2D2D2D2D2D204B
:103FC000202D2D2D2D2D2D20202D2D2D2D2D2D2D48
:103FD0002D2D2D202D2D2D0A00000000252D2A2EFF
:103FE0002A732025336420008C8600089E860008F2
:103FF000BF860008C886000895860008203078250E
:10400000303878203078253038782020202025302E
:10401000326425252020203078253038782025303E
:1040200033640A002DE9F04F8FB00A2002F0D8F96E
:1040300000F1040A0FF2A8400FF2CC42082101F06F
:104040009DFF48F2BD64C0F60004204601F096FFD3
:10405000204601F093FF204601F090FF204601F03A
:104060008DFF204601F08AFF204601F087FF2046A1
:1040700001F084FF204601F081FF0FF2944001F02F
:104080007DFF4FF0000923E0A4F10C07FCF7B4F822
:10409000D4E906050821009048F2A760C0F60000A8
:1040A00008223B46019501F069FF14F8030CC00794
:1040B00007BF48F23B60C0F6000048F23D60C0F622
:1040C000000001F05BFF00BFB9F1000F00F0FE81BE
:1040D0004C46B9F1000F08BF5446FCF789F8B9F116
:1040E000000F06D014F8041C01F07F010A2940F0EB
:1040F000EB812168514500F0E781D1F800B00791CC
:10410000D34523D0DBF80010CDF820B0514521D0A5
:104110000A680991524500F0F78011680A925145EA
:1041200000F0F8800A680B91524500F02D8111686B
:104130000C92514500F06681D1F800900D91D14567
:1041400000F06C81CDF8389002E000BF4FF000091C
:10415000002102E04FF00009012100260691002510
:10416000002105910021049100210391FCF744F8FE
:10417000DDF81C80FCF73CF818F8041C01F07F0106
:104180000A2921D1A8F10C07FCF736F8D8E9060472
:104190000821009048F2A760C0F6000008223B46C4
:1041A000019401F0EBFE18F8030CC00707BF48F2BA
:1041B0003B60C0F6000048F23D60C0F6000001F030
:1041C000DDFED34505D17FE7FCF716F8D3453FF474
:1041D0007BAF089CFCF70CF814F8041C01F07F017D
:1041E0000A2927D1B0462E46A4F10C07FCF704F8A3
:1041F000D4E906050821009048F2A760C0F6000047
:1042000008223B46019501F0B9FE14F8030CC007E3
:1042100007BF48F23B60C0F6000048F23D60C0F6C0
:10422000000001F0ABFE35464646069800287FF4B4
:104230004BAF05E0FBF7E0FF069800287FF444AFA2
:10424000099CFBF7D5FF14F8041C01F07F010A2933
:1042500026D1B0462E46A4F10C07FBF7CDFFD4E9DA
:1042600006050821009048F2A760C0F60000082269
:104270003B46019501F082FE14F8030CC00707BF0E
:1042800048F23B60C0F6000048F23D60C0F6000016
:1042900001F074FE35464646002E7FF415AF04E06B
:1042A000FBF7AAFF002E7FF40FAF0A9CFBF7A0FFDD
:1042B00014F8041C01F07F010A2933D12E46A4F121
:1042C0000C07FBF799FFD4E906050821009048F296
:1042D000A760C0F6000008223B46019501F04EFEA3
:1042E00014F8030CC00707BF48F23B60C0F600009B
:1042F00048F23D60C0F6000001F040FE3546002D5A
:104300007FF4E2AE13E000BF002101264FF0000968
:1043100024E700BF002101254FF000090691002687
:104320001EE700BFFBF768FF002D7FF4CDAE0B9CAE
:10433000FBF75EFF14F8041C01F07F010A292DD160
:10434000A4F10C07FBF758FFD4E9060508210090FB
:1043500048F2A760C0F6000008223B46019501F034
:104360000DFE14F8030CC00707BF48F23B60C0F60F
:10437000000048F23D60C0F6000001F0FFFD059826
:1043800000287FF4A1AE0FE00121059100214FF03C
:104390000009069100260025E4E600BFFBF72CFF8C
:1043A000059800287FF490AE0C9CFBF721FF14F8D1
:1043B000041C01F07F010A293ED1A4F10C07FBF790
:1043C0001BFFD4E906050821009048F2A760C0F65B
:1043D000000008223B46019501F0D0FD14F8030CC3
:1043E000C00707BF48F23B60C0F6000048F23D60DE
:1043F000C0F6000001F0C2FD049800287FF464AE0E
:1044000020E000BF012104910021069100214FF01E
:104410000009002600250591A6E600BF01210391B1
:10442000002106910021059100214FF0000900268E
:10443000002504919AE600BFFBF7DEFE04980028F1
:104440007FF442AE0D9CFBF7D3FE14F8041C01F080
:104450007F010A2924D1A4F10C07FBF7CDFED4E992
:1044600006050821009048F2A760C0F60000082267
:104470003B46019501F082FD14F8030CC00707BF0D
:1044800048F23B60C0F6000048F23D60C0F6000014
:1044900001F074FD039800287FF416AE06E000BF1B
:1044A000FBF7AAFE039800287FF40EAE0E9CFBF7E4
:1044B0009FFE14F8041C01F07F010A293FF4E4ADCB
:1044C000FBF79AFE00E600BFFBF796FE02F034FE13
:1044D000014618A001F052FD00200FB0BDE8F08F9A
:1044E000252D2A2E732020706572696F6469632000
:1044F000202074696D656F75742020202020202095
:10450000666C61670A00000074696D6572000000E6
:10451000202D2D2D2D2D2D2D2D2D2D202D2D2D2DE5
:104520002D2D2D2D2D2D202D2D2D2D2D2D2D2D2DC8
:104530002D2D0A0063757272656E74207469636B49
:104540003A3078253038780A0000000098B0FDF73E
:10455000E3FA0EAC201D2421FCF757FA02200E903E
:104560000120129010201390002520461595FDF78C
:104570008BFC28B1EFF3108072B600BFFEE700BFDE
:104580000F20CDE9090509A80021CDE90B550D95AE
:10459000FDF76CFB20B1EFF3108072B6FEE700BFB1
:1045A000FEF74EFCFEF79AFCFEF7BAFCFEF7D6FCCF
:1045B00040F2C80940F28020C2F20009C2F20000B5
:1045C00049460122FEF7F4F921A024A126A2FCF716
:1045D00047FF0A2005210A224FF0050800F08AFB58
:1045E000054640F2E7700C211B2200F075FB0646E1
:1045F00040F2E7700C211C2200F06EFBA968D5E99F
:104600000023D6E90057B66890E81050CDE90018AD
:1046100009F104000121CDE90257CDE90464CDF888
:1046200018C0CDF81CE0FFF7E1F909F1080410A16A
:104630002046FFF7BFF910A12046FFF7BBF910A1F4
:104640002046FFF7B7F900BF142002F057FCFBE744
:10465000417370795261696E000000004C787232CB
:104660003030333031303600383038300000000020
:10467000666565645F310000666565645F320000F1
:10468000666565645F330000B0B548F2187448F29F
:104690001070C0F60004C0F60000A04209D248F233
:1046A0001075C0F6000500BF55F8040B8047A54201
:1046B000FAD3BDE8B040FFF749BF00002DE9F04F45
:1046C00081B083460078A8B140F23C10C2F20000ED
:1046D000056840F24010C2F20000D0F80080454565
:1046E00080F0A88048F2F8694FF0000AC0F600098F
:1046F00000264CE048F2D160C0F6000001F03EFC1C
:1047000040F23C1040F24019C2F20000C2F200092F
:104710000768D9F80050AF421CD248F2F86448F25A
:10472000EC68C0F60004C0F6000802E00C37AF42A7
:1047300010D23E68214630460622FCF7F1F80028E8
:10474000F4D17A68B11D404601F018FCD9F8005048
:10475000ECE700BF48F2A230C0F6000001B0BDE8AF
:10476000F04F01F00BBC00BF481C801B5045B8BF88
:10477000824632A0394601F001FC40F24010C2F2FC
:104780000000D0F8008000BF0C35454548D22F68A6
:10479000494638460622FCF7C3F80028F4D15846AB
:1047A0000637FCF79EF8024658463946FCF7B8F83B
:1047B0000028E9D1BAF1000F04D03178304651B960
:1047C000D3E700BF3846FCF78CF882463E46317886
:1047D00030460029C9D000203A5CDAB1914219D1A3
:1047E00031184B78002BBFD03A185478002CBBD02E
:1047F000A342B9D18B787BB194786CB1A3420BD131
:10480000CB785BB1D2784AB1934207D109790430B1
:104810000029E1D13044A8E7881CA6E7C81CA4E71A
:1048200046B158463146524601B0BDE8F04F02F05D
:10483000B5B800BF01B0BDE8F08F00BF25730A0016
:104840002DE9F04F8BB049B3CF1E8E1E4D1E0023B5
:1048500003E000BF0433994220D0C25C202A01D07B
:10486000092A1FD19D4219D0C4186278202A01D08C
:10487000092A1DD19E4211D0A278202A01D0092AEE
:104880001CD19F420AD0E278202AE3D0092AE1D045
:10489000C81AA0F1030804F1030A14E000200BB0C9
:1048A000BDE8F08FA1EB030800EB030A0BE000BFAB
:1048B000D84300EB010804F1010A04E0C81AA0F192
:1048C000020804F1020AC8F10000A8F10101002564
:1048D000D2B2092A2DD0202A2BD0A84520D00AEB0D
:1048E00005025378092B1FD0202B1DD0A94217D0C9
:1048F0009378092B1CD0202B1AD043199F1C0FD062
:10490000D778092F00F03681202F00F03381033350
:1049100006D012790435D2B2092ADCD109E000BFF1
:1049200045464DB92AE100BF01352DB926E100BF4A
:104930000235002D00F0228140F23C10C2F200004E
:10494000046840F24010C2F200000668B44280F0F1
:10495000158148F2F86905F1060BC0F6000903E07D
:104960000C34B44280F00A81276849463846062252
:10497000FBF7D6FF0028F3D1B81D51462A46FBF7B6
:10498000CFFF0028ECD117F80B000028E8D1A06871
:104990000028009000F0F2804FF0000C4FF000096A
:1049A00000265246CDE909CCCDE907CCCDE905CCAE
:1049B000CDE903CC4146CDF80890464588BF314645
:1049C000751A05F10109002096460196175C202F03
:1049D00001D0092F42D115EB000B2BD014186778AA
:1049E00002F800C0202F01D0092F39D119EB000C9B
:1049F00024D0A7784FF0000C202F84F801C001D0FC
:104A0000092F31D11BF1020320D0E77884F802C0CE
:104A1000202F01D0092F2BD11BF103031AD084F8CA
:104A200003C00EF1040E04360430175C202FD0D1E1
:104A3000D1E700BF02EB000E1FE000BFDDF80890D9
:104A400004F1010E4FF0000C19E000BF04F1020E5A
:104A500013E000BF0EF1030E0FE000BF31460CE083
:104A60000EF1010E711C08E00EF1020EB11C04E003
:104A7000019904F1030E0844C11CDDF80890B9F156
:104A8000080F80F0AD80414580F0BE80222F21D1FB
:104A90000EF1010203A840F829209EF80170481C7D
:104AA00004E000BF12F8017F0146013040454FF09D
:104AB000000338BF0123222F42D0404540D25C2F53
:104AC000F0D1134613F8017F222F04BF1A46881C29
:104AD000E8E700BF03A840F829E04046414588BF09
:104AE00008460A1A09F10109571C00201EF8006047
:104AF000092E21D0202E1FD0161800F088800EEB32
:104B000000056C78092C23D0202C21D03B1800F014
:104B10007E80AC78092C1FD0202C1DD0B31C76D001
:104B2000EC78092C1CD0202C1AD0F31C6FD0043048
:104B30001EF80060092EDDD10EEB00020E1812E007
:104B4000002B09F1010962D002F801CB8E1C0CE0A8
:104B500008446A1C461C06E00844AA1C861C02E0A5
:104B60000844EA1CC61C464551D24645FFF422AF14
:104B70004DE000BF0335002D7FF4DEAE00201AF8B3
:104B8000001041F02001202917D00AEB00014A78DB
:104B900042F02002202A13D08A7842F02002202AF4
:104BA00010D0CA7842F02002202A0DD004301AF822
:104BB000001041F020012029E7D1504405E000BF5A
:104BC000481C02E0881C00E0C81C002101701CA0E9
:104BD000514601F0D3F94FF0FF300BB0BDE8F08F34
:104BE0000EA001F0CBF903A8041F14A64D4654F8FB
:104BF000041F304601F0C2F9013DF8D148F2A2305D
:104C0000C0F6000001F0BAF9B9F1000FB6D0009A71
:104C100003A9484690470BB0BDE8F08F546F6F2052
:104C20006D616E7920617267732021205765206F56
:104C30006E6C79205573653A0A00000025732000D8
:104C400025733A20636F6D6D616E64206E6F742002
:104C5000666F756E642E0A002DE9F04381B048F24C
:104C6000D160C0F6000001F089F940F23C1040F23A
:104C70004019C2F20000C2F200090768D9F80050DA
:104C8000AF421DD248F2F86448F2EC68C0F6000466
:104C9000C0F6000803E000BF0C37AF4210D23E68F8
:104CA000214630460622FBF73BFE0028F4D17A6805
:104CB000B11D404601F062F9D9F80050ECE700BFA1
:104CC00048F2A230C0F6000001F058F9002001B00F
:104CD000BDE8F0830120704770B506460C201446ED
:104CE0000D46FBF7FFFA00281CBFC0E90065846091
:104CF00070BD000070B506460C2014460D46FBF74B
:104D0000F1FA00281CBFC0E90065846070BD000096
:104D1000002808BF7047B0B582B0044616A02146EF
:104D200001F02CF92046FBF7DCFD0130FBF7DAFA45
:104D3000054640F2C800C2F20000C5602846214680
:104D4000FBF7ABFD0DA0294601F018F9052045F24F
:104D50002D410A2500900DA0C0F6000100224FF45D
:104D60000063019501F074FF002802B0BDE8B04077
:104D700018BF02F031B9704725730A006A736F6E6D
:104D80004D6573736167653D25730A0070726F63CB
:104D90006573734A736F6E002DE9F04F93B014463C
:104DA0000D4606460129CDE90F01C0F2A78048F261
:104DB0001129681E00274FF00108C0F600090D9464
:104DC0000E9000BF56F827000168D0E90132129119
:104DD000016AD0E90365119100F1140ED0E909AB25
:104DE000C16A0E989EE81050874248F28840C0F68B
:104DF0000000B8BF4846CDE908ABCDE90A10CDE9BF
:104E0000003202960F9E039504A8109D80E8105072
:104E100048F22F22DDE9114300200021C0F60002F4
:104E20000794FBF72DFB0137BD428044CAD10D9C8E
:104E300008F10200FBF756FA0028206064D007460C
:104E40005B20012D388044DB681E4FF000080D9078
:104E500056F82850264624682046FBF742FD2318C2
:104E600028686A6A1290686805F1100E11900E9217
:104E70000D9FD5E902109EE81050D5E9079AD5E9B3
:104E80000AB5B84548F28847C0F6000748F2112233
:104E9000C0F60002B8BF1746CDE908B50A97CDE9BC
:104EA0000010029434460F9ECDE903CECDE9059A59
:104EB000184648F22F21DDE911320E9FC0F600019D
:104EC0000797FBF7C7FA109808F101084045BFD1D2
:104ED00027683846FBF705FD40F65D2239183A523F
:104EE0000020887021680AA001F048F84FF47A7019
:104EF00013B0BDE8F04F02F001B800BF0320FBF78C
:104F0000F1F9002820609AD113B0BDE8F08F00BFFE
:104F1000706C616EE5AD97E7ACA6E4B8B23A257364
:104F20000A0000002DE9F04F8AB0059115990FF2A3
:104F3000D4464F060FF2E04858BFB046CE06DDE932
:104F4000134948BF21F00101CE074FF0300A08BFD6
:104F50004FF0200A8E070DD4002701970027012566
:104F60000097002A00F09A80CDE90251CDF810A0F8
:104F700013E000BFB2F1FF3F06DD4E0700F186806F
:104F80000E07E9D5202782E0012701970027029725
:104F90002D27CDE9031A524200974CF6CD494FF028
:104FA000000BCCF6CC490DF1180A00BFA2FB095644
:104FB0001409F50802F00F0705EB850C25460A2BAE
:104FC00004BFF508A2EB4C0718F80770002D0AF88B
:104FD0000B7049D0A5FB097C04F00F07140ACE46DC
:104FE0004FEADC06A14606EB86060A2B04BF4FEA11
:104FF000DC09A5EB460718F807500AEB0B0CB9F1D2
:10500000000F59468CF8015032D0A9FB0E5604F01F
:105010000F05140B5146F708A24607EB87070A2B2A
:1050200004BF4FEAD60AA9EB470518F80550BAF1B4
:10503000000F8CF802501FD0AAFB0E5604F00F048C
:10504000120CF50805EB85050A2B04BFF208AAEB44
:10505000450418F80440F1460BF1040B002A8A4677
:105060008CF80340A2D109E00BF1010B06E000BF70
:105070000BF1020B02E000BF0BF1030BDDF810A0F7
:10508000DDE90251DDE913490DE000BF2B27009750
:10509000002501270197002A7FF466AF30228DF8A2
:1050A00018204FF0010BDDF814E0CB454B46C8BF8C
:1050B0005B4611F0110FA4EB03025FD006462DB939
:1050C00076453CBF00983070013A0136C80631D4AD
:1050D000551EC0F28D8012F0030700F095807645D2
:1050E00038BF86F800A0012F06F1010040F096803D
:1050F000023A0646032DC0F08B80101D764506F15E
:10510000010238BF86F800A0724538BF82F800A0BF
:10511000B21C724538BF82F800A0F21C7245A0F1A3
:10512000040038BF82F800A0032806F10406E5DC7D
:105130004FF0FF323046CB455EDAA3EB0B076FEA48
:105140000B0617F0030703EB060C57D070453CBF66
:10515000302404705D1E012F00F1010409D0744554
:10516000A3F102053CBF30262670022F00F1020495
:105170006CD12046BCF1030F73D28BE00027002ACC
:10518000C8BF0127019E3740D71B7A1E96DB17F058
:10519000030C51D070453CBF20240470BCF1010FBA
:1051A00000F1010640F00481023F3046032A46D355
:1051B0003A1D2026704500F1010738BF067077457B
:1051C00038BF3E70871C774538BF3E70C71C774597
:1051D000A2F1040238BF3E70032A00F10400E9DCAA
:1051E0004FF0FF320646002D3FF46AAF6EE700BF76
:1051F00030462A46CB45A0DB04464BE01D46BCF1B9
:10520000030F2ED246E000BF2A46032DBFF475AF30
:105210004FF0FF32CB45FFF690AFEDE7704538BF5A
:1052200080F800A0022F06F1020040F0D180033A7E
:105230000646032DECD360E71746032AB8D24FF099
:10524000FF32002D3FF43CAF40E700BF0330744510
:10525000A3F103053CBF302323700446BCF1030FC8
:1052600018D33023044600BF744504F1010038BF51
:105270002370704538BF0370A01C704538BF0370A1
:10528000E01C7045A5F1040538BF0370AB4504F17F
:105290000404E9DBB9F1000F35D006A8023807E0B5
:1052A000ABF1040B0BF10403042B04F104042AD921
:1052B000744503D200EB0B035B782370BBF1020F44
:1052C00004F101031EDB73453CBF10F80B701F7027
:1052D000BBF1030F04F1020314D3734504D200EBB6
:1052E0000B0717F8017C1F70BBF1040F04F10303D7
:1052F00008D37345D4D200EB0B0717F8027C1F705C
:10530000CEE700BF1C46012A12DB12F00307A2F110
:10531000010311D074453CBF20202070012F04F1FF
:1053200001000DD11A460446032B3ED322E000BFF4
:1053300020460AB0BDE8F08F032B36D31AE000BF39
:105340007045A2F102063CBF20250570022F04F132
:10535000020005D132460446032B26D30AE000BFE3
:1053600003347045A2F103023CBF2027077020469A
:10537000032B1AD3013A2023204600BF704500F1C9
:10538000010738BF0370774538BF3B70871C7745EE
:1053900038BF3B70C71C7745A2F1040238BF3B7091
:1053A00012F1020F00F10400E8D30AB0BDE8F08F5B
:1053B00076453CBF20243470BCF1020F00F1020698
:1053C00012D1033F3046032AFFF439AFF0E600BFA5
:1053D0000336704538BF80F800A0043A3046032DEC
:1053E000BFF48BAE14E700BF764503D22C462025D0
:1053F000357025460330043F0646032ABFF4D8AE75
:105400001DE700BF30313233343536373839616209
:10541000636465660000000030313233343536375E
:105420003839414243444546000000002DE9F04F21
:1054300097B040F2C805C2F20005E86899A116AA23
:10544000FBF7D8F8012840F00B811698022835D0D8
:10545000012845D000287BD148F21230C0F6000068
:1054600000F08CFD142001F049FDE86848F2A431F9
:10547000C0F6000115AAFBF7BDF8012840F0F08046
:10548000159948F27D30C0F6000000F077FD1598C0
:10549000012863D0002870D148F20330C0F6000024
:1054A00000F06CFD40F29C10C2F20000016805F1B2
:1054B000080014AAFDF798FE5FE000BF7CA000F092
:1054C0005DFDE8687FA114AAFBF794F8012840F07D
:1054D000C7801498411E022998BF02F00FFC37E0E4
:1054E00080A000F04BFDE86883A115AAFBF782F8C5
:1054F000012840F0B5801598012857D040BB48F2EC
:105500000330C0F6000000F039FD1E20FAF7EAFE75
:10551000002800F0B3800446E86848F2C031C0F6C5
:1055200000012246FBF766F8012840F0B18005F142
:1055300008002146FEF73EFA40F29C11C2F200013B
:10554000A868096800EBC10050F8081C72A0A4E02C
:10555000E868FAF7F6FE17B0BDE8F08F48F223309E
:10556000C0F6000000F00AFD40F2AC00C2F20000FC
:105570000168281D14AAFFF70FFC48F24C30C0F652
:10558000000000F0FBFC1498FDF7C0FE48F28730E5
:10559000C0F6000000F0F2FC1498FAF7D2FEE868BA
:1055A000FAF7CFFE17B0BDE8F08F00BF0AA9089147
:1055B00011AF12A9E8680DAA0EABCDE9001748F2A9
:1055C000F6310DF12C0C0DF1300E0FAE10ACCDE913
:1055D0000432C0F6000114AA13ABCDE90246CDF89F
:1055E00018E0CDF81CC0FBF705F80B2838D140F2C5
:1055F000A800C2F200000368DDE91308DDE911210B
:1056000003F10809FFF776FBDDE90F3ADDE90D212B
:1056100006461846FFF760FB0C9BDDE90A210746AA
:105620001846FFF759FBD6E90023B168D7E90064B3
:10563000BF68D0E900CED0F808B004A8CDE9001AC0
:1056400080E8805048464146CDE90264CDF81CB060
:10565000FEF7CCF9E868FAF774FE17B0BDE8F08FF2
:10566000E96848F26530C0F6000000F087FCE868A1
:10567000FAF767FE17B0BDE8F08F00BF48F232308E
:10568000C0F6000000F07AFC17B0BDE8F08F00BF54
:10569000E96848F26530C0F6000000F06FFC204673
:1056A0007BE700BF7B7374617475733A25642C00CB
:1056B000E8BF9BE585A57374617475733A20320A5F
:1056C000000000007B7374617475733A252A642CA2
:1056D00064657461696C3A7B6465766963653A25D3
:1056E000647D7D00E8BF9BE585A573746174757367
:1056F0003A20310A000000007B7374617475733ABC
:10570000252A642C64657461696C3A7B74797065D0
:105710003A25642C00000000646576696365E586BF
:1057200099E585A5E5AE8CE68890202C69643A253C
:10573000640A000080B544F2EC21C2F2000108685E
:10574000421C17D040F2A013C2F200031B68022BC8
:1057500020D0012B12D0002B18BF80BD40F2C8030F
:10576000C2F200031B780A6044F22421C2F2000155
:105770000B5480BD0020086080BD00BF032819DCE9
:1057800040F2C80CC2F2000C9CF8003060440A6081
:10579000037480BD40F2C80CC2F2000CDCF8143077
:1057A00098420FDA9CF800E0DCF818300A6003F841
:1057B00000E080BD48F2E620C0F60000BDE8804071
:1057C00000F0DCBB48F2F620C0F60000BDE88040E7
:1057D00000F0D4BBB0B501FB00F4204600F0E8FBBC
:1057E000054620B128460021224600F01DFD28462E
:1057F000B0BD0000B0B548F2107448F20870C0F6B1
:105800000004C0F60000A04228BFB0BD48F20875F1
:10581000C0F6000555F8040B8047A542FAD3B0BD89
:1058200080B5FAF7E5FC40F21C11C2F200014A888B
:1058300001324A80BDE88040FAF7DEBCB0B5FAF725
:10584000D7FC40F21C15C2F2000569880446481EC8
:1058500001B20029688005DD2046BDE8B040FAF7B6
:10586000CBBC00BF002068802046FAF7C5FC686802
:10587000002808BFB0BDFAF7BBFC698804460029C0
:10588000EAD1A868FDF788FC421E44F21800C2F273
:10589000000050F832106868A1F114038342DBD095
:1058A0002A7043F690726B60C2F2000212781C30CC
:1058B00001F1080132B1FAF7A2FC2046BDE8B04080
:1058C000FAF79ABCFAF79BFC2046BDE8B040FAF71D
:1058D00093BC00002DE9F041002857D040F2E407C6
:1058E000C2F2000704467868A0424FD8B868A042C8
:1058F00098BFBDE8F08107F1180840464FF0FF312E
:10590000A4F10C0600F090FE34F80A0C18B13088AF
:10591000B0F5F55F0AD025A000F030FB34F80A2C72
:1059200034F80C3C28A0314600F028FB4FF4F55029
:1059300044F80C0CD7F80CC066453CBFFE60B4467A
:1059400054F8082C78683D691318F11A2944396114
:105950000FD0598869B9B9688B420AD09C4504BFF9
:10596000FE60B4465A6844F8082C5968331A01445A
:105970008B6054F8043CC518B54201D0698839B130
:105980004046BDE8F04100F025BE00BFBDE8F08113
:10599000B44508BFFD606A6054F8081C0844836081
:1059A0004046BDE8F04100F015BE00BF746F2066B0
:1059B00072656520612062616420646174612062A7
:1059C0006C6F636B3A0A00006D656D3A2030782584
:1059D0003038782C207573656420666C61673A20D6
:1059E00025642C206D6167696320636F64653A20CC
:1059F0003078253034780A0040F28C30C2F2000052
:105A00007047000040F28C30C2F2000000F5705088
:105A10007047000010B5FCF77FF8FDF7CBFAFDF7F3
:105A2000F3FAFCF703FA44F6D351C1F26201A0FB8A
:105A300001018809FCF702FCFFF7DCFEFFF7DCFF41
:105A40000446FFF7DFFF01462046BDE8104000F0A6
:105A5000E9BF000080B540F25410C2F200000068B7
:105A60000168890606D40A2001F048FAFF20C0B276
:105A700080BD00BF4068C0B280BD0000F0B581B0FD
:105A800004460D208DF8030040F25410C2F20000CD
:105A9000002180F84010204600F068FFE0B140F29D
:105AA00054160546C2F200060DF103070AE000BFD6
:105AB0003046214601220123FDF784F8013D04F11F
:105AC000010409D020780A28F2D130463946012253
:105AD0000123FDF777F8EBE701B0F0BD10B540F218
