:020000040800F2
:10000000C0480020AD0100088924000891020008C2
:1000100085240008150B00088D260008000000004C
:10002000000000000000000000000000BF01000808
:10003000190B0008000000001B0200088D240008B6
:10004000C7010008C7010008C7010008C701000870
:10005000C7010008C7010008C7010008C701000860
:10006000C7010008C7010008C7010008C701000850
:10007000C7010008C7010008C7010008C701000840
:10008000C7010008C7010008C7010008C701000830
:10009000C7010008C7010008C7010008C701000820
:1000A000C7010008C7010008C7010008C701000810
:1000B000C7010008C7010008C7010008C701000800
:1000C000C7010008C7010008C7010008C7010008F0
:1000D000C70100087526000881260008C70100082E
:1000E000C7010008C7010008C701000800F002F8B6
:1000F00000F04CF80AA090E8000C82448344AAF176
:100100000107DA4501D100F041F8AFF2090EBAE873
:100110000F0013F0010F18BFFB1A43F0010318473B
:10012000BC6D0000DC6D0000103A24BF78C878C1B7
:10013000FAD8520724BF30C830C144BF04680C60ED
:10014000704700000023002400250026103A28BF35
:1001500078C1FBD8520728BF30C148BF0B60704739
:10016000732900F01E83002070471FB59DE803002F
:1001700000F08AFA00F0F4FB04000020002106F0F1
:1001800069FB401C60601FBD10B510BD00F0C3FBD3
:100190001146FFF7EAFF00F093FC00F0F3FB03B415
:1001A000FFF7F2FF03BC00F023FC00000948804782
:1001B00009480047FEE7FEE7FEE7FEE7FEE7FEE749
:1001C000FEE7FEE7FEE7FEE704480549054A064B61
:1001D0007047000065250008ED000008C0420020BF
:1001E000C0480020C0440020C0440020EFF310802D
:1001F00072B6704780F310887047324A1368012B3B
:1002000004D04FF0010313602F4A10602F4A116091
:100210002F484FF0805101607047EFF3108272B6A3
:100220002848016891B14FF000010160264801683B
:1002300029B1EFF3098121E9F00F0068016023493A
:1002400009680968B1E8F00F81F3098882F3108822
:100250004EF0040E70471D4908601B494FF0000026
:10026000086018494FF0010008601A481A49D0F890
:10027000002041EA0201016015484FF08051016001
:1002800016480068006880F3088861B662B6704757
:100290001EF0040F0CBFEFF30880EFF3098020E994
:1002A000F00F40F804ED1EF0040F0CBF80F3088837
:1002B00080F3098800B504F057FA5DF804EB4EF0BE
:1002C000040E7047E84100205C3F0020643F00209E
:1002D00004ED00E020ED00E00000FFFF08ED00E08D
:1002E00070B5064600F0B0F9056806F10B0020F085
:1002F0000704B4429CBF002070BD2B466A68BAB1A7
:100300001068A04210D304F1080188423CBF506835
:10031000586007D35168101941601168091B0160CA
:1003200058601460101D70BD13465268002AE7D152
:100330002146284600F094F90028DED170BD000067
:100340000FB41CB5074B06AA7B446946009005987C
:1003500000F0FDF90020694600F00CFA1CBC5DF8C5
:1003600014FB0000290400002DE9F0410E4604466C
:10037000002020622046E168884730B3252805D058
:10038000D4E901219047206A401CF2E7E168204649
:1003900000278847050018D0A5F14100192802D888
:1003A00020354FF400673246294620462760FFF784
:1003B000D7FE40B1012804D0F61D26F00706083606
:1003C000D8E7361DD6E72846DAE7206ABDE8F0818F
:1003D00070B50C460546012A05D02878800600D560
:1003E000EA69002302E0012305E05B1C934202D28C
:1003F000E05C0028F9D1A869E618C01AA861286A4B
:10040000184428622846AFF3008004E0D5E90121B2
:1004100014F8010B9047B442F8D32846AFF300809C
:1004200070BD70B5064600F013F904680546304605
:100430000A22002100F0B9F92C6070BD401ECAB23A
:1004400010F8011F8A4202D00029F9D1002070471C
:1004500030B505460B462A4613F8014B12F8010B3E
:1004600008B1A042F8D01CB1002802D06D1CF1E701
:10047000284630BD10B5431C02E010F8011B71B1D5
:100480008107FAD14FF0013202C88C1A8C4314EA6A
:10049000C211F9D0C01A0A0603D0C01E10BDC01A7E
:1004A00010BD0A0401D0801E10BD0902FCD0401E00
:1004B00010BD40EA010370B59B072ED14FF0013605
:1004C000042A2AD308C810C99D1B9D43121F15EA90
:1004D000C61517D0D8B2E1B2401A50EA056110D162
:1004E00098B2A1B2401A50EA05410AD123F07F40E8
:1004F00024F07F41401A50EA052102D1180EA0EBEA
:10050000146070BDA342DBD018BA21BA884201D969
:10051000012070BD4FF0FF3070BD0AB9002070BDE2
:1005200010F8013B11F8014B63B1A3420AD1521EEE
:1005300008D010F8013B11F8014B1BB1A34201D1C7
:10054000521EEDD1181B70BD02F0FF0343EA0322D7
:1005500042EA024200F002B84FF000020429C0F063
:10056000128010F0030C00F01B80CCF1040CBCF1E5
:10057000020F18BF00F8012BA8BF20F8022BA1EB37
:100580000C0100F00DB85FEAC17C24BF00F8012B1C
:1005900000F8012B48BF00F8012B70474FF0000214
:1005A00000B5134694469646203922BFA0E80C5069
:1005B000A0E80C50B1F12001BFF4F7AF090728BF44
:1005C000A0E80C5048BF0CC05DF804EB890028BFC0
:1005D00040F8042B08BF704748BF20F8022B11F0E9
:1005E000804F18BF00F8012B704710B5044610F07B
:1005F000030F08BF11F0030F40F015804FF0013ECC
:10060000121FC0F20E8051F8043BA3EB0E0C2CEA33
:10061000030C1CEACE1C08BF40F8043BF0D0A1F14B
:10062000040102F10402521E08DB11F8013B00F83C
:10063000013B002BF7D11146FFF78EFF204610BD7E
:10064000704770477047000000487047480000201E
:10065000004870474000002070477047704770475F
:1006600038B504460A4600206946AFF300800028EA
:1006700008BF38BD02460099204600F0DBF8012093
:1006800038BD012000F03FB9F8B5AFF30080054652
:1006900000200C46102000BF0646A819A0420DD924
:1006A000324669460020AFF30080070008BF00F023
:1006B0002AF90098A04218BF0546C419FFF7C4FFE5
:1006C00005600746F01D20F007004619284600F097
:1006D0000AF8B44208BFF8BDA21B31463868BDE82D
:1006E000F84000F0A7B800210160C0E90110704790
:1006F0001020704770B50446051FFFF7A5FF00687E
:10070000002C14BF446870BD002C18BFAC423CBF25
:1007100020466468F8D301680A18AA4218BF4560E9
:1007200003D12A6805461144016028684119A14295
:100730001CBF6C6070BD61686960216808442860F6
:1007400070BD000001694A1C02610878704700B55D
:100750008FB0CDE901310021059105497944CDE9FA
:10076000031011466846FFF7FFFD0FB000BD000003
:10077000E5FFFFFF0A6802F8010B0A60704710B539
:10078000436913B1AFF3008001E0FFF721FE0120C0
:1007900010BD127800F124010A7000224A70012273
:1007A000EDE711684FF0FF32E9E72DE9F047914698
:1007B0000F4680460446002614F8015B2DB100F078
:1007C00031F80068405DC007F6D12B2D02D02D2DE9
:1007D00018D0641E4A463946204600F045F827B135
:1007E0003968A14201D1C7F800804FF002047105B9
:1007F0000BD54042002803DDFFF72AFF0460A00765
:10080000BDE8F08746F48066E4E70028F8DAFFF7F1
:100810001FFF04606FF00040F2E7000000487047DF
:100820004000002010B500F09BF8001D10BD00BF77
:1008300025600000034640688C46002818BF8842A7
:100840003CBF03464068F8D318681844884207D074
:100850000CF1030020F00700001D411A521A014656
:10086000081D0A60FFF746BF2DE9F05F8246154676
:100870008B4600270AF10104B9460078302801D0E0
:100880009DB113E014F8010B0127782803D05828F4
:1008900001D045B10AE00DB1102D07D1002714F8A1
:1008A000010B102502E0082500E00A250026B046CD
:1008B0000EE005FB080005FB06F101271FFA80F892
:1008C00001EB1046B6F5803F00D3B94614F8010B92
:1008D000294600F049F80028EBDABBF1000F05D0FB
:1008E0000FB1641E00E05446CBF80040B9F1000F90
:1008F00006D0FFF7ADFE02210160C81EBDE8F09FE3
:1009000048EA0640FAE710B500F04AF8BDE81040A2
:1009100000F041B870477546FFF780FFAE4605000E
:100920006946534620F00700854618B020B5FFF70A
:100930004BFCBDE820404FF000064FF000074FF0A1
:1009400000084FF0000BAC46ACE8C009ACE8C009A9
:10095000ACE8C009ACE8C00921F007018D4670473A
:1009600000487047600000203A2800D2303820F05C
:100970002002412A01D3A2F13700884201D34FF06F
:10098000FF30704710B50446AFF300802046BDE845
:100990001040FFF704BC002801D000F029B87047D0
:1009A00010B5012805D0002103A000F027F8012090
:1009B00010BD09A1F8E7000053494752544D454D79
:1009C0003A204F7574206F662068656170206D65F0
:1009D0006D6F7279000000003A2048656170206DEB
:1009E000656D6F727920636F7272757074656400E3
:1009F00001491820ABBEFEE72600020070B505468F
:100A00000C460A2000E06D1C00F052F835B1287841
:100A10000028F8D102E0641C00F04AF814B12078F4
:100A20000028F8D1BDE870400A2000F041B800006D
:100A30004FF0013C50F8042B51F8043B9A4221D16D
:100A4000A2EB0C03934313EACC1317D150F8042BF9
:100A500051F8043B9A4215D1A2EB0C03934313EADD
:100A6000CC130BD150F8042B51F8043B9A4209D116
:100A7000A2EB0C03934313EACC13DBD04FF000003E
:100A8000704700BFD01A01BAB1FA81F101F0180124
:100A900022FA01F0CB40DBB2C0B2C01AC1F1200192
:100AA0002CFA01F3D11A914311EAC311E6D1704730
:100AB00008B569468DF800000320ABBE08BD0000F4
:100AC00080B582B0FFF792FB03F0EAFD04F06AFC08
:100AD00004F02CFE04F07CFD0A20009046F69E30C7
:100AE00043F609114FF0140CC0F60000C0F60001E7
:100AF00000224FF48063CDF804C004F021FE04F01E
:100B0000B3FF04F01BFE04F0D1FE04F0F7FD00205B
:100B100002B080BDFEE7000070470000EFF31080D8
:100B200072B600BFFEE7000070B58EB040F25024F0
:100B3000C2F2000425680B46E9681646024621F019
:100B40002000E86001AD2FA12846FFF7F9FB2846F9
:100B5000FFF790FC82B2204629464FF0FF3301F0A8
:100B6000A7FA4FF47A7004F011FF45F24140C4F245
:100B70002B30019045F24900C5F24D50029043F6EA
:100B80005850C0F6315003900A20ADF810002846A6
:100B9000FFF770FC82B2204629464FF0FF3301F088
:100BA00087FA4FF47A7004F0F1FE1CA12846324611
:100BB000FFF7C6FB2846FFF75DFC82B220462946B8
:100BC0004FF0FF3301F074FA4FF4FA6004F0DEFEE8
:100BD00040F60000C4F201008021012200F0BCF9BF
:100BE000206801224168C16841F02001C16040F2E3
:100BF000A000C2F20000411C204601F0E1F90EB055
:100C000070BD00BF41542B43574A41503D222573CC
:100C1000222C222573220D0A0000000041542B4390
:100C200049505345525645523D312C25730D0A000B
:100C3000014690F82100022816D10868D1E90FC3B7
:100C4000026822F00E020260026822F001020260D5
:100C5000012000FA03F2CCF8042081F821000020E2
:100C6000002281F8202070470420886301200022A0
:100C700081F820207047000080B590F821100229EB
:100C800024D10268116821F00E0111602F21136830
:100C9000C4F202018A4240F20401C4F2020123F0CC
:100CA0000103136016DD3023C4F202039A421DD003
:100CB0004423C4F202039A421CD05823C4F2020314
:100CC0009A421DD14FF4803322E000BF042181639A
:100CD000012080BD0823C4F202039A420ED01C23D7
:100CE000C4F202039A420BD1102311E04FF4807337
:100CF0000EE000BF4FF480530AE000BF012307E07D
:100D000001F1680C4FF08073624508BF4FF4801307
:100D10000B60012180F82110426B002180F8201027
:100D20000AB190470021084680BD00002DE9F04F30
:100D300082B00E68002E00F0038141F20042C4F23E
:100D40000102042340F2004E904208BF03234FF6F5
:100D5000FF7CC4F2010E009300240123C1F2100CA9
:100D60004FF0000A4FF0000949E000BF012704F0EE
:100D70000C030F229A402BEA020207FA03F34FEA10
:100D80009A051A4346F82520D1F804B040F20C45E4
:100D90005FEACB22DEF8082054BF22EA080242EACA
:100DA0000802C4F20105CEF808202A685FEA8B2306
:100DB00054BF22EA080242EA08022A605FEA8B3343
:100DC000DEF8042054BF22EA080242EA08025FEA81
:100DD000CB33CEF80420DEF800204FF0010354BFDF
:100DE00022EA080242EA0802CEF800200E680AF160
:100DF000010A36FA0AF204F1040400F0A18003FAB1
:100E00000AF816EA080FF1D04E68664512DC122E79
:100E100056D8DFE806F0350B45495555555555551B
:100E2000555555555555554D510000BFD1F80C90AD
:100E300046E000BF4FF6FF72C1F2210296420FDC7E
:100E40000022C1F2110296421AD00022C1F212020F
:100E5000964215D00022C1F22102964210D02FE016
:100E60000022C1F2220296420AD00022C1F23102CF
:100E7000964205D00022C1F23202964220D100BF34
:100E80008A684AB1012A14BFC0F81480C0F81080E3
:100E90004FF0080914E000BF4FF0040910E000BF54
:100EA000CA6802F108090BE04FF0000908E000BF32
:100EB000CA6802F1040903E0CA6802F10C0900BF24
:100EC00022460646BAF1080F24BF203A0436376896
:100ED0000F25954027EA050509FA02F22A433260F8
:100EE000CA79D2067FF582AF41F21803C4F2020339
:100EF0001A68AEF57E7642F001021A601A6802F0B6
:100F000001020192019A2AF0030256F802B040F65B
:100F10000002C4F20102904210D040F60042C4F236
:100F2000010290423FF422AF41F20002C4F20102FA
:100F3000009F904208BF022719E700BF002716E76D
:100F400002B0BDE8F08F0000C26802EA01039143DD
:100F500041EA034101617047002A08BF09040161A9
:100F60007047000044F2B820C2F2000000687047E9
:100F700070B5B8B3044690F83D0028B9002084F855
:100F80003C00204600F0B0F8242084F83D002068A2
:100F9000016821F001010160016841F40041016034
:100FA000016821F40041016000F060FA48F28041DC
:100FB000C0F21E0140F60013D4F804E088424FF05E
:100FC0000001C0F23D0348F2A16C4FF0000238BFAF
:100FD00001219842C0F2010C38BF0122E64538BF1A
:100FE0000A460AB1012070BD4DF68361C4F21B317F
:100FF000A0FB01122168950C4B684FF4967623F004
:101000003F0343EA9243754344F6D3564B60C1F223
:1010100062060B6AA5FB0656B50923F03F03E645B9
:1010200038BF950C6A1C1A430A62CA6948F2A06666
:101030004CF6FF73C0F20106B64522EA03020BD854
:1010400001384FEA4E03B0FBF3F001306FF31F306D
:10105000042898BF04201EE0A368013863B1192357
:101060000EFB03F3B0FBF3F001306FF31F3078B1E8
:1010700000F5804008E000BF0EEB4E03B0FBF3F03C
:1010800001306FF31F3028B100F5004003E000BFCE
:10109000012000E001201043C8610868D4E907235B
:1010A00020F0C000104318430860886848F2FF32FF
:1010B00004F10C0690434CCE18431043A569886098
:1010C000C86820F0FF0030432843C860086840F03B
:1010D0000100086000202021206484F83D10206376
:1010E00084F83E0070BD000010B586B045F20041A6
:1010F0000068C4F2000100228842049202D006B0C7
:1011000010BD00BF41F21804C4F20204206840F090
:1011100008002060206800F0080001900198C020BD
:101120000290122003900320059001F5384002A997
:10113000FFF7FCFD606840F400106060606800F438
:1011400000100190019806B010BD000080B542F279
:101150000000C4F20200016841F0100101600320A8
:1011600000F08EF8002000F005F800F027F80020CD
:1011700080BD000070B540F20006C2F2000640F2E9
:1011800008013278C2F200014FF47A730968B3FBA8
:10119000F2F20446B1FBF2F1084600F069FB0F2CB5
:1011A0004FF0010508D838B94FF0FF302146002232
:1011B000002500F039F87460284670BD82B041F215
:1011C0001800C4F202000168022241F0010101602E
:1011D000016801F0010101910199416841F08051DC
:1011E0004160406800F08050009000980420C4F2F4
:1011F0000100016862F31A61016002B070470000EB
:10120000002848BF7047C1B200F01F00012202FA57
:1012100000F04EF20012CEF2000242EAD10121F0BB
:10122000030108607047000010B54EF60C5CCEF26A
:10123000000CDCF80030C3F3022E8EF00704042CFF
:1012400028BF0424BEF103034FF0FF3E0EFA04F45E
:1012500038BF0023A14399400EFA03F39A43114388
:1012600000F00F0200F160430901043A03F5644302
:101270006244002848BF02F10C03197010BD000041
:101280004EF60C51CEF200010A684FF6FF031A40E9
:1012900060F30A2242F0806040F0FD700860704701
:1012A0002DE9F04381B0002800F0858042F200086B
:1012B000C4F202080446D8F800000D4600F007000A
:1012C00088420CD2D8F8000020F007002843C8F864
:1012D0000000D8F8000000F00700A8426BD1206899
:1012E00041F204098107C4F2020917D5410705D567
:1012F000D9F8001041F4E061C9F80010010705D5E4
:10130000D9F8001041F46051C9F80010D9F8001064
:10131000A26821F0F0011143C9F80010C00741D1C3
:10132000D8F8000000F00700A8420CD9D8F8000057
:1013300020F007002843C8F80000D8F8000000F0AB
:101340000700A84237D12068410707D5D9F8001017
:10135000E26821F4E0611143C9F80010000708D5E4
:10136000D9F80000216920F4605040EAC100C9F8B2
:101370000000D9F8002002F00C00082841F20020FB
:10138000C0F27A0050D146F69A13C2F38341C0F6F8
:101390000003595CD2033BD440F60010C0F23D007C
:1013A000484341E0606802280AD001282AD159F850
:1013B000041C890308D4012001B0BDE8F08300BFFC
:1013C00059F8041C8901F6D5D9F8001021F0030161
:1013D0000843C9F80000FFF7C5FD064641F288370B
:1013E000D9F80000616800F00C00B0EB810F97D0D5
:1013F000FFF7B8FD801BB842F2D9032001B0BDE869
:10140000F08300BF59F8041C8907D4D5DCE700BF7E
:10141000D9F8002046F69803C2F34042C0F6000314
:101420009A5C4843B0FBF2F0D9F8001046F680020F
:10143000C1F30311C0F60002515C40F2080220FA29
:1014400001F140F20400C2F200000068C2F20002A2
:101450001160FFF78FFE002001B0BDE8F0830000AF
:1014600040F20800C2F200000068704740F2080035
:1014700041F20401C2F20000C4F2020100680968EE
:1014800046F69002C1F30221C0F60002515CC8404A
:101490007047000040F2080041F20401C2F200006F
:1014A000C4F202010068096846F69002C1F3C22145
:1014B000C0F60002515CC840704700002DE9F041C1
:1014C00082B0002868D00446007841F20006C007C8
:1014D000C4F2020625D0706800F00C0004281BD06E
:1014E000706800F00C00082802D17068C00313D4A3
:1014F0006068002800F06881B0F5A02F00F07C81C2
:10150000B0F5803F00F07C81306820F4803030609E
:10151000306820F4802076E13068800301D560686F
:10152000D0B32078800718D5706810F00C0F07D062
:10153000706800F00C0008286ED17068C0036BD48E
:101540003068800702D52069012825D1306861699B
:1015500020F0F80040EAC1003060207800071FD476
:101560002078400732D4E56995B1706800F00C002E
:10157000082840F08F80012D0ED07068216A00F499
:1015800080328A4208D1616A00F47010884203D127
:10159000002002B0BDE8F081012002B0BDE8F0817A
:1015A000A069002862D00020C4F242200121C0F8C6
:1015B0008014FFF7D7FC0546706A800700F18C8025
:1015C000FFF7D0FC401B0228F6D92AE1F06910F0A1
:1015D000805808D1F06940F08050F061F06900F067
:1015E00080500090009847F20007C4F20007386866
:1015F000C00529D4386840F480703860FFF7B2FC29
:10160000054600BF3868C0051ED4FFF7ABFC401B81
:101610006428F7D905E100BF2069002840F20000E6
:10162000C4F2422000F0828001210160FFF79AFCA1
:10163000054600BF306880073FF588AFFFF792FC92
:10164000401B0228F6D9ECE0E068002800F080801A
:10165000052800F09780012800F09880306A20F07B
:1016600001003062306A20F0040092E00020C4F2F1
:1016700042200021C0F88014FFF774FC054600BF2B
:10168000706A80077FF56CAFFFF76CFC401B022887
:10169000F6D9C6E00027C4F2422700203866FFF7DB
:1016A00061FC022D05460BD13068800140F1BE80FF
:1016B000FFF758FC401B02284FF00300F4D968E7FD
:1016C000306880017FF564AFFFF74CFC401B0228B7
:1016D0004FF00300F4D95CE740F20800C2F20000CA
:1016E000006844F6D351C1F26201A0FB0101480A2F
:1016F000019000BF00BF0198411E002801913FF4F6
:101700002FAF00BF0198411E002801913FF428AF80
:1017100000BF0198411E002801913FF421AF00BF96
:101720000198411E00280191E4D119E700210160D0
:10173000FFF718FC054600BF306880077FF50DAF46
:10174000FFF710FC401B02284FF00300F4D920E7FC
:10175000306A20F001003062306A20F0040030620C
:10176000FFF700FC054641F2883700BF306A80076A
:1017700020D5FFF7F7FB401BB8424FF00300F5D927
:1017800007E700BF306A40F004003062306A40F082
:1017900001003062FFF7E6FB054641F2883700BFE3
:1017A000306A800706D4FFF7DDFB401BB842F7D94B
:1017B00037E000BFB8F1000F7FF4D5AEF06920F03C
:1017C0008050F061CFE600BF306820F48030306098
:1017D000306820F480203060FFF7C4FB054600BF6E
:1017E000306880037FF59DAEFFF7BCFB401B64288B
:1017F0004FF00300F4D9CCE6306840F4802030602C
:10180000306840F480303060FFF7ACFB054600BF25
:10181000306880033FF585AEFFF7A4FB401B6428CA
:10182000F6D9032002B0BDE8F08100BF206AB0F510
:10183000803F05D17168A26821F4003111437160C5
:101840007168626A21F474111143084370600120C9
:101850003866FFF787FB0446306880013FF598AE95
:10186000FFF780FB001B02284FF00300F4D990E63D
:10187000411E0020B0EB116F1CBF012070474EF2DB
:101880001002CEF2000251604EF62351CEF200015A
:10189000F0230B70072190601160704770470000C3
:1018A00070470000B0B582B0044600680168C368A4
:1018B000426901F02F05202D03F0200506D12DB13E
:1018C000204602B0BDE8B04000F054BE5FEA017CA3
:1018D0001EBF02F0010E03F4907212EB0E0253D100
:1018E000226B012A05D111F0100218BF13F010026B
:1018F00036D10A0622D513F080021FD094F8411089
:1019000021293FD1A168B1F5805F03D12169002968
:1019100000F07082216A4A1C226209784160E18CE1
:1019200001390A04E1842DD1C16821F08001C16030
:10193000C16841F04001C16002B0B0BD490621D587
:1019400013F040011ED0C16821F04001C160202188
:10195000204684F8411002B0BDE8B04000F0E4BC7D
:10196000002101910168019141680191019940694B
:10197000400613D4A08DE18DE28D002A18BF884265
:1019800040F0BA8102B0B0BDCA0718BF13F480722C
:1019900040F0B6804A0700F1B980BEE0E06B016814
:1019A00049688AB2002AEDD0A38D9A42EAD2E18535
:1019B0008069202800F09C80206850E8030F21688F
:1019C00020F4807041E80302DAB1206850E8030F88
:1019D000216820F4807041E8030292B1206850E849
:1019E000030F216820F4807041E803024AB12068A7
:1019F00050E8030F216820F4807041E80302002AB8
:101A0000DAD1206850E8050F216820F0010041E894
:101A10000502DAB1206850E8050F216820F00100C6
:101A200041E8050292B1206850E8050F216820F0D6
:101A3000010041E805024AB1206850E8050F21681D
:101A400020F0010041E80502002ADAD1206850E8C0
:101A5000050F216820F0400041E80502DAB1206856
:101A600050E8050F216820F0400041E8050292B1DE
:101A7000206850E8050F216820F0400041E8050289
:101A80004AB1206850E8050F216820F0400041E885
:101A90000502002ADAD1202084F8420000202063C9
:101AA000206850E8030F216820F0100041E803028D
:101AB000DAB1206850E8030F216820F0100041E8F7
:101AC000030292B1206850E8030F216820F0100053
:101AD00041E803024AB1206850E8030F216820F072
:101AE000100041E80302002ADAD1E06BFFF7A0F80A
:101AF00002206063A08DE18D401A81B2204674E11E
:101B0000626C42F0010262644A0706D5BEF1000F22
:101B100003D0626C42F0020262648A0706D5BEF10D
:101B2000000F03D0626C42F004026264BCF1000F4B
:101B300009D545EA0E02B2FA82F2520903D1626C6B
:101B400042F008026264626C002A3FF41BAF11F09D
:101B5000200118BF002D03D0204600F00BFD2068A7
:101B60004069616C00F0400001F00801401800F08D
:101B7000B58000BF206850E8030F216820F4907002
:101B800041E80302BAB3206850E8030F216820F44B
:101B9000907041E8030272B3206850E8030F216897
:101BA00020F4907041E803022AB3206850E8030F44
:101BB000216820F4907041E80302002ADAD11AE08B
:101BC000206850E8050F216820F0010041E8050277
:101BD000DAB1206850E8050F216820F0010041E8E3
:101BE000050292B1206850E8050F216820F001003D
:101BF00041E805024AB1206850E8050F216820F04D
:101C0000010041E80502002ADAD1206B012824D125
:101C1000206850E8030F216820F0100041E803021B
:101C2000DAB1206850E8030F216820F0100041E885
:101C3000030292B1206850E8030F216820F01000E1
:101C400041E803024AB1206850E8030F216820F000
:101C5000100041E80302002ADAD1202084F8420073
:101C6000002020632068406940063FD5206850E886
:101C7000050F216820F0400041E80502DAB1206834
:101C800050E8050F216820F0400041E8050292B1BC
:101C9000206850E8050F216820F0400041E8050267
:101CA0004AB1206850E8050F216820F0400041E863
:101CB0000502002ADAD1E06BC0B142F26951C0F6E8
:101CC00000014163FEF7D8FF00283FF45BAEE06BF4
:101CD000416B02B0BDE8B040084700BF2046FFF7A7
:101CE000DFFD0020606402B0B0BD00BF204602B03E
:101CF000BDE8B040FFF7D4BD401A216851E8031F8A
:101D0000226821F4907142E80313DBB1216851E8A5
:101D1000031F226821F4907142E8031393B12168F4
:101D200051E8031F226821F4907142E803134BB17C
:101D3000216851E8031F226821F4907142E80313DF
:101D4000002BDAD1216851E8051F226821F001013A
:101D500042E80513DBB1216851E8051F226821F034
:101D6000010142E8051393B1216851E8051F22687B
:101D700021F0010142E805134BB1216851E8051F2C
:101D8000226821F0010142E80513002BDAD120215D
:101D900084F8421000212163216851E8031F226862
:101DA00021F0100142E80313DBB1216851E8031F61
:101DB000226821F0100142E8031393B1216851E831
:101DC000031F226821F0100142E803134BB1216880
:101DD00051E8031F226821F0100142E80313002B91
:101DE000DAD1022281B22046626302B0BDE8B0407F
:101DF000FFF754BD216A31F8022B6FF35F22426076
:101E000021628CE5002804BF0120704710B504460C
:101E100090F8410028B9002084F84000204600F0E6
:101E200063F8242084F841002068D4E90212C368D2
:101E300023F40053C360036923F440531A4302613F
:101E4000D4E904231143C268194341F20C639A4355
:101E50001143C1604169A26921F44071114343F605
:101E60000002C4F201029042416103D0FFF7FEFA82
:101E700002E000BFFFF70EFB6268192148439100A2
:101E8000B0FBF1F048F21F51C5F2EB11A0FB0123AA
:101E90005A094FF69C73C0F6FF7302FB030032230E
:101EA00003EB0010A0FB0101F02303EA51132068AB
:101EB00003EB0212C1F3431111448160016921F463
:101EC00090410161416921F02A014161C16841F4F9
:101ED0000051C16000202021606484F8411084F822
:101EE0004210606310BD0000F0B585B0006844F298
:101EF0000041C4F2000188424FF00001CDE9031116
:101F0000CDE9011122D043F60001C4F2010188425B
:101F100053D141F21800C4F202000168252441F4B3
:101F20008041016001684FF4806701F480410091B5
:101F30000099016841F004010160006800F00400AC
:101F4000009000984FF4007019E000BF41F21800B3
:101F5000C4F202004168262441F400314160416826
:101F6000082701F4003100910099016841F0040153
:101F70000160006800F004000090009804200190C7
:101F8000022040F6000502900320C4F2010501AED4
:101F9000049028463146FEF7C9FE0020CDE9020034
:101FA000284631460197FEF7C1FE20460021002257
:101FB000FFF73AF92046FFF723F905B0F0BD00001E
:101FC00090F84230202B1CBF0220704700294FF0B0
:101FD000010318BF002A01D118467047002303638C
:101FE000816222218285C285436480F842100169A2
:101FF000006819B1C16841F48071C1604169002372
:1020000041F001014161C16841F02001C160184601
:102010007047000040F25021C2F20001884218BF10
:10202000704770B540F2A005C2F2000568782978C3
:10203000B0F12B0244F2F01418BF0A46D1B2C2F23A
:102040000004561C605418A120462E70FEF700FABA
:1020500000B3F0B20026265442F2E160C0F6000060
:1020600000210428B8BF012100220028C8BF012296
:1020700011400129686005D142F2E160C0F600001C
:1020800004F074FB44F2F010C2F20000C8212E707C
:10209000FEF784FA40F25020691CC2F200000122CF
:1020A000BDE87040FFF78CBF434C4F5345440000E0
:1020B0002DE9F04381B0044690F84100202840F01B
:1020C000B180884600294FF0010000F0D680164606
:1020D000002A00F0D2800020606421201D4684F890
:1020E0004100FEF73FFFA684E684A1680646B1F5ED
:1020F000805F03D12069002800F0988047464FF0A8
:102100000008E18C2068002900F0968005F10109A3
:102110000BE000BF47B317F8011B4160E18C0139A8
:10212000E184E18C002900F0878001680906F1D480
:10213000B9F1000F0AD0EDB1FEF714FF801BA842E1
:1021400018D8206801680906F6D5E3E70168090692
:10215000E0D4016809065CBF01685FEA0161D9D477
:1021600001680906F2D5D5E738F8021B00276FF39E
:102170005F21D2E7206850E8030F216820F4D07077
:1021800041E80302BAB3206850E8030F216820F445
:10219000D07041E8030272B3206850E8030F216851
:1021A00020F4D07041E803022AB3206850E8030FFE
:1021B000216820F4D07041E80302002ADAD11AE045
:1021C000206850E8050F216820F0010041E8050271
:1021D000DAB1206850E8050F216820F0010041E8DD
:1021E000050292B1206850E8050F216820F0010037
:1021F00041E805024AB1206850E8050F216820F047
:10220000010041E80502002ADAD1202084F84100CB
:1022100084F84200002084F84000032001B0BDE8AB
:10222000F08300BF022001B0BDE8F0830027E18CFD
:10223000206800297FF46AAF0168490619D4FDB10E
:10224000691C0DD10168490613D4016849065CBFB9
:1022500001685FEA41610CD401684906F2D508E0E3
:10226000FEF780FE801BA8420AD82068006840065E
:10227000F6D5202084F84100002001B0BDE8F083AD
:10228000206850E8030F216820F4D07041E8030271
:10229000002A3ED0206850E8030F216820F4D07057
:1022A00041E80302AAB3206850E8030F216820F434
:1022B000D07041E8030262B3206850E8030F216840
:1022C00020F4D07041E80302002AD9D121E000BFF8
:1022D000206850E8050F216820F0010041E8050260
:1022E000002A3FF492AF206850E8050F216820F0E3
:1022F000010041E80502002A3FF487AF206850E85A
:10230000050F216820F0010041E80502002A3FF492
:102310007CAF206850E8050F216820F0010041E8FB
:102320000502002AD4D170E7704700002DE9F0477C
:1023300084B041F21800C4F20200016840F60009BE
:1023400041F0040101600168C4F2010901F00401D7
:10235000009100990168002241F0080101600068C5
:10236000F02100F00800009000984846F026002771
:10237000FEF7F2FD09F5806528464FF40041002282
:102380004FF40048FEF7E8FD00966E464FF0010A54
:10239000022448463146CDE901A70394FEF7C6FC66
:1023A00028463146CDE9008ACDE90274FEF7BEFC2D
:1023B0004FF48070CDE90007484631460297FEF79A
:1023C000B5FC04B0BDE8F08780B540F2FC1045F2E2
:1023D0000041C2F20000C4F2000148F2A0620023F2
:1023E0004FF4804CC0F2010280E80E00C0E9033CCB
:1023F000C0E90533C0E90733FEF7BAFD002808BF7E
:1024000080BDBDE88040FEF789BB000080B540F28A
:10241000502043F60001C2F20000C4F20101002383
:102420004FF00C0C4FF4E13280E80E00C0E90333AA
:10243000C0E905C3C361FFF7E5FC002808BF80BD04
:10244000BDE88040FEF76ABB80B540F2982044F2B8
:102450000041C2F20000C4F2000100234FF00C0C56
:102460004FF4E13280E80E00C0E90333C0E905C350
:10247000C361FFF7C7FC002808BF80BDBDE88040EE
:10248000FEF74CBBFEE70000FEE7000080B502F05F
:102490009FFB03F09FFBBDE8804002F0A7BB00005C
:1024A000B0B590B006AC201D2421FEF777F80220CD
:1024B000069001200A9010200B90002520460D95D3
:1024C000FEF7FCFF20B1EFF3108072B6FEE700BF0D
:1024D0000F20CDE9010501A80021CDE9035505959F
:1024E000FEF7DEFE20B1EFF3108072B6FEE700BF0C
:1024F00010B0B0BD41F20400C4F20200016801F066
:102500000C01082941F20021C0F27A0119D10268B8
:102510000368C2F38342DB0302F1020206D440F6F1
:102520000011C0F23D0151430BE000BF03689B0363
:1025300002D4514305E000BF40F60011C0F23D0156
:10254000514340F20802C2F200021160006846F6F0
:102550008003C0F30310C0F60003185C21FA00F0FA
:102560001060704770470000406A0021C185C18437
:10257000FFF796B981B090F84210222921D18368E3
:102580000246B3F5805F09D152F8281F52F8183C73
:10259000002B63D003685B680AE000BF52F8281F75
:1025A00013B90369002BF5D003685B6803F07F0360
:1025B0000B70116801311160C18D01390A04C185A8
:1025C00002D001B0704700BF0168CA6822F0200243
:1025D000CA60CA6822F48072CA604A6922F00102A5
:1025E0004A61202180F8421000214163026B012AD8
:1025F0003CD10163016851E8031F026821F010011A
:1026000042E80313DBB1016851E8031F026821F0BF
:10261000100142E8031393B1016851E8031F0268F7
:1026200021F0100142E803134BB1016851E8031F88
:10263000026821F0100142E80313002BDAD101688F
:102640000A68D20606D5002200920A6800924968FC
:1026500000910099818D01B0FFF720B9026852689E
:102660006FF35F2221F8022B8162A5E701B0FFF72B
:10267000D1BC000040F25020C2F20000FFF712B9B6
:1026800040F29820C2F20000FFF70CB9FEE700000C
:10269000002804BF00207047C1B209B101200CE03E
:1026A00010F47F4102D0090A092006E010F47F01EE
:1026B00007BF010E1920090C112046F69A02C0F638
:1026C0000002515C0844704780B500F097FB002081
:1026D00080BD000080B500F0FFFC002080BD000040
:1026E00070B53A210646FDF7A9FE4FF0000468B127
:1026F0000546F01DFDF795FE06460130FDF7F0FD9D
:10270000691C3246FDF771FF84550446204670BDB2
:1027100040F60004102540F26C17C4F201040228B0
:1027200008BF2025461EC2F20007032808BF402527
:1027300057F8260001280BD120462946FEF704FC55
:102740004FF47A7003F022F957F826000128F3D0ED
:10275000204629460022FEF7FFFB322003F016F93F
:1027600057F826000128F3D1E6E70000F0B583B062
:1027700042F21174C0F600040A25052717A021466D
:1027800001224FF480630097019502F0D9FF40F2D7
:10279000A806C2F20006306013A0214602224FF4C0
:1027A00080630097019502F0CBFF706011A0214675
:1027B00003224FF480630097019502F0C1FF316856
:1027C000B060084603F050F9706803F04DF9B06846
:1027D00003B0BDE8F04003F047B900BF666565642B
:1027E000696E67310000000066656564696E673276
:1027F0000000000066656564696E673300000000D4
:1028000070B582B040F20C1646F6346046F6DC61D4
:10281000C2F20006C0F60000C0F60001C6E90001E1
:102820000120782101F01CFE706128B30A201521D7
:10283000CDE9001042F6B10113A0C0F6000100225C
:102840004FF48063002402F07BFF7269054610A1FB
:1028500010460022002302F0F3FC706990F821106A
:1028600041F0020180F821101DB1284603F0FCF868
:102870000024204602B070BD07A002F0C5F94FF059
:10288000FF34204602B070BD747368656C6C000044
:1028900073687278000000006E6F206D656D6F7256
:1028A0007920666F72207368656C6C0A0000000006
:1028B00040F20C1AC2F2000ADAF8140040F278145E
:1028C00090F82110C2F2000441F0010280F82120AA
:1028D000880703D40020207026E000BFDAF810102B
:1028E00041B140F27810C2F200008022FDF77DFE77
:1028F0001AE000BF01F02EFB30B10020207147F23A
:102900006D30C2F2680009E046F67300C0F22000A4
:10291000C4F8030046F66610C7F26E302060204609
:10292000FDF7A8FD3E212152204602F06DF946F642
:1029300014664FF0010B4FF00008C0F600060227A6
:1029400002E000BF80F820B001F0CAFE8146DAF84C
:102950001400B9F11B0FF5D090F82010022909D00E
:10296000012940F07580B9F15B0F40F06F8080F86D
:102970002070E9E7A9F14101022980F82080E3D322
:10298000B9F1440F00F29280DFE819F04600970099
:10299000970097009700970097009700A000E0002D
:1029A00070009700970070009700970097009700BD
:1029B000970097009700970097009700970097005F
:1029C000970097009700970097009700970097004F
:1029D000970097009700970097009700970097003F
:1029E000970097009700970097009700970097002F
:1029F000970097009700970097009700970097001F
:102A0000970097009700970097009700970097000E
:102A100097004800840100BF96E700BFB0F874102B
:102A2000B0F872209142BFF48FAF084490F82210A2
:102A300046F61660C0F6000002F0E6F8DAF8140078
:102A4000B0F874100131A0F874107DE780F8208090
:102A5000B9F10D0F2AD8DFE809F0073030303030F7
:102A600030303979093030096EE700BF01F072FA71
:102A7000012812D1DAF8140090F82110C90707D004
:102A800046F69540C0F6000002F0BEF8DAF81400F1
:102A9000B0F87210223001F013F8DAF8140090F850
:102AA0002100800778D484F800801DE1B9F17F0F00
:102AB0000CD0B9F1FF0F3FF447AFB0F87220502AA5
:102AC00074D30022A0F87220A4E000BFB0F8741004
:102AD00000293FF439AFB0F872200139531E9AB281
:102AE000A0F872308BB29A42A0F8741040F2B48011
:102AF000C11801F122002331D21A02F065F9DAF887
:102B00001400B0F87210084480F82280DAF814003B
:102B1000B0F87410084400F1220189A002F074F8A2
:102B2000DAF81410B1F87400B1F8721088423FF668
:102B30000BAF451E304602F067F8DAF81400013595
:102B4000B0F872008542F5D3FEE600BFB0F874100D
:102B500051B10025304602F057F8DAF8140001357B
:102B6000B0F874108D42F5D300F1220546F6954079
:102B7000C0F6000002F048F801F0ECF9012802D19B
:102B8000284600F0DBFEDAF8140090F821008007F8
:102B90006ED484F80080C1E0DAF8101000296FD0FC
:102BA00020468022FDF721FD9EE000BFB0F8743082
:102BB0009A422FD9C11801F123002231D21A02F012
:102BC00003F9DAF81400B0F87410084480F8229081
:102BD000DAF8140090F82110C90709D0B0F8741081
:102BE000084400F122015AA002F00EF8DAF81400AD
:102BF000B0F87450B0F872108D421DD2304602F019
:102C000003F8DAF814000135B0F872108D42F5D3EC
:102C100012E000BF104480F82290DAF8140090F817
:102C20002110C90708D046F61660C0F600004946D4
:102C300001F0EAFFDAF81400B0F87210B0F874206E
:102C40000131A0F8721089B201325029A0F8742025
:102C500028BFC0F8728077E638A001F0D5FFDAF817
:102C60001400B0F87210084480F822806CE600BFAF
:102C7000DAF81010F1B120468022FDF7B6FC4DE0E5
:102C800001F068F900B347F26D3084F80480C2F2B5
:102C9000680023E0B0F8740000283FF455AE3046D9
:102CA00001F0B2FFDAF81400B0F874100139A0F89E
:102CB000741049E601F04EF900B347F26D3084F824
:102CC0000480C2F2680023E046F67300C0F22000E0
:102CD000C4F8030046F66610C7F26E302060204646
:102CE000FDF7C8FB3E212152204601F08DFFDAF8A6
:102CF000140054212230FDF72FFC25E646F6730020
:102D0000C0F22000C4F8030046F66610C7F26E3029
:102D100020602046FDF7AEFB3E2121520AA021464D
:102D20002A4601F071FFDAF8145005F12200FDF790
:102D3000A1FBA5F87200A5F8740005E608200800BC
:102D4000082573202008000025732573000000006B
:102D50002573000080B502A001F056FF002080BD61
:102D600048656C6C6F2052542D5468726561642103
:102D70000A0000002DE9F04381B016A001F044FFE5
:102D800040F20C1040F21019C2F20000C2F2000929
:102D90000768D9F80050AF4218D213A40FF24C08BC
:102DA00003E000BF0C37AF4210D23E6821463046E8
:102DB0000222FDF77EFB0028F4D07A6840463146B7
:102DC00001F022FFD9F80050ECE700BF002001B06D
:102DD000BDE8F0832D2D46756E6374696F6E204CCF
:102DE0006973743A0A0000005F5F0000252D3136D8
:102DF00073202D2D2025730A0000000010B540F22D
:102E0000B404C2F20004216806A001F0FDFE2169AD
:102E100009A001F0F9FE61690CA0BDE8104001F0C5
:102E2000F3BE00BF746F74616C206D656D6F727955
:102E30003A2025640A00000075736564206D656D95
:102E40006F7279203A2025640A0000006D6178696C
:102E50006D756D20616C6C6F6361746564206D6568
:102E60006D6F72793A2025640A0000002DE9F04F59
:102E70008DB0022002F0FAF800F104087BA082A2D3
:102E8000082101F0C1FE46F6D254C0F600042046E7
:102E900001F0BAFE204601F0B7FE204601F0B4FE74
:102EA000204601F0B1FE204601F0AEFE204601F0C2
:102EB000ABFE204601F0A8FE204601F0A5FE75A05D
:102EC00001F0A2FE00260DF1140B7CA77CA4CDF826
:102ED0000C8005E0049EDDF80C80002E00F0C2801E
:102EE0003546002E08BF4546FDF780F936B115F886
:102EF000041C01F07F01022940F0B280296841459D
:102F000000F0AE800A68059142451DD01168069216
:102F100041451DD00A68079142451DD011680892AD
:102F200041451DD00A68099142451DD011680A9299
:102F300041451DD00A680B9142451DD04FF008084D
:102F4000114604920C921BE04FF0010816E000BFFE
:102F50004FF0020812E000BF4FF003080EE000BF80
:102F60004FF004080AE000BF4FF0050806E000BF7C
:102F70004FF0060802E000BF4FF00708002104915F
:102F800051A5FDF737F94FF0000906E04DA001F01B
:102F90003BFE09F10109C1459CD05BF829A0FDF772
:102FA00025F91AF8041C01F07F06FDF723F9022E1B
:102FB000EFD1AAF10C035AF8081F0026BAF808004E
:102FC000514511D0514600BF0968514521D00968CB
:102FD00051451BD0096851451AD00968043651453E
:102FE000F2D1013E15E000BF514600BF09685145CE
:102FF0002DD00968514527D00968514526D0096868
:1030000004365145F2D1013E21E000BF013600E017
:103010000236009025A008210822019601F0F4FD57
:10302000DAF800605645B1D0A6F11401384601F037
:10303000EBFD30685045A9D0204601F0E5FD36682B
:103040005645F1D1A2E700BF013600E002360090FC
:10305000284608210822019601F0D6FD99E700BF15
:10306000FDF7C8F800200DB0BDE8F08F252D2A2E01
:1030700073207620202073757370656E64207468E9
:10308000726561640A00000073656D6170686F723B
:1030900065000000202D2D2D202D2D2D2D2D2D2DC9
:1030A0002D2D2D2D2D2D2D0A00000000252D2A2E31
:1030B0002A7320253033642025643A0025730000EC
:1030C0002F0000000A000000252D2A2E2A7320253B
:1030D0003033642025640A002DE9F04F8DB00120C3
:1030E00001F0C4FF051D46F65D50C0F6000071A258
:1030F000082101F089FD46F6D254C0F600042046AE
:1031000001F082FD204601F07FFD204601F07CFDAC
:10311000204601F079FD204601F076FD204601F0C1
:1031200073FD204601F070FD204601F06DFD63A0A7
:1031300001F06AFD00240DF1140A039505E000BFBB
:10314000049C039D002C00F0B1802646002C08BF93
:103150002E46FDF74BF834B116F8041C01F07F0140
:10316000012940F0A1803168A94200F09D800A68E1
:103170000591AA421ED011680692A9421ED00A6883
:103180000791AA421ED011680892A9421ED00A686F
:103190000991AA421ED011680A92A9421ED00A685B
:1031A0000B91AA421ED04FF00808114604920C92CF
:1031B0001CE000BF4FF0010816E000BF4FF002080E
:1031C00012E000BF4FF003080EE000BF4FF004080C
:1031D0000AE000BF4FF0050806E000BF4FF0060808
:1031E00002E000BF4FF0070800210491FDF702F84C
:1031F0004FF0000906E000BFFCF7FCFF09F10109F0
:10320000C1459DD05AF829B0FCF7F0FF1BF8041C0B
:1032100001F07F010129EFD1ABF10C06FCF7EAFFC9
:103220009BF8294035A0082108223346009401F07C
:10323000EBFC9BF8280000F00F00042804D832A112
:1032400051F8200001F0E0FCDBF81C00014600BF53
:103250000A78232A0FD14A78232A09D18A78232A87
:1032600008D1CA780431232AF2D0013903E000BF23
:10327000013100E00231DBE90824DBF810601718A7
:10328000401A104464214843DBF83450B0FBF2F399
:10329000B91B22A00095019401F0B6FC09F10109C7
:1032A000C145AFD14CE700BFFCF7A4FF00200DB033
:1032B000BDE8F08F7468726561640000202D2D2DCB
:1032C00020202D2D2D2D2D2D2D202D2D2D2D2D2D55
:1032D0002D2D2D2D202D2D2D2D2D2D2D2D2D2D2038
:1032E000202D2D2D2D2D2D20202D2D2D2D2D2D2D35
:1032F0002D2D2D202D2D2D0A00000000252D2A2EEC
:103300002A73202533642000A16D0008B36D0008E6
:10331000D46D0008DD6D0008AA6D00082030782506
:10332000303878203078253038782020202025301B
:10333000326425252020203078253038782025302B
:1033400033640A002DE9F04F8FB00A2001F08EFEA1
:1033500000F1040A0FF2A8400FF2CC42082101F05C
:1033600053FC46F6D254C0F60004204601F04CFC53
:10337000204601F049FC204601F046FC204601F0C1
:1033800043FC204601F040FC204601F03DFC204675
:1033900001F03AFC204601F037FC0FF2944001F0B6
:1033A00033FC4FF0000923E0A4F10C07FCF722FFE7
:1033B000D4E906050821009046F6BC50C0F600008E
:1033C00008223B46019501F01FFC14F8030CC007CE
:1033D00007BF46F65050C0F6000046F65250C0F601
:1033E000000001F011FC00BFB9F1000F00F0FE81F8
:1033F0004C46B9F1000F08BF5446FCF7F7FEB9F18F
:10340000000F06D014F8041C01F07F010A2940F0D7
:10341000EB812168514500F0E781D1F800B00791B8
:10342000D34523D0DBF80010CDF820B0514521D092
:103430000A680991524500F0F78011680A925145D7
:1034400000F0F8800A680B91524500F02D81116858
:103450000C92514500F06681D1F800900D91D14554
:1034600000F06C81CDF8389002E000BF4FF0000909
:10347000002102E04FF000090121002606910025FD
:10348000002105910021049100210391FCF7B2FE77
:10349000DDF81C80FCF7AAFE18F8041C01F07F017F
:1034A0000A2921D1A8F10C07FCF7A4FED8E90604EB
:1034B0000821009046F6BC50C0F6000008223B46AA
:1034C000019401F0A1FB18F8030CC00707BF46F6F2
:1034D0005050C0F6000046F65250C0F6000001F011
:1034E00093FBD34505D17FE7FCF784FED3453FF43A
:1034F0007BAF089CFCF77AFE14F8041C01F07F01F6
:103500000A2927D1B0462E46A4F10C07FCF772FE1B
:10351000D4E906050821009046F6BC50C0F600002C
:1035200008223B46019501F06FFB14F8030CC0071D
:1035300007BF46F65050C0F6000046F65250C0F69F
:10354000000001F061FB35464646069800287FF4EE
:103550004BAF05E0FCF74EFE069800287FF444AF21
:10356000099CFCF743FE14F8041C01F07F010A29B2
:1035700026D1B0462E46A4F10C07FCF73BFED4E959
:1035800006050821009046F6BC50C0F6000008224F
:103590003B46019501F038FB14F8030CC00707BF48
:1035A00046F65050C0F6000046F65250C0F60000F5
:1035B00001F02AFB35464646002E7FF415AF04E0A5
:1035C000FCF718FE002E7FF40FAF0A9CFCF70EFEEE
:1035D00014F8041C01F07F010A2933D12E46A4F10E
:1035E0000C07FCF707FED4E906050821009046F613
:1035F000BC50C0F6000008223B46019501F004FBD8
:1036000014F8030CC00707BF46F65050C0F6000080
:1036100046F65250C0F6000001F0F6FA3546002D8D
:103620007FF4E2AE13E000BF002101264FF0000955
:1036300024E700BF002101254FF000090691002674
:103640001EE700BFFCF7D6FD002D7FF4CDAE0B9C2E
:10365000FCF7CCFD14F8041C01F07F010A292DD1E0
:10366000A4F10C07FCF7C6FDD4E90605082100907B
:1036700046F6BC50C0F6000008223B46019501F01A
:10368000C3FA14F8030CC00707BF46F65050C0F643
:10369000000046F65250C0F6000001F0B5FA059859
:1036A00000287FF4A1AE0FE00121059100214FF029
:1036B0000009069100260025E4E600BFFCF79AFD0C
:1036C000059800287FF490AE0C9CFCF78FFD14F851
:1036D000041C01F07F010A293ED1A4F10C07FCF77C
:1036E00089FDD4E906050821009046F6BC50C0F6D5
:1036F000000008223B46019501F086FA14F8030CFD
:10370000C00707BF46F65050C0F6000046F65250BC
:10371000C0F6000001F078FA049800287FF464AE47
:1037200020E000BF012104910021069100214FF00B
:103730000009002600250591A6E600BF012103919E
:10374000002106910021059100214FF0000900267B
:10375000002504919AE600BFFCF74CFD0498002870
:103760007FF442AE0D9CFCF741FD14F8041C01F0FF
:103770007F010A2924D1A4F10C07FCF73BFDD4E911
:1037800006050821009046F6BC50C0F6000008224D
:103790003B46019501F038FA14F8030CC00707BF47
:1037A00046F65050C0F6000046F65250C0F60000F3
:1037B00001F02AFA039800287FF416AE06E000BF55
:1037C000FCF718FD039800287FF40EAE0E9CFCF762
:1037D0000DFD14F8041C01F07F010A293FF4E4AD4B
:1037E000FCF708FD00E600BFFCF704FD02F0ECF971
:1037F000014618A001F008FA00200FB0BDE8F08FD4
:10380000252D2A2E732020706572696F64696320EC
:10381000202074696D656F75742020202020202081
:10382000666C61670A00000074696D6572000000D3
:10383000202D2D2D2D2D2D2D2D2D2D202D2D2D2DD2
:103840002D2D2D2D2D2D202D2D2D2D2D2D2D2D2DB5
:103850002D2D0A0063757272656E74207469636B36
:103860003A3078253038780A0000000090B0FDF733
:103870006DFCFEF77BFF06AC201D2421FCF78EFEBD
:103880000220069001200A9010200B90002520466F
:103890000D95FDF713FE28B1EFF3108072B600BF4F
:1038A000FEE700BF0F20CDE9010501A80021CDE909
:1038B00003550595FDF7F4FC20B1EFF3108072B6C7
:1038C000FEE700BFFEF732FDFEF77EFDFEF79EFD30
:1038D000FEF7BAFD04A007A109A2FDF725F900BF74
:1038E000142002F053F8FBE7417370795261696E5E
:1038F000000000004C787232303033303130360006
:103900003830383000000000B0B546F6306446F676
:103910002860C0F60004C0F60000A04209D246F6B6
:103920002865C0F6000500BF55F8040B8047A54286
:10393000FAD3BDE8B040FFF799BF00002DE9F04F82
:1039400081B083460078A8B140F20C10C2F20000AA
:10395000056840F21010C2F20000D0F80080454522
:1039600080F0A88046F60D694FF0000AC0F6000905
:1039700000264CE046F6E650C0F6000001F044F99F
:1039800040F20C1040F21019C2F20000C2F200091D
:103990000768D9F80050AF421CD246F60D6446F6CF
:1039A0000168C0F60004C0F6000802E00C37AF4220
:1039B00010D23E68214630460622FCF77AFD0028E8
:1039C000F4D17A68B11D404601F01EF9D9F80050D3
:1039D000ECE700BF46F69540C0F6000001B0BDE838
:1039E000F04F01F011B900BF481C801B5045B8BF13
:1039F000824632A0394601F007F940F21010C2F2B7
:103A00000000D0F8008000BF0C35454548D22F6833
:103A1000494638460622FCF74CFD0028F4D15846AA
:103A20000637FCF727FD024658463946FCF741FDAC
:103A30000028E9D1BAF1000F04D03178304651B9ED
:103A4000D3E700BF3846FCF715FD82463E46317885
:103A500030460029C9D000203A5CDAB1914219D130
:103A600031184B78002BBFD03A185478002CBBD0BB
:103A7000A342B9D18B787BB194786CB1A3420BD1BE
:103A8000CB785BB1D2784AB1934207D1097904303F
:103A90000029E1D13044A8E7881CA6E7C81CA4E7A8
:103AA00046B158463146524601B0BDE8F04F01F0EC
:103AB000EDBC00BF01B0BDE8F08F00BF25730A0068
:103AC0002DE9F04F8BB049B3CF1E8E1E4D1E002343
:103AD00003E000BF0433994220D0C25C202A01D009
:103AE000092A1FD19D4219D0C4186278202A01D01A
:103AF000092A1DD19E4211D0A278202A01D0092A7C
:103B00001CD19F420AD0E278202AE3D0092AE1D0D2
:103B1000C81AA0F1030804F1030A14E000200BB056
:103B2000BDE8F08FA1EB030800EB030A0BE000BF38
:103B3000D84300EB010804F1010A04E0C81AA0F11F
:103B4000020804F1020AC8F10000A8F101010025F1
:103B5000D2B2092A2DD0202A2BD0A84520D00AEB9A
:103B600005025378092B1FD0202B1DD0A94217D056
:103B70009378092B1CD0202B1AD043199F1C0FD0EF
:103B8000D778092F00F03681202F00F033810333DE
:103B900006D012790435D2B2092ADCD109E000BF7F
:103BA00045464DB92AE100BF01352DB926E100BFD8
:103BB0000235002D00F0228140F20C10C2F200000C
:103BC000046840F21010C2F200000668B44280F0AF
:103BD000158146F60D6905F1060BC0F6000903E0F4
:103BE0000C34B44280F00A812768494638460622E0
:103BF000FCF75FFC0028F3D1B81D51462A46FCF7BC
:103C000058FC0028ECD117F80B000028E8D1A06878
:103C10000028009000F0F2804FF0000C4FF00009F7
:103C200000265246CDE909CCCDE907CCCDE905CC3B
:103C3000CDE903CC4146CDF80890464588BF3146D2
:103C4000751A05F10109002096460196175C202F90
:103C500001D0092F42D115EB000B2BD01418677837
:103C600002F800C0202F01D0092F39D119EB000C28
:103C700024D0A7784FF0000C202F84F801C001D089
:103C8000092F31D11BF1020320D0E77884F802C05C
:103C9000202F01D0092F2BD11BF103031AD084F858
:103CA00003C00EF1040E04360430175C202FD0D16F
:103CB000D1E700BF02EB000E1FE000BFDDF8089067
:103CC00004F1010E4FF0000C19E000BF04F1020EE8
:103CD00013E000BF0EF1030E0FE000BF31460CE011
:103CE0000EF1010E711C08E00EF1020EB11C04E091
:103CF000019904F1030E0844C11CDDF80890B9F1E4
:103D0000080F80F0AD80414580F0BE80222F21D188
:103D10000EF1010203A840F829209EF80170481C0A
:103D200004E000BF12F8017F0146013040454FF02A
:103D3000000338BF0123222F42D0404540D25C2FE0
:103D4000F0D1134613F8017F222F04BF1A46881CB6
:103D5000E8E700BF03A840F829E04046414588BF96
:103D600008460A1A09F10109571C00201EF80060D4
:103D7000092E21D0202E1FD0161800F088800EEBBF
:103D800000056C78092C23D0202C21D03B1800F0A2
:103D90007E80AC78092C1FD0202C1DD0B31C76D08F
:103DA000EC78092C1CD0202C1AD0F31C6FD00430D6
:103DB0001EF80060092EDDD10EEB00020E1812E095
:103DC000002B09F1010962D002F801CB8E1C0CE036
:103DD00008446A1C461C06E00844AA1C861C02E033
:103DE0000844EA1CC61C464551D24645FFF422AFA2
:103DF0004DE000BF0335002D7FF4DEAE00201AF841
:103E0000001041F02001202917D00AEB00014A7868
:103E100042F02002202A13D08A7842F02002202A81
:103E200010D0CA7842F02002202A0DD004301AF8AF
:103E3000001041F020012029E7D1504405E000BFE7
:103E4000481C02E0881C00E0C81C002101701CA076
:103E5000514600F0D9FE4FF0FF300BB0BDE8F08FB7
:103E60000EA000F0D1FE03A8041F14A64D4654F87E
:103E7000041F304600F0C8FE013DF8D146F69540DB
:103E8000C0F6000000F0C0FEB9F1000FB6D0009AF5
:103E900003A9484690470BB0BDE8F08F546F6F20E0
:103EA0006D616E7920617267732021205765206FE4
:103EB0006E6C79205573653A0A0000002573200066
:103EC00025733A20636F6D6D616E64206E6F742090
:103ED000666F756E642E0A002DE9F04381B046F6D8
:103EE000E650C0F6000000F08FFE40F20C1040F2E9
:103EF0001019C2F20000C2F200090768D9F8005098
:103F0000AF421DD246F60D6446F60168C0F60004C5
:103F1000C0F6000803E000BF0C37AF4210D23E6885
:103F2000214630460622FCF7C4FA0028F4D17A680C
:103F3000B11D404600F068FED9F80050ECE700BF24
:103F400046F69540C0F6000000F05EFE002001B08D
:103F5000BDE8F083012070472DE9F04F8AB005914C
:103F600015990FF2D4464F060FF2E04858BFB046FD
:103F7000CE06DDE9134948BF21F00101CE074FF01D
:103F8000300A08BF4FF0200A8E070DD40027019792
:103F9000002701250097002A00F09A80CDE9025100
:103FA000CDF810A013E000BFB2F1FF3F06DD4E07D1
:103FB00000F186800E07E9D5202782E001270197CE
:103FC000002702972D27CDE9031A524200974CF69D
:103FD000CD494FF0000BCCF6CC490DF1180A00BFCB
:103FE000A2FB09561409F50802F00F0705EB850C32
:103FF00025460A2B04BFF508A2EB4C0718F80770FA
:10400000002D0AF80B7049D0A5FB097C04F00F07BE
:10401000140ACE464FEADC06A14606EB86060A2BBA
:1040200004BF4FEADC09A5EB460718F807500AEB76
:104030000B0CB9F1000F59468CF8015032D0A9FB96
:104040000E5604F00F05140B5146F708A24607EB75
:1040500087070A2B04BF4FEAD60AA9EB470518F8D1
:104060000550BAF1000F8CF802501FD0AAFB0E5673
:1040700004F00F04120CF50805EB85050A2B04BFAC
:10408000F208AAEB450418F80440F1460BF1040BC2
:10409000002A8A468CF80340A2D109E00BF1010BFB
:1040A00006E000BF0BF1020B02E000BF0BF1030BB7
:1040B000DDF810A0DDE90251DDE913490DE000BF94
:1040C0002B270097002501270197002A7FF466AF70
:1040D00030228DF818204FF0010BDDF814E0CB45AD
:1040E0004B46C8BF5B4611F0110FA4EB03025FD033
:1040F00006462DB976453CBF00983070013A01362E
:10410000C80631D4551EC0F28D8012F0030700F0AE
:104110009580764538BF86F800A0012F06F1010092
:1041200040F09680023A0646032DC0F08B80101DA9
:10413000764506F1010238BF86F800A0724538BF07
:1041400082F800A0B21C724538BF82F800A0F21CB1
:104150007245A0F1040038BF82F800A0032806F1E0
:104160000406E5DC4FF0FF323046CB455EDAA3EBC8
:104170000B076FEA0B0617F0030703EB060C57D08B
:1041800070453CBF302404705D1E012F00F1010416
:1041900009D07445A3F102053CBF30262670022FDA
:1041A00000F102046CD12046BCF1030F73D28BE006
:1041B0000027002AC8BF0127019E3740D71B7A1E5F
:1041C00096DB17F0030C51D070453CBF20240470DF
:1041D000BCF1010F00F1010640F00481023F3046BE
:1041E000032A46D33A1D2026704500F1010738BF47
:1041F0000670774538BF3E70871C774538BF3E70E4
:10420000C71C7745A2F1040238BF3E70032A00F1B3
:104210000400E9DC4FF0FF320646002D3FF46AAFA0
:104220006EE700BF30462A46CB45A0DB04464BE094
:104230001D46BCF1030F2ED246E000BF2A46032DD7
:10424000BFF475AF4FF0FF32CB45FFF690AFEDE70F
:10425000704538BF80F800A0022F06F1020040F040
:10426000D180033A0646032DECD360E71746032AB4
:10427000B8D24FF0FF32002D3FF43CAF40E700BF13
:1042800003307445A3F103053CBF3023237004467B
:10429000BCF1030F18D33023044600BF744504F16A
:1042A000010038BF2370704538BF0370A01C7045F3
:1042B00038BF0370E01C7045A5F1040538BF0370DA
:1042C000AB4504F10404E9DBB9F1000F35D006A8D1
:1042D000023807E0ABF1040B0BF10403042B04F1EB
:1042E00004042AD9744503D200EB0B035B782370D6
:1042F000BBF1020F04F101031EDB73453CBF10F854
:104300000B701F70BBF1030F04F1020314D373454C
:1043100004D200EB0B0717F8017C1F70BBF1040FF0
:1043200004F1030308D37345D4D200EB0B0717F84D
:10433000027C1F70CEE700BF1C46012A12DB12F080
:104340000307A2F1010311D074453CBF2020207067
:10435000012F04F101000DD11A460446032B3ED370
:1043600022E000BF20460AB0BDE8F08F032B36D311
:104370001AE000BF7045A2F102063CBF202505707F
:10438000022F04F1020005D132460446032B26D346
:104390000AE000BF03347045A2F103023CBF2027AE
:1043A00007702046032B1AD3013A2023204600BF72
:1043B000704500F1010738BF0370774538BF3B7087
:1043C000871C774538BF3B70C71C7745A2F10402B4
:1043D00038BF3B7012F1020F00F10400E8D30AB0BD
:1043E000BDE8F08F76453CBF20243470BCF1020F4D
:1043F00000F1020612D1033F3046032AFFF439AF21
:10440000F0E600BF0336704538BF80F800A0043ADC
:104410003046032DBFF48BAE14E700BF764503D2C0
:104420002C462025357025460330043F0646032AD6
:10443000BFF4D8AE1DE700BF3031323334353637E4
:1044400038396162636465660000000030313233E0
:104450003435363738394142434445460000000080
:10446000B0B501FB00F4204600F0E8FB054620B1A2
:1044700028460021224600F01DFD2846B0BD000060
:10448000B0B546F6286446F62060C0F60004C0F6D3
:104490000000A04228BFB0BD46F62065C0F600056A
:1044A00055F8040B8047A542FAD3B0BD80B5FBF7A1
:1044B0009DFE40F2EC01C2F200014A8801324A80BE
:1044C000BDE88040FBF796BEB0B5FBF78FFE40F22B
:1044D000EC05C2F2000569880446481E01B20029B5
:1044E000688005DD2046BDE8B040FBF783BE00BF15
:1044F000002068802046FBF77DFE6868002808BF22
:10450000B0BDFBF773FE698804460029EAD1A868AC
:10451000FEF7BEF8421E43F6E870C2F2000050F803
:1045200032106868A1F114038342DBD02A7043F68D
:1045300060726B60C2F2000212781C3001F1080157
:1045400032B1FBF75AFE2046BDE8B040FBF752BE41
:10455000FBF753FE2046BDE8B040FBF74BBE000022
:104560002DE9F041002857D040F2B407C2F200070D
:1045700004467868A0424FD8B868A04298BFBDE80A
:10458000F08107F1180840464FF0FF31A4F10C0606
:1045900000F090FE34F80A0C18B13088B0F5F55FE1
:1045A0000AD025A000F030FB34F80A2C34F80C3C7B
:1045B00028A0314600F028FB4FF4F55044F80C0CCD
:1045C000D7F80CC066453CBFFE60B44654F8082CD2
:1045D00078683D691318F11A294439610FD0598858
:1045E00069B9B9688B420AD09C4504BFFE60B446E5
:1045F0005A6844F8082C5968331A01448B6054F8FF
:10460000043CC518B54201D0698839B14046BDE8BF
:10461000F04100F025BE00BFBDE8F081B44508BF01
:10462000FD606A6054F8081C084483604046BDE899
:10463000F04100F015BE00BF746F20667265652002
:104640006120626164206461746120626C6F636BDD
:104650003A0A00006D656D3A203078253038782CA4
:10466000207573656420666C61673A2025642C2090
:104670006D6167696320636F64653A203078253027
:1046800034780A0040F25C30C2F20000704700004B
:1046900040F25C30C2F2000000F57050704700003C
:1046A00010B5FCF753FDFDF7FBFEFDF723FFFCF70C
:1046B000D7FE44F6D351C1F26201A0FB0101880983
:1046C000FDF7D6F8FFF7DCFEFFF7DCFF0446FFF747
:1046D000DFFF01462046BDE8104000F01BBF000090
:1046E00080B540F22410C2F200000068016889061B
:1046F00006D40A2001F04AF9FF20C0B280BD00BFF5
:104700004068C0B280BD0000F0B581B004460D2005
:104710008DF8030040F22410C2F20000002180F85E
:104720004010204600F09AFEE0B140F22416054603
:10473000C2F200060DF103070AE000BF3046214631
:1047400001220123FDF7B4FC013D04F1010409D06D
:1047500020780A28F2D13046394601220123FDF79C
:10476000A7FCEBE701B0F0BD10B540F25831C2F242
:1047700000010968044621B120468847002808BF87
:1047800010BD216C46F68A40C0F6000000F03CFAED
:10479000616A46F64940C0F6000000F035FAA16AA9
:1047A00046F65640C0F6000000F02EFAE16A46F6E2
:1047B0006340C0F6000000F027FA216B46F6704017
:1047C000C0F6000000F020FA616846F67D40C0F6B1
:1047D000000000F019FAA168C4A000F015FAE16821
:1047E000C6A000F011FA2169C8A000F00DFA6169B5
:1047F000CAA000F009FAA169CCA000F005FAE169AD
:10480000CEA000F001FA216AD0A000F0FDF9616BA2
:10481000D2A000F0F9F9A16BD4A000F0F5F9E16B9A
:10482000D6A000F0F1F92078400707D446F6A3306F
:10483000C0F6000000F0E8F90BE000BF01F0D2F88C
:10484000014646F6BD30C0F6000000F0DDF9FEF787
:1048500043FC4EF62954CEF20004D4F8030080073E
:1048600005D546F62740C0F6000000F0CDF9D4F893
:104870000300400040F1F880207830B346F6FB306A
:10488000C0F6000000F0C0F9217846F60E50C0F6E0
:10489000000000F0B9F92078C00745D120788007E2
:1048A0004BD42078400751D42078000757D4207883
:1048B000C0065DD494F90000B0F1FF3F60DD46F61C
:1048C0009540C0F6000000F09FF914F8010C002894
:1048D00000F0958046F6DA30C0F6000000F094F95A
:1048E00014F8011C46F62450C0F6000000F08CF9C4
:1048F00014F8010CC00751D114F8010C800757D4EB
:1049000014F8010C00075DD414F8010CC00663D440
:1049100014F9010CB0F1FF3F69DD46F69540C0F691
:10492000000000F071F96AE046F6F940C0F60000B8
:1049300000F06AF920788007B3D546F6EE40C0F65D
:10494000000000F061F920784007ADD546F6EC4054
:10495000C0F6000000F058F920780007A7D546F609
:10496000E240C0F6000000F04FF92078C006A1D563
:1049700086A000F049F994F90000B0F1FF3F9EDCF9
:10498000D4F80F1046F60740C0F6000000F03CF9DE
:1049900014F8010C00289DD131E000BF46F6BD405F
:1049A000C0F6000000F030F914F8010C8007A7D51C
:1049B00046F6B340C0F6000000F026F914F8010CEA
:1049C0000007A1D546F6E140C0F6000000F01CF952
:1049D00014F8010CC0069BD546F6D840C0F600007E
:1049E00000F012F914F9010CB0F1FF3F95DCD4F896
:1049F0000B1046F61740C0F6000000F005F9B4F8B9
:104A0000010088B346F6ED30C0F6000000F0FCF877
:104A1000B4F8011046F63A50C0F6000000F0F4F881
:104A2000B4F80100C0072DD1B4F80100800733D4D9
:104A3000B4F80100400739D4B4F8010000073FD4AE
:104A4000B4F80100C00545D4B4F80100800505D5CF
:104A500046F6C740C0F6000000F0D6F846F695408E
:104A6000C0F6000000F0D0F8D4F80300B0F1FF3F2A
:104A700006DC46F63C40C0F6000000F0C5F800BF7A
:104A8000FEE700BF46F60250C0F6000000F0BCF89A
:104A9000B4F801008007CBD546F6A940C0F6000067
:104AA00000F0B2F8B4F801004007C5D546F69740CB
:104AB000C0F6000000F0A8F8B4F801000007BFD568
:104AC00046F6D240C0F6000000F09EF8B4F80100AF
:104AD000C005B9D546F69E40C0F6000000F094F837
:104AE000B4F801008005B3D4B8E700BF7230353A9E
:104AF000203078253038780A000000007230363ACD
:104B0000203078253038780A000000007230373ABB
:104B1000203078253038780A000000007230383AAA
:104B2000203078253038780A000000007230393A99
:104B3000203078253038780A000000007231303A91
:104B4000203078253038780A000000007231313A80
:104B5000203078253038780A000000007231323A6F
:104B6000203078253038780A00000000206C723A36
:104B7000203078253038780A000000002070633A31
:104B8000203078253038780A0000000053544B4517
:104B90005252200004324BF6EF6C22F00702CDF6A1
:104BA000AD6C42F840CDC2E901CCC2E903CCC2E908
:104BB00005CCC2E907C100214FF0807CC2E90D306D
:104BC0001046C2E90911C2E90B11C2F83CC0704796
:104BD00080B5FBF70BFB43F66071C2F200010A7867
:104BE00001320A70BDE88040FBF704BB80B5FBF7DB
:104BF000FDFA43F66071C2F200010A78013A0A70C8
:104C0000BDE88040FBF7F6BA83B010B581B043F63B
:104C10006874844603A8C2F200040EC003AB2046A9
:104C20007F216246009301F09FF92046FFF76CFD5B
:104C300001B0BDE8104003B0704700002DE9F0431B
:104C400081B000286BD040F2B409C2F200090330F1
:104C5000D9F8001020F003078F4260D809F1180836
:104C600040464FF0FF310C2F98BF0C2700F022FB7D
:104C7000D9F80CE0D9E900C1AEEB0103ACEB0704B5
:104C8000A34249D2CE187288706822B903F10C028F
:104C9000851ABD4248D2A0423ED20E18728873686F
:104CA00022B900F10C029D1ABD4216D2A34233D2A2
:104CB000CE187288706822B903F10C02851ABD42C1
:104CC00032D2A04228D20E1872887368002AD7D137
:104CD00000F10C029D1ABD42D2D30446184607F1DA
:104CE00018039D4225D33A4407F10C038D184FF465
:104CF000F5578F50C5E901047260686801240CF112
:104D00000C07B84274801CBF08448260D9E90402D1
:104D10001844824214E000BF404600F0A1FA00208F
:104D200001B0BDE8F08300BF1C4607F118039D42A7
:104D3000D9D201227280D9E90423001B1044834296
:104D4000C9F8100038BFC9F814004FF4F550764583
:104D5000308030D1BEF8020068B3D9F808209645FB
:104D600029D0DEF8040001EB000EBEF80200002896
:104D700018BF96451DD0DEF8040001EB000EBEF80A
:104D80000200002818BF964513D0DEF8040001EB9E
:104D9000000EBEF80200002818BF964509D0DEF8C4
:104DA000040001EB000EBEF80200002818BF964573
:104DB000D7D1C9F80CE0404600F052FA06F10C00D9
:104DC00001B0BDE8F0830000B0B5814214D28B1869
:104DD000834211D9002A47D000EB020E12F00301E2
:104DE000A2F1010C4FD013F8014D01290EF8014D2D
:104DF0003CD1624647E000BFB2B312F00304A2F117
:104E0000010C09D08E461EF8015B0346012C03F805
:104E1000015B05D1624613E08E46034610E000BFF9
:104E20004B78022C437005D1023A01F1020E831C2B
:104E300006E000BF01F1030E8978033AC31C8170BC
:104E4000BCF1030F38BFB0BDAEF10401043B00BF9D
:104E500011F8045F043A03F8045F4D785D708D78B3
:104E60009D70CD78DD70F3D1B0BD00BF13F8014D5A
:104E700002290EF8014D01D1023A04E013F8011D98
:104E8000033A0EF8011DBCF1030FEDD3AEF104019E
:104E9000023B00BF5C78043ACC701C788C7013F82D
:104EA000014C4C7013F8024CA3F1040301F80449BF
:104EB000F0D1D9E770B5042A06461BD316F00300DB
:104EC00018D1C8B24FF00133102A00FB03F313D3FB
:104ED000A2F1100C012000EB1C1010F003000DD00B
:104EE0000128C6E90033B360F36009D106F1100070
:104EF000624616E0304650E030462EE0304610E084
:104F00000228C6E90433B361F36103D106F120003E
:104F1000203A06E006F13000303AC6E90833C6E927
:104F20000A33BCF1300F16D300F14004403AC0E917
:104F30000033C0E90233C0E90433C0E90633C0E9F5
:104F40000833C0E90A33C0E90C33C0E90E330F2A35
:104F50002046E9D82046042A1FD30446151F042DF5
:104F600040F8043B18D3A2F10805042D63600DD36B
:104F7000A2F10C05042DA3600CD304F11000103A2B
:104F8000E360032A0446E9D807E000BF04F1080003
:104F900002E000BF04F10C002A4622B1CBB2114658
:104FA0001A46FBF7D1FA304670BD00002DE9F041FA
:104FB000884640F20C01C2F200010A78054682429E
:104FC0000F460AD00F4617F8100FA84205D011F867
:104FD000200FA84218BF00210F46F868FFF72EFEE9
:104FE0000646C0B1FA68304600210024FFF762FF90
:104FF0003046414608223572747200F047FAFBF7DA
:10500000F5F857F8041F324642F80C1F4A603A6020
:105010005760FBF7EFF83046BDE8F08110B5044665
:1050200000202072FBF7E2F82246216952F80C3F7B
:105030005960216922610B601260FBF7DBF82046A2
:10504000BDE81040FFF78CBA10B50446002020726E
:10505000FBF7CCF854F80C1F62684A606268116074
:10506000C4E90044BDE81040FBF7C4B840F20C02AC
:10507000C2F200021178814211460AD0114611F89D
:10508000103F834205D012F8201F814218BF002232
:105090001146084670470000F0B581B00E4640F258
:1050A0000C01C2F2000115460A780446B2420F46CE
:1050B0000AD00F4617F8100FB04205D011F8200F94
:1050C000B04218BF00210F46FFF7F0F90437384609
:1050D0000068B84208D00068B84205D00068B842FD
:1050E00002D00068B842F3D1FFF7EEF946F0800035
:1050F000207220462946082200F0C8F9FBF776F80E
:10510000396844F80C1F4C603C60676001B0BDE832
:10511000F040FBF76FB80000007AC009704700004C
:10512000B0B5FBF763F840F2EC05C2F20005698800
:10513000044629B12046BDE8B040FBF75BB800BF8C
:10514000A868FDF7A5FA43F6E8710138C2F200013C
:1051500051F830106A68A1F114039342EAD0287024
:1051600043F660706B60C2F20000037802F11C002D
:1051700001F1080133B1FBF740F82046BDE8B0402B
:10518000FBF738B8FBF739F82046BDE8B040FBF72D
:1051900031B8000010B50446FBF728F894F8341035
:1051A00094F8352001F0F001013184F8341043F611
:1051B000E871C2F2000101EBC2014A6840F2EC0C56
:1051C00004F11403C2F2000C1360A2614B60A26BE5
:1051D000DCF80830616143EA0201CCF80810BDE850
:1051E0001040FBF707B80000B0B50546FAF7FEFF20
:1051F000294651F8142F4B6853604B6849601A6078
:1052000091F8212043F6E8730960C2F2000353F8D5
:10521000324003EBC202944204D0BDE8B040FAF73A
:10522000E9BF00BF40F2EC02C2F20002A96B936832
:1052300023EA01019160BDE8B040FAF7DBBF00004E
:1052400070B515460A4602211C460646FFF724FFA4
:1052500006F11400C6E905000020B583747270BD24
:10526000B0B50546FAF7C2FF2A4652F8141F0446A5
:1052700091420BD0A1F1140000F090FB2046FAF708
:10528000B9FFFFF74DFF0020B0BD00BFA88B4FF660
:10529000FF71884206D12046FAF7ACFF6FF002009A
:1052A000B0BD00BF0130A8832046FAF7A3FF00205D
:1052B000B0BD00002DE9F04381B00E4607460091D5
:1052C000FAF794FFB98B804641B1481EB883404637
:1052D000FAF790FF002001B0BDE8F083D6B300F0EC
:1052E00081FB0546002028637C7A284607F11409D3
:1052F00000F0E8FBB4B3012C3CD1484600684845B7
:1053000030D095F8351090F8212091421AD30068DA
:10531000484527D095F8351090F82120914211D3B7
:10532000006848451ED095F8351090F8212091422C
:1053300008D30068484515D095F8351090F821201D
:105340009142DBD2416805F114020A60A961426012
:1053500068610FE04046FAF74DFF6FF0010001B0C1
:10536000BDE8F083B86905F114010160A861B96175
:10537000C5F81490012E09DB05F144066A46304653
:10538000002100F005FD304600F068FD4046FAF7C8
:1053900031FFFFF7C5FE286B002808BF002001B0D1
:1053A000BDE8F08380B582B00AA0FFF72DFC0CA009
:1053B000FFF72AFC0FF24C0C15A003210122052354
:1053C000CDF800C0FFF720FC19A002B0BDE8804076
:1053D000FFF71ABC0A205C207C202F0A0000000086
:1053E0002D205254202D20202020205468726561E9
:1053F00064204F7065726174696E672053797374AD
:10540000656D0A004465632031312032303233004B
:10541000202F207C205C202020202025642E256445
:105420002E2564206275696C642025730A000000D3
:105430002032303036202D203230323020436F7011
:105440007972696768742062792072742D74687249
:10545000656164207465616D0A000000014600BF4B
:105460000A7862B14A784AB18A785AB1CA78043166
:10547000002AF5D10139081A704700BF0131081A16
:10548000704700BF0231081A704700002DE9F04153
:105490008046DAB3C2F1000C00234446CF5C08F822
:1054A0000370DFB10CEB0306771C2FD2CF1878788E
:1054B00008EB03056870A8B1B01C27D0B878A870B5
:1054C000B0B1F01C22D0F878E870D8B104330434BD
:1054D0001CEB0300A2F10402E0D117E0601C511E96
:1054E0000AD113E0A01C013A511E05D10EE000BF05
:1054F000E01C023A511E09D0FBF72EF84046BDE8E9
:10550000F08100BF033A281D511EF5D14046BDE889
:10551000F081000021F003038C46192B014631D3A2
:10552000C81C20F00300A3F1180282422AD310B550
:10553000191A40F2B404A1F11802C2F20004C4E93D
:1055400000204FF4F5520C394FF0000CC0E9002157
:10555000C0F808C041F6A060C0F201001A4642F847
:105560000C0D43F8081C2068A2600C3043F8040CB2
:1055700004F1180005A101220023FFF761FE606815
:10558000E06010BD03A06246FFF73EBB6865617036
:10559000000000006D656D20696E69742C206572D5
:1055A000726F7220626567696E20616464726573F0
:1055B0007320307825782C20616E6420656E64201D
:1055C0006164647265737320307825780A00000086
:1055D00010B543F6E872C2F2000202F11800C2E907
:1055E000060002F1200002F1080302F11001C2E9F5
:1055F000080002F14000C2E90233C2E9041102F1DD
:10560000280102F1300302F13804C2E9100002F16E
:105610006000C2E90A11C2E90C33C2E90E4402F18A
:10562000480102F1500302F15804C2E9180002F1E6
:105630008000C2E91211C2E91433C2E9164402F132
:10564000680102F1700302F17804C2E9200002F15E
:10565000A000C2E91A11C2E91C33C2E91E4402F1DA
:10566000880102F1900302F19804C2E9280002F1D6
:10567000C00040F2EC0EC2E92211C2E92433C2E9B3
:10568000264402F1A80102F1B00302F1B804C2E914
:10569000300002F1E000C2F2000EC2E92A11C2E9B4
:1056A0002C33C2E92E4402F1C80102F1D00302F109
:1056B000D804C2E938001F204FF0000CC2E93211B3
:1056C000C2E93433C2E9364402F1E80102F1F003E1
:1056D00002F1F8048EF800000EF10C00AEF802C0E2
:1056E000C2E90022C2E93A11C2E93C33C2E93E44B0
:1056F000CEE901CCCEE9030010BD000010B540F2A8
:10570000EC04C2F20004A068FCF7C2FF43F6E871A3
:10571000C2F2000101EBC00050F8080CA0F1140126
:1057200008306160BDE81040FAF795BD40F2001006
:10573000C2F20000011DC0E901117047704700006E
:105740002DE9F04383B00F46014601201D46164661
:10575000FFF72CFC00283DD004462846FFF76EFAE0
:1057600000283DD004F11401DDE90A98C4E90511CF
:1057700023212A46C4E90876C4E90A05FFF79AFB03
:1057800004F120030FCB1A4445F2F173043AC0F63A
:105790000003FFF7FFF945F60932E061002704F145
:1057A0004400C0F600022146234684F8369084F86F
:1057B0003590C4E90E78C4F84080276384F83470CB
:1057C000C4E91C770097019700F02EFB204603B038
:1057D000BDE8F0830024204603B0BDE8F08300BF9D
:1057E0002046FFF71BFC0024204603B0BDE8F083F1
:1057F00070B540F2F000C2F200000568FAF7F6FC5E
:105800000446FAF7F3FC296F064609B12846884793
:105810003046FAF7EFFC2846FFF7E6FC042085F84F
:10582000340005F1440000F0E7FA2846FFF774FC65
:10583000012809D12846FFF707FCFFF771FC204635
:10584000BDE87040FAF7D6BC40F2F800C2F20000A2
:10585000016845F8141F4D6005606860FFF760FC43
:105860002046BDE87040FAF7C5BC000040F2F806DB
:10587000C2F2000603E000BF2046FAF7BBFCFAF7CD
:10588000B5FC31680446B142F6D0D1E90020A1F15F
:10589000140550604B6848691A60C1E90011FEF7B1
:1058A0005FFE2846FFF7BAFBE6E7000010B584B0BC
:1058B00044F2E8024FF48071C2F2000240F2E024A8
:1058C0001F20CDE90021C2F2000445F66D024FF021
:1058D000200C029007A1C0F6000220460023CDF85C
:1058E0000CC000F00BF8204604B0BDE8104000F0FA
:1058F000BBB800BF7469646C650000002DE9F04717
:1059000082B00DF1280A16460A46DDF834909AE86E
:10591000800501211D460446FFF7BEFB04F114007B
:10592000C4E90500384623214246C4E90865C4E9B4
:105930000A78FFF7BFFA04F120030FCB1A4445F2AF
:10594000F173043AC0F60003FFF724F945F6093273
:10595000E061002704F14400C0F60002214623461E
:1059600084F836A084F835A0C4E90E79C4F84090D4
:10597000276384F83470C4E91C770097019700F01E
:1059800053FA002002B0BDE8F087000080B500F0B7
:1059900001F900F02DF8002080BD0000B0B50446EC
:1059A00090F8340000F00F0002281CBF4FF0FF30C9
:1059B000B0BDFAF71BFC2246A16952F8143F054618
:1059C0005960A16904F144000B60A261126000F00B
:1059D000AFFA2846FAF70EFC2046FFF7DBFB002063
:1059E000B0BD000040F2F000C2F200000068704755
:1059F000F0B581B00090FAF7F9FB40F2F001C2F285
:105A000000010C68054694F8341001F00F010129DB
:105A100013D1FAF7EBFB06462046FFF7E5FB94F8B7
:105A2000340000F0F000023084F8340004F1440047
:105A300000F07EFA3046FAF7DDFB04F144066A46D0
:105A400030460021002700F0A3F9304600F006FAA6
:105A50002846FAF7CFFBFFF763FB206B023008BF45
:105A60002763002001B0F0BDB0B5044690F83600C1
:105A7000012184F8350001FA00F0A063022084F8C7
:105A80003400FAF7B3FB2246A16952F8143F0546E9
:105A90005960A16904F144000B60A261126000F03A
:105AA00047FA2846FAF7A6FB2046FFF773FB40F2B9
:105AB000F000C2F200000068002818BFFFF730FBBA
:105AC0000020B0BDB0B5044690F8340000F00F00DF
:105AD00001281CBF4FF0FF30B0BDFAF787FB054629
