:020000040800F2
:100000008814002091010008B51F0008750200083F
:10001000B11F00086D060008B921000800000000AB
:10002000000000000000000000000000A301000824
:100030007106000800000000FF010008B91F000859
:10004000AB010008AB010008AB010008AB010008E0
:10005000AB010008AB010008AB010008AB010008D0
:10006000AB010008AB010008AB010008AB010008C0
:10007000AB010008AB010008AB010008AB010008B0
:10008000AB010008AB010008AB010008AB010008A0
:10009000AB010008AB010008AB010008AB01000890
:1000A000AB010008AB010008AB010008AB01000880
:1000B000AB010008AB010008AB010008AB01000870
:1000C000AB010008AB010008AB010008AB01000860
:1000D000AB010008A1210008AD210008AB01000818
:1000E000AB010008AB010008AB01000800F002F80A
:1000F00000F03FF80AA090E8000C82448344AAF183
:100100000107DA4501D100F034F8AFF2090EBAE880
:100110000F0013F0010F18BFFB1A43F0010318473B
:10012000085F0000285F0000103A24BF78C878C13B
:10013000FAD8520724BF30C830C144BF04680C60ED
:10014000704700000023002400250026103A28BF35
:1001500078C1FBD8520728BF30C148BF0B60704739
:10016000732900F00E82002070471FB51FBD10B527
:1001700010BD00F00AFA1146FFF7F7FF00F040FA51
:1001800000F028FA03B4FFF7F2FF03BC00F030FAE6
:100190000948804709480047FEE7FEE7FEE7FEE71B
:1001A000FEE7FEE7FEE7FEE7FEE7FEE70448054957
:1001B000054A064B7047000091200008ED0000083A
:1001C000880E00208814002088100020881000204D
:1001D000EFF3108072B6704780F310887047324A90
:1001E0001368012B04D04FF0010313602F4A1060F5
:1001F0002F4A11602F484FF0805101607047EFF394
:10020000108272B62848016891B14FF00001016078
:100210002648016829B1EFF3098121E9F00F006850
:100220000160234909680968B1E8F00F81F3098882
:1002300082F310884EF0040E70471D4908601B4978
:100240004FF00000086018494FF0010008601A489C
:100250001A49D0F8002041EA0201016015484FF028
:100260008051016016480068006880F3088861B614
:1002700062B670471EF0040F0CBFEFF30880EFF377
:10028000098020E9F00F40F804ED1EF0040F0CBFC8
:1002900080F3088880F3098800B503F073FE5DF8E9
:1002A00004EB4EF0040E7047780E00206C0C00201A
:1002B000740C002004ED00E020ED00E00000FFFFE2
:1002C00008ED00E00FB41CB5074B06AA7B44694655
:1002D0000090059800F02BF90020694600F03AF9EB
:1002E0001CBC5DF814FB0000850200002DE9F04104
:1002F0000E460446002020622046E168884730B35D
:10030000252805D0D4E901219047206A401CF2E756
:10031000E168204600278847050018D0A5F1410074
:10032000192802D820354FF4006732462946204666
:100330002760FFF715FF40B1012804D0F61D26F015
:1003400007060836D8E7361DD6E72846DAE7206ADA
:10035000BDE8F08170B50C460546012A05D0287825
:10036000800600D5EA69002302E0012305E05B1C5A
:10037000934202D2E05C0028F9D1A869E618C01ABD
:10038000A861286A184428622846AFF3008004E078
:10039000D5E9012114F8010B9047B442F8D328465F
:1003A000AFF3008070BD10B5431C02E010F8011BD4
:1003B00071B18107FAD14FF0013202C88C1A8C4317
:1003C00014EAC211F9D0C01A0A0603D0C01E10BD2B
:1003D000C01A10BD0A0401D0801E10BD0902FCD055
:1003E000401E10BD40EA010370B59B072ED14FF0AF
:1003F0000136042A2AD308C810C99D1B9D43121F29
:1004000015EAC61517D0D8B2E1B2401A50EA056114
:1004100010D198B2A1B2401A50EA05410AD123F096
:100420007F4024F07F41401A50EA052102D1180E86
:10043000A0EB146070BDA342DBD018BA21BA884289
:1004400001D9012070BD4FF0FF3070BD0AB9002006
:1004500070BD10F8013B11F8014B63B1A3420AD102
:10046000521E08D010F8013B11F8014B1BB1A342FA
:1004700001D1521EEDD1181B70BD02F0FF0343EAFB
:10048000032242EA024200F002B84FF000020429BF
:10049000C0F0128010F0030C00F01B80CCF1040CB3
:1004A000BCF1020F18BF00F8012BA8BF20F8022BE7
:1004B000A1EB0C0100F00DB85FEAC17C24BF00F88D
:1004C000012B00F8012B48BF00F8012B70474FF0BB
:1004D000000200B5134694469646203922BFA0E894
:1004E0000C50A0E80C50B1F12001BFF4F7AF0907A0
:1004F00028BFA0E80C5048BF0CC05DF804EB890091
:1005000028BF40F8042B08BF704748BF20F8022BD3
:1005100011F0804F18BF00F8012B704770477047EB
:100520007047000001694A1C02610878704700B5F5
:100530008FB0CDE901310021059105497944CDE91C
:10054000031011466846FFF7D1FE0FB000BD000052
:10055000E5FFFFFF0A6802F8010B0A60704710B55B
:10056000436913B1AFF3008001E0FFF7F3FE012010
:1005700010BD127800F124010A7000224A70012295
:10058000EDE711684FF0FF32E9E7754600F02CF80F
:10059000AE4605006946534620F00700854618B070
:1005A00020B5FFF703FEBDE820404FF000064FF0F6
:1005B00000074FF000084FF0000BAC46ACE8C00954
:1005C000ACE8C009ACE8C009ACE8C00921F00701FB
:1005D0008D46704710B50446AFF300802046BDE855
:1005E0001040FFF7CFBD00000048704740000020DA
:1005F00001491820ABBEFEE726000200704700004C
:1006000010B584B0FFF7E4FD03F062FC04F022F9BA
:1006100004F086FA04F0D6F940F2F0724FF48061EB
:10062000C2F2000240F6F0340A20CDE90021C2F205
:10063000000445F6025143F299224FF0140C029047
:10064000C0F60001C0F6000220460023CDF80CC021
:1006500004F0D6FA204604F065FB04F069FA04F0D1
:10066000A9FA04F045FA002004B010BDFEE700002E
:1006700070470000EFF3108072B600BFFEE7000085
:10068000014690F82100022816D10868D1E90FC36D
:10069000026822F00E020260026822F0010202608B
:1006A000012000FA03F2CCF8042081F82100002098
:1006B000002281F820207047042088630120002256
:1006C00081F820207047000080B590F821100229A1
:1006D00024D10268116821F00E0111602F211368E6
:1006E000C4F202018A4240F20401C4F2020123F082
:1006F0000103136016DD3023C4F202039A421DD0B9
:100700004423C4F202039A421CD05823C4F20203C9
:100710009A421DD14FF4803322E000BF042181634F
:10072000012080BD0823C4F202039A420ED01C238C
:10073000C4F202039A420BD1102311E04FF48073EC
:100740000EE000BF4FF480530AE000BF012307E032
:1007500001F1680C4FF08073624508BF4FF48013BD
:100760000B60012180F82110426B002180F82010DD
:100770000AB190470021084680BD0000B0B504468C
:1007800000F024F9054640F20000C2F200000078B3
:10079000611C18BF044400BF00F018F9401BA042C0
:1007A000FAD3B0BD2DE9F04F82B00E68002E00F0F4
:1007B000038141F20042C4F20102042340F2004EE0
:1007C000904208BF03234FF6FF7CC4F2010E009352
:1007D00000240123C1F2100C4FF0000A4FF0000971
:1007E00049E000BF012704F00C030F229A402BEAD6
:1007F000020207FA03F34FEA9A051A4346F8252046
:10080000D1F804B040F20C455FEACB22DEF80820B4
:1008100054BF22EA080242EA0802C4F20105CEF8F7
:1008200008202A685FEA8B2354BF22EA080242EAC2
:1008300008022A605FEA8B33DEF8042054BF22EA04
:10084000080242EA08025FEACB33CEF80420DEF861
:1008500000204FF0010354BF22EA080242EA0802D6
:10086000CEF800200E680AF1010A36FA0AF204F105
:10087000040400F0A18003FA0AF816EA080FF1D088
:100880004E68664512DC122E56D8DFE806F0350BAE
:100890004549555555555555555555555555554D2C
:1008A000510000BFD1F80C9046E000BF4FF6FF7238
:1008B000C1F2210296420FDC0022C1F211029642DF
:1008C0001AD00022C1F21202964215D00022C1F2C3
:1008D0002102964210D02FE00022C1F2220296425D
:1008E0000AD00022C1F23102964205D00022C1F2A4
:1008F0003202964220D100BF8A684AB1012A14BF51
:10090000C0F81480C0F810804FF0080914E000BF50
:100910004FF0040910E000BFCA6802F108090BE0BB
:100920004FF0000908E000BFCA6802F1040903E0C3
:10093000CA6802F10C0900BF22460646BAF1080F48
:1009400024BF203A043637680F25954027EA05056D
:1009500009FA02F22A433260CA79D2067FF582AFE1
:1009600041F21803C4F202031A68AEF57E7642F033
:1009700001021A601A6802F001020192019A2AF03B
:10098000030256F802B040F60002C4F2010290429F
:1009900010D040F60042C4F2010290423FF422AF70
:1009A00041F20002C4F20102009F904208BF0227F8
:1009B00019E700BF002716E702B0BDE8F08F00007E
:1009C000002A08BF090401617047000040F68060FA
:1009D000C2F200000068704770B5B8B3044690F8E2
:1009E0003D0028B9002084F83C00204600F0B0F813
:1009F000242084F83D002068016821F00101016095
:100A0000016841F400410160016821F40041016086
:100A100000F060FA48F28041C0F21E0140F6001377
:100A2000D4F804E088424FF00001C0F23D0348F2E0
:100A3000A16C4FF0000238BF01219842C0F2010CB6
:100A400038BF0122E64538BF0A460AB1012070BD11
:100A50004DF68361C4F21B31A0FB01122168950C95
:100A60004B684FF4967623F03F0343EA9243754375
:100A700044F6D3564B60C1F262060B6AA5FB0656DC
:100A8000B50923F03F03E64538BF950C6A1C1A43AD
:100A90000A62CA6948F2A0664CF6FF73C0F201060A
:100AA000B64522EA03020BD801384FEA4E03B0FBE9
:100AB000F3F001306FF31F30042898BF04201EE0CC
:100AC000A368013863B119230EFB03F3B0FBF3F005
:100AD00001306FF31F3078B100F5804008E000BFAF
:100AE0000EEB4E03B0FBF3F001306FF31F3028B173
:100AF00000F5004003E000BF012000E001201043AA
:100B0000C8610868D4E9072320F0C00010431843E7
:100B10000860886848F2FF3204F10C0690434CCE1E
:100B200018431043A5698860C86820F0FF0030436F
:100B30002843C860086840F00100086000202021B8
:100B4000206484F83D10206384F83E0070BD0000EE
:100B500010B586B045F200410068C4F200010022E1
:100B60008842049202D006B010BD00BF41F21804C2
:100B7000C4F20204206840F008002060206800F001
:100B8000080001900198C0200290122003900320D9
:100B9000059001F5384002A9FFF704FE606840F4B3
:100BA00000106060606800F400100190019806B0C9
:100BB00010BD000080B542F20000C4F202000168DE
:100BC00041F010010160032000F08EF8002000F0D9
:100BD00005F800F027F8002080BD000070B540F255
:100BE0000006C2F2000640F208013278C2F20001AB
:100BF0004FF47A730968B3FBF2F20446B1FBF2F1E9
:100C0000084600F069FB0F2C4FF0010508D838B9F1
:100C10004FF0FF3021460022002500F039F87460C3
:100C2000284670BD82B041F21800C4F2020001688B
:100C3000022241F001010160016801F0010101910E
:100C40000199416841F080514160406800F0805056
:100C5000009000980420C4F20100016862F31A6158
:100C6000016002B070470000002848BF7047C1B261
:100C700000F01F00012202FA00F04EF20012CEF244
:100C8000000242EAD10121F0030108607047000030
:100C900010B54EF60C5CCEF2000CDCF80030C3F35D
:100CA000022E8EF00704042C28BF0424BEF1030397
:100CB0004FF0FF3E0EFA04F438BF0023A1439940E1
:100CC0000EFA03F39A43114300F00F0200F1604360
:100CD0000901043A03F564436244002848BF02F165
:100CE0000C03197010BD00004EF60C51CEF200013D
:100CF0000A684FF6FF031A4060F30A2242F0806050
:100D000040F0FD70086070472DE9F04381B0002885
:100D100000F0858042F20008C4F202080446D8F8C8
:100D200000000D4600F0070088420CD2D8F8000001
:100D300020F007002843C8F80000D8F8000000F0B1
:100D40000700A8426BD1206841F204098107C4F270
:100D5000020917D5410705D5D9F8001041F4E06123
:100D6000C9F80010010705D5D9F8001041F4605109
:100D7000C9F80010D9F80010A26821F0F001114361
:100D8000C9F80010C00741D1D8F8000000F00700F2
:100D9000A8420CD9D8F8000020F007002843C8F872
:100DA0000000D8F8000000F00700A84237D1206802
:100DB000410707D5D9F80010E26821F4E06111433A
:100DC000C9F80010000708D5D9F80000216920F4FF
:100DD000605040EAC100C9F80000D9F8002002F0D4
:100DE0000C00082841F20020C0F27A0050D145F6EC
:100DF0004033C2F38341C0F60003595CD2033BD4B5
:100E000040F60010C0F23D00484341E0606802280F
:100E10000AD001282AD159F8041C890308D40120DA
:100E200001B0BDE8F08300BF59F8041C8901F6D574
:100E3000D9F8001021F003010843C9F80000FFF7BA
:100E4000C5FD064641F28837D9F80000616800F018
:100E50000C00B0EB810F97D0FFF7B8FD801BB842B4
:100E6000F2D9032001B0BDE8F08300BF59F8041C9B
:100E70008907D4D5DCE700BFD9F8002045F63E232A
:100E8000C2F34042C0F600039A5C4843B0FBF2F064
:100E9000D9F8001045F62622C1F30311C0F600026E
:100EA000515C40F2080220FA01F140F20400C2F263
:100EB00000000068C2F200021160FFF78FFE002000
:100EC00001B0BDE8F083000040F20800C2F200006B
:100ED0000068704740F2080041F20401C2F20000CD
:100EE000C4F202010068096845F63622C1F3022106
:100EF000C0F60002515CC8407047000040F2080094
:100F000041F20401C2F20000C4F202010068096863
:100F100045F63622C1F3C221C0F60002515CC8403A
:100F2000704700002DE9F04182B0002868D00446E7
:100F3000007841F20006C007C4F2020625D07068AE
:100F400000F00C0004281BD0706800F00C0008288A
:100F500002D17068C00313D46068002800F0688173
:100F6000B0F5A02F00F07C81B0F5803F00F07C81CF
:100F7000306820F480303060306820F4802076E1E2
:100F80003068800301D56068D0B32078800718D519
:100F9000706810F00C0F07D0706800F00C00082883
:100FA0006ED17068C0036BD43068800702D52069A9
:100FB000012825D13068616920F0F80040EAC100BD
:100FC0003060207800071FD42078400732D4E569CC
:100FD00095B1706800F00C00082840F08F80012D5A
:100FE0000ED07068216A00F480328A4208D1616AAA
:100FF00000F47010884203D1002002B0BDE8F081F7
:10100000012002B0BDE8F081A069002862D0002074
:10101000C4F242200121C0F88014FFF7D7FC054636
:10102000706A800700F18C80FFF7D0FC401B02281B
:10103000F6D92AE1F06910F0805808D1F06940F043
:101040008050F061F06900F080500090009847F205
:101050000007C4F200073868C00529D4386840F496
:1010600080703860FFF7B2FC054600BF3868C005E5
:101070001ED4FFF7ABFC401B6428F7D905E100BF85
:101080002069002840F20000C4F2422000F0828073
:1010900001210160FFF79AFC054600BF3068800718
:1010A0003FF588AFFFF792FC401B0228F6D9ECE031
:1010B000E068002800F08080052800F09780012873
:1010C00000F09880306A20F001003062306A20F031
:1010D000040092E00020C4F242200021C0F88014F5
:1010E000FFF774FC054600BF706A80077FF56CAFA0
:1010F000FFF76CFC401B0228F6D9C6E00027C4F2BB
:10110000422700203866FFF761FC022D05460BD10F
:101110003068800140F1BE80FFF758FC401B022878
:101120004FF00300F4D968E7306880017FF564AFC1
:10113000FFF74CFC401B02284FF00300F4D95CE79A
:1011400040F20800C2F20000006844F6D351C1F238
:101150006201A0FB0101480A019000BF00BF019895
:10116000411E002801913FF42FAF00BF0198411E9E
:10117000002801913FF428AF00BF0198411E0028CC
:1011800001913FF421AF00BF0198411E0028019159
:10119000E4D119E700210160FFF718FC054600BF04
:1011A000306880077FF50DAFFFF710FC401B022869
:1011B0004FF00300F4D920E7306A20F001003062DC
:1011C000306A20F004003062FFF700FC054641F26F
:1011D000883700BF306A800720D5FFF7F7FB401B38
:1011E000B8424FF00300F5D907E700BF306A40F07E
:1011F00004003062306A40F001003062FFF7E6FB25
:10120000054641F2883700BF306A800706D4FFF7F1
:10121000DDFB401BB842F7D937E000BFB8F1000F43
:101220007FF4D5AEF06920F08050F061CFE600BFCA
:10123000306820F480303060306820F480203060E6
:10124000FFF7C4FB054600BF306880037FF59DAE05
:10125000FFF7BCFB401B64284FF00300F4D9CCE639
:10126000306840F480203060306840F48030306076
:10127000FFF7ACFB054600BF306880033FF585AE45
:10128000FFF7A4FB401B6428F6D9032002B0BDE899
:10129000F08100BF206AB0F5803F05D17168A26877
:1012A00021F40031114371607168626A21F4741194
:1012B00011430843706001203866FFF787FB04463E
:1012C000306880013FF598AEFFF780FB001B0228D5
:1012D0004FF00300F4D990E6411E0020B0EB116FEF
:1012E0001CBF012070474EF21002CEF20002516086
:1012F0004EF62351CEF20001F0230B7007219060CF
:10130000116070477047000070470000B0B582B0B0
:10131000044600680168C368426901F02F05202D6A
:1013200003F0200506D12DB1204602B0BDE8B04043
:1013300000F0B6BE5FEA017C1EBF02F0010E03F4AE
:10134000907212EB0E0253D1226B012A05D111F0DB
:10135000100218BF13F0100236D10A0622D513F07E
:1013600080021FD094F8411021293FD1A168B1F526
:10137000805F03D12169002900F07082216A4A1C34
:10138000226209784160E18C01390A04E1842DD19F
:10139000C16821F08001C160C16841F04001C160B5
:1013A00002B0B0BD490621D513F040011ED0C1687E
:1013B00021F04001C1602021204684F8411002B094
:1013C000BDE8B04000F046BD0021019101680191E7
:1013D0004168019101994069400613D4A08DE18DC7
:1013E000E28D002A18BF884240F0BA8102B0B0BD39
:1013F000CA0718BF13F4807240F0B6804A0700F1A4
:10140000B980BEE0E06B016849688AB2002AEDD07D
:10141000A38D9A42EAD2E1858069202800F09C8061
:10142000206850E8030F216820F4807041E803022F
:10143000DAB1206850E8030F216820F4807041E899
:10144000030292B1206850E8030F216820F48070F5
:1014500041E803024AB1206850E8030F216820F4F4
:10146000807041E80302002ADAD1206850E8050FB5
:10147000216820F0010041E80502DAB1206850E857
:10148000050F216820F0010041E8050292B12068B3
:1014900050E8050F216820F0010041E805024AB13B
:1014A000206850E8050F216820F0010041E805029E
:1014B000002ADAD1206850E8050F216820F04000AA
:1014C00041E80502DAB1206850E8050F216820F0F4
:1014D000400041E8050292B1206850E8050F2168FC
:1014E00020F0400041E805024AB1206850E8050FAD
:1014F000216820F0400041E80502002ADAD12020CE
:1015000084F8420000202063206850E8030F21681F
:1015100020F0100041E80302DAB1206850E8030F20
:10152000216820F0100041E8030292B1206850E8E1
:10153000030F216820F0100041E803024AB120683F
:1015400050E8030F216820F0100041E80302002A50
:10155000DAD1E06BFFF794F802206063A08DE18D93
:10156000401A81B2204674E1626C42F0010262646A
:101570004A0706D5BEF1000F03D0626C42F00202AA
:1015800062648A0706D5BEF1000F03D0626C42F098
:1015900004026264BCF1000F09D545EA0E02B2FAFA
:1015A00082F2520903D1626C42F008026264626CFA
:1015B000002A3FF41BAF11F0200118BF002D03D00B
:1015C000204600F06DFD20684069616C00F040002D
:1015D00001F00801401800F0B58000BF206850E815
:1015E000030F216820F4907041E80302BAB3206829
:1015F00050E8030F216820F4907041E8030272B3B1
:10160000206850E8030F216820F4907041E803023D
:101610002AB3206850E8030F216820F4907041E855
:101620000302002ADAD11AE0206850E8050F216889
:1016300020F0010041E80502DAB1206850E8050F0A
:10164000216820F0010041E8050292B1206850E8CD
:10165000050F216820F0010041E805024AB1206829
:1016600050E8050F216820F0010041E80502002A3A
:10167000DAD1206B012824D1206850E8030F2168BB
:1016800020F0100041E80302DAB1206850E8030FAF
:10169000216820F0100041E8030292B1206850E870
:1016A000030F216820F0100041E803024AB12068CE
:1016B00050E8030F216820F0100041E80302002ADF
:1016C000DAD1202084F8420000202063206840699D
:1016D00040063FD5206850E8050F216820F0400003
:1016E00041E80502DAB1206850E8050F216820F0D2
:1016F000400041E8050292B1206850E8050F2168DA
:1017000020F0400041E805024AB1206850E8050F8A
:10171000216820F0400041E80502002ADAD1E06BA0
:10172000C0B142F29501C0F600014163FEF7CCFF63
:1017300000283FF45BAEE06B416B02B0BDE8B04007
:10174000084700BF2046FFF7DFFD0020606402B0BD
:10175000B0BD00BF204602B0BDE8B040FFF7D4BD29
:10176000401A216851E8031F226821F4907142E871
:101770000313DBB1216851E8031F226821F4907143
:1017800042E8031393B1216851E8031F226821F452
:10179000907142E803134BB1216851E8031F22689E
:1017A00021F4907142E80313002BDAD1216851E84B
:1017B000051F226821F0010142E80513DBB1216811
:1017C00051E8051F226821F0010142E8051393B199
:1017D000216851E8051F226821F0010142E8051344
:1017E0004BB1216851E8051F226821F0010142E850
:1017F0000513002BDAD1202184F842100021216347
:10180000216851E8031F226821F0100142E8031308
:10181000DBB1216851E8031F226821F0100142E882
:10182000031393B1216851E8031F226821F01001CE
:1018300042E803134BB1216851E8031F226821F0ED
:10184000100142E80313002BDAD1022281B22046B4
:10185000626302B0BDE8B040FFF754BD216A31F8C1
:10186000022B6FF35F22426021628CE5002804BFE7
:101870000120704710B5044690F8410028B90020B7
:1018800084F84000204600F063F8242084F84100EA
:101890002068D4E90212C36823F40053C3600369CB
:1018A00023F440531A430261D4E904231143C2686C
:1018B000194341F20C639A431143C1604169A26923
:1018C00021F44071114343F60002C4F20102904238
:1018D000416103D0FFF7FEFA02E000BFFFF70EFB05
:1018E0006268192148439100B0FBF1F048F21F51A2
:1018F000C5F2EB11A0FB01235A094FF69C73C0F609
:10190000FF7302FB0300322303EB0010A0FB010175
:10191000F02303EA5113206803EB0212C1F34311D1
:1019200011448160016921F490410161416921F014
:101930002A014161C16841F40051C16000202021A9
:10194000606484F8411084F84210606310BD0000A8
:10195000F0B585B0006844F20041C4F2000188424D
:101960004FF00001CDE90311CDE9011122D043F67A
:101970000001C4F20101884253D141F21800C4F2BF
:1019800002000168252441F48041016001684FF4A0
:10199000806701F4804100910099016841F00401E1
:1019A0000160006800F00400009000984FF400709F
:1019B00019E000BF41F21800C4F202004168262479
:1019C00041F4003141604168082701F40031009181
:1019D0000099016841F004010160006800F0040012
:1019E0000090009804200190022040F6000502902B
:1019F0000320C4F2010501AE049028463146FEF7EB
:101A0000D1FE0020CDE90200284631460197FEF7BD
:101A1000C9FE204600210022FFF73AF92046FFF7D1
:101A200023F905B0F0BD00002DE9F04381B0044674
:101A300090F84200202827D1884600294FF0010065
:101A400000F0C7801746002A00F0C3800020222142
:101A50001D46606484F842102063FEF7B7FFA78537
:101A6000E785A1680746B1F5805F03D120690028AA
:101A700000F0A68046464FF00008E08D002800F0F8
:101A8000A48005F1010910E0022001B0BDE8F08357
:101A9000406800266FF35F2028F8020BE08D0138C4
:101AA000E085E08D002800F09080206801688906BC
:101AB0000ED4B9F1000F19D055B300BFFEF786FF61
:101AC000C01BA84224D8206801688906F6D500BF4B
:101AD000002EDDD0A168B1F5805F15D009B921696C
:101AE00091B1406800F07F000FE000BF01688906F7
:101AF000EED4016889065CBF01685FEA8161E7D4C2
:101B000001688906F2D5E3E7406806F8010BC5E7EE
:101B1000206850E8030F216820F4D07041E80302E8
:101B2000E2B1206850E8030F216820F4D07041E84A
:101B300003029AB1206850E8030F216820F4D070A6
:101B400041E8030252B1206850E8030F216820F4F5
:101B5000D07041E80302002ADAD100BF206850E8C3
:101B6000050F216820F0010041E80502DAB1206884
:101B700050E8050F216820F0010041E8050292B10C
:101B8000206850E8050F216820F0010041E80502B7
:101B90004AB1206850E8050F216820F0010041E8B3
:101BA0000502002ADAD1202084F8410084F842009E
:101BB000002084F84000032001B0BDE8F08300BF9E
:101BC0000026E08D00287FF45CAF202084F84200DE
:101BD000002001B0BDE8F083704700002DE9F0431C
:101BE00081B0044690F84100202840F0B18088463A
:101BF00000294FF0010000F0D6801646002A00F0C0
:101C0000D2800020606421201D4684F84100FEF748
:101C1000DDFEA684E684A1680646B1F5805F03D1A7
:101C20002069002800F0988047464FF00008E18CBA
:101C30002068002900F0968005F101090BE000BF43
:101C400047B317F8011B4160E18C0139E184E18C55
:101C5000002900F0878001680906F1D4B9F1000F6E
:101C60000AD0EDB1FEF7B2FE801BA84218D820685A
:101C700001680906F6D5E3E701680906E0D40168C2
:101C800009065CBF01685FEA0161D9D401680906F1
:101C9000F2D5D5E738F8021B00276FF35F21D2E7B2
:101CA000206850E8030F216820F4D07041E8030257
:101CB000BAB3206850E8030F216820F4D07041E8DF
:101CC000030272B3206850E8030F216820F4D0703B
:101CD00041E803022AB3206850E8030F216820F48A
:101CE000D07041E80302002ADAD11AE0206850E8F7
:101CF000050F216820F0010041E80502DAB12068F3
:101D000050E8050F216820F0010041E8050292B17A
:101D1000206850E8050F216820F0010041E8050225
:101D20004AB1206850E8050F216820F0010041E821
:101D30000502002ADAD1202084F8410084F842000C
:101D4000002084F84000032001B0BDE8F08300BF0C
:101D5000022001B0BDE8F0830027E18C2068002953
:101D60007FF46AAF0168490619D4FDB1691C0DD131
:101D70000168490613D4016849065CBF01685FEA3F
:101D800041610CD401684906F2D508E0FEF71EFE59
:101D9000801BA8420AD8206800684006F6D520209B
:101DA00084F84100002001B0BDE8F083206850E8CD
:101DB000030F216820F4D07041E80302002A3ED0CE
:101DC000206850E8030F216820F4D07041E8030236
:101DD000AAB3206850E8030F216820F4D07041E8CE
:101DE000030262B3206850E8030F216820F4D0702A
:101DF00041E80302002AD9D121E000BF206850E861
:101E0000050F216820F0010041E80502002A3FF497
:101E100092AF206850E8050F216820F0010041E8EA
:101E20000502002A3FF487AF206850E8050F2168BB
:101E300020F0010041E80502002A3FF47CAF206851
:101E400050E8050F216820F0010041E80502002A52
:101E5000D4D170E7704700002DE9F04784B041F21B
:101E60001800C4F20200016840F6000941F00401C4
:101E700001600168C4F2010901F0040100910099B8
:101E80000168002241F0080101600068702100F043
:101E9000080000900098484670260027FEF790FD45
:101EA00009F5806528464FF4004100224FF40048B0
:101EB000FEF786FD00966E464FF0010A0224484662
:101EC0003146CDE901A70394FEF76CFC2846314664
:101ED000CDE9008ACDE90274FEF764FC4FF480700E
:101EE000CDE90007484631460297FEF75BFC04B097
:101EF000BDE8F08780B540F2906045F20041C2F243
:101F00000000C4F2000148F2A06200234FF4804CAC
:101F1000C0F2010280E80E00C0E9033CC0E90533CD
:101F2000C0E90733FEF758FD002808BF80BDBDE8B3
:101F30008040FEF79FBB000080B540F2E46043F6AE
:101F40000001C2F20000C4F2010100234FF00C0CAA
:101F50004FF4E13280E80E00C0E90333C0E905C365
:101F6000C361FFF783FC002808BF80BDBDE8804047
:101F7000FEF780BB80B540F22C7044F20041C2F203
:101F80000000C4F2000100234FF00C0C4FF4E132CA
:101F900080E80E00C0E90333C0E905C3C361FFF761
:101FA00065FC002808BF80BDBDE88040FEF762BB2D
:101FB000FEE70000FEE7000080B502F017FA02F02D
:101FC00045FFBDE8804002F01FBA0000B0B590B0F8
:101FD00006AC201D2421FEF77AFA0220069001208B
:101FE0000A9010200B90002520460D95FEF79AFFD1
:101FF00020B1EFF3108072B6FEE700BF0F20CDE9ED
:10200000010501A80021CDE903550595FEF77CFEE9
:1020100020B1EFF3108072B6FEE700BF10B0B0BD84
:1020200041F20400C4F20200016801F00C01082929
:1020300041F20021C0F27A0119D102680368C2F3AB
:102040008342DB0302F1020206D440F60011C0F223
:102050003D0151430BE000BF03689B0302D4514391
:1020600005E000BF40F60011C0F23D01514340F2CF
:102070000802C2F200021160006845F62623C0F390
:102080000310C0F60003185C21FA00F010607047DE
:1020900070470000406A0021C185C184FFF734B950
:1020A00081B090F84210222921D183680246B3F50D
:1020B000805F09D152F8281F52F8183C002B63D0DA
:1020C00003685B680AE000BF52F8281F13B9036970
:1020D000002BF5D003685B6803F07F030B70116879
:1020E00001311160C18D01390A04C18502D001B0EE
:1020F000704700BF0168CA6822F02002CA60CA683F
:1021000022F48072CA604A6922F001024A612021E9
:1021100080F8421000214163026B012A3CD1016327
:10212000016851E8031F026821F0100142E803131F
:10213000DBB1016851E8031F026821F0100142E899
:10214000031393B1016851E8031F026821F01001E5
:1021500042E803134BB1016851E8031F026821F004
:10216000100142E80313002BDAD101680A68D20695
:1021700006D5002200920A680092496800910099F1
:10218000818D01B0FFF7BEB8026852686FF35F221D
:1021900021F8022B8162A5E701B0FFF71DBD000009
:1021A00040F2E460C2F20000FFF7B0B840F22C70D9
:1021B000C2F20000FFF7AAB8FEE70000002804BF43
:1021C00000207047C1B209B101200CE010F47F413A
:1021D00002D0090A092006E010F47F0107BF010EB2
:1021E0001920090C112045F64022C0F60002515C6E
:1021F0000844704780B500F015FC002080BD000049
:10220000B0B584B040F2C00545F6987046F228019A
:10221000C2F20005C0F60000C0F60001C5E90001E9
:1022200040F21C10C2F2000040F2902228611520FA
:102230004FF48061C2F20002CDE90021029040F229
:10224000182042F2A5220A24C2F2000011A1C0F611
:1022500000020023039402F0D3FC2A6904460FA174
:1022600010460022002302F0E5FA286990F82110B8
:1022700041F0020180F8211014B1002004B0B0BD7B
:1022800040F21820C2F2000002F04CFD002004B021
:10229000B0BD00BF747368656C6C000073687278C1
:1022A0000000000040F2C00AC2F2000ADAF8100092
:1022B00040F2941490F82110C2F2000441F001029F
:1022C00080F82120880703D4002020701AE000BF86
:1022D00001F008FB30B10020207147F26D30C2F2EE
:1022E000680009E046F67300C0F22000C4F803005D
:1022F00046F66610C7F26E3020602046FEF753F8AF
:102300003E212152204602F08DF845F678764FF0B6
:10231000010B4FF00008C0F60006022702E000BFE4
:1023200080F820B001F0EAFD8146DAF81000B9F13A
:102330001B0FF5D090F82010022909D0012940F098
:102340007580B9F15B0F40F06F8080F82070E9E78D
:10235000A9F14101022980F82080E3D3B9F1440FAB
:1023600000F29280DFE819F046009700970097008E
:102370009700970097009700A000E000700097007A
:1023800097007000970097009700970097009700BC
:102390009700970097009700970097009700970085
:1023A0009700970097009700970097009700970075
:1023B0009700970097009700970097009700970065
:1023C0009700970097009700970097009700970055
:1023D0009700970097009700970097009700970045
:1023E0009700970097009700970097009700480084
:1023F000980100BF96E700BFB0F87410B0F87220E3
:102400009142BFF48FAF084490F8221045F67A70DD
:10241000C0F6000002F006F8DAF81000B0F8741008
:102420000131A0F874107DE780F82080B9F10D0F1C
:102430002AD8DFE809F007303030303030303979D1
:10244000093030096EE700BF01F04CFA012812D1C3
:10245000DAF8100090F82110C90707D045F6F950B6
:10246000C0F6000001F0DEFFDAF81000B0F87210DC
:10247000223000F0EDFFDAF8100090F8210080071C
:1024800078D484F80080FDE0B9F17F0F0CD0B9F169
:10249000FF0F3FF447AFB0F87220502A76D30022E6
:1024A000A0F87220A6E000BFB0F8741000293FF435
:1024B00039AFB0F872200139531E9AB2A0F87230C9
:1024C0008BB29A42A0F8741040F2B680C11801F1A4
:1024D00022002331D21A01F0BFFFDAF81000B0F861
:1024E0007210084480F82280DAF81000B0F87410F6
:1024F000084400F1220181A001F094FFDAF81010E5
:10250000B1F87400B1F8721088423FF60BAF451E67
:10251000304601F087FFDAF810000135B0F872009C
:102520008542F5D3FEE600BFB0F8741051B1002526
:10253000304601F077FFDAF810000135B0F874107A
:102540008D42F5D300F1220545F6F950C0F60000A2
:1025500001F068FF01F0C6F9012802D1284600F019
:10256000B5FEDAF8100090F82100800770D484F8E6
:102570000080B1E001F0B6F9002873D047F26D3069
:1025800084F80480C2F2680076E000BFB0F87430CE
:102590009A422FD9C11801F123002231D21A01F039
:1025A0005BFFDAF81000B0F87410084480F822904D
:1025B000DAF8100090F82110C90709D0B0F87410AB
:1025C000084400F1220151A001F02CFFDAF81000BC
:1025D000B0F87450B0F872108D421DD2304601F040
:1025E00021FFDAF810000135B0F872108D42F5D3F2
:1025F00012E000BF104480F82290DAF8100090F842
:102600002110C90708D045F67A70C0F60000494687
:1026100001F008FFDAF81000B0F87210B0F874207A
:102620000131A0F8721089B201325029A0F874204B
:1026300028BFC0F8728075E62FA001F0F3FEDAF82B
:102640001000B0F87210084480F822806AE600BFDB
:1026500001F048F980B347F26D3084F80480C2F28B
:10266000680033E046F67300C0F22000C4F80300AF
:1026700046F66610C7F26E3020602046FDF793FEE6
:102680003E212152204601F0CDFEDAF810005421FF
:102690002230FDF7FAFE45E6B0F8740000283FF45A
:1026A00041AE304601F0BEFEDAF81000B0F874100A
:1026B0000139A0F8741035E646F67300C0F2200028
:1026C000C4F8030046F66610C7F26E30206020465C
:1026D000FDF769FE3E2121520AA021462A4601F05B
:1026E000A1FEDAF8105005F12200FDF75CFEA5F816
:1026F0007200A5F8740015E608200800082573206C
:1027000020080000257325730000000025730000D9
:1027100080B502A001F086FE002080BD48656C6C8B
:102720006F2052542D546872656164210A000000C4
:102730002DE9F04381B016A001F074FE40F2C00014
:1027400040F2C409C2F20000C2F200090768D9F8D9
:102750000050AF4218D213A40FF24C0803E000BFA0
:102760000C37AF4210D23E68214630460222FDF7B8
:1027700039FE0028F4D07A684046314601F052FE16
:10278000D9F80050ECE700BF002001B0BDE8F083AD
:102790002D2D46756E6374696F6E204C6973743AA3
:1027A0000A0000005F5F0000252D313673202D2DBB
:1027B0002025730A000000002DE9F04F8DB00220A3
:1027C00001F04EFF00F104087BA082A2082101F075
:1027D00029FE45F63674C0F60004204601F022FEBC
:1027E000204601F01FFE204601F01CFE204601F0AD
:1027F00019FE204601F016FE204601F013FE204689
:1028000001F010FE204601F00DFE75A001F00AFE59
:1028100000260DF1140B7CA77CA4CDF80C8005E0FC
:10282000049EDDF80C80002E00F0C2803546002E9C
:1028300008BF4546FDF7CCFC36B115F8041C01F085
:102840007F01022940F0B2802968414500F0AE8046
:102850000A68059142451DD01168069241451DD078
:102860000A68079142451DD01168089241451DD064
:102870000A68099142451DD011680A9241451DD050
:102880000A680B9142451DD04FF00808114604928A
:102890000C921BE04FF0010816E000BF4FF0020859
:1028A00012E000BF4FF003080EE000BF4FF0040835
:1028B0000AE000BF4FF0050806E000BF4FF0060831
:1028C00002E000BF4FF007080021049151A5FDF779
:1028D00083FC4FF0000906E04DA001F0A3FD09F1D3
:1028E0000109C1459CD05BF829A0FDF771FC1AF8DD
:1028F000041C01F07F06FDF76FFC022EEFD1AAF158
:102900000C035AF8081F0026BAF80800514511D0E8
:10291000514600BF0968514521D0096851451BD077
:10292000096851451AD0096804365145F2D1013E73
:1029300015E000BF514600BF096851452DD0096818
:10294000514527D00968514526D0096804365145BC
:10295000F2D1013E21E000BF013600E002360090D6
:1029600025A008210822019601F05CFDDAF800603C
:102970005645B1D0A6F11401384601F053FD306838
:102980005045A9D0204601F04DFD36685645F1D19D
:10299000A2E700BF013600E0023600902846082179
:1029A0000822019601F03EFD99E700BFFDF714FCF7
:1029B00000200DB0BDE8F08F252D2A2E7320762043
:1029C000202073757370656E64207468726561642D
:1029D0000A00000073656D6170686F726500000029
:1029E000202D2D2D202D2D2D2D2D2D2D2D2D2D2D31
:1029F0002D2D2D0A00000000252D2A2E2A732025BA
:102A00003033642025643A00257300002F00000055
:102A10000A000000252D2A2E2A7320253033642039
:102A200025640A002DE9F04F8DB0012001F018FE59
:102A3000051D45F6C160C0F6000071A2082101F035
:102A4000F1FC45F63674C0F60004204601F0EAFCBD
:102A5000204601F0E7FC204601F0E4FC204601F0AE
:102A6000E1FC204601F0DEFC204601F0DBFC2046C4
:102A700001F0D8FC204601F0D5FC63A001F0D2FCA7
:102A800000240DF1140A039505E000BF049C039D8A
:102A9000002C00F0B1802646002C08BF2E46FDF722
:102AA00097FB34B116F8041C01F07F01012940F0B6
:102AB000A1803168A94200F09D800A680591AA4270
:102AC0001ED011680692A9421ED00A680791AA4238
:102AD0001ED011680892A9421ED00A680991AA4224
:102AE0001ED011680A92A9421ED00A680B91AA4210
:102AF0001ED04FF00808114604920C921CE000BF53
:102B00004FF0010816E000BF4FF0020812E000BFCE
:102B10004FF003080EE000BF4FF004080AE000BFCA
:102B20004FF0050806E000BF4FF0060802E000BFC6
:102B30004FF0070800210491FDF74EFB4FF000090C
:102B400006E000BFFDF748FB09F10109C1459DD032
:102B50005AF829B0FDF73CFB1BF8041C01F07F017B
:102B60000129EFD1ABF10C06FDF736FB9BF82940AC
:102B700035A0082108223346009401F053FC9BF84D
:102B8000280000F00F00042804D832A151F82000DA
:102B900001F048FCDBF81C00014600BF0A78232A3C
:102BA0000FD14A78232A09D18A78232A08D1CA78F2
:102BB0000431232AF2D0013903E000BF013100E0E3
:102BC0000231DBE90824DBF810601718401A1044C2
:102BD00064214843DBF83450B0FBF2F3B91B22A068
:102BE0000095019401F01EFC09F10109C145AFD126
:102BF0004CE700BFFDF7F0FA00200DB0BDE8F08F04
:102C00007468726561640000202D2D2D20202D2D0B
:102C10002D2D2D2D2D202D2D2D2D2D2D2D2D2D2DF1
:102C2000202D2D2D2D2D2D2D2D2D2D20202D2D2DFB
:102C30002D2D2D20202D2D2D2D2D2D2D2D2D2D20EB
:102C40002D2D2D0A00000000252D2A2E2A73202567
:102C500033642000055F0008175F0008385F000834
:102C6000415F00080E5F000820307825303878205A
:102C700030782530387820202020253032642525F2
:102C800020202030782530387820253033640A0021
:102C90002DE9F04F8FB00A2001F0E2FC00F1040AA8
:102CA0000FF2A8400FF2CC42082101F0BBFB45F621
:102CB0003674C0F60004204601F0B4FB204601F053
:102CC000B1FB204601F0AEFB204601F0ABFB2046F5
:102CD00001F0A8FB204601F0A5FB204601F0A2FB75
:102CE000204601F09FFB0FF2944001F09BFB4FF058
:102CF000000923E0A4F10C07FDF76EFAD4E90605FC
:102D00000821009045F62070C0F6000008223B46DE
:102D1000019501F087FB14F8030CC00707BF45F6C7
:102D2000B460C0F6000045F6B660C0F6000001F0E1
:102D300079FB00BFB9F1000F00F0FE814C46B9F1FC
:102D4000000F08BF5446FDF743FAB9F1000F06D053
:102D500014F8041C01F07F010A2940F0EB8121687E
:102D6000514500F0E781D1F800B00791D34523D059
:102D7000DBF80010CDF820B0514521D00A68099148
:102D8000524500F0F78011680A92514500F0F88032
:102D90000A680B91524500F02D8111680C92514543
:102DA00000F06681D1F800900D91D14500F06C8162
:102DB000CDF8389002E000BF4FF00009002102E09A
:102DC0004FF0000901210026069100250021059100
:102DD0000021049100210391FDF7FEF9DDF81C802C
:102DE000FDF7F6F918F8041C01F07F010A2921D13A
:102DF000A8F10C07FDF7F0F9D8E9060408210090C6
:102E000045F62070C0F6000008223B46019401F010
:102E100009FB18F8030CC00707BF45F6B460C0F6FD
:102E2000000045F6B660C0F6000001F0FBFAD3459D
:102E300005D17FE7FDF7D0F9D3453FF47BAF089C80
:102E4000FDF7C6F914F8041C01F07F010A2927D107
:102E5000B0462E46A4F10C07FDF7BEF9D4E90605ED
:102E60000821009045F62070C0F6000008223B467D
:102E7000019501F0D7FA14F8030CC00707BF45F617
:102E8000B460C0F6000045F6B660C0F6000001F080
:102E9000C9FA35464646069800287FF44BAF05E050
:102EA000FDF79AF9069800287FF444AF099CFDF7D6
:102EB0008FF914F8041C01F07F010A2926D1B046CD
:102EC0002E46A4F10C07FDF787F9D4E90605082181
:102ED000009045F62070C0F6000008223B460195A0
:102EE00001F0A0FA14F8030CC00707BF45F6B46060
:102EF000C0F6000045F6B660C0F6000001F092FA98
:102F000035464646002E7FF415AF04E0FDF764F920
:102F1000002E7FF40FAF0A9CFDF75AF914F8041C39
:102F200001F07F010A2933D12E46A4F10C07FDF7E9
:102F300053F9D4E906050821009045F62070C0F643
:102F4000000008223B46019501F06CFA14F8030CCE
:102F5000C00707BF45F6B460C0F6000045F6B6608E
:102F6000C0F6000001F05EFA3546002D7FF4E2AEB7
:102F700013E000BF002101264FF0000924E700BF45
:102F8000002101254FF00009069100261EE700BF31
:102F9000FDF722F9002D7FF4CDAE0B9CFDF718F95B
:102FA00014F8041C01F07F010A292DD1A4F10C07AB
:102FB000FDF712F9D4E906050821009045F62070C6
:102FC000C0F6000008223B46019501F02BFA14F8E8
:102FD000030CC00707BF45F6B460C0F6000045F615
:102FE000B660C0F6000001F01DFA059800287FF4D5
:102FF000A1AE0FE00121059100214FF000090691DB
:1030000000260025E4E600BFFDF7E6F80598002855
:103010007FF490AE0C9CFDF7DBF814F8041C01F073
:103020007F010A293ED1A4F10C07FDF7D5F8D4E9B8
:1030300006050821009045F62070C0F60000082221
:103040003B46019501F0EEF914F8030CC00707BFE9
:1030500045F6B460C0F6000045F6B660C0F6000064
:1030600001F0E0F9049800287FF464AE20E000BF8E
:10307000012104910021069100214FF00009002652
:1030800000250591A6E600BF0121039100210691CC
:103090000021059100214FF0000900260025049130
:1030A0009AE600BFFDF798F8049800287FF442AE36
:1030B0000D9CFDF78DF814F8041C01F07F010A291E
:1030C00024D1A4F10C07FDF787F8D4E906050821FF
:1030D000009045F62070C0F6000008223B4601959E
:1030E00001F0A0F914F8030CC00707BF45F6B4605F
:1030F000C0F6000045F6B660C0F6000001F092F997
:10310000039800287FF416AE06E000BFFDF764F8D0
:10311000039800287FF40EAE0E9CFDF759F814F8C2
:10312000041C01F07F010A293FF4E4ADFDF754F8D7
:1031300000E600BFFDF750F801F082FE014618A03E
:1031400001F070F900200FB0BDE8F08F252D2A2E78
:10315000732020706572696F646963202020746930
:103160006D656F757420202020202020666C6167BB
:103170000A00000074696D6572000000202D2D2D7D
:103180002D2D2D2D2D2D2D202D2D2D2D2D2D2D2D7C
:103190002D2D202D2D2D2D2D2D2D2D2D2D2D0A00BC
:1031A00063757272656E74207469636B3A3078254A
:1031B0003038780A00000000A6B0FDF7FBFC6C4632
:1031C000201D2421FDF783F90220009001200490A6
:1031D00010200590002520460795FDF7A3FE28B195
:1031E000EFF3108072B600BFFEE700BF0F20CDE9FD
:1031F000190519A80021CDE91B551D95FDF784FD82
:1032000020B1EFF3108072B6FEE700BFFEF724FE98
:10321000FEF770FEFEF790FEFEF7ACFE45F6ED41C0
:1032200019ACC0F6000116A218A32046FDF74AF813
:103230002046FDF7B8F840F2E465C2F2000582B21C
:10324000284621464FF0FF33FEF7C8FC6C4628465F
:10325000214664224FF0FF33FEF7E6FB2046FDF7E0
:10326000A2F882B240F22C70C2F2000021464FF068
:10327000FF33FEF7B3FC00BF0220FDF77FFAFBE748
:10328000417370795261696E000000004C787232AF
:103290003030333031303600B0B545F6947445F6F1
:1032A0008C70C0F60004C0F60000A04209D245F6BA
:1032B0008C75C0F6000500BF55F8040B8047A54289
:1032C000FAD3BDE8B040FFF777BF00002DE9F04F1B
:1032D00081B083460078A8B140F2C000C2F200007D
:1032E000056840F2C400C2F20000D0F800804545F5
:1032F00080F0A88045F671794FF0000AC0F6000909
:1033000000264CE045F64A70C0F6000001F08AF84D
:1033100040F2C00040F2C409C2F20000C2F200094B
:103320000768D9F80050AF421CD245F6717445F6D3
:103330006578C0F60004C0F6000802E00C37AF4222
:1033400010D23E68214630460622FDF74BF8002891
:10335000F4D17A68B11D404601F064F8D9F8005004
:10336000ECE700BF45F6F950C0F6000001B0BDE83B
:10337000F04F01F057B800BF481C801B5045B8BF44
:10338000824632A0394601F04DF840F2C400C2F244
:103390000000D0F8008000BF0C35454548D22F68AA
:1033A000494638460622FDF71DF80028F4D1584654
:1033B0000637FCF7F8FF024658463946FDF712F883
:1033C0000028E9D1BAF1000F04D03178304651B964
:1033D000D3E700BF3846FCF7E6FF82463E46317829
:1033E00030460029C9D000203A5CDAB1914219D1A7
:1033F00031184B78002BBFD03A185478002CBBD032
:10340000A342B9D18B787BB194786CB1A3420BD134
:10341000CB785BB1D2784AB1934207D109790430B5
:103420000029E1D13044A8E7881CA6E7C81CA4E71E
:1034300046B158463146524601B0BDE8F04F01F062
:103440007DBA00BF01B0BDE8F08F00BF25730A0050
:103450002DE9F04F8BB049B3CF1E8E1E4D1E0023B9
:1034600003E000BF0433994220D0C25C202A01D07F
:10347000092A1FD19D4219D0C4186278202A01D090
:10348000092A1DD19E4211D0A278202A01D0092AF2
:103490001CD19F420AD0E278202AE3D0092AE1D049
:1034A000C81AA0F1030804F1030A14E000200BB0CD
:1034B000BDE8F08FA1EB030800EB030A0BE000BFAF
:1034C000D84300EB010804F1010A04E0C81AA0F196
:1034D000020804F1020AC8F10000A8F10101002568
:1034E000D2B2092A2DD0202A2BD0A84520D00AEB11
:1034F00005025378092B1FD0202B1DD0A94217D0CD
:103500009378092B1CD0202B1AD043199F1C0FD065
:10351000D778092F00F03681202F00F03381033354
:1035200006D012790435D2B2092ADCD109E000BFF5
:1035300045464DB92AE100BF01352DB926E100BF4E
:103540000235002D00F0228140F2C000C2F20000DE
:10355000046840F2C400C2F200000668B44280F081
:10356000158145F6717905F1060BC0F6000903E0F7
:103570000C34B44280F00A81276849463846062256
:10358000FCF730FF0028F3D1B81D51462A46FCF75E
:1035900029FF0028ECD117F80B000028E8D1A0681B
:1035A0000028009000F0F2804FF0000C4FF000096E
:1035B00000265246CDE909CCCDE907CCCDE905CCB2
:1035C000CDE903CC4146CDF80890464588BF314649
:1035D000751A05F10109002096460196175C202F07
:1035E00001D0092F42D115EB000B2BD014186778AE
:1035F00002F800C0202F01D0092F39D119EB000C9F
:1036000024D0A7784FF0000C202F84F801C001D0FF
:10361000092F31D11BF1020320D0E77884F802C0D2
:10362000202F01D0092F2BD11BF103031AD084F8CE
:1036300003C00EF1040E04360430175C202FD0D1E5
:10364000D1E700BF02EB000E1FE000BFDDF80890DD
:1036500004F1010E4FF0000C19E000BF04F1020E5E
:1036600013E000BF0EF1030E0FE000BF31460CE087
:103670000EF1010E711C08E00EF1020EB11C04E007
:10368000019904F1030E0844C11CDDF80890B9F15A
:10369000080F80F0AD80414580F0BE80222F21D1FF
:1036A0000EF1010203A840F829209EF80170481C81
:1036B00004E000BF12F8017F0146013040454FF0A1
:1036C000000338BF0123222F42D0404540D25C2F57
:1036D000F0D1134613F8017F222F04BF1A46881C2D
:1036E000E8E700BF03A840F829E04046414588BF0D
:1036F00008460A1A09F10109571C00201EF800604B
:10370000092E21D0202E1FD0161800F088800EEB35
:1037100000056C78092C23D0202C21D03B1800F018
:103720007E80AC78092C1FD0202C1DD0B31C76D005
:10373000EC78092C1CD0202C1AD0F31C6FD004304C
:103740001EF80060092EDDD10EEB00020E1812E00B
:10375000002B09F1010962D002F801CB8E1C0CE0AC
:1037600008446A1C461C06E00844AA1C861C02E0A9
:103770000844EA1CC61C464551D24645FFF422AF18
:103780004DE000BF0335002D7FF4DEAE00201AF8B7
:10379000001041F02001202917D00AEB00014A78DF
:1037A00042F02002202A13D08A7842F02002202AF8
:1037B00010D0CA7842F02002202A0DD004301AF826
:1037C000001041F020012029E7D1504405E000BF5E
:1037D000481C02E0881C00E0C81C002101701CA0ED
:1037E000514600F01FFE4FF0FF300BB0BDE8F08FE8
:1037F0000EA000F017FE03A8041F14A64D4654F8AF
:10380000041F304600F00EFE013DF8D145F6F95098
:10381000C0F6000000F006FEB9F1000FB6D0009A25
:1038200003A9484690470BB0BDE8F08F546F6F2056
:103830006D616E7920617267732021205765206F5A
:103840006E6C79205573653A0A00000025732000DC
:1038500025733A20636F6D6D616E64206E6F742006
:10386000666F756E642E0A002DE9F04381B045F64F
:103870004A70C0F6000000F0D5FD40F2C00040F2F2
:10388000C409C2F20000C2F200090768D9F800506A
:10389000AF421DD245F6717445F66578C0F6000456
:1038A000C0F6000803E000BF0C37AF4210D23E68FC
:1038B000214630460622FCF795FD0028F4D17A68AF
:1038C000B11D404600F0AEFDD9F80050ECE700BF56
:1038D00045F6F950C0F6000000F0A4FD002001B04C
:1038E000BDE8F083012070472DE9F04F8AB00591C3
:1038F00015990FF2D4464F060FF2E04858BFB04674
:10390000CE06DDE9134948BF21F00101CE074FF093
:10391000300A08BF4FF0200A8E070DD40027019708
:10392000002701250097002A00F09A80CDE9025176
:10393000CDF810A013E000BFB2F1FF3F06DD4E0747
:1039400000F186800E07E9D5202782E00127019744
:10395000002702972D27CDE9031A524200974CF613
:10396000CD494FF0000BCCF6CC490DF1180A00BF41
:10397000A2FB09561409F50802F00F0705EB850CA8
:1039800025460A2B04BFF508A2EB4C0718F8077070
:10399000002D0AF80B7049D0A5FB097C04F00F0735
:1039A000140ACE464FEADC06A14606EB86060A2B31
:1039B00004BF4FEADC09A5EB460718F807500AEBED
:1039C0000B0CB9F1000F59468CF8015032D0A9FB0D
:1039D0000E5604F00F05140B5146F708A24607EBEC
:1039E00087070A2B04BF4FEAD60AA9EB470518F848
:1039F0000550BAF1000F8CF802501FD0AAFB0E56EA
:103A000004F00F04120CF50805EB85050A2B04BF22
:103A1000F208AAEB450418F80440F1460BF1040B38
:103A2000002A8A468CF80340A2D109E00BF1010B71
:103A300006E000BF0BF1020B02E000BF0BF1030B2D
:103A4000DDF810A0DDE90251DDE913490DE000BF0A
:103A50002B270097002501270197002A7FF466AFE6
:103A600030228DF818204FF0010BDDF814E0CB4523
:103A70004B46C8BF5B4611F0110FA4EB03025FD0A9
:103A800006462DB976453CBF00983070013A0136A4
:103A9000C80631D4551EC0F28D8012F0030700F025
:103AA0009580764538BF86F800A0012F06F1010009
:103AB00040F09680023A0646032DC0F08B80101D20
:103AC000764506F1010238BF86F800A0724538BF7E
:103AD00082F800A0B21C724538BF82F800A0F21C28
:103AE0007245A0F1040038BF82F800A0032806F157
:103AF0000406E5DC4FF0FF323046CB455EDAA3EB3F
:103B00000B076FEA0B0617F0030703EB060C57D001
:103B100070453CBF302404705D1E012F00F101048C
:103B200009D07445A3F102053CBF30262670022F50
:103B300000F102046CD12046BCF1030F73D28BE07C
:103B40000027002AC8BF0127019E3740D71B7A1ED5
:103B500096DB17F0030C51D070453CBF2024047055
:103B6000BCF1010F00F1010640F00481023F304634
:103B7000032A46D33A1D2026704500F1010738BFBD
:103B80000670774538BF3E70871C774538BF3E705A
:103B9000C71C7745A2F1040238BF3E70032A00F12A
:103BA0000400E9DC4FF0FF320646002D3FF46AAF17
:103BB0006EE700BF30462A46CB45A0DB04464BE00B
:103BC0001D46BCF1030F2ED246E000BF2A46032D4E
:103BD000BFF475AF4FF0FF32CB45FFF690AFEDE786
:103BE000704538BF80F800A0022F06F1020040F0B7
:103BF000D180033A0646032DECD360E71746032A2B
:103C0000B8D24FF0FF32002D3FF43CAF40E700BF89
:103C100003307445A3F103053CBF302323700446F1
:103C2000BCF1030F18D33023044600BF744504F1E0
:103C3000010038BF2370704538BF0370A01C704569
:103C400038BF0370E01C7045A5F1040538BF037050
:103C5000AB4504F10404E9DBB9F1000F35D006A847
:103C6000023807E0ABF1040B0BF10403042B04F161
:103C700004042AD9744503D200EB0B035B7823704C
:103C8000BBF1020F04F101031EDB73453CBF10F8CA
:103C90000B701F70BBF1030F04F1020314D37345C3
:103CA00004D200EB0B0717F8017C1F70BBF1040F67
:103CB00004F1030308D37345D4D200EB0B0717F8C4
:103CC000027C1F70CEE700BF1C46012A12DB12F0F7
:103CD0000307A2F1010311D074453CBF20202070DE
:103CE000012F04F101000DD11A460446032B3ED3E7
:103CF00022E000BF20460AB0BDE8F08F032B36D388
:103D00001AE000BF7045A2F102063CBF20250570F5
:103D1000022F04F1020005D132460446032B26D3BC
:103D20000AE000BF03347045A2F103023CBF202724
:103D300007702046032B1AD3013A2023204600BFE8
:103D4000704500F1010738BF0370774538BF3B70FD
:103D5000871C774538BF3B70C71C7745A2F104022A
:103D600038BF3B7012F1020F00F10400E8D30AB033
:103D7000BDE8F08F76453CBF20243470BCF1020FC3
:103D800000F1020612D1033F3046032AFFF439AF97
:103D9000F0E600BF0336704538BF80F800A0043A53
:103DA0003046032DBFF48BAE14E700BF764503D237
:103DB0002C462025357025460330043F0646032A4D
:103DC000BFF4D8AE1DE700BF30313233343536375B
:103DD0003839616263646566000000003031323357
:103DE00034353637383941424344454600000000F7
:103DF000B0B545F68C7445F68470C0F60004C0F684
:103E00000000A04228BFB0BD45F68475C0F600058D
:103E100055F8040B8047A542FAD3B0BD80B5FCF736
:103E2000D7F940F2A001C2F200014A8801324A806B
:103E3000BDE88040FCF7D0B9B0B5FCF7C9F940F255
:103E4000A005C2F2000569880446481E01B2002997
:103E5000688005DD2046BDE8B040FCF7BDB900BF75
:103E6000002068802046FCF7B7F96868002808BF82
:103E7000B0BDFCF7ADF9698804460029EAD1A8680D
:103E8000FEF79CF9421E40F6F840C2F2000050F8DE
:103E900032106868A1F114038342DBD02A7040F627
:103EA00070426B60C2F2000212781C3001F108010E
:103EB00032B1FCF794F92046BDE8B040FCF78CB96C
:103EC000FCF78DF92046BDE8B040FCF785B900004D
:103ED00080B5FCF76FFEFEF779F8FEF7A1F8FCF766
:103EE000F3FF44F6D351C1F26201A0FB010188093E
:103EF000FDF7F2F9BDE88040FFF77ABF80B540F2E8
:103F0000D400C2F2000000680168890606D40A20C5
:103F100000F0BEFEFF20C0B280BD00BF4068C0B24E
:103F200080BD0000F0B581B004460D208DF803007F
:103F300040F2D400C2F20000002180F84010204678
:103F400000F0E4FCE0B140F2D4060546C2F20006FF
:103F50000DF103070AE000BF30462146012201238C
:103F6000FDF73CFE013D04F1010409D020780A2848
:103F7000F2D13046394601220123FDF72FFEEBE74F
:103F800001B0F0BD10B540F66841C2F20001096809
:103F9000044621B120468847002808BF10BD216C87
:103FA00045F6EE50C0F6000000F03CFA616A45F6B6
:103FB000AD50C0F6000000F035FAA16A45F6BA50DF
:103FC000C0F6000000F02EFAE16A45F6C750C0F6D0
:103FD000000000F027FA216B45F6D450C0F600002F
:103FE00000F020FA616845F6E150C0F6000000F0EC
:103FF00019FAA168C4A000F015FAE168C6A000F0A3
:1040000011FA2169C8A000F00DFA6169CAA000F098
:1040100009FAA169CCA000F005FAE169CEA000F090
:1040200001FA216AD0A000F0FDF9616BD2A000F086
:10403000F9F9A16BD4A000F0F5F9E16BD6A000F07E
:10404000F1F92078400707D445F60750C0F6000084
:1040500000F0E8F90BE000BF00F022FE014645F653
:104060002150C0F6000000F0DDF9FEF7DBFC4EF653
:104070002954CEF20004D4F80300800705D545F694
:104080008B50C0F6000000F0CDF9D4F803004000DA
:1040900040F1F880207830B345F65F50C0F600005C
:1040A00000F0C0F9217845F67260C0F6000000F01B
:1040B000B9F92078C00745D1207880074BD4207803
:1040C000400751D42078000757D42078C0065DD42B
:1040D00094F90000B0F1FF3F60DD45F6F950C0F6FD
:1040E000000000F09FF914F8010C002800F0958002
:1040F00045F63E50C0F6000000F094F914F8011C9B
:1041000045F68860C0F6000000F08CF914F8010C48
:10411000C00751D114F8010C800757D414F8010CD2
:1041200000075DD414F8010CC00663D414F9010C27
:10413000B0F1FF3F69DD45F6F950C0F6000000F030
:1041400071F96AE045F65D60C0F6000000F06AF9BA
:1041500020788007B3D545F65260C0F6000000F025
:1041600061F920784007ADD545F65060C0F60000F3
:1041700000F058F920780007A7D545F64660C0F64C
:10418000000000F04FF92078C006A1D586A000F00D
:1041900049F994F90000B0F1FF3F9EDCD4F80F100C
:1041A00045F66B50C0F6000000F03CF914F8010C25
:1041B00000289DD131E000BF45F62160C0F6000027
:1041C00000F030F914F8010C8007A7D545F6176008
:1041D000C0F6000000F026F914F8010C0007A1D584
:1041E00045F64560C0F6000000F01CF914F8010C1B
:1041F000C0069BD545F63C60C0F6000000F012F901
:1042000014F9010CB0F1FF3F95DCD4F80B1045F622
:104210007B50C0F6000000F005F9B4F8010088B347
:1042200045F65150C0F6000000F0FCF8B4F801105B
:1042300045F69E60C0F6000000F0F4F8B4F8010006
:10424000C0072DD1B4F80100800733D4B4F80100C1
:10425000400739D4B4F8010000073FD4B4F8010096
:10426000C00545D4B4F80100800505D545F62B609E
:10427000C0F6000000F0D6F845F6F950C0F6000090
:1042800000F0D0F8D4F80300B0F1FF3F06DC45F6AB
:10429000A050C0F6000000F0C5F800BFFEE700BF68
:1042A00045F66660C0F6000000F0BCF8B4F8010006
:1042B0008007CBD545F60D60C0F6000000F0B2F8DF
:1042C000B4F801004007C5D545F6FB50C0F6000024
:1042D00000F0A8F8B4F801000007BFD545F6366035
:1042E000C0F6000000F09EF8B4F80100C005B9D592
:1042F00045F60260C0F6000000F094F8B4F8010042
:104300008005B3D4B8E700BF7230353A2030782545
:104310003038780A000000007230363A20307825B4
:104320003038780A000000007230373A20307825A3
:104330003038780A000000007230383A2030782592
:104340003038780A000000007230393A2030782581
:104350003038780A000000007231303A2030782579
:104360003038780A000000007231313A2030782568
:104370003038780A000000007231323A2030782557
:104380003038780A00000000206C723A203078251E
:104390003038780A000000002070633A2030782519
:1043A0003038780A0000000053544B455252200028
:1043B00004324BF6EF6C22F00702CDF6AD6C42F8FA
:1043C00040CDC2E901CCC2E903CCC2E905CCC2E9C7
:1043D00007C100214FF0807CC2E90D301046C2E9D0
:1043E0000911C2E90B11C2F83CC0704780B5FBF758
:1043F000EFFE40F67041C2F200010A7801320A7005
:10440000BDE88040FBF7E8BE80B5FBF7E1FE40F673
:104410007041C2F200010A78013A0A70BDE880409A
:10442000FBF7DABE83B010B581B040F6784484461D
:1044300003A8C2F200040EC003AB20467F216246EF
:10444000009300F0CDFE2046FFF76CFD01B0BDE803
:10445000104003B070470000B0B5814214D28B18F1
:10446000834211D9002A47D000EB020E12F003015B
:10447000A2F1010C4FD013F8014D01290EF8014DA6
:104480003CD1624647E000BFB2B312F00304A2F190
:10449000010C09D08E461EF8015B0346012C03F87F
:1044A000015B05D1624613E08E46034610E000BF73
:1044B0004B78022C437005D1023A01F1020E831CA5
:1044C00006E000BF01F1030E8978033AC31C817036
:1044D000BCF1030F38BFB0BDAEF10401043B00BF17
:1044E00011F8045F043A03F8045F4D785D708D782D
:1044F0009D70CD78DD70F3D1B0BD00BF13F8014DD4
:1045000002290EF8014D01D1023A04E013F8011D11
:10451000033A0EF8011DBCF1030FEDD3AEF1040117
:10452000023B00BF5C78043ACC701C788C7013F8A6
:10453000014C4C7013F8024CA3F1040301F8044938
:10454000F0D1D9E770B5042A06461BD316F0030054
:1045500018D1C8B24FF00133102A00FB03F313D374
:10456000A2F1100C012000EB1C1010F003000DD084
:104570000128C6E90033B360F36009D106F11000E9
:10458000624616E0304650E030462EE0304610E0FD
:104590000228C6E90433B361F36103D106F12000B8
:1045A000203A06E006F13000303AC6E90833C6E9A1
:1045B0000A33BCF1300F16D300F14004403AC0E991
:1045C0000033C0E90233C0E90433C0E90633C0E96F
:1045D0000833C0E90A33C0E90C33C0E90E330F2AAF
:1045E0002046E9D82046042A1FD30446151F042D6F
:1045F00040F8043B18D3A2F10805042D63600DD3E5
:10460000A2F10C05042DA3600CD304F11000103AA4
:10461000E360032A0446E9D807E000BF04F108007C
:1046200002E000BF04F10C002A4622B1CBB21146D1
:104630001A46FBF722FF304670BD000010B5044655
:1046400000202072FBF7C4FD54F80C1F62684A601A
:1046500062681160C4E90044BDE81040FBF7BCBDCE
:1046600040F20C02C2F200021178814211460AD0D7
:10467000114611F8103F834205D012F8201F8142E5
:1046800018BF00221146084670470000F0B581B0FF
:104690000E4640F20C01C2F2000115460A780446AB
:1046A000B2420F460AD00F4617F8100FB04205D09D
:1046B00011F8200FB04218BF00210F46FFF7AEFBE4
:1046C000043738460068B84208D00068B84205D0C0
:1046D0000068B84202D00068B842F3D1FFF7ACFBE3
:1046E00046F08000207220462946082200F026F974
:1046F000FBF76EFD396844F80C1F4C603C60676046
:1047000001B0BDE8F040FBF767BD0000007AC009CA
:1047100070470000B0B5FBF75BFD40F2A005C2F2A8
:1047200000056988044629B12046BDE8B040FBF782
:1047300053BD00BFA868FDF741FD40F6F8410138C0
:10474000C2F2000151F830106A68A1F114039342DB
:10475000EAD0287040F670406B60C2F20000037827
:1047600002F11C0001F1080133B1FBF738FD2046CE
:10477000BDE8B040FBF730BDFBF731FD2046BDE89A
:10478000B040FBF729BD000010B50446FBF720FD43
:1047900094F8341094F8352001F0F001013184F8D8
:1047A000341040F6F841C2F2000101EBC2014A6840
:1047B00040F2A00C04F11403C2F2000C1360A261D9
:1047C0004B60A26BDCF80830616143EA0201CCF86F
:1047D0000810BDE81040FBF7FFBC0000B0B505466F
:1047E000FBF7F6FC294651F8142F4B6853604B68D1
:1047F00049601A6091F8212040F6F8430960C2F23E
:10480000000353F8324003EBC202944204D0BDE8E7
:10481000B040FBF7E1BC00BF40F2A002C2F20002D0
:10482000A96B936823EA01019160BDE8B040FBF7F2
:10483000D3BC000070B515460A4602211C46064648
:10484000FFF724FF06F11400C6E905000020B58338
:10485000747270BD80B582B00AA0FFF7E3FD0CA0B2
:10486000FFF7E0FD0FF24C0C15A0032101220523F8
:10487000CDF800C0FFF7D6FD19A002B0BDE880401A
:10488000FFF7D0BD0A205C207C202F0A000000002A
:104890002D205254202D2020202020546872656144
:1048A00064204F7065726174696E67205379737408
:1048B000656D0A00446563203131203230323300A7
:1048C000202F207C205C202020202025642E2564A1
:1048D0002E2564206275696C642025730A0000002F
:1048E0002032303036202D203230323020436F706D
:1048F0007972696768742062792072742D746872A5
:10490000656164207465616D0A000000014600BFA6
:104910000A7862B14A784AB18A785AB1CA780431C1
:10492000002AF5D10139081A704700BF0131081A71
:10493000704700BF0231081A704700002DE9F041AE
:104940008046DAB3C2F1000C00234446CF5C08F87D
:104950000370DFB10CEB0306771C2FD2CF187878E9
:1049600008EB03056870A8B1B01C27D0B878A87010
:10497000B0B1F01C22D0F878E870D8B10433043418
:104980001CEB0300A2F10402E0D117E0601C511EF1
:104990000AD113E0A01C013A511E05D10EE000BF60
:1049A000E01C023A511E09D0FBF76FFD4046BDE8FE
:1049B000F08100BF033A281D511EF5D14046BDE8E5
:1049C000F081000010B540F6F842C2F2000202F198
:1049D0001800C2E9060002F1200002F1080302F10A
:1049E0001001C2E9080002F14000C2E90233C2E945
:1049F000041102F1280102F1300302F13804C2E986
:104A0000100002F16000C2E90A11C2E90C33C2E9E8
:104A10000E4402F1480102F1500302F15804C2E9C8
:104A2000180002F18000C2E91211C2E91433C2E990
:104A3000164402F1680102F1700302F17804C2E940
:104A4000200002F1A000C2E91A11C2E91C33C2E938
:104A50001E4402F1880102F1900302F19804C2E9B8
:104A6000280002F1C00040F2A00EC2E92211C2E902
:104A70002433C2E9264402F1A80102F1B00302F195
:104A8000B804C2E9300002F1E000C2F2000EC2E94F
:104A90002A11C2E92C33C2E92E4402F1C80102F105
:104AA000D00302F1D804C2E938001F204FF0000CF7
:104AB000C2E93211C2E93433C2E9364402F1E801F5
:104AC00002F1F00302F1F8048EF800000EF10C0080
:104AD000AEF802C0C2E90022C2E93A11C2E93C3391
:104AE000C2E93E44CEE901CCCEE9030010BD00008E
:104AF00010B540F2A004C2F20004A068FDF75EFB0E
:104B000040F6F841C2F2000101EBC00050F8080C79
:104B1000A0F1140108306160BDE81040FBF78DBBC7
:104B200040F2B400C2F20000011DC0E9011170475B
:104B30007047000070B540F2A400C2F200000568A2
:104B4000FBF746FB0446FBF743FB296F064609B11A
:104B5000284688473046FBF73FFB2846FFF73EFED6
:104B6000042085F8340005F1440000F081FA28465D
:104B7000FFF7CCFD012809D12846FFF75FFDFFF7BD
:104B8000C9FD2046BDE87040FBF726BB40F2AC00F3
:104B9000C2F20000016845F8141F4D6005606860AE
:104BA000FFF7B8FD2046BDE87040FBF715BB0000DD
:104BB000FEE7000010B584B040F6F8528021C2F242
:104BC000000240F274741F20CDE90021C2F20004FB
:104BD00044F6B1324FF0200C029007A1C0F600025B
:104BE00020460023CDF80CC000F00AF8204604B09F
:104BF000BDE8104000F096B87469646C6500000070
:104C00002DE9F04782B00DF1280A16460A46DDF874
:104C100034909AE8800501211D460446FFF736FDD1
:104C200004F11400C4E90500384623214246C4E9D2
:104C30000865C4E90A78FFF785FC04F120030FCB6F
:104C40001A4444F63533043AC0F60003FFF7B0FBCC
:104C500044F68152E061002704F14400C0F60002EE
:104C60002146234684F836A084F835A0C4E90E799D
:104C7000C4F84090276384F83470C4E91C77009727
:104C8000019700F00DFA002002B0BDE8F0870000A7
:104C900080B500F0BBF800F009F8002080BD0000EE
:104CA00040F2A400C2F2000000687047F0B581B085
:104CB0000090FBF78DFA40F2A401C2F200010C68EB
:104CC000054694F8341001F00F01012913D1FBF7C8
:104CD0007FFA06462046FFF781FD94F8340000F085
:104CE000F000023084F8340004F1440000F05CFA73
:104CF0003046FBF771FA04F144066A46304600215B
:104D0000002700F081F9304600F0E4F92846FBF76F
:104D100063FAFFF7FFFC206B023008BF2763002017
:104D200001B0F0BDB0B5044690F83600012184F81A
:104D3000350001FA00F0A063022084F83400FBF78C
:104D400047FA2246A16952F8143F05465960A16905
:104D500004F144000B60A261126000F025FA2846BD
:104D6000FBF73AFA2046FFF70FFD40F2A400C2F22B
:104D700000000068002818BFFFF7CCFC0020B0BD81
:104D800080B50246816952F8143F6FF0010C5960FA
:104D90008169C0F830C00B6082611260FFF7F4FCDB
:104DA000BDE88040FFF7B6BC10B5FBF711FA40F242
:104DB000A401C2F20001096891F8342002F00F0248
:104DC000012A1FD10A4652F814CF53689C4519D0C6
:104DD000CCF8043091F835E040F6F843C2F2000315
:104DE00003EBCE03D1F818E08A615C68CEF800C00E
:104DF00022608C615A604B61FBF7EEF9FFF78AFC89
:104E0000002010BDFBF7E8F9002010BD002844BFCA
:104E10004FF0FF30704744F6D351C1F26201A0FB5E
:104E200001239A094FF47A7302FB1300584300F2EE
:104E3000E730A0FB010102FB03F000EB911070478B
:104E400040F67C60C2F200000068704780B540F612
:104E50007C60C2F20000016801310160FFF720FFB1
:104E6000016C0139016403D0BDE8804000F008B84E
:104E7000C16B0164FFF798FFBDE88040AFF300808D
:104E80002DE9F04F85B003AFCDE90377FFF7D8FFE9
:104E90000546FBF79DF940F2B404C2F20004214636
:104EA00051F8048F0190884500F0A8804FF6FE79F4
:104EB000C7F6FF79201D6FF0004B02901CE000BF89
:104EC0000E6808462168C6F804800131216018F890
:104ED0000B1CC8F80060C0F80080C8F8040041F05E
:104EE000010008F80B0C5046FBF776F9204650F805
:104EF000048F804500F08280D8F81400281A4845B5
:104F00007CD8D8E900104860D8F8042018F80B0CB9
:104F100011608107C8F800805CBF00F0FE0008F84F
:104F20000B0C0398C0F80480C8F80000D8E9021000
:104F3000CDF80C80C8F804708847FFF781FF03990B
:104F40000546B942D2D0D8E900014160D8F8041032
:104F5000C8F80480086018F80B0CC8F8008000F04E
:104F600003010329C2D100F0FE0008F80B0CFBF787
:104F70002FF9D8E9001282464A6018F80B0CD8F8CD
:104F8000042000F0FE001160C8F80080C8F804801A
:104F900008F80B0CFFF754FFD8F81010029B0A1802
:104FA000A168C8F814208B428AD018684669B61ADE
:104FB00001D05E451CD388423FF482AF03685E692E
:104FC000B61A01D05E4517D38B423FF479AF18680B
:104FD0004669B61A01D05E450AD388423FF470AFE5
:104FE00003685E69B61ADED04E451E46DBD869E717
:104FF0000646184666E700BF1E4663E70198FBF7C2
:10500000EBF805B0BDE8F08F70B514460E460546C6
:10501000FBF7DEF8042E07D8DFE806F0040A1018C4
:10502000200000BF21686962FBF7D6F8002070BD40
:10503000696A2160FBF7D0F8002070BD697A01F041
:10504000FD016972FBF7C8F8002070BD697A41F074
:1050500002016972FBF7C0F8002070BD697AC907C8
:105060000CBF002101212160FBF7B6F8002070BDC4
:1050700010B50446FBF7ACF82246A16952F8143F7C
:105080005960A169A2610B60617A126001F0FE01B2
:105090006172FBF7A1F82046FFF7D0FA002010BD9F
:1050A0002DE9F04115460A46DDE906870A211C462E
:1050B0000646FFF7EBFA07F0FE007072002006F1DB
:1050C0001401C6E90511C6E90754C6E90980BDE81F
:1050D000F08100002DE9F0410446FBF779F82646FF
:1050E00056F8141F8046726816F80B0C4A607268F6
:1050F00000F0FE0011603660766006F80B0CFFF7DA
:105100009FFE40F2B40E3169C2F2000EDEF80830A4
:105110004FF6FE7C0A180EF104076FF00045C7F643
:10512000FF7C72619F421FD039684869801A01D0A4
:10513000A8421DD3994217D00F687869801A01D010
:10514000A84219D39F420FD039684869801A01D00C
:10515000A84213D3994207D00F687869801AE1D02A
:1051600060453846DED80BE01868194608E000BFF5
:105170000846394604E000BF384601E00846394693
:1051800046606061607ADEF8002040F00100013284
:1051900060724046CEF800200E60A161FBF71CF85B
:1051A0000020BDE8F081000010B50446407AC00739
:1051B00004BF4FF0FF3010BDFBF70AF854F8141F7E
:1051C00062684A6062686460116014F80B1C2460B5
:1051D00001F0FE0104F80B1CFAF7FEFF002010BDE1
:1051E0002DE9F04F85B09B46144600EB010A4FF0C5
:1051F00020090391002948BF4FF0FF3A049002E0D4
:10520000411C013408462178252907D0002900F0E7
:10521000CB83504538BF0170F2E700BF0234002154
:1052200014F8012CA2F12007102F00F26D8010233A
:10523000DFE807F00A6A6A0C6A6A6A6A6A6A6A0ED2
:105240006A126A6A100000BF082305E0202303E009
:10525000042301E0012300BF22781943A2F12007B3
:10526000102F00F28D801023DFE807F00A8A8A0CE5
:105270008A8A8A8A8A8A8A0E8A128A8A100000BFDB
:10528000082305E0202303E0042301E0012300BFFD
:1052900062781943A2F12007102F00F297801023A3
:1052A000DFE807F00A94940C949494949494940EE8
:1052B00094129494100000BF082305E0202303E01B
:1052C000042301E0012300BFA2781943A2F12007C3
:1052D000102F00F283801023DFE807F01080801287
:1052E000808080808080800E800A8080140000BFD3
:1052F0001943043494E700BF0423F9E70823F7E7D0
:105300002023F5E70123F3E7A31E013CA2F13007B8
:10531000092F3AD80234002606EB860302EB43033A
:1053200014F8012CA3F13006A2F13007092F5DD843
:1053300006EB860302EB43032278A3F13006A2F1C9
:105340003007092F54D806EB860302EB430362783B
:10535000A3F13006A2F13007092F00F28D8006EB91
:10536000860302EB4303A278A3F13006A2F13003D7
:105370000A2B04F10404CFD3023C2E2A3AD018E0C1
:10538000631EA2F13007092FC4D92A2A0CD15BF879
:10539000046B9C1CB6F1FF3FDCBF764241F010016C
:1053A00022782E2A26D004E022784FF0FF362E2ACB
:1053B00020D04FF0FF3E42F004036C2B6CD094469B
:1053C0000022ACF12505532D6DD9D5E023460134DB
:1053D000A2F13007092FD8D89CE700BF631C023424
:1053E000A2F13007092F95D9CFE700BF013C00BFDC
:1053F0002E2ADED1234613F8012FA2F13007092F00
:105400002ED8A31C002700BF07EB870702EB470736
:105410001A78303FA2F13005092D35D807EB870700
:1054200002EB47075A78303FA2F13005092D27D803
:1054300007EB870702EB47079A78303FA2F1300568
:10544000092D1FD807EB870702EB4707DA78303FB3
:10545000A2F130050A2D03F10403D5D3013B13E07B
:105460002A2A05D114F8022F5BF8047B23460BE0AF
:105470004FF0FF3708E000BF01342E2ABAD098E77A
:10548000013301E0023300BF27EAE77E1C4642F009
:1054900004036C2B7FF493AF14F801CFACF1250516
:1054A000532D00F269800A23DFE815F054006600EE
:1054B00066006600660066006600660066006600BC
:1054C00066006600660066006600660066006600AC
:1054D000660066006600660066006600660066009C
:1054E000660066006600660066006600660066008C
:1054F000660066006600660066006600660066007C
:10550000660066006600660066006600660066006B
:105510006600780066006600660066006600660049
:1055200066006600660066008C005A006600660031
:10553000660066005A006600660066006600660047
:10554000A800AC0066006600BE0066007B00660036
:1055500066007A0050453CBF2521017050E600BF2F
:1055600041F002010A23682A1DD1BBF800208F07F1
:1055700048BF12B21AE000BF504503D22521017086
:1055800094F800C0BCF1000F00F101017AD0514540
:1055900038BF81F800C0811C33E600BF41F04001F4
:1055A0001023682AE1D06C2ADBF800200BF1040BF1
:1055B000CFB25146CDE9006E0297FEF795F901464C
:1055C0001FE600BFC9065BD4022EA6F10103C0F29C
:1055D000818013F00307A6F1020200F0DB80504542
:1055E00038BF80F80090012F00F1010140F0DE800B
:1055F0001346032A80F004811EE100BF0823682AB5
:10560000D1D1B2E7721CB2FA82F24FEA521241EAE9
:10561000020108BF08265BF8042BCFB2CDE9006E6B
:1056200051461023C8E700BF5BF8048B0FF29C3291
:10563000B8F1000F08BF904636B3C6F1000C002247
:1056400018F802300BB30CEB02035D1C15D008EB0D
:1056500002077D78002D00F0B5809D1C0DD0BD782F
:10566000002D00F0B180033307D0FB78002B00F051
:10567000BD8004321CEB0203E2D1324605E000BFDC
:105680000146DAE0013CBCE5002272459446C8BF01
:10569000F446BEF1000FD8BF9446C9061FD4664534
:1056A000A6F101021ADDA6EB0C0111F0030775D07B
:1056B000504538BF80F80090012F00F1010140F003
:1056C0008580B21E6FEA0C003044032880F0FD8014
:1056D00016E100BF01461E46AFE000BF1646BCF112
:1056E000010FC0F21481ACF10101032904D21CF0B6
:1056F000030234D10CE100BF2CF00302002102E0D0
:1057000004318A4224D0471857453CBF18F801306D
:105710003B707B1C53450BD208EB01056D781D7067
:10572000BB1C534507D3FB1C5345E9D20AE000BF1D
:10573000BB1C5345F7D208EB0105AD781D70FB1C6F
:105740005345DDD208EB0107FF781F70D8E700BF93
:105750008844014408461CF0030200F0D9805045FB
:105760003CBF98F800100170012A00F1010100F01F
:10577000CF8051453CBF98F801300B70022A00F1F0
:10578000020100F0C58051453CBF98F802200A7024
:10579000C11CBDE00146032A32D24DE001466FEA4A
:1057A0000C003044032880F09080A9E0514538BFB8
:1057B00081F80090022F00F1020119D1F31E032A93
:1057C0001ED239E0013260E702325EE7514538BF50
:1057D00081F80090022F00F102016BD1F21E6FEAF6
:1057E0000C003044032870D28AE000BF03324CE73B
:1057F000514538BF81F80090C11C331F032A1BD3C9
:10580000181D00BF514501F1010238BF81F8009019
:10581000524538BF82F800908A1C524538BF82F842
:105820000090CA1C5245A0F1040038BF82F80090D5
:10583000042801F10401E5DC002651453CBFDBF8FA
:1058400000000870022E0BF1040B2FDB043100BFA7
:10585000C81E504538BF80F80090032EA1F1020009
:10586000FFF4ADAE504538BF80F80090301F10F106
:10587000040FA1F1010277D85245A0F1010038BF11
:1058800082F8009010F1040F3FF6BBAC5145A0F137
:10589000010238BF81F80090043112F1030F00F1CA
:1058A0000106D5D30339FFF7ACBC00BF0131FFF7C8
:1058B000A8BC00BF514538BF81F80090C11C321F01
:1058C0006FEA0C00304403281AD3501C514501F1F3
:1058D000010238BF81F80090524538BF82F800902D
:1058E0008A1C524538BF82F80090CA1C5245A0F16C
:1058F000040038BF82F80090844501F10401E5DB23
:10590000ACF101060846BCF1010FBFF6ECAE014652
:1059100066457FF776ACA6EB0C0010F0030009D0CB
:10592000514538BF81F80090012801F1010205D1ED
:10593000701E13E030460A4610E000BF524538BFE3
:1059400082F80090022801F1020201D1B01E05E0A8
:10595000524538BF82F80090F01ECA1C6FEA0C0155
:1059600031440329114603D21146FFF74ABC00BF58
:10597000514501F1010238BF81F80090524538BF0E
:1059800082F800908A1C524538BF82F80090CA1CE9
:105990005245A0F1040038BF82F80090844501F11F
:1059A0000401E5DBFFF72DBC0399049B002948BFE8
:1059B000D94331B101460022504528BFAAF1010167
:1059C0000A70C01A05B0BDE8F08F00BF284E554CD4
:1059D0004C290000002070470020704700207047CD
:1059E0000020704780B540F2D40044F20041C2F27A
:1059F0000000C4F2000100234FF00C0C4FF4E13220
:105A000080E80E00C0E90333C0E905C3C361FBF7BA
:105A10002DFF08B1FEE700BF002080BD80B5FEF776
:105A200019FF002080BD00000000000000000102FE
:105A30000304060708090000000001020304010234
:105A4000000001000200010003000100020001004B
:105A50000400010002000100030001000200010037
:105A60000500010002000100030001000200010026
:105A70000400010002000100030001000200010017
:105A80000600010002000100030001000200010005
:105A900004000100020001000300010002000100F7
:105AA00005000100020001000300010002000100E6
:105AB00004000100020001000300010002000100D7
:105AC00007000100020001000300010002000100C4
:105AD00004000100020001000300010002000100B7
